{
    "abi": [
        {
            "type": "constructor",
            "inputs": [
                {
                    "name": "_poolsNFT",
                    "type": "address",
                    "internalType": "address"
                }
            ],
            "stateMutability": "nonpayable"
        },
        {
            "type": "receive",
            "stateMutability": "payable"
        },
        {
            "type": "function",
            "name": "batchGrind",
            "inputs": [
                {
                    "name": "poolIds",
                    "type": "uint256[]",
                    "internalType": "uint256[]"
                }
            ],
            "outputs": [],
            "stateMutability": "nonpayable"
        },
        {
            "type": "function",
            "name": "batchGrindOp",
            "inputs": [
                {
                    "name": "poolIds",
                    "type": "uint256[]",
                    "internalType": "uint256[]"
                },
                {
                    "name": "ops",
                    "type": "uint8[]",
                    "internalType": "uint8[]"
                }
            ],
            "outputs": [],
            "stateMutability": "nonpayable"
        },
        {
            "type": "function",
            "name": "execute",
            "inputs": [
                {
                    "name": "target",
                    "type": "address",
                    "internalType": "address"
                },
                {
                    "name": "value",
                    "type": "uint256",
                    "internalType": "uint256"
                },
                {
                    "name": "data",
                    "type": "bytes",
                    "internalType": "bytes"
                }
            ],
            "outputs": [],
            "stateMutability": "nonpayable"
        },
        {
            "type": "function",
            "name": "grind",
            "inputs": [
                {
                    "name": "poolId",
                    "type": "uint256",
                    "internalType": "uint256"
                }
            ],
            "outputs": [
                {
                    "name": "",
                    "type": "bool",
                    "internalType": "bool"
                }
            ],
            "stateMutability": "nonpayable"
        },
        {
            "type": "function",
            "name": "isAgent",
            "inputs": [
                {
                    "name": "account",
                    "type": "address",
                    "internalType": "address"
                }
            ],
            "outputs": [
                {
                    "name": "",
                    "type": "bool",
                    "internalType": "bool"
                }
            ],
            "stateMutability": "view"
        },
        {
            "type": "function",
            "name": "mint",
            "inputs": [
                {
                    "name": "strategyId",
                    "type": "uint16",
                    "internalType": "uint16"
                },
                {
                    "name": "quoteToken",
                    "type": "address",
                    "internalType": "address"
                },
                {
                    "name": "baseToken",
                    "type": "address",
                    "internalType": "address"
                },
                {
                    "name": "quoteTokenAmounts",
                    "type": "uint256[]",
                    "internalType": "uint256[]"
                }
            ],
            "outputs": [
                {
                    "name": "poolIds",
                    "type": "uint256[]",
                    "internalType": "uint256[]"
                }
            ],
            "stateMutability": "nonpayable"
        },
        {
            "type": "function",
            "name": "mintTo",
            "inputs": [
                {
                    "name": "receiver",
                    "type": "address",
                    "internalType": "address"
                },
                {
                    "name": "strategyId",
                    "type": "uint16",
                    "internalType": "uint16"
                },
                {
                    "name": "baseToken",
                    "type": "address",
                    "internalType": "address"
                },
                {
                    "name": "quoteToken",
                    "type": "address",
                    "internalType": "address"
                },
                {
                    "name": "quoteTokenAmounts",
                    "type": "uint256[]",
                    "internalType": "uint256[]"
                }
            ],
            "outputs": [
                {
                    "name": "poolIds",
                    "type": "uint256[]",
                    "internalType": "uint256[]"
                }
            ],
            "stateMutability": "nonpayable"
        },
        {
            "type": "function",
            "name": "owner",
            "inputs": [],
            "outputs": [
                {
                    "name": "",
                    "type": "address",
                    "internalType": "address"
                }
            ],
            "stateMutability": "view"
        },
        {
            "type": "function",
            "name": "poolsNFT",
            "inputs": [],
            "outputs": [
                {
                    "name": "",
                    "type": "address",
                    "internalType": "contract IPoolsNFT"
                }
            ],
            "stateMutability": "view"
        },
        {
            "type": "function",
            "name": "setAgent",
            "inputs": [
                {
                    "name": "_agent",
                    "type": "address",
                    "internalType": "address"
                },
                {
                    "name": "_isAgent",
                    "type": "bool",
                    "internalType": "bool"
                }
            ],
            "outputs": [],
            "stateMutability": "nonpayable"
        },
        {
            "type": "function",
            "name": "setExtraCoef",
            "inputs": [
                {
                    "name": "poolId",
                    "type": "uint256",
                    "internalType": "uint256"
                },
                {
                    "name": "extraCoef",
                    "type": "uint256",
                    "internalType": "uint256"
                }
            ],
            "outputs": [],
            "stateMutability": "nonpayable"
        },
        {
            "type": "function",
            "name": "setHedgeNumberMax",
            "inputs": [
                {
                    "name": "poolId",
                    "type": "uint256",
                    "internalType": "uint256"
                },
                {
                    "name": "hedgeNumberMax",
                    "type": "uint8",
                    "internalType": "uint8"
                }
            ],
            "outputs": [],
            "stateMutability": "nonpayable"
        },
        {
            "type": "function",
            "name": "setLongNumberMax",
            "inputs": [
                {
                    "name": "poolId",
                    "type": "uint256",
                    "internalType": "uint256"
                },
                {
                    "name": "longNumberMax",
                    "type": "uint8",
                    "internalType": "uint8"
                }
            ],
            "outputs": [],
            "stateMutability": "nonpayable"
        },
        {
            "type": "function",
            "name": "setOpFeeCoef",
            "inputs": [
                {
                    "name": "poolId",
                    "type": "uint256",
                    "internalType": "uint256"
                },
                {
                    "name": "op",
                    "type": "uint8",
                    "internalType": "uint8"
                },
                {
                    "name": "feeCoef",
                    "type": "uint256",
                    "internalType": "uint256"
                }
            ],
            "outputs": [],
            "stateMutability": "nonpayable"
        },
        {
            "type": "function",
            "name": "setOpReturnPercent",
            "inputs": [
                {
                    "name": "poolId",
                    "type": "uint256",
                    "internalType": "uint256"
                },
                {
                    "name": "op",
                    "type": "uint8",
                    "internalType": "uint8"
                },
                {
                    "name": "returnPercent",
                    "type": "uint256",
                    "internalType": "uint256"
                }
            ],
            "outputs": [],
            "stateMutability": "nonpayable"
        },
        {
            "type": "function",
            "name": "setPriceVolatilityPercent",
            "inputs": [
                {
                    "name": "poolId",
                    "type": "uint256",
                    "internalType": "uint256"
                },
                {
                    "name": "priceVolatilityPercent",
                    "type": "uint256",
                    "internalType": "uint256"
                }
            ],
            "outputs": [],
            "stateMutability": "nonpayable"
        },
        {
            "type": "function",
            "name": "version",
            "inputs": [],
            "outputs": [
                {
                    "name": "",
                    "type": "uint256",
                    "internalType": "uint256"
                }
            ],
            "stateMutability": "pure"
        },
        {
            "type": "error",
            "name": "InvalidLength",
            "inputs": []
        },
        {
            "type": "error",
            "name": "NotAgent",
            "inputs": []
        },
        {
            "type": "error",
            "name": "NotOwner",
            "inputs": []
        }
    ],
    "bytecode": {
        "object": "0x608060405234801561000f575f5ffd5b5060405161140338038061140383398101604081905261002e91610143565b6001600160a01b038116610052575f80546001600160a01b0319163317905561006d565b5f80546001600160a01b0319166001600160a01b0383161790555b6001805f6100796100a6565b6001600160a01b0316815260208101919091526040015f20805460ff191691151591909117905550610165565b5f5f5f9054906101000a90046001600160a01b03166001600160a01b0316638da5cb5b6040518163ffffffff1660e01b8152600401602060405180830381865afa925050508015610114575060408051601f3d908101601f1916820190925261011191810190610143565b60015b61012757505f546001600160a01b031690565b919050565b6001600160a01b0381168114610140575f5ffd5b50565b5f60208284031215610153575f5ffd5b815161015e8161012c565b9392505050565b611291806101725f395ff3fe6080604052600436106100fd575f3560e01c80635e781f881161009257806397d8c6761161006257806397d8c6761461030e578063b61d27f61461032d578063be38adfa1461034c578063fd98307a1461036b578063ff3fb0c81461038a575f5ffd5b80635e781f881461029d57806385285bc9146102bc5780638da5cb5b146102db57806396a953f2146102ef575f5ffd5b806332108f1f116100cd57806332108f1f1461020f57806335fc49dc1461022e57806354fd4d501461024d57806355260ae414610267575f5ffd5b806309dbb6ea146101625780631ffbb0641461019657806329b5fb64146101c45780632d94dbf5146101f0575f5ffd5b3661015e57341561015c575f80546040516001600160a01b039091169034908381818185875af1925050503d805f8114610152576040519150601f19603f3d011682016040523d82523d5f602084013e610157565b606091505b505050505b005b5f5ffd5b34801561016d575f5ffd5b5061018161017c366004610d38565b6103a9565b60405190151581526020015b60405180910390f35b3480156101a1575f5ffd5b506101816101b0366004610d66565b60016020525f908152604090205460ff1681565b3480156101cf575f5ffd5b506101e36101de366004610e64565b610435565b60405161018d9190610ed3565b3480156101fb575f5ffd5b506101e361020a366004610f15565b61044d565b34801561021a575f5ffd5b5061015c610229366004610f96565b61059f565b348015610239575f5ffd5b5061015c610248366004610fc6565b61066f565b348015610258575f5ffd5b506040515f815260200161018d565b348015610272575f5ffd5b505f54610285906001600160a01b031681565b6040516001600160a01b03909116815260200161018d565b3480156102a8575f5ffd5b5061015c6102b736600461108b565b61077c565b3480156102c7575f5ffd5b5061015c6102d6366004610f96565b610854565b3480156102e6575f5ffd5b506102856108f3565b3480156102fa575f5ffd5b5061015c61030936600461108b565b610979565b348015610319575f5ffd5b5061015c6103283660046110cb565b610a23565b348015610338575f5ffd5b5061015c610347366004611102565b610a55565b348015610357575f5ffd5b5061015c610366366004611187565b610ac2565b348015610376575f5ffd5b5061015c610385366004611187565b610b65565b348015610395575f5ffd5b5061015c6103a43660046111b1565b610c08565b5f5f6103b36108f3565b5f5460405163b2d5cca760e01b8152600481018690526001600160a01b03808416602483015292935091169063b2d5cca7906044016020604051808303815f875af1925050508015610422575060408051601f3d908101601f1916820190925261041f918101906111eb565b60015b61042e57505f92915050565b9392505050565b6060610444338686868661044d565b95945050505050565b80516060908067ffffffffffffffff81111561046b5761046b610d92565b604051908082528060200260200182016040528015610494578160200160208202803683370190505b5091505f5b81811015610594575f5f9054906101000a90046001600160a01b03166001600160a01b031663592ae17f898989898987815181106104d9576104d9611206565b60209081029190910101516040516001600160e01b031960e088901b1681526001600160a01b03958616600482015261ffff90941660248501529184166044840152929092166064820152608481019190915260a4016020604051808303815f875af115801561054b573d5f5f3e3d5ffd5b505050506040513d601f19601f8201168201806040525081019061056f919061121a565b83828151811061058157610581611206565b6020908102919091010152600101610499565b505095945050505050565b6105a7610cce565b5f546040516315895f4760e31b8152600481018490526001600160a01b039091169063ac4afa3890602401602060405180830381865afa1580156105ed573d5f5f3e3d5ffd5b505050506040513d601f19601f820116820180604052508101906106119190611231565b6001600160a01b031663b58d0f1a826040518263ffffffff1660e01b815260040161063e91815260200190565b5f604051808303815f87803b158015610655575f5ffd5b505af1158015610667573d5f5f3e3d5ffd5b505050505050565b80518251146106915760405163251f56a160e21b815260040160405180910390fd5b5f61069a6108f3565b83519091505f5b81811015610775575f5485516001600160a01b039091169063c0b7b578908790849081106106d1576106d1611206565b60200260200101518684815181106106eb576106eb611206565b60209081029190910101516040516001600160e01b031960e085901b168152600481019290925260ff1660248201526001600160a01b03861660448201526064016020604051808303815f875af1925050508015610766575060408051601f3d908101601f19168201909252610763918101906111eb565b60015b1561076d57505b6001016106a1565b5050505050565b610784610cce565b5f546040516315895f4760e31b8152600481018590526001600160a01b039091169063ac4afa3890602401602060405180830381865afa1580156107ca573d5f5f3e3d5ffd5b505050506040513d601f19601f820116820180604052508101906107ee9190611231565b604051632c3a1fbf60e01b815260ff84166004820152602481018390526001600160a01b039190911690632c3a1fbf906044015b5f604051808303815f87803b158015610839575f5ffd5b505af115801561084b573d5f5f3e3d5ffd5b50505050505050565b61085c610cce565b5f546040516315895f4760e31b8152600481018490526001600160a01b039091169063ac4afa3890602401602060405180830381865afa1580156108a2573d5f5f3e3d5ffd5b505050506040513d601f19601f820116820180604052508101906108c69190611231565b6001600160a01b031663c387f456826040518263ffffffff1660e01b815260040161063e91815260200190565b5f5f5f9054906101000a90046001600160a01b03166001600160a01b0316638da5cb5b6040518163ffffffff1660e01b8152600401602060405180830381865afa925050508015610961575060408051601f3d908101601f1916820190925261095e91810190611231565b60015b61097457505f546001600160a01b031690565b919050565b610981610cce565b5f546040516315895f4760e31b8152600481018590526001600160a01b039091169063ac4afa3890602401602060405180830381865afa1580156109c7573d5f5f3e3d5ffd5b505050506040513d601f19601f820116820180604052508101906109eb9190611231565b6040516355f91d9f60e11b815260ff84166004820152602481018390526001600160a01b03919091169063abf23b3e90604401610822565b610a2b610cff565b6001600160a01b03919091165f908152600160205260409020805460ff1916911515919091179055565b610a5d610cce565b5f846001600160a01b0316848484604051610a7992919061124c565b5f6040518083038185875af1925050503d805f8114610ab3576040519150601f19603f3d011682016040523d82523d5f602084013e610ab8565b606091505b5050505050505050565b610aca610cce565b5f546040516315895f4760e31b8152600481018490526001600160a01b039091169063ac4afa3890602401602060405180830381865afa158015610b10573d5f5f3e3d5ffd5b505050506040513d601f19601f82011682018060405250810190610b349190611231565b604051637bc7abaf60e11b815260ff831660048201526001600160a01b03919091169063f78f575e9060240161063e565b610b6d610cce565b5f546040516315895f4760e31b8152600481018490526001600160a01b039091169063ac4afa3890602401602060405180830381865afa158015610bb3573d5f5f3e3d5ffd5b505050506040513d601f19601f82011682018060405250810190610bd79190611231565b60405163fd2a749560e01b815260ff831660048201526001600160a01b03919091169063fd2a74959060240161063e565b80515f610c136108f3565b90505f5b82811015610cc8575f5484516001600160a01b039091169063b2d5cca790869084908110610c4757610c47611206565b6020026020010151846040518363ffffffff1660e01b8152600401610c7f9291909182526001600160a01b0316602082015260400190565b6020604051808303815f875af1925050508015610cb9575060408051601f3d908101601f19168201909252610cb6918101906111eb565b60015b15610cc057505b600101610c17565b50505050565b335f9081526001602052604090205460ff16610cfd57604051630d9ab13f60e01b815260040160405180910390fd5b565b610d076108f3565b6001600160a01b0316336001600160a01b031614610cfd576040516330cd747160e01b815260040160405180910390fd5b5f60208284031215610d48575f5ffd5b5035919050565b6001600160a01b0381168114610d63575f5ffd5b50565b5f60208284031215610d76575f5ffd5b813561042e81610d4f565b803561ffff81168114610974575f5ffd5b634e487b7160e01b5f52604160045260245ffd5b604051601f8201601f1916810167ffffffffffffffff81118282101715610dcf57610dcf610d92565b604052919050565b5f67ffffffffffffffff821115610df057610df0610d92565b5060051b60200190565b5f82601f830112610e09575f5ffd5b8135610e1c610e1782610dd7565b610da6565b8082825260208201915060208360051b860101925085831115610e3d575f5ffd5b602085015b83811015610e5a578035835260209283019201610e42565b5095945050505050565b5f5f5f5f60808587031215610e77575f5ffd5b610e8085610d81565b93506020850135610e9081610d4f565b92506040850135610ea081610d4f565b9150606085013567ffffffffffffffff811115610ebb575f5ffd5b610ec787828801610dfa565b91505092959194509250565b602080825282518282018190525f918401906040840190835b81811015610f0a578351835260209384019390920191600101610eec565b509095945050505050565b5f5f5f5f5f60a08688031215610f29575f5ffd5b8535610f3481610d4f565b9450610f4260208701610d81565b93506040860135610f5281610d4f565b92506060860135610f6281610d4f565b9150608086013567ffffffffffffffff811115610f7d575f5ffd5b610f8988828901610dfa565b9150509295509295909350565b5f5f60408385031215610fa7575f5ffd5b50508035926020909101359150565b803560ff81168114610974575f5ffd5b5f5f60408385031215610fd7575f5ffd5b823567ffffffffffffffff811115610fed575f5ffd5b610ff985828601610dfa565b925050602083013567ffffffffffffffff811115611015575f5ffd5b8301601f81018513611025575f5ffd5b8035611033610e1782610dd7565b8082825260208201915060208360051b850101925087831115611054575f5ffd5b6020840193505b8284101561107d5761106c84610fb6565b82526020938401939091019061105b565b809450505050509250929050565b5f5f5f6060848603121561109d575f5ffd5b833592506110ad60208501610fb6565b929592945050506040919091013590565b8015158114610d63575f5ffd5b5f5f604083850312156110dc575f5ffd5b82356110e781610d4f565b915060208301356110f7816110be565b809150509250929050565b5f5f5f5f60608587031215611115575f5ffd5b843561112081610d4f565b935060208501359250604085013567ffffffffffffffff811115611142575f5ffd5b8501601f81018713611152575f5ffd5b803567ffffffffffffffff811115611168575f5ffd5b876020828401011115611179575f5ffd5b949793965060200194505050565b5f5f60408385031215611198575f5ffd5b823591506111a860208401610fb6565b90509250929050565b5f602082840312156111c1575f5ffd5b813567ffffffffffffffff8111156111d7575f5ffd5b6111e384828501610dfa565b949350505050565b5f602082840312156111fb575f5ffd5b815161042e816110be565b634e487b7160e01b5f52603260045260245ffd5b5f6020828403121561122a575f5ffd5b5051919050565b5f60208284031215611241575f5ffd5b815161042e81610d4f565b818382375f910190815291905056fea264697066735822122016f91aeca24615403e826ac2edcb113d29b20417273c7671dc5ae1454ee3fb9064736f6c634300081c0033",
        "linkReferences": {}
    },
    "methodIdentifiers": {
        "batchGrind(uint256[])": "ff3fb0c8",
        "batchGrindOp(uint256[],uint8[])": "35fc49dc",
        "execute(address,uint256,bytes)": "b61d27f6",
        "grind(uint256)": "09dbb6ea",
        "isAgent(address)": "1ffbb064",
        "mint(uint16,address,address,uint256[])": "29b5fb64",
        "mintTo(address,uint16,address,address,uint256[])": "2d94dbf5",
        "owner()": "8da5cb5b",
        "poolsNFT()": "55260ae4",
        "setAgent(address,bool)": "97d8c676",
        "setExtraCoef(uint256,uint256)": "32108f1f",
        "setHedgeNumberMax(uint256,uint8)": "be38adfa",
        "setLongNumberMax(uint256,uint8)": "fd98307a",
        "setOpFeeCoef(uint256,uint8,uint256)": "5e781f88",
        "setOpReturnPercent(uint256,uint8,uint256)": "96a953f2",
        "setPriceVolatilityPercent(uint256,uint256)": "85285bc9",
        "version()": "54fd4d50"
    },
    "id": 68
}