{
  "abi": [
    {
      "type": "constructor",
      "inputs": [
        {
          "name": "_poolsNFT",
          "type": "address",
          "internalType": "address"
        }
      ],
      "stateMutability": "nonpayable"
    },
    {
      "type": "receive",
      "stateMutability": "payable"
    },
    {
      "type": "function",
      "name": "batchGrind",
      "inputs": [
        {
          "name": "poolIds",
          "type": "uint256[]",
          "internalType": "uint256[]"
        }
      ],
      "outputs": [],
      "stateMutability": "nonpayable"
    },
    {
      "type": "function",
      "name": "batchGrindOp",
      "inputs": [
        {
          "name": "poolIds",
          "type": "uint256[]",
          "internalType": "uint256[]"
        },
        {
          "name": "ops",
          "type": "uint8[]",
          "internalType": "uint8[]"
        }
      ],
      "outputs": [],
      "stateMutability": "nonpayable"
    },
    {
      "type": "function",
      "name": "batchSetConfig",
      "inputs": [
        {
          "name": "poolIds",
          "type": "uint256[]",
          "internalType": "uint256[]"
        },
        {
          "name": "configs",
          "type": "tuple[]",
          "internalType": "struct IURUS.Config[]",
          "components": [
            {
              "name": "longNumberMax",
              "type": "uint8",
              "internalType": "uint8"
            },
            {
              "name": "hedgeNumberMax",
              "type": "uint8",
              "internalType": "uint8"
            },
            {
              "name": "extraCoef",
              "type": "uint256",
              "internalType": "uint256"
            },
            {
              "name": "priceVolatilityPercent",
              "type": "uint256",
              "internalType": "uint256"
            },
            {
              "name": "returnPercentLongSell",
              "type": "uint256",
              "internalType": "uint256"
            },
            {
              "name": "returnPercentHedgeSell",
              "type": "uint256",
              "internalType": "uint256"
            },
            {
              "name": "returnPercentHedgeRebuy",
              "type": "uint256",
              "internalType": "uint256"
            }
          ]
        }
      ],
      "outputs": [],
      "stateMutability": "nonpayable"
    },
    {
      "type": "function",
      "name": "execute",
      "inputs": [
        {
          "name": "target",
          "type": "address",
          "internalType": "address"
        },
        {
          "name": "value",
          "type": "uint256",
          "internalType": "uint256"
        },
        {
          "name": "data",
          "type": "bytes",
          "internalType": "bytes"
        }
      ],
      "outputs": [],
      "stateMutability": "nonpayable"
    },
    {
      "type": "function",
      "name": "grind",
      "inputs": [
        {
          "name": "poolId",
          "type": "uint256",
          "internalType": "uint256"
        }
      ],
      "outputs": [
        {
          "name": "",
          "type": "bool",
          "internalType": "bool"
        }
      ],
      "stateMutability": "nonpayable"
    },
    {
      "type": "function",
      "name": "isAgent",
      "inputs": [
        {
          "name": "account",
          "type": "address",
          "internalType": "address"
        }
      ],
      "outputs": [
        {
          "name": "",
          "type": "bool",
          "internalType": "bool"
        }
      ],
      "stateMutability": "view"
    },
    {
      "type": "function",
      "name": "mint",
      "inputs": [
        {
          "name": "strategyId",
          "type": "uint16",
          "internalType": "uint16"
        },
        {
          "name": "quoteToken",
          "type": "address",
          "internalType": "address"
        },
        {
          "name": "baseToken",
          "type": "address",
          "internalType": "address"
        },
        {
          "name": "quoteTokenAmounts",
          "type": "uint256[]",
          "internalType": "uint256[]"
        }
      ],
      "outputs": [
        {
          "name": "poolIds",
          "type": "uint256[]",
          "internalType": "uint256[]"
        }
      ],
      "stateMutability": "nonpayable"
    },
    {
      "type": "function",
      "name": "mintTo",
      "inputs": [
        {
          "name": "receiver",
          "type": "address",
          "internalType": "address"
        },
        {
          "name": "strategyId",
          "type": "uint16",
          "internalType": "uint16"
        },
        {
          "name": "baseToken",
          "type": "address",
          "internalType": "address"
        },
        {
          "name": "quoteToken",
          "type": "address",
          "internalType": "address"
        },
        {
          "name": "quoteTokenAmounts",
          "type": "uint256[]",
          "internalType": "uint256[]"
        }
      ],
      "outputs": [
        {
          "name": "poolIds",
          "type": "uint256[]",
          "internalType": "uint256[]"
        }
      ],
      "stateMutability": "nonpayable"
    },
    {
      "type": "function",
      "name": "owner",
      "inputs": [],
      "outputs": [
        {
          "name": "",
          "type": "address",
          "internalType": "address"
        }
      ],
      "stateMutability": "view"
    },
    {
      "type": "function",
      "name": "poolsNFT",
      "inputs": [],
      "outputs": [
        {
          "name": "",
          "type": "address",
          "internalType": "contract IPoolsNFT"
        }
      ],
      "stateMutability": "view"
    },
    {
      "type": "function",
      "name": "setAgent",
      "inputs": [
        {
          "name": "_agent",
          "type": "address",
          "internalType": "address"
        },
        {
          "name": "_isAgent",
          "type": "bool",
          "internalType": "bool"
        }
      ],
      "outputs": [],
      "stateMutability": "nonpayable"
    },
    {
      "type": "function",
      "name": "setConfig",
      "inputs": [
        {
          "name": "poolId",
          "type": "uint256",
          "internalType": "uint256"
        },
        {
          "name": "config",
          "type": "tuple",
          "internalType": "struct IURUS.Config",
          "components": [
            {
              "name": "longNumberMax",
              "type": "uint8",
              "internalType": "uint8"
            },
            {
              "name": "hedgeNumberMax",
              "type": "uint8",
              "internalType": "uint8"
            },
            {
              "name": "extraCoef",
              "type": "uint256",
              "internalType": "uint256"
            },
            {
              "name": "priceVolatilityPercent",
              "type": "uint256",
              "internalType": "uint256"
            },
            {
              "name": "returnPercentLongSell",
              "type": "uint256",
              "internalType": "uint256"
            },
            {
              "name": "returnPercentHedgeSell",
              "type": "uint256",
              "internalType": "uint256"
            },
            {
              "name": "returnPercentHedgeRebuy",
              "type": "uint256",
              "internalType": "uint256"
            }
          ]
        }
      ],
      "outputs": [],
      "stateMutability": "nonpayable"
    },
    {
      "type": "function",
      "name": "setExtraCoef",
      "inputs": [
        {
          "name": "poolId",
          "type": "uint256",
          "internalType": "uint256"
        },
        {
          "name": "extraCoef",
          "type": "uint256",
          "internalType": "uint256"
        }
      ],
      "outputs": [],
      "stateMutability": "nonpayable"
    },
    {
      "type": "function",
      "name": "setHedgeNumberMax",
      "inputs": [
        {
          "name": "poolId",
          "type": "uint256",
          "internalType": "uint256"
        },
        {
          "name": "hedgeNumberMax",
          "type": "uint8",
          "internalType": "uint8"
        }
      ],
      "outputs": [],
      "stateMutability": "nonpayable"
    },
    {
      "type": "function",
      "name": "setLongNumberMax",
      "inputs": [
        {
          "name": "poolId",
          "type": "uint256",
          "internalType": "uint256"
        },
        {
          "name": "longNumberMax",
          "type": "uint8",
          "internalType": "uint8"
        }
      ],
      "outputs": [],
      "stateMutability": "nonpayable"
    },
    {
      "type": "function",
      "name": "setOpFeeCoef",
      "inputs": [
        {
          "name": "poolId",
          "type": "uint256",
          "internalType": "uint256"
        },
        {
          "name": "op",
          "type": "uint8",
          "internalType": "uint8"
        },
        {
          "name": "feeCoef",
          "type": "uint256",
          "internalType": "uint256"
        }
      ],
      "outputs": [],
      "stateMutability": "nonpayable"
    },
    {
      "type": "function",
      "name": "setOpReturnPercent",
      "inputs": [
        {
          "name": "poolId",
          "type": "uint256",
          "internalType": "uint256"
        },
        {
          "name": "op",
          "type": "uint8",
          "internalType": "uint8"
        },
        {
          "name": "returnPercent",
          "type": "uint256",
          "internalType": "uint256"
        }
      ],
      "outputs": [],
      "stateMutability": "nonpayable"
    },
    {
      "type": "function",
      "name": "setPriceVolatilityPercent",
      "inputs": [
        {
          "name": "poolId",
          "type": "uint256",
          "internalType": "uint256"
        },
        {
          "name": "priceVolatilityPercent",
          "type": "uint256",
          "internalType": "uint256"
        }
      ],
      "outputs": [],
      "stateMutability": "nonpayable"
    },
    {
      "type": "function",
      "name": "version",
      "inputs": [],
      "outputs": [
        {
          "name": "",
          "type": "uint256",
          "internalType": "uint256"
        }
      ],
      "stateMutability": "pure"
    },
    {
      "type": "error",
      "name": "InvalidLength",
      "inputs": []
    },
    {
      "type": "error",
      "name": "NotAgent",
      "inputs": []
    },
    {
      "type": "error",
      "name": "NotOwner",
      "inputs": []
    }
  ],
  "bytecode": {
    "object": "0x608060405234801561000f575f5ffd5b506040516116fa3803806116fa83398101604081905261002e9161011f565b5f80546001600160a01b0319166001600160a01b0383161781556001908190610055610082565b6001600160a01b0316815260208101919091526040015f20805460ff191691151591909117905550610141565b5f5f5f9054906101000a90046001600160a01b03166001600160a01b0316638da5cb5b6040518163ffffffff1660e01b8152600401602060405180830381865afa9250505080156100f0575060408051601f3d908101601f191682019092526100ed9181019061011f565b60015b61010357505f546001600160a01b031690565b919050565b6001600160a01b038116811461011c575f5ffd5b50565b5f6020828403121561012f575f5ffd5b815161013a81610108565b9392505050565b6115ac8061014e5f395ff3fe608060405260043610610113575f3560e01c806385285bc91161009d578063be38adfa11610062578063be38adfa14610368578063d8a2090714610387578063e876545d146103a6578063fd98307a146103c5578063ff3fb0c8146103e4575f5ffd5b806385285bc9146102d85780638da5cb5b146102f757806396a953f21461030b57806397d8c6761461032a578063b61d27f614610349575f5ffd5b806332108f1f116100e357806332108f1f1461022b57806335fc49dc1461024a57806354fd4d501461026957806355260ae4146102835780635e781f88146102b9575f5ffd5b806309dbb6ea1461017e5780631ffbb064146101b257806329b5fb64146101e05780632d94dbf51461020c575f5ffd5b3661017a573415610178575f610127610403565b6001600160a01b0316346040515f6040518083038185875af1925050503d805f811461016e576040519150601f19603f3d011682016040523d82523d5f602084013e610173565b606091505b505050505b005b5f5ffd5b348015610189575f5ffd5b5061019d610198366004610ef4565b610489565b60405190151581526020015b60405180910390f35b3480156101bd575f5ffd5b5061019d6101cc366004610f22565b60016020525f908152604090205460ff1681565b3480156101eb575f5ffd5b506101ff6101fa36600461101e565b610515565b6040516101a9919061108c565b348015610217575f5ffd5b506101ff6102263660046110ce565b61052d565b348015610236575f5ffd5b5061017861024536600461114e565b61067e565b348015610255575f5ffd5b5061017861026436600461117e565b61074e565b348015610274575f5ffd5b506040515f81526020016101a9565b34801561028e575f5ffd5b505f546102a1906001600160a01b031681565b6040516001600160a01b0390911681526020016101a9565b3480156102c4575f5ffd5b506101786102d3366004611241565b61085b565b3480156102e3575f5ffd5b506101786102f236600461114e565b610933565b348015610302575f5ffd5b506102a1610403565b348015610316575f5ffd5b50610178610325366004611241565b6109d2565b348015610335575f5ffd5b50610178610344366004611281565b610a7c565b348015610354575f5ffd5b506101786103633660046112b8565b610aae565b348015610373575f5ffd5b5061017861038236600461133b565b610b1b565b348015610392575f5ffd5b506101786103a13660046113f2565b610bbe565b3480156103b1575f5ffd5b506101786103c0366004611415565b610bd4565b3480156103d0575f5ffd5b506101786103df36600461133b565b610c4c565b3480156103ef575f5ffd5b506101786103fe3660046114cd565b610cef565b5f5f5f9054906101000a90046001600160a01b03166001600160a01b0316638da5cb5b6040518163ffffffff1660e01b8152600401602060405180830381865afa925050508015610471575060408051601f3d908101601f1916820190925261046e91810190611506565b60015b61048457505f546001600160a01b031690565b919050565b5f5f610493610403565b5f5460405163b2d5cca760e01b8152600481018690526001600160a01b03808416602483015292935091169063b2d5cca7906044016020604051808303815f875af1925050508015610502575060408051601f3d908101601f191682019092526104ff91810190611521565b60015b61050e57505f92915050565b9392505050565b6060610524338686868661052d565b95945050505050565b8051606090806001600160401b0381111561054a5761054a610f4e565b604051908082528060200260200182016040528015610573578160200160208202803683370190505b5091505f5b81811015610673575f5f9054906101000a90046001600160a01b03166001600160a01b031663592ae17f898989898987815181106105b8576105b861153c565b60209081029190910101516040516001600160e01b031960e088901b1681526001600160a01b03958616600482015261ffff90941660248501529184166044840152929092166064820152608481019190915260a4016020604051808303815f875af115801561062a573d5f5f3e3d5ffd5b505050506040513d601f19601f8201168201806040525081019061064e9190611550565b8382815181106106605761066061153c565b6020908102919091010152600101610578565b505095945050505050565b610686610daf565b5f546040516315895f4760e31b8152600481018490526001600160a01b039091169063ac4afa3890602401602060405180830381865afa1580156106cc573d5f5f3e3d5ffd5b505050506040513d601f19601f820116820180604052508101906106f09190611506565b6001600160a01b031663b58d0f1a826040518263ffffffff1660e01b815260040161071d91815260200190565b5f604051808303815f87803b158015610734575f5ffd5b505af1158015610746573d5f5f3e3d5ffd5b505050505050565b80518251146107705760405163251f56a160e21b815260040160405180910390fd5b5f610779610403565b83519091505f5b81811015610854575f5485516001600160a01b039091169063c0b7b578908790849081106107b0576107b061153c565b60200260200101518684815181106107ca576107ca61153c565b60209081029190910101516040516001600160e01b031960e085901b168152600481019290925260ff1660248201526001600160a01b03861660448201526064016020604051808303815f875af1925050508015610845575060408051601f3d908101601f1916820190925261084291810190611521565b60015b1561084c57505b600101610780565b5050505050565b610863610daf565b5f546040516315895f4760e31b8152600481018590526001600160a01b039091169063ac4afa3890602401602060405180830381865afa1580156108a9573d5f5f3e3d5ffd5b505050506040513d601f19601f820116820180604052508101906108cd9190611506565b604051632c3a1fbf60e01b815260ff84166004820152602481018390526001600160a01b039190911690632c3a1fbf906044015b5f604051808303815f87803b158015610918575f5ffd5b505af115801561092a573d5f5f3e3d5ffd5b50505050505050565b61093b610daf565b5f546040516315895f4760e31b8152600481018490526001600160a01b039091169063ac4afa3890602401602060405180830381865afa158015610981573d5f5f3e3d5ffd5b505050506040513d601f19601f820116820180604052508101906109a59190611506565b6001600160a01b031663c387f456826040518263ffffffff1660e01b815260040161071d91815260200190565b6109da610daf565b5f546040516315895f4760e31b8152600481018590526001600160a01b039091169063ac4afa3890602401602060405180830381865afa158015610a20573d5f5f3e3d5ffd5b505050506040513d601f19601f82011682018060405250810190610a449190611506565b6040516355f91d9f60e11b815260ff84166004820152602481018390526001600160a01b03919091169063abf23b3e90604401610901565b610a84610de0565b6001600160a01b03919091165f908152600160205260409020805460ff1916911515919091179055565b610ab6610de0565b5f846001600160a01b0316848484604051610ad2929190611567565b5f6040518083038185875af1925050503d805f8114610b0c576040519150601f19603f3d011682016040523d82523d5f602084013e610b11565b606091505b5050505050505050565b610b23610daf565b5f546040516315895f4760e31b8152600481018490526001600160a01b039091169063ac4afa3890602401602060405180830381865afa158015610b69573d5f5f3e3d5ffd5b505050506040513d601f19601f82011682018060405250810190610b8d9190611506565b604051637bc7abaf60e11b815260ff831660048201526001600160a01b03919091169063f78f575e9060240161071d565b610bc6610daf565b610bd08282610e19565b5050565b8051825114610bf65760405163251f56a160e21b815260040160405180910390fd5b81515f5b81811015610c4657610c3e848281518110610c1757610c1761153c565b6020026020010151848381518110610c3157610c3161153c565b6020026020010151610e19565b600101610bfa565b50505050565b610c54610daf565b5f546040516315895f4760e31b8152600481018490526001600160a01b039091169063ac4afa3890602401602060405180830381865afa158015610c9a573d5f5f3e3d5ffd5b505050506040513d601f19601f82011682018060405250810190610cbe9190611506565b60405163fd2a749560e01b815260ff831660048201526001600160a01b03919091169063fd2a74959060240161071d565b80515f610cfa610403565b90505f5b82811015610c46575f5484516001600160a01b039091169063b2d5cca790869084908110610d2e57610d2e61153c565b6020026020010151846040518363ffffffff1660e01b8152600401610d669291909182526001600160a01b0316602082015260400190565b6020604051808303815f875af1925050508015610da0575060408051601f3d908101601f19168201909252610d9d91810190611521565b60015b15610da757505b600101610cfe565b335f9081526001602052604090205460ff16610dde57604051630d9ab13f60e01b815260040160405180910390fd5b565b610de8610403565b6001600160a01b0316336001600160a01b031614610dde576040516330cd747160e01b815260040160405180910390fd5b5f546040516315895f4760e31b8152600481018490526001600160a01b039091169063ac4afa3890602401602060405180830381865afa158015610e5f573d5f5f3e3d5ffd5b505050506040513d601f19601f82011682018060405250810190610e839190611506565b60408051632a2abca560e21b8152835160ff90811660048301526020850151166024820152908301516044820152606083015160648201526080830151608482015260a083015160a482015260c083015160c48201526001600160a01b03919091169063a8aaf2949060e40161071d565b5f60208284031215610f04575f5ffd5b5035919050565b6001600160a01b0381168114610f1f575f5ffd5b50565b5f60208284031215610f32575f5ffd5b813561050e81610f0b565b803561ffff81168114610484575f5ffd5b634e487b7160e01b5f52604160045260245ffd5b604051601f8201601f191681016001600160401b0381118282101715610f8a57610f8a610f4e565b604052919050565b5f6001600160401b03821115610faa57610faa610f4e565b5060051b60200190565b5f82601f830112610fc3575f5ffd5b8135610fd6610fd182610f92565b610f62565b8082825260208201915060208360051b860101925085831115610ff7575f5ffd5b602085015b83811015611014578035835260209283019201610ffc565b5095945050505050565b5f5f5f5f60808587031215611031575f5ffd5b61103a85610f3d565b9350602085013561104a81610f0b565b9250604085013561105a81610f0b565b915060608501356001600160401b03811115611074575f5ffd5b61108087828801610fb4565b91505092959194509250565b602080825282518282018190525f918401906040840190835b818110156110c35783518352602093840193909201916001016110a5565b509095945050505050565b5f5f5f5f5f60a086880312156110e2575f5ffd5b85356110ed81610f0b565b94506110fb60208701610f3d565b9350604086013561110b81610f0b565b9250606086013561111b81610f0b565b915060808601356001600160401b03811115611135575f5ffd5b61114188828901610fb4565b9150509295509295909350565b5f5f6040838503121561115f575f5ffd5b50508035926020909101359150565b803560ff81168114610484575f5ffd5b5f5f6040838503121561118f575f5ffd5b82356001600160401b038111156111a4575f5ffd5b6111b085828601610fb4565b92505060208301356001600160401b038111156111cb575f5ffd5b8301601f810185136111db575f5ffd5b80356111e9610fd182610f92565b8082825260208201915060208360051b85010192508783111561120a575f5ffd5b6020840193505b82841015611233576112228461116e565b825260209384019390910190611211565b809450505050509250929050565b5f5f5f60608486031215611253575f5ffd5b833592506112636020850161116e565b929592945050506040919091013590565b8015158114610f1f575f5ffd5b5f5f60408385031215611292575f5ffd5b823561129d81610f0b565b915060208301356112ad81611274565b809150509250929050565b5f5f5f5f606085870312156112cb575f5ffd5b84356112d681610f0b565b93506020850135925060408501356001600160401b038111156112f7575f5ffd5b8501601f81018713611307575f5ffd5b80356001600160401b0381111561131c575f5ffd5b87602082840101111561132d575f5ffd5b949793965060200194505050565b5f5f6040838503121561134c575f5ffd5b8235915061135c6020840161116e565b90509250929050565b5f60e08284031215611375575f5ffd5b60405160e081016001600160401b038111828210171561139757611397610f4e565b6040529050806113a68361116e565b81526113b46020840161116e565b602082015260408381013590820152606080840135908201526080808401359082015260a0808401359082015260c092830135920191909152919050565b5f5f6101008385031215611404575f5ffd5b8235915061135c8460208501611365565b5f5f60408385031215611426575f5ffd5b82356001600160401b0381111561143b575f5ffd5b61144785828601610fb4565b92505060208301356001600160401b03811115611462575f5ffd5b8301601f81018513611472575f5ffd5b8035611480610fd182610f92565b80828252602082019150602060e084028501019250878311156114a1575f5ffd5b6020840193505b82841015611233576114ba8885611365565b825260208201915060e0840193506114a8565b5f602082840312156114dd575f5ffd5b81356001600160401b038111156114f2575f5ffd5b6114fe84828501610fb4565b949350505050565b5f60208284031215611516575f5ffd5b815161050e81610f0b565b5f60208284031215611531575f5ffd5b815161050e81611274565b634e487b7160e01b5f52603260045260245ffd5b5f60208284031215611560575f5ffd5b5051919050565b818382375f910190815291905056fea26469706673582212201f606e864779cc4aea2320e819c4af0c11a1c005967ed08df1fc49ea414c1c8d64736f6c634300081c0033",
    "linkReferences": {}
  },
  "methodIdentifiers": {
    "batchGrind(uint256[])": "ff3fb0c8",
    "batchGrindOp(uint256[],uint8[])": "35fc49dc",
    "batchSetConfig(uint256[],(uint8,uint8,uint256,uint256,uint256,uint256,uint256)[])": "e876545d",
    "execute(address,uint256,bytes)": "b61d27f6",
    "grind(uint256)": "09dbb6ea",
    "isAgent(address)": "1ffbb064",
    "mint(uint16,address,address,uint256[])": "29b5fb64",
    "mintTo(address,uint16,address,address,uint256[])": "2d94dbf5",
    "owner()": "8da5cb5b",
    "poolsNFT()": "55260ae4",
    "setAgent(address,bool)": "97d8c676",
    "setConfig(uint256,(uint8,uint8,uint256,uint256,uint256,uint256,uint256))": "d8a20907",
    "setExtraCoef(uint256,uint256)": "32108f1f",
    "setHedgeNumberMax(uint256,uint8)": "be38adfa",
    "setLongNumberMax(uint256,uint8)": "fd98307a",
    "setOpFeeCoef(uint256,uint8,uint256)": "5e781f88",
    "setOpReturnPercent(uint256,uint8,uint256)": "96a953f2",
    "setPriceVolatilityPercent(uint256,uint256)": "85285bc9",
    "version()": "54fd4d50"
  },
  "id": 65
}