{
  "abi": [
    {
      "type": "receive",
      "stateMutability": "payable"
    },
    {
      "type": "function",
      "name": "batchGrind",
      "inputs": [
        {
          "name": "poolIds",
          "type": "uint256[]",
          "internalType": "uint256[]"
        }
      ],
      "outputs": [],
      "stateMutability": "nonpayable"
    },
    {
      "type": "function",
      "name": "batchGrindOp",
      "inputs": [
        {
          "name": "poolIds",
          "type": "uint256[]",
          "internalType": "uint256[]"
        },
        {
          "name": "ops",
          "type": "uint8[]",
          "internalType": "uint8[]"
        }
      ],
      "outputs": [],
      "stateMutability": "nonpayable"
    },
    {
      "type": "function",
      "name": "batchSetConfig",
      "inputs": [
        {
          "name": "poolIds",
          "type": "uint256[]",
          "internalType": "uint256[]"
        },
        {
          "name": "configs",
          "type": "tuple[]",
          "internalType": "struct IURUS.Config[]",
          "components": [
            {
              "name": "longNumberMax",
              "type": "uint8",
              "internalType": "uint8"
            },
            {
              "name": "hedgeNumberMax",
              "type": "uint8",
              "internalType": "uint8"
            },
            {
              "name": "extraCoef",
              "type": "uint256",
              "internalType": "uint256"
            },
            {
              "name": "priceVolatilityPercent",
              "type": "uint256",
              "internalType": "uint256"
            },
            {
              "name": "returnPercentLongSell",
              "type": "uint256",
              "internalType": "uint256"
            },
            {
              "name": "returnPercentHedgeSell",
              "type": "uint256",
              "internalType": "uint256"
            },
            {
              "name": "returnPercentHedgeRebuy",
              "type": "uint256",
              "internalType": "uint256"
            }
          ]
        }
      ],
      "outputs": [],
      "stateMutability": "nonpayable"
    },
    {
      "type": "function",
      "name": "execute",
      "inputs": [
        {
          "name": "target",
          "type": "address",
          "internalType": "address"
        },
        {
          "name": "value",
          "type": "uint256",
          "internalType": "uint256"
        },
        {
          "name": "data",
          "type": "bytes",
          "internalType": "bytes"
        }
      ],
      "outputs": [
        {
          "name": "success",
          "type": "bool",
          "internalType": "bool"
        },
        {
          "name": "result",
          "type": "bytes",
          "internalType": "bytes"
        }
      ],
      "stateMutability": "payable"
    },
    {
      "type": "function",
      "name": "executeGRAI",
      "inputs": [
        {
          "name": "target",
          "type": "address",
          "internalType": "address"
        },
        {
          "name": "value",
          "type": "uint256",
          "internalType": "uint256"
        },
        {
          "name": "data",
          "type": "bytes",
          "internalType": "bytes"
        }
      ],
      "outputs": [
        {
          "name": "success",
          "type": "bool",
          "internalType": "bool"
        },
        {
          "name": "result",
          "type": "bytes",
          "internalType": "bytes"
        }
      ],
      "stateMutability": "payable"
    },
    {
      "type": "function",
      "name": "grAI",
      "inputs": [],
      "outputs": [
        {
          "name": "",
          "type": "address",
          "internalType": "contract IGRAI"
        }
      ],
      "stateMutability": "view"
    },
    {
      "type": "function",
      "name": "grind",
      "inputs": [
        {
          "name": "poolId",
          "type": "uint256",
          "internalType": "uint256"
        }
      ],
      "outputs": [
        {
          "name": "",
          "type": "bool",
          "internalType": "bool"
        }
      ],
      "stateMutability": "nonpayable"
    },
    {
      "type": "function",
      "name": "grindOp",
      "inputs": [
        {
          "name": "poolId",
          "type": "uint256",
          "internalType": "uint256"
        },
        {
          "name": "op",
          "type": "uint8",
          "internalType": "uint8"
        }
      ],
      "outputs": [
        {
          "name": "",
          "type": "bool",
          "internalType": "bool"
        }
      ],
      "stateMutability": "nonpayable"
    },
    {
      "type": "function",
      "name": "init",
      "inputs": [
        {
          "name": "_poolsNFT",
          "type": "address",
          "internalType": "address"
        },
        {
          "name": "_intentsNFT",
          "type": "address",
          "internalType": "address"
        },
        {
          "name": "_grAI",
          "type": "address",
          "internalType": "address"
        }
      ],
      "outputs": [],
      "stateMutability": "nonpayable"
    },
    {
      "type": "function",
      "name": "intentsNFT",
      "inputs": [],
      "outputs": [
        {
          "name": "",
          "type": "address",
          "internalType": "contract IIntentsNFT"
        }
      ],
      "stateMutability": "view"
    },
    {
      "type": "function",
      "name": "isDelegate",
      "inputs": [
        {
          "name": "account",
          "type": "address",
          "internalType": "address"
        }
      ],
      "outputs": [
        {
          "name": "",
          "type": "bool",
          "internalType": "bool"
        }
      ],
      "stateMutability": "view"
    },
    {
      "type": "function",
      "name": "mintPoolsNFT",
      "inputs": [
        {
          "name": "strategyId",
          "type": "uint16",
          "internalType": "uint16"
        },
        {
          "name": "quoteToken",
          "type": "address",
          "internalType": "address"
        },
        {
          "name": "baseToken",
          "type": "address",
          "internalType": "address"
        },
        {
          "name": "quoteTokenAmounts",
          "type": "uint256[]",
          "internalType": "uint256[]"
        }
      ],
      "outputs": [
        {
          "name": "poolIds",
          "type": "uint256[]",
          "internalType": "uint256[]"
        }
      ],
      "stateMutability": "nonpayable"
    },
    {
      "type": "function",
      "name": "mintPoolsNFTTo",
      "inputs": [
        {
          "name": "receiver",
          "type": "address",
          "internalType": "address"
        },
        {
          "name": "strategyId",
          "type": "uint16",
          "internalType": "uint16"
        },
        {
          "name": "baseToken",
          "type": "address",
          "internalType": "address"
        },
        {
          "name": "quoteToken",
          "type": "address",
          "internalType": "address"
        },
        {
          "name": "quoteTokenAmounts",
          "type": "uint256[]",
          "internalType": "uint256[]"
        }
      ],
      "outputs": [
        {
          "name": "poolIds",
          "type": "uint256[]",
          "internalType": "uint256[]"
        }
      ],
      "stateMutability": "nonpayable"
    },
    {
      "type": "function",
      "name": "mintedGrinds",
      "inputs": [
        {
          "name": "account",
          "type": "address",
          "internalType": "address"
        }
      ],
      "outputs": [
        {
          "name": "",
          "type": "uint256",
          "internalType": "uint256"
        }
      ],
      "stateMutability": "view"
    },
    {
      "type": "function",
      "name": "owner",
      "inputs": [],
      "outputs": [
        {
          "name": "",
          "type": "address",
          "internalType": "address"
        }
      ],
      "stateMutability": "view"
    },
    {
      "type": "function",
      "name": "poolsNFT",
      "inputs": [],
      "outputs": [
        {
          "name": "",
          "type": "address",
          "internalType": "contract IPoolsNFT"
        }
      ],
      "stateMutability": "view"
    },
    {
      "type": "function",
      "name": "setConfig",
      "inputs": [
        {
          "name": "poolId",
          "type": "uint256",
          "internalType": "uint256"
        },
        {
          "name": "config",
          "type": "tuple",
          "internalType": "struct IURUS.Config",
          "components": [
            {
              "name": "longNumberMax",
              "type": "uint8",
              "internalType": "uint8"
            },
            {
              "name": "hedgeNumberMax",
              "type": "uint8",
              "internalType": "uint8"
            },
            {
              "name": "extraCoef",
              "type": "uint256",
              "internalType": "uint256"
            },
            {
              "name": "priceVolatilityPercent",
              "type": "uint256",
              "internalType": "uint256"
            },
            {
              "name": "returnPercentLongSell",
              "type": "uint256",
              "internalType": "uint256"
            },
            {
              "name": "returnPercentHedgeSell",
              "type": "uint256",
              "internalType": "uint256"
            },
            {
              "name": "returnPercentHedgeRebuy",
              "type": "uint256",
              "internalType": "uint256"
            }
          ]
        }
      ],
      "outputs": [],
      "stateMutability": "nonpayable"
    },
    {
      "type": "function",
      "name": "setDelegate",
      "inputs": [
        {
          "name": "_delegate",
          "type": "address",
          "internalType": "address"
        },
        {
          "name": "_isDelegate",
          "type": "bool",
          "internalType": "bool"
        }
      ],
      "outputs": [],
      "stateMutability": "nonpayable"
    },
    {
      "type": "function",
      "name": "setExtraCoef",
      "inputs": [
        {
          "name": "poolId",
          "type": "uint256",
          "internalType": "uint256"
        },
        {
          "name": "extraCoef",
          "type": "uint256",
          "internalType": "uint256"
        }
      ],
      "outputs": [],
      "stateMutability": "nonpayable"
    },
    {
      "type": "function",
      "name": "setHedgeNumberMax",
      "inputs": [
        {
          "name": "poolId",
          "type": "uint256",
          "internalType": "uint256"
        },
        {
          "name": "hedgeNumberMax",
          "type": "uint8",
          "internalType": "uint8"
        }
      ],
      "outputs": [],
      "stateMutability": "nonpayable"
    },
    {
      "type": "function",
      "name": "setLongNumberMax",
      "inputs": [
        {
          "name": "poolId",
          "type": "uint256",
          "internalType": "uint256"
        },
        {
          "name": "longNumberMax",
          "type": "uint8",
          "internalType": "uint8"
        }
      ],
      "outputs": [],
      "stateMutability": "nonpayable"
    },
    {
      "type": "function",
      "name": "setLzReceivOptions",
      "inputs": [
        {
          "name": "endpointId",
          "type": "uint32",
          "internalType": "uint32"
        },
        {
          "name": "gasLimit",
          "type": "uint128",
          "internalType": "uint128"
        },
        {
          "name": "value",
          "type": "uint128",
          "internalType": "uint128"
        }
      ],
      "outputs": [],
      "stateMutability": "nonpayable"
    },
    {
      "type": "function",
      "name": "setMultiplierNumerator",
      "inputs": [
        {
          "name": "multiplierNumerator",
          "type": "uint256",
          "internalType": "uint256"
        }
      ],
      "outputs": [],
      "stateMutability": "nonpayable"
    },
    {
      "type": "function",
      "name": "setNativeBridgeFee",
      "inputs": [
        {
          "name": "nativeBridgeFeeNumerator",
          "type": "uint256",
          "internalType": "uint256"
        }
      ],
      "outputs": [],
      "stateMutability": "nonpayable"
    },
    {
      "type": "function",
      "name": "setOpFeeCoef",
      "inputs": [
        {
          "name": "poolId",
          "type": "uint256",
          "internalType": "uint256"
        },
        {
          "name": "op",
          "type": "uint8",
          "internalType": "uint8"
        },
        {
          "name": "feeCoef",
          "type": "uint256",
          "internalType": "uint256"
        }
      ],
      "outputs": [],
      "stateMutability": "nonpayable"
    },
    {
      "type": "function",
      "name": "setOpReturnPercent",
      "inputs": [
        {
          "name": "poolId",
          "type": "uint256",
          "internalType": "uint256"
        },
        {
          "name": "op",
          "type": "uint8",
          "internalType": "uint8"
        },
        {
          "name": "returnPercent",
          "type": "uint256",
          "internalType": "uint256"
        }
      ],
      "outputs": [],
      "stateMutability": "nonpayable"
    },
    {
      "type": "function",
      "name": "setPeer",
      "inputs": [
        {
          "name": "eid",
          "type": "uint32",
          "internalType": "uint32"
        },
        {
          "name": "peer",
          "type": "bytes32",
          "internalType": "bytes32"
        }
      ],
      "outputs": [],
      "stateMutability": "nonpayable"
    },
    {
      "type": "function",
      "name": "setPriceVolatilityPercent",
      "inputs": [
        {
          "name": "poolId",
          "type": "uint256",
          "internalType": "uint256"
        },
        {
          "name": "priceVolatilityPercent",
          "type": "uint256",
          "internalType": "uint256"
        }
      ],
      "outputs": [],
      "stateMutability": "nonpayable"
    },
    {
      "type": "function",
      "name": "version",
      "inputs": [],
      "outputs": [
        {
          "name": "",
          "type": "uint256",
          "internalType": "uint256"
        }
      ],
      "stateMutability": "pure"
    },
    {
      "type": "error",
      "name": "InvalidLength",
      "inputs": []
    },
    {
      "type": "error",
      "name": "NotDelegate",
      "inputs": []
    },
    {
      "type": "error",
      "name": "NotOwner",
      "inputs": []
    }
  ],
  "bytecode": {
    "object": "0x6080604052348015600e575f5ffd5b50611cca8061001c5f395ff3fe6080604052600436106101bd575f3560e01c80637458f08e116100f2578063be38adfa11610092578063f059deb211610062578063f059deb21461056f578063f61a00a41461058e578063fd98307a146105ad578063ff3fb0c8146105cc575f5ffd5b8063be38adfa146104f3578063d262249314610512578063d8a2090714610531578063e876545d14610550575f5ffd5b80638da5cb5b116100cd5780638da5cb5b1461048e57806396a953f2146104a2578063b61d27f6146104c1578063b945e206146104d4575f5ffd5b80637458f08e1461043157806385285bc9146104505780638b68d1861461046f575f5ffd5b806335fc49dc1161015d57806355260ae41161013857806355260ae4146103915780635e781f88146103c757806362e6f141146103e657806363eded6c14610405575f5ffd5b806335fc49dc146103415780634a994eef1461036057806354fd4d501461037f575f5ffd5b8063184b955911610198578063184b9559146102c357806324d93d7c146102e257806332108f1f146103035780633400288b14610322575f5ffd5b8063077796271461022857806309dbb6ea1461026b5780630bb6d53c1461028a575f5ffd5b36610224573415610222575f6101d16105eb565b6001600160a01b0316346040515f6040518083038185875af1925050503d805f8114610218576040519150601f19603f3d011682016040523d82523d5f602084013e61021d565b606091505b505050505b005b5f5ffd5b348015610233575f5ffd5b50610256610242366004611425565b60036020525f908152604090205460ff1681565b60405190151581526020015b60405180910390f35b348015610276575f5ffd5b50610256610285366004611440565b610671565b348015610295575f5ffd5b506102b56102a4366004611425565b60046020525f908152604090205481565b604051908152602001610262565b3480156102ce575f5ffd5b506102226102dd366004611457565b6106fd565b6102f56102f036600461149f565b610793565b604051610262929190611522565b34801561030e575f5ffd5b5061022261031d366004611560565b610826565b34801561032d575f5ffd5b5061022261033c366004611593565b6108f6565b34801561034c575f5ffd5b5061022261035b36600461169b565b61093b565b34801561036b575f5ffd5b5061022261037a36600461176b565b610a48565b34801561038a575f5ffd5b505f6102b5565b34801561039c575f5ffd5b505f546103af906001600160a01b031681565b6040516001600160a01b039091168152602001610262565b3480156103d2575f5ffd5b506102226103e13660046117a2565b610a7a565b3480156103f1575f5ffd5b50610222610400366004611440565b610b52565b348015610410575f5ffd5b5061042461041f3660046117e6565b610bb0565b6040516102629190611854565b34801561043c575f5ffd5b506002546103af906001600160a01b031681565b34801561045b575f5ffd5b5061022261046a366004611560565b610bc8565b34801561047a575f5ffd5b506102226104893660046118ac565b610c67565b348015610499575f5ffd5b506103af6105eb565b3480156104ad575f5ffd5b506102226104bc3660046117a2565b610cbc565b6102f56104cf36600461149f565b610d66565b3480156104df575f5ffd5b506102226104ee366004611440565b610dd9565b3480156104fe575f5ffd5b5061022261050d3660046118ec565b610e12565b34801561051d575f5ffd5b5061042461052c366004611916565b610eb5565b34801561053c575f5ffd5b5061022261054b366004611a23565b611006565b34801561055b575f5ffd5b5061022261056a366004611a46565b61101c565b34801561057a575f5ffd5b506102566105893660046118ec565b61109c565b348015610599575f5ffd5b506001546103af906001600160a01b031681565b3480156105b8575f5ffd5b506102226105c73660046118ec565b61113a565b3480156105d7575f5ffd5b506102226105e6366004611afe565b6111dd565b5f5f5f9054906101000a90046001600160a01b03166001600160a01b0316638da5cb5b6040518163ffffffff1660e01b8152600401602060405180830381865afa925050508015610659575060408051601f3d908101601f1916820190925261065691810190611b37565b60015b61066c57505f546001600160a01b031690565b919050565b5f5f61067b6105eb565b5f5460405163b2d5cca760e01b8152600481018690526001600160a01b03808416602483015292935091169063b2d5cca7906044016020604051808303815f875af19250505080156106ea575060408051601f3d908101601f191682019092526106e791810190611b52565b60015b6106f657505f92915050565b9392505050565b5f546001600160a01b031615801561071e57506001546001600160a01b0316155b801561073357506002546001600160a01b0316155b61073b575f5ffd5b5f80546001600160a01b039485166001600160a01b031991821617825560018054948616948216949094178455600280549390951692169190911790925533825260036020526040909120805460ff19169091179055565b5f606061079e61129d565b600254604051635b0e93fb60e11b81526001600160a01b039091169063b61d27f69087906107d6908a9083908a908a90600401611b6d565b5f6040518083038185885af11580156107f1573d5f5f3e3d5ffd5b50505050506040513d5f823e601f3d908101601f191682016040526108199190810190611bb4565b9097909650945050505050565b61082e6112d8565b5f546040516315895f4760e31b8152600481018490526001600160a01b039091169063ac4afa3890602401602060405180830381865afa158015610874573d5f5f3e3d5ffd5b505050506040513d601f19601f820116820180604052508101906108989190611b37565b6001600160a01b031663b58d0f1a826040518263ffffffff1660e01b81526004016108c591815260200190565b5f604051808303815f87803b1580156108dc575f5ffd5b505af11580156108ee573d5f5f3e3d5ffd5b505050505050565b6108fe61129d565b600254604051633400288b60e01b815263ffffffff84166004820152602481018390526001600160a01b0390911690633400288b906044016108c5565b805182511461095d5760405163251f56a160e21b815260040160405180910390fd5b5f6109666105eb565b83519091505f5b81811015610a41575f5485516001600160a01b039091169063c0b7b5789087908490811061099d5761099d611c5a565b60200260200101518684815181106109b7576109b7611c5a565b60209081029190910101516040516001600160e01b031960e085901b168152600481019290925260ff1660248201526001600160a01b03861660448201526064016020604051808303815f875af1925050508015610a32575060408051601f3d908101601f19168201909252610a2f91810190611b52565b60015b15610a3957505b60010161096d565b5050505050565b610a5061129d565b6001600160a01b03919091165f908152600360205260409020805460ff1916911515919091179055565b610a826112d8565b5f546040516315895f4760e31b8152600481018590526001600160a01b039091169063ac4afa3890602401602060405180830381865afa158015610ac8573d5f5f3e3d5ffd5b505050506040513d601f19601f82011682018060405250810190610aec9190611b37565b604051632c3a1fbf60e01b815260ff84166004820152602481018390526001600160a01b039190911690632c3a1fbf906044015b5f604051808303815f87803b158015610b37575f5ffd5b505af1158015610b49573d5f5f3e3d5ffd5b50505050505050565b610b5a61129d565b6002546040516362e6f14160e01b8152600481018390526001600160a01b03909116906362e6f141906024015b5f604051808303815f87803b158015610b9e575f5ffd5b505af1158015610a41573d5f5f3e3d5ffd5b6060610bbf3386868686610eb5565b95945050505050565b610bd06112d8565b5f546040516315895f4760e31b8152600481018490526001600160a01b039091169063ac4afa3890602401602060405180830381865afa158015610c16573d5f5f3e3d5ffd5b505050506040513d601f19601f82011682018060405250810190610c3a9190611b37565b6001600160a01b031663c387f456826040518263ffffffff1660e01b81526004016108c591815260200190565b610c6f61129d565b6002546040516345b468c360e11b815263ffffffff851660048201526001600160801b038085166024830152831660448201526001600160a01b0390911690638b68d18690606401610b20565b610cc46112d8565b5f546040516315895f4760e31b8152600481018590526001600160a01b039091169063ac4afa3890602401602060405180830381865afa158015610d0a573d5f5f3e3d5ffd5b505050506040513d601f19601f82011682018060405250810190610d2e9190611b37565b6040516355f91d9f60e11b815260ff84166004820152602481018390526001600160a01b03919091169063abf23b3e90604401610b20565b5f6060610d7161129d565b856001600160a01b0316858585604051610d8c929190611c6e565b5f6040518083038185875af1925050503d805f8114610dc6576040519150601f19603f3d011682016040523d82523d5f602084013e610dcb565b606091505b509097909650945050505050565b610de161129d565b600254604051635ca2f10360e11b8152600481018390526001600160a01b039091169063b945e20690602401610b87565b610e1a6112d8565b5f546040516315895f4760e31b8152600481018490526001600160a01b039091169063ac4afa3890602401602060405180830381865afa158015610e60573d5f5f3e3d5ffd5b505050506040513d601f19601f82011682018060405250810190610e849190611b37565b604051637bc7abaf60e11b815260ff831660048201526001600160a01b03919091169063f78f575e906024016108c5565b8051606090806001600160401b03811115610ed257610ed26115bb565b604051908082528060200260200182016040528015610efb578160200160208202803683370190505b5091505f5b81811015610ffb575f5f9054906101000a90046001600160a01b03166001600160a01b031663592ae17f89898989898781518110610f4057610f40611c5a565b60209081029190910101516040516001600160e01b031960e088901b1681526001600160a01b03958616600482015261ffff90941660248501529184166044840152929092166064820152608481019190915260a4016020604051808303815f875af1158015610fb2573d5f5f3e3d5ffd5b505050506040513d601f19601f82011682018060405250810190610fd69190611c7d565b838281518110610fe857610fe8611c5a565b6020908102919091010152600101610f00565b505095945050505050565b61100e6112d8565b6110188282611307565b5050565b6110246112d8565b80518251146110465760405163251f56a160e21b815260040160405180910390fd5b81515f5b818110156110965761108e84828151811061106757611067611c5a565b602002602001015184838151811061108157611081611c5a565b6020026020010151611307565b60010161104a565b50505050565b5f5f6110a66105eb565b5f54604051631816f6af60e31b81526004810187905260ff861660248201526001600160a01b03808416604483015292935091169063c0b7b578906064016020604051808303815f875af192505050801561111e575060408051601f3d908101601f1916820190925261111b91810190611b52565b60015b61112b575f915050611134565b91506111349050565b92915050565b6111426112d8565b5f546040516315895f4760e31b8152600481018490526001600160a01b039091169063ac4afa3890602401602060405180830381865afa158015611188573d5f5f3e3d5ffd5b505050506040513d601f19601f820116820180604052508101906111ac9190611b37565b60405163fd2a749560e01b815260ff831660048201526001600160a01b03919091169063fd2a7495906024016108c5565b80515f6111e86105eb565b90505f5b82811015611096575f5484516001600160a01b039091169063b2d5cca79086908490811061121c5761121c611c5a565b6020026020010151846040518363ffffffff1660e01b81526004016112549291909182526001600160a01b0316602082015260400190565b6020604051808303815f875af192505050801561128e575060408051601f3d908101601f1916820190925261128b91810190611b52565b60015b1561129557505b6001016111ec565b6112a56105eb565b6001600160a01b0316336001600160a01b0316146112d6576040516330cd747160e01b815260040160405180910390fd5b565b335f9081526003602052604090205460ff166112d657604051631db3b85960e01b815260040160405180910390fd5b5f546040516315895f4760e31b8152600481018490526001600160a01b039091169063ac4afa3890602401602060405180830381865afa15801561134d573d5f5f3e3d5ffd5b505050506040513d601f19601f820116820180604052508101906113719190611b37565b60408051632a2abca560e21b8152835160ff90811660048301526020850151166024820152908301516044820152606083015160648201526080830151608482015260a083015160a482015260c083015160c48201526001600160a01b03919091169063a8aaf2949060e4015f604051808303815f87803b1580156113f4575f5ffd5b505af1925050508015611405575060015b15611018575050565b6001600160a01b0381168114611422575f5ffd5b50565b5f60208284031215611435575f5ffd5b81356106f68161140e565b5f60208284031215611450575f5ffd5b5035919050565b5f5f5f60608486031215611469575f5ffd5b83356114748161140e565b925060208401356114848161140e565b915060408401356114948161140e565b809150509250925092565b5f5f5f5f606085870312156114b2575f5ffd5b84356114bd8161140e565b93506020850135925060408501356001600160401b038111156114de575f5ffd5b8501601f810187136114ee575f5ffd5b80356001600160401b03811115611503575f5ffd5b876020828401011115611514575f5ffd5b949793965060200194505050565b8215158152604060208201525f82518060408401528060208501606085015e5f606082850101526060601f19601f8301168401019150509392505050565b5f5f60408385031215611571575f5ffd5b50508035926020909101359150565b803563ffffffff8116811461066c575f5ffd5b5f5f604083850312156115a4575f5ffd5b6115ad83611580565b946020939093013593505050565b634e487b7160e01b5f52604160045260245ffd5b604051601f8201601f191681016001600160401b03811182821017156115f7576115f76115bb565b604052919050565b5f6001600160401b03821115611617576116176115bb565b5060051b60200190565b5f82601f830112611630575f5ffd5b813561164361163e826115ff565b6115cf565b8082825260208201915060208360051b860101925085831115611664575f5ffd5b602085015b83811015611681578035835260209283019201611669565b5095945050505050565b803560ff8116811461066c575f5ffd5b5f5f604083850312156116ac575f5ffd5b82356001600160401b038111156116c1575f5ffd5b6116cd85828601611621565b92505060208301356001600160401b038111156116e8575f5ffd5b8301601f810185136116f8575f5ffd5b803561170661163e826115ff565b8082825260208201915060208360051b850101925087831115611727575f5ffd5b6020840193505b828410156117505761173f8461168b565b82526020938401939091019061172e565b809450505050509250929050565b8015158114611422575f5ffd5b5f5f6040838503121561177c575f5ffd5b82356117878161140e565b915060208301356117978161175e565b809150509250929050565b5f5f5f606084860312156117b4575f5ffd5b833592506117c46020850161168b565b929592945050506040919091013590565b803561ffff8116811461066c575f5ffd5b5f5f5f5f608085870312156117f9575f5ffd5b611802856117d5565b935060208501356118128161140e565b925060408501356118228161140e565b915060608501356001600160401b0381111561183c575f5ffd5b61184887828801611621565b91505092959194509250565b602080825282518282018190525f918401906040840190835b8181101561188b57835183526020938401939092019160010161186d565b509095945050505050565b80356001600160801b038116811461066c575f5ffd5b5f5f5f606084860312156118be575f5ffd5b6118c784611580565b92506118d560208501611896565b91506118e360408501611896565b90509250925092565b5f5f604083850312156118fd575f5ffd5b8235915061190d6020840161168b565b90509250929050565b5f5f5f5f5f60a0868803121561192a575f5ffd5b85356119358161140e565b9450611943602087016117d5565b935060408601356119538161140e565b925060608601356119638161140e565b915060808601356001600160401b0381111561197d575f5ffd5b61198988828901611621565b9150509295509295909350565b5f60e082840312156119a6575f5ffd5b60405160e081016001600160401b03811182821017156119c8576119c86115bb565b6040529050806119d78361168b565b81526119e56020840161168b565b602082015260408381013590820152606080840135908201526080808401359082015260a0808401359082015260c092830135920191909152919050565b5f5f6101008385031215611a35575f5ffd5b8235915061190d8460208501611996565b5f5f60408385031215611a57575f5ffd5b82356001600160401b03811115611a6c575f5ffd5b611a7885828601611621565b92505060208301356001600160401b03811115611a93575f5ffd5b8301601f81018513611aa3575f5ffd5b8035611ab161163e826115ff565b80828252602082019150602060e08402850101925087831115611ad2575f5ffd5b6020840193505b8284101561175057611aeb8885611996565b825260208201915060e084019350611ad9565b5f60208284031215611b0e575f5ffd5b81356001600160401b03811115611b23575f5ffd5b611b2f84828501611621565b949350505050565b5f60208284031215611b47575f5ffd5b81516106f68161140e565b5f60208284031215611b62575f5ffd5b81516106f68161175e565b6001600160a01b0385168152602081018490526060604082018190528101829052818360808301375f818301608090810191909152601f909201601f191601019392505050565b5f5f60408385031215611bc5575f5ffd5b8251611bd08161175e565b60208401519092506001600160401b03811115611beb575f5ffd5b8301601f81018513611bfb575f5ffd5b80516001600160401b03811115611c1457611c146115bb565b611c27601f8201601f19166020016115cf565b818152866020838501011115611c3b575f5ffd5b8160208401602083015e5f602083830101528093505050509250929050565b634e487b7160e01b5f52603260045260245ffd5b818382375f9101908152919050565b5f60208284031215611c8d575f5ffd5b505191905056fea26469706673582212206f90f1691a9e68f433cea12c7f4f85f0d73e4fc92594b8fe7eebf0f961e1387464736f6c634300081c0033",
    "linkReferences": {}
  },
  "methodIdentifiers": {
    "batchGrind(uint256[])": "ff3fb0c8",
    "batchGrindOp(uint256[],uint8[])": "35fc49dc",
    "batchSetConfig(uint256[],(uint8,uint8,uint256,uint256,uint256,uint256,uint256)[])": "e876545d",
    "execute(address,uint256,bytes)": "b61d27f6",
    "executeGRAI(address,uint256,bytes)": "24d93d7c",
    "grAI()": "7458f08e",
    "grind(uint256)": "09dbb6ea",
    "grindOp(uint256,uint8)": "f059deb2",
    "init(address,address,address)": "184b9559",
    "intentsNFT()": "f61a00a4",
    "isDelegate(address)": "07779627",
    "mintPoolsNFT(uint16,address,address,uint256[])": "63eded6c",
    "mintPoolsNFTTo(address,uint16,address,address,uint256[])": "d2622493",
    "mintedGrinds(address)": "0bb6d53c",
    "owner()": "8da5cb5b",
    "poolsNFT()": "55260ae4",
    "setConfig(uint256,(uint8,uint8,uint256,uint256,uint256,uint256,uint256))": "d8a20907",
    "setDelegate(address,bool)": "4a994eef",
    "setExtraCoef(uint256,uint256)": "32108f1f",
    "setHedgeNumberMax(uint256,uint8)": "be38adfa",
    "setLongNumberMax(uint256,uint8)": "fd98307a",
    "setLzReceivOptions(uint32,uint128,uint128)": "8b68d186",
    "setMultiplierNumerator(uint256)": "b945e206",
    "setNativeBridgeFee(uint256)": "62e6f141",
    "setOpFeeCoef(uint256,uint8,uint256)": "5e781f88",
    "setOpReturnPercent(uint256,uint8,uint256)": "96a953f2",
    "setPeer(uint32,bytes32)": "3400288b",
    "setPriceVolatilityPercent(uint256,uint256)": "85285bc9",
    "version()": "54fd4d50"
  },
  "id": 95
}