{
  "abi": [
    {
      "type": "constructor",
      "inputs": [
        {
          "name": "_poolsNFT",
          "type": "address",
          "internalType": "address"
        },
        {
          "name": "_grAI",
          "type": "address",
          "internalType": "address"
        }
      ],
      "stateMutability": "nonpayable"
    },
    {
      "type": "receive",
      "stateMutability": "payable"
    },
    {
      "type": "function",
      "name": "approve",
      "inputs": [
        {
          "name": "to",
          "type": "address",
          "internalType": "address"
        },
        {
          "name": "tokenId",
          "type": "uint256",
          "internalType": "uint256"
        }
      ],
      "outputs": [],
      "stateMutability": "nonpayable"
    },
    {
      "type": "function",
      "name": "balanceOf",
      "inputs": [
        {
          "name": "owner",
          "type": "address",
          "internalType": "address"
        }
      ],
      "outputs": [
        {
          "name": "",
          "type": "uint256",
          "internalType": "uint256"
        }
      ],
      "stateMutability": "view"
    },
    {
      "type": "function",
      "name": "baseURI",
      "inputs": [],
      "outputs": [
        {
          "name": "",
          "type": "string",
          "internalType": "string"
        }
      ],
      "stateMutability": "view"
    },
    {
      "type": "function",
      "name": "calcPayment",
      "inputs": [
        {
          "name": "paymentToken",
          "type": "address",
          "internalType": "address"
        },
        {
          "name": "_grinds",
          "type": "uint256",
          "internalType": "uint256"
        }
      ],
      "outputs": [
        {
          "name": "paymentAmount",
          "type": "uint256",
          "internalType": "uint256"
        }
      ],
      "stateMutability": "view"
    },
    {
      "type": "function",
      "name": "chainId",
      "inputs": [],
      "outputs": [
        {
          "name": "id",
          "type": "uint256",
          "internalType": "uint256"
        }
      ],
      "stateMutability": "view"
    },
    {
      "type": "function",
      "name": "execute",
      "inputs": [
        {
          "name": "target",
          "type": "address",
          "internalType": "address"
        },
        {
          "name": "value",
          "type": "uint256",
          "internalType": "uint256"
        },
        {
          "name": "data",
          "type": "bytes",
          "internalType": "bytes"
        }
      ],
      "outputs": [
        {
          "name": "success",
          "type": "bool",
          "internalType": "bool"
        },
        {
          "name": "result",
          "type": "bytes",
          "internalType": "bytes"
        }
      ],
      "stateMutability": "payable"
    },
    {
      "type": "function",
      "name": "freemiumGrinds",
      "inputs": [],
      "outputs": [
        {
          "name": "",
          "type": "uint256",
          "internalType": "uint256"
        }
      ],
      "stateMutability": "view"
    },
    {
      "type": "function",
      "name": "getApproved",
      "inputs": [
        {
          "name": "tokenId",
          "type": "uint256",
          "internalType": "uint256"
        }
      ],
      "outputs": [
        {
          "name": "",
          "type": "address",
          "internalType": "address"
        }
      ],
      "stateMutability": "view"
    },
    {
      "type": "function",
      "name": "getIntent",
      "inputs": [
        {
          "name": "intentId",
          "type": "uint256",
          "internalType": "uint256"
        }
      ],
      "outputs": [
        {
          "name": "intent",
          "type": "tuple",
          "internalType": "struct IIntentsNFT.Intent",
          "components": [
            {
              "name": "owner",
              "type": "address",
              "internalType": "address"
            },
            {
              "name": "grinds",
              "type": "uint256",
              "internalType": "uint256"
            },
            {
              "name": "poolIds",
              "type": "uint256[]",
              "internalType": "uint256[]"
            }
          ]
        }
      ],
      "stateMutability": "view"
    },
    {
      "type": "function",
      "name": "getIntentBy",
      "inputs": [
        {
          "name": "poolId",
          "type": "uint256",
          "internalType": "uint256"
        }
      ],
      "outputs": [
        {
          "name": "_account",
          "type": "address",
          "internalType": "address"
        },
        {
          "name": "_grinds",
          "type": "uint256",
          "internalType": "uint256"
        },
        {
          "name": "_poolIds",
          "type": "uint256[]",
          "internalType": "uint256[]"
        }
      ],
      "stateMutability": "view"
    },
    {
      "type": "function",
      "name": "getIntentOf",
      "inputs": [
        {
          "name": "account",
          "type": "address",
          "internalType": "address"
        }
      ],
      "outputs": [
        {
          "name": "_account",
          "type": "address",
          "internalType": "address"
        },
        {
          "name": "_grinds",
          "type": "uint256",
          "internalType": "uint256"
        },
        {
          "name": "_poolIds",
          "type": "uint256[]",
          "internalType": "uint256[]"
        }
      ],
      "stateMutability": "view"
    },
    {
      "type": "function",
      "name": "getIntents",
      "inputs": [
        {
          "name": "intentIds",
          "type": "uint256[]",
          "internalType": "uint256[]"
        }
      ],
      "outputs": [
        {
          "name": "intents",
          "type": "tuple[]",
          "internalType": "struct IIntentsNFT.Intent[]",
          "components": [
            {
              "name": "owner",
              "type": "address",
              "internalType": "address"
            },
            {
              "name": "grinds",
              "type": "uint256",
              "internalType": "uint256"
            },
            {
              "name": "poolIds",
              "type": "uint256[]",
              "internalType": "uint256[]"
            }
          ]
        }
      ],
      "stateMutability": "view"
    },
    {
      "type": "function",
      "name": "grAI",
      "inputs": [],
      "outputs": [
        {
          "name": "",
          "type": "address",
          "internalType": "contract IGRAI"
        }
      ],
      "stateMutability": "view"
    },
    {
      "type": "function",
      "name": "grinder",
      "inputs": [],
      "outputs": [
        {
          "name": "",
          "type": "address",
          "internalType": "address payable"
        }
      ],
      "stateMutability": "view"
    },
    {
      "type": "function",
      "name": "grinds",
      "inputs": [
        {
          "name": "intentId",
          "type": "uint256",
          "internalType": "uint256"
        }
      ],
      "outputs": [
        {
          "name": "",
          "type": "uint256",
          "internalType": "uint256"
        }
      ],
      "stateMutability": "view"
    },
    {
      "type": "function",
      "name": "grindsOf",
      "inputs": [
        {
          "name": "account",
          "type": "address",
          "internalType": "address"
        }
      ],
      "outputs": [
        {
          "name": "",
          "type": "uint256",
          "internalType": "uint256"
        }
      ],
      "stateMutability": "view"
    },
    {
      "type": "function",
      "name": "intentIdOf",
      "inputs": [
        {
          "name": "account",
          "type": "address",
          "internalType": "address"
        }
      ],
      "outputs": [
        {
          "name": "",
          "type": "uint256",
          "internalType": "uint256"
        }
      ],
      "stateMutability": "view"
    },
    {
      "type": "function",
      "name": "isApprovedForAll",
      "inputs": [
        {
          "name": "owner",
          "type": "address",
          "internalType": "address"
        },
        {
          "name": "operator",
          "type": "address",
          "internalType": "address"
        }
      ],
      "outputs": [
        {
          "name": "",
          "type": "bool",
          "internalType": "bool"
        }
      ],
      "stateMutability": "view"
    },
    {
      "type": "function",
      "name": "isPaymentToken",
      "inputs": [
        {
          "name": "paymentToken",
          "type": "address",
          "internalType": "address"
        }
      ],
      "outputs": [
        {
          "name": "",
          "type": "bool",
          "internalType": "bool"
        }
      ],
      "stateMutability": "view"
    },
    {
      "type": "function",
      "name": "mint",
      "inputs": [
        {
          "name": "paymentToken",
          "type": "address",
          "internalType": "address"
        },
        {
          "name": "_grinds",
          "type": "uint256",
          "internalType": "uint256"
        }
      ],
      "outputs": [
        {
          "name": "",
          "type": "uint256",
          "internalType": "uint256"
        },
        {
          "name": "",
          "type": "uint256",
          "internalType": "uint256"
        }
      ],
      "stateMutability": "payable"
    },
    {
      "type": "function",
      "name": "mintTo",
      "inputs": [
        {
          "name": "paymentToken",
          "type": "address",
          "internalType": "address"
        },
        {
          "name": "to",
          "type": "address",
          "internalType": "address"
        },
        {
          "name": "_grinds",
          "type": "uint256",
          "internalType": "uint256"
        }
      ],
      "outputs": [
        {
          "name": "intentId",
          "type": "uint256",
          "internalType": "uint256"
        },
        {
          "name": "grindsAcquired",
          "type": "uint256",
          "internalType": "uint256"
        }
      ],
      "stateMutability": "payable"
    },
    {
      "type": "function",
      "name": "name",
      "inputs": [],
      "outputs": [
        {
          "name": "",
          "type": "string",
          "internalType": "string"
        }
      ],
      "stateMutability": "view"
    },
    {
      "type": "function",
      "name": "owner",
      "inputs": [],
      "outputs": [
        {
          "name": "",
          "type": "address",
          "internalType": "address payable"
        }
      ],
      "stateMutability": "view"
    },
    {
      "type": "function",
      "name": "ownerOf",
      "inputs": [
        {
          "name": "tokenId",
          "type": "uint256",
          "internalType": "uint256"
        }
      ],
      "outputs": [
        {
          "name": "",
          "type": "address",
          "internalType": "address"
        }
      ],
      "stateMutability": "view"
    },
    {
      "type": "function",
      "name": "poolsNFT",
      "inputs": [],
      "outputs": [
        {
          "name": "",
          "type": "address",
          "internalType": "contract IPoolsNFT"
        }
      ],
      "stateMutability": "view"
    },
    {
      "type": "function",
      "name": "ratePerGrind",
      "inputs": [
        {
          "name": "paymentToken",
          "type": "address",
          "internalType": "address"
        }
      ],
      "outputs": [
        {
          "name": "",
          "type": "uint256",
          "internalType": "uint256"
        }
      ],
      "stateMutability": "view"
    },
    {
      "type": "function",
      "name": "safeTransferFrom",
      "inputs": [
        {
          "name": "from",
          "type": "address",
          "internalType": "address"
        },
        {
          "name": "to",
          "type": "address",
          "internalType": "address"
        },
        {
          "name": "tokenId",
          "type": "uint256",
          "internalType": "uint256"
        }
      ],
      "outputs": [],
      "stateMutability": "nonpayable"
    },
    {
      "type": "function",
      "name": "safeTransferFrom",
      "inputs": [
        {
          "name": "from",
          "type": "address",
          "internalType": "address"
        },
        {
          "name": "to",
          "type": "address",
          "internalType": "address"
        },
        {
          "name": "tokenId",
          "type": "uint256",
          "internalType": "uint256"
        },
        {
          "name": "data",
          "type": "bytes",
          "internalType": "bytes"
        }
      ],
      "outputs": [],
      "stateMutability": "nonpayable"
    },
    {
      "type": "function",
      "name": "setApprovalForAll",
      "inputs": [
        {
          "name": "operator",
          "type": "address",
          "internalType": "address"
        },
        {
          "name": "approved",
          "type": "bool",
          "internalType": "bool"
        }
      ],
      "outputs": [],
      "stateMutability": "nonpayable"
    },
    {
      "type": "function",
      "name": "setBaseURI",
      "inputs": [
        {
          "name": "_baseURI",
          "type": "string",
          "internalType": "string"
        }
      ],
      "outputs": [],
      "stateMutability": "nonpayable"
    },
    {
      "type": "function",
      "name": "setFreemiumGrinds",
      "inputs": [
        {
          "name": "_freemiumGrinds",
          "type": "uint256",
          "internalType": "uint256"
        }
      ],
      "outputs": [],
      "stateMutability": "nonpayable"
    },
    {
      "type": "function",
      "name": "setGrinder",
      "inputs": [
        {
          "name": "_grinder",
          "type": "address",
          "internalType": "address payable"
        }
      ],
      "outputs": [],
      "stateMutability": "nonpayable"
    },
    {
      "type": "function",
      "name": "setRatePerGrind",
      "inputs": [
        {
          "name": "token",
          "type": "address",
          "internalType": "address"
        },
        {
          "name": "_ratePerGrind",
          "type": "uint256",
          "internalType": "uint256"
        }
      ],
      "outputs": [],
      "stateMutability": "nonpayable"
    },
    {
      "type": "function",
      "name": "spentGrinds",
      "inputs": [
        {
          "name": "intentId",
          "type": "uint256",
          "internalType": "uint256"
        }
      ],
      "outputs": [
        {
          "name": "",
          "type": "uint256",
          "internalType": "uint256"
        }
      ],
      "stateMutability": "view"
    },
    {
      "type": "function",
      "name": "supportsInterface",
      "inputs": [
        {
          "name": "interfaceId",
          "type": "bytes4",
          "internalType": "bytes4"
        }
      ],
      "outputs": [
        {
          "name": "",
          "type": "bool",
          "internalType": "bool"
        }
      ],
      "stateMutability": "view"
    },
    {
      "type": "function",
      "name": "symbol",
      "inputs": [],
      "outputs": [
        {
          "name": "",
          "type": "string",
          "internalType": "string"
        }
      ],
      "stateMutability": "view"
    },
    {
      "type": "function",
      "name": "tokenURI",
      "inputs": [
        {
          "name": "intentId",
          "type": "uint256",
          "internalType": "uint256"
        }
      ],
      "outputs": [
        {
          "name": "uri",
          "type": "string",
          "internalType": "string"
        }
      ],
      "stateMutability": "view"
    },
    {
      "type": "function",
      "name": "totalGrinds",
      "inputs": [],
      "outputs": [
        {
          "name": "",
          "type": "uint256",
          "internalType": "uint256"
        }
      ],
      "stateMutability": "view"
    },
    {
      "type": "function",
      "name": "totalIntents",
      "inputs": [],
      "outputs": [
        {
          "name": "",
          "type": "uint256",
          "internalType": "uint256"
        }
      ],
      "stateMutability": "view"
    },
    {
      "type": "function",
      "name": "totalSupply",
      "inputs": [],
      "outputs": [
        {
          "name": "",
          "type": "uint256",
          "internalType": "uint256"
        }
      ],
      "stateMutability": "view"
    },
    {
      "type": "function",
      "name": "transferFrom",
      "inputs": [
        {
          "name": "",
          "type": "address",
          "internalType": "address"
        },
        {
          "name": "",
          "type": "address",
          "internalType": "address"
        },
        {
          "name": "",
          "type": "uint256",
          "internalType": "uint256"
        }
      ],
      "outputs": [],
      "stateMutability": "nonpayable"
    },
    {
      "type": "function",
      "name": "unspentGrinds",
      "inputs": [
        {
          "name": "intentId",
          "type": "uint256",
          "internalType": "uint256"
        }
      ],
      "outputs": [
        {
          "name": "",
          "type": "uint256",
          "internalType": "uint256"
        }
      ],
      "stateMutability": "view"
    },
    {
      "type": "event",
      "name": "Approval",
      "inputs": [
        {
          "name": "owner",
          "type": "address",
          "indexed": true,
          "internalType": "address"
        },
        {
          "name": "approved",
          "type": "address",
          "indexed": true,
          "internalType": "address"
        },
        {
          "name": "tokenId",
          "type": "uint256",
          "indexed": true,
          "internalType": "uint256"
        }
      ],
      "anonymous": false
    },
    {
      "type": "event",
      "name": "ApprovalForAll",
      "inputs": [
        {
          "name": "owner",
          "type": "address",
          "indexed": true,
          "internalType": "address"
        },
        {
          "name": "operator",
          "type": "address",
          "indexed": true,
          "internalType": "address"
        },
        {
          "name": "approved",
          "type": "bool",
          "indexed": false,
          "internalType": "bool"
        }
      ],
      "anonymous": false
    },
    {
      "type": "event",
      "name": "Mint",
      "inputs": [
        {
          "name": "intentId",
          "type": "uint256",
          "indexed": false,
          "internalType": "uint256"
        },
        {
          "name": "to",
          "type": "address",
          "indexed": false,
          "internalType": "address"
        },
        {
          "name": "grinds",
          "type": "uint256",
          "indexed": false,
          "internalType": "uint256"
        }
      ],
      "anonymous": false
    },
    {
      "type": "event",
      "name": "Pay",
      "inputs": [
        {
          "name": "paymentToken",
          "type": "address",
          "indexed": false,
          "internalType": "address"
        },
        {
          "name": "payer",
          "type": "address",
          "indexed": false,
          "internalType": "address"
        },
        {
          "name": "paymentAmount",
          "type": "uint256",
          "indexed": false,
          "internalType": "uint256"
        }
      ],
      "anonymous": false
    },
    {
      "type": "event",
      "name": "SetRatePerGrind",
      "inputs": [
        {
          "name": "token",
          "type": "address",
          "indexed": false,
          "internalType": "address"
        },
        {
          "name": "_ratePerGrind",
          "type": "uint256",
          "indexed": false,
          "internalType": "uint256"
        }
      ],
      "anonymous": false
    },
    {
      "type": "event",
      "name": "Transfer",
      "inputs": [
        {
          "name": "from",
          "type": "address",
          "indexed": true,
          "internalType": "address"
        },
        {
          "name": "to",
          "type": "address",
          "indexed": true,
          "internalType": "address"
        },
        {
          "name": "tokenId",
          "type": "uint256",
          "indexed": true,
          "internalType": "uint256"
        }
      ],
      "anonymous": false
    },
    {
      "type": "error",
      "name": "ERC721IncorrectOwner",
      "inputs": [
        {
          "name": "sender",
          "type": "address",
          "internalType": "address"
        },
        {
          "name": "tokenId",
          "type": "uint256",
          "internalType": "uint256"
        },
        {
          "name": "owner",
          "type": "address",
          "internalType": "address"
        }
      ]
    },
    {
      "type": "error",
      "name": "ERC721InsufficientApproval",
      "inputs": [
        {
          "name": "operator",
          "type": "address",
          "internalType": "address"
        },
        {
          "name": "tokenId",
          "type": "uint256",
          "internalType": "uint256"
        }
      ]
    },
    {
      "type": "error",
      "name": "ERC721InvalidApprover",
      "inputs": [
        {
          "name": "approver",
          "type": "address",
          "internalType": "address"
        }
      ]
    },
    {
      "type": "error",
      "name": "ERC721InvalidOperator",
      "inputs": [
        {
          "name": "operator",
          "type": "address",
          "internalType": "address"
        }
      ]
    },
    {
      "type": "error",
      "name": "ERC721InvalidOwner",
      "inputs": [
        {
          "name": "owner",
          "type": "address",
          "internalType": "address"
        }
      ]
    },
    {
      "type": "error",
      "name": "ERC721InvalidReceiver",
      "inputs": [
        {
          "name": "receiver",
          "type": "address",
          "internalType": "address"
        }
      ]
    },
    {
      "type": "error",
      "name": "ERC721InvalidSender",
      "inputs": [
        {
          "name": "sender",
          "type": "address",
          "internalType": "address"
        }
      ]
    },
    {
      "type": "error",
      "name": "ERC721NonexistentToken",
      "inputs": [
        {
          "name": "tokenId",
          "type": "uint256",
          "internalType": "uint256"
        }
      ]
    },
    {
      "type": "error",
      "name": "NotGrinderAI",
      "inputs": []
    },
    {
      "type": "error",
      "name": "NotOwner",
      "inputs": []
    },
    {
      "type": "error",
      "name": "NotPaymentToken",
      "inputs": []
    },
    {
      "type": "error",
      "name": "NotTransferable",
      "inputs": []
    },
    {
      "type": "error",
      "name": "Owned",
      "inputs": []
    },
    {
      "type": "error",
      "name": "SafeERC20FailedOperation",
      "inputs": [
        {
          "name": "token",
          "type": "address",
          "internalType": "address"
        }
      ]
    }
  ],
  "bytecode": {
    "object": "0x608060405234801561000f575f5ffd5b5060405161284838038061284883398101604081905261002e916101d1565b6040518060400160405280601c81526020017f4772696e646572414920496e74656e747320436f6c6c656374696f6e000000008152506040518060400160405280600c81526020016b677241495f494e54454e545360a01b815250815f908161009791906102a1565b5060016100a482826102a1565b5050600780546001600160a01b038086166001600160a01b0319928316179092556008805492851692909116919091179055506100df61013c565b600980546001600160a01b0319166001600160a01b039290921691909117905550505f80526010602052655af3107a40007f6e0956cda88cad152e89927e53611735b61a5c762d1428573c6931b0a5efcb01556005600b5561037d565b60075460408051638da5cb5b60e01b815290515f926001600160a01b031691638da5cb5b9160048083019260209291908290030181865afa9250505080156101a1575060408051601f3d908101601f1916820190925261019e9181019061035b565b60015b6101b557506007546001600160a01b031690565b919050565b6001600160a01b03811681146101ce575f5ffd5b50565b5f5f604083850312156101e2575f5ffd5b82516101ed816101ba565b60208401519092506101fe816101ba565b809150509250929050565b634e487b7160e01b5f52604160045260245ffd5b600181811c9082168061023157607f821691505b60208210810361024f57634e487b7160e01b5f52602260045260245ffd5b50919050565b601f82111561029c57805f5260205f20601f840160051c8101602085101561027a5750805b601f840160051c820191505b81811015610299575f8155600101610286565b50505b505050565b81516001600160401b038111156102ba576102ba610209565b6102ce816102c8845461021d565b84610255565b6020601f821160018114610300575f83156102e95750848201515b5f19600385901b1c1916600184901b178455610299565b5f84815260208120601f198516915b8281101561032f578785015182556020948501946001909201910161030f565b508482101561034c57868401515f19600387901b60f8161c191681555b50505050600190811b01905550565b5f6020828403121561036b575f5ffd5b8151610376816101ba565b9392505050565b6124be8061038a5f395ff3fe60806040526004361061024c575f3560e01c8063906e277b11610134578063c87b56dd116100b3578063e985e9c511610078578063e985e9c51461076c578063ea9d25c31461078b578063eeaac5e4146107aa578063ef9bcb27146107bf578063fc4333a1146107d2578063fe1ee2ca146107f1575f5ffd5b8063c87b56dd146106cf578063cb7da03f146106ee578063d06a54f41461070d578063d490032d14610722578063e29e49fb1461074d575f5ffd5b8063a22cb465116100f9578063a22cb46514610626578063b006580714610645578063b61d27f614610664578063b88d4fde14610685578063b8e8a6d8146106a4575f5ffd5b8063906e277b1461057f57806392cb8b06146105ab578063930eaddc146105ca57806395d89b41146106005780639a8a059214610614575f5ffd5b806342842e0e116101cb5780636a2cdfbc116101905780636a2cdfbc146104cc5780636c0360eb146104fa57806370a082311461050e5780637458f08e1461052d5780637c8e99c51461054c5780638da5cb5b1461056b575f5ffd5b806342842e0e1461043157806355260ae41461045057806355f804b31461046f57806361ecae671461048e5780636352211e146104ad575f5ffd5b806318160ddd1161021157806318160ddd1461039557806323b872dd146103a95780632a120024146103c8578063383211ca146103f457806340c10f1914610409575f5ffd5b806301ffc9a7146102b157806306fdde03146102e5578063081812fc14610306578063095ea7b31461033d57806315afebff1461035c575f5ffd5b366102ad5734156102ab576009546040515f916001600160a01b03169034908381818185875af1925050503d805f81146102a1576040519150601f19603f3d011682016040523d82523d5f602084013e6102a6565b606091505b505050505b005b5f5ffd5b3480156102bc575f5ffd5b506102d06102cb366004611b98565b61081c565b60405190151581526020015b60405180910390f35b3480156102f0575f5ffd5b506102f961086d565b6040516102dc9190611be1565b348015610311575f5ffd5b50610325610320366004611bf3565b6108fc565b6040516001600160a01b0390911681526020016102dc565b348015610348575f5ffd5b506102ab610357366004611c1e565b610923565b348015610367575f5ffd5b50610387610376366004611c48565b600e6020525f908152604090205481565b6040519081526020016102dc565b3480156103a0575f5ffd5b50600a54610387565b3480156103b4575f5ffd5b506102ab6103c3366004611c63565b610932565b3480156103d3575f5ffd5b506103e76103e2366004611d09565b610958565b6040516102dc9190611e05565b3480156103ff575f5ffd5b50610387600b5481565b61041c610417366004611c1e565b610a1d565b604080519283526020830191909152016102dc565b34801561043c575f5ffd5b506102ab61044b366004611c63565b610a35565b34801561045b575f5ffd5b50600754610325906001600160a01b031681565b34801561047a575f5ffd5b506102ab610489366004611ec1565b610a54565b348015610499575f5ffd5b506103876104a8366004611bf3565b610a68565b3480156104b8575f5ffd5b506103256104c7366004611bf3565b610ab8565b3480156104d7575f5ffd5b506104eb6104e6366004611bf3565b610ac2565b6040516102dc93929190611f06565b348015610505575f5ffd5b506102f9610bcc565b348015610519575f5ffd5b50610387610528366004611c48565b610c58565b348015610538575f5ffd5b50600854610325906001600160a01b031681565b348015610557575f5ffd5b506102ab610566366004611c1e565b610ca2565b348015610576575f5ffd5b50610325610d01565b34801561058a575f5ffd5b5061059e610599366004611bf3565b610d7f565b6040516102dc9190611f62565b3480156105b6575f5ffd5b506103876105c5366004611c1e565b610e56565b3480156105d5575f5ffd5b506102d06105e4366004611c48565b6001600160a01b03165f90815260106020526040902054151590565b34801561060b575f5ffd5b506102f9610ed4565b34801561061f575f5ffd5b5046610387565b348015610631575f5ffd5b506102ab610640366004611f74565b610ee3565b348015610650575f5ffd5b5061038761065f366004611bf3565b610eee565b610677610672366004611faf565b610f70565b6040516102dc929190612034565b348015610690575f5ffd5b506102ab61069f36600461204e565b611037565b3480156106af575f5ffd5b506103876106be366004611c48565b60106020525f908152604090205481565b3480156106da575f5ffd5b506102f96106e9366004611bf3565b611055565b3480156106f9575f5ffd5b506102ab610708366004611bf3565b6110f1565b348015610718575f5ffd5b50610387600a5481565b34801561072d575f5ffd5b5061038761073c366004611c48565b600d6020525f908152604090205481565b348015610758575f5ffd5b50600954610325906001600160a01b031681565b348015610777575f5ffd5b506102d06107863660046120c9565b6110fe565b348015610796575f5ffd5b506104eb6107a5366004611c48565b61112b565b3480156107b5575f5ffd5b50610387600c5481565b61041c6107cd366004611c63565b6111dc565b3480156107dd575f5ffd5b506102ab6107ec366004611c48565b611227565b3480156107fc575f5ffd5b5061038761080b366004611bf3565b600f6020525f908152604090205481565b5f6001600160e01b031982166380ac58cd60e01b148061084c57506001600160e01b03198216635b5e139f60e01b145b8061086757506301ffc9a760e01b6001600160e01b03198316145b92915050565b60605f805461087b906120f5565b80601f01602080910402602001604051908101604052809291908181526020018280546108a7906120f5565b80156108f25780601f106108c9576101008083540402835291602001916108f2565b820191905f5260205f20905b8154815290600101906020018083116108d557829003601f168201915b5050505050905090565b5f61090682611251565b505f828152600460205260409020546001600160a01b0316610867565b61092e828233611289565b5050565b600661093e818061216b565b5060405163dc8d8db760e01b815260040160405180910390fd5b80516060908067ffffffffffffffff81111561097657610976611ca1565b6040519080825280602002602001820160405280156109c257816020015b60408051606080820183525f8083526020830152918101919091528152602001906001900390816109945790505b5091505f5b81811015610a16576109f18482815181106109e4576109e4612243565b6020026020010151610d7f565b838281518110610a0357610a03612243565b60209081029190910101526001016109c7565b5050919050565b5f5f610a2a8433856111dc565b915091509250929050565b610a4f83838360405180602001604052805f815250611037565b505050565b610a5c611296565b600661092e8282612257565b5f5f610a7383610eee565b5f848152600f60205260409020549091508111610aaa575f838152600f6020526040902054610aa390829061231e565b9392505050565b505f92915050565b50919050565b5f61086782611251565b6007546040516331a9108f60e11b8152600481018390525f9182916060916001600160a01b031690636352211e90602401602060405180830381865afa158015610b0e573d5f5f3e3d5ffd5b505050506040513d601f19601f82011682018060405250810190610b329190612331565b6001600160a01b038181165f818152600d60209081526040808320548352600f909152908190205460075491516301999b1160e31b81526004810193909352939650929450911690630cccd888906024015f60405180830381865afa158015610b9d573d5f5f3e3d5ffd5b505050506040513d5f823e601f3d908101601f19168201604052610bc4919081019061234c565b929491935050565b60068054610bd9906120f5565b80601f0160208091040260200160405190810160405280929190818152602001828054610c05906120f5565b8015610c505780601f10610c2757610100808354040283529160200191610c50565b820191905f5260205f20905b815481529060010190602001808311610c3357829003601f168201915b505050505081565b5f6001600160a01b038216610c87576040516322718ad960e21b81525f60048201526024015b60405180910390fd5b506001600160a01b03165f9081526003602052604090205490565b610caa611296565b6001600160a01b0382165f81815260106020908152604091829020849055815192835282018390527feeb67eb9d9276721754be06e17d08c3e16be85f9d5ab7a123c6499263dcd11c9910160405180910390a15050565b60075460408051638da5cb5b60e01b815290515f926001600160a01b031691638da5cb5b9160048083019260209291908290030181865afa925050508015610d66575060408051601f3d908101601f19168201909252610d6391810190612331565b60015b610d7a57506007546001600160a01b031690565b919050565b60408051606080820183525f8083526020830152918101919091526040518060600160405280610dae84610ab8565b6001600160a01b0390811682525f858152600f6020908152604091829020549084015260075492019116630cccd888610de686610ab8565b6040516001600160e01b031960e084901b1681526001600160a01b0390911660048201526024015f60405180830381865afa158015610e27573d5f5f3e3d5ffd5b505050506040513d5f823e601f3d908101601f19168201604052610e4e919081019061234c565b905292915050565b6001600160a01b0382165f90815260106020526040812054610e8b57604051632c83944560e01b815260040160405180910390fd5b6001600160a01b0383165f90815260106020526040902054600101610eb157505f610867565b6001600160a01b0383165f90815260106020526040902054610aa39083906123d3565b60606001805461087b906120f5565b61092e3383836112d1565b6007545f906001600160a01b031663b9f86ad1610f0a84610ab8565b6040516001600160e01b031960e084901b1681526001600160a01b039091166004820152602401602060405180830381865afa158015610f4c573d5f5f3e3d5ffd5b505050506040513d601f19601f8201168201806040525081019061086791906123ea565b5f6060610f7b611296565b6008546001600160a01b0390811690871603610fcf5760405162461bcd60e51b815260206004820152601360248201527219dc9052481a5cc81b9bdd08185b1b1bddd959606a1b6044820152606401610c7e565b856001600160a01b0316858585604051610fea929190612401565b5f6040518083038185875af1925050503d805f8114611024576040519150601f19603f3d011682016040523d82523d5f602084013e611029565b606091505b509097909650945050505050565b611042848484610932565b61104f338585858561136f565b50505050565b606061106082611251565b506006805461106e906120f5565b80601f016020809104026020016040519081016040528092919081815260200182805461109a906120f5565b80156110e55780601f106110bc576101008083540402835291602001916110e5565b820191905f5260205f20905b8154815290600101906020018083116110c857829003601f168201915b50505050509050919050565b6110f9611296565b600b55565b6001600160a01b039182165f90815260056020908152604080832093909416825291909152205460ff1690565b6001600160a01b0381165f908152600d6020526040812054819060609061115181610ab8565b5f828152600f6020526040908190205460075491516301999b1160e31b81526001600160a01b038085166004830152939750909550911690630cccd888906024015f60405180830381865afa1580156111ac573d5f5f3e3d5ffd5b505050506040513d5f823e601f3d908101601f191682016040526111d3919081019061234c565b93959294505050565b5f5f5f6111e98685610e56565b6009549091506112049087906001600160a01b031683611497565b5061120f85856115a7565b909350915061121e8583611720565b50935093915050565b61122f611296565b600980546001600160a01b0319166001600160a01b0392909216919091179055565b5f818152600260205260408120546001600160a01b03168061086757604051637e27328960e01b815260048101849052602401610c7e565b610a4f838383600161179b565b61129e610d01565b6001600160a01b0316336001600160a01b0316146112cf576040516330cd747160e01b815260040160405180910390fd5b565b6001600160a01b03821661130357604051630b61174360e31b81526001600160a01b0383166004820152602401610c7e565b6001600160a01b038381165f81815260056020908152604080832094871680845294825291829020805460ff191686151590811790915591519182527f17307eab39ab6107e8899845ad3d59bd9653f200f220920489ca2b5937696c31910160405180910390a3505050565b6001600160a01b0383163b1561149057604051630a85bd0160e11b81526001600160a01b0384169063150b7a02906113b1908890889087908790600401612410565b6020604051808303815f875af19250505080156113eb575060408051601f3d908101601f191682019092526113e891810190612442565b60015b611452573d808015611418576040519150601f19603f3d011682016040523d82523d5f602084013e61141d565b606091505b5080515f0361144a57604051633250574960e11b81526001600160a01b0385166004820152602401610c7e565b805181602001fd5b6001600160e01b03198116630a85bd0160e11b1461148e57604051633250574960e11b81526001600160a01b0385166004820152602401610c7e565b505b5050505050565b5f81156115a0576001600160a01b038416611541575f836001600160a01b0316836040515f6040518083038185875af1925050503d805f81146114f5576040519150601f19603f3d011682016040523d82523d5f602084013e6114fa565b606091505b505090508061153b5760405162461bcd60e51b815260206004820152600d60248201526c0ccc2d2d840e6cadcc8408aa89609b1b6044820152606401610c7e565b50611556565b6115566001600160a01b03851633858561189f565b604080516001600160a01b03861681523360208201529081018390527f288d9a5737d39d766acb848da277a970d9ee31f9115e17490b9393e282fa7b4d9060600160405180910390a15b5092915050565b5f806115b284610c58565b5f0361164057600a5491506115c784836118f9565b6001600160a01b0384165f908152600d60209081526040808320859055600e909152812054900361162757600b545f838152600f60205260408120805490919061161290849061245d565b9091555050600b54611624908261245d565b90505b600a8054905f61163683612470565b919050555061165b565b6001600160a01b0384165f908152600d602052604090205491505b611665838261245d565b6001600160a01b0385165f908152600e602052604081208054929350839290919061169190849061245d565b90915550505f828152600f6020526040812080548392906116b390849061245d565b9250508190555080600c5f8282546116cb919061245d565b9091555050604080518381526001600160a01b03861660208201529081018290527f4e3883c75cc9c752bb1db2e406a822e4a75067ae77ad9a0a4d179f2709b9e1f69060600160405180910390a19250929050565b5f61173382670de0b6b3a76400006123d3565b6008546040516340c10f1960e01b81526001600160a01b038681166004830152602482018490529293509116906340c10f19906044015f604051808303815f87803b158015611780575f5ffd5b505af1158015611792573d5f5f3e3d5ffd5b50505050505050565b80806117af57506001600160a01b03821615155b15611870575f6117be84611251565b90506001600160a01b038316158015906117ea5750826001600160a01b0316816001600160a01b031614155b80156117fd57506117fb81846110fe565b155b156118265760405163a9fbf51f60e01b81526001600160a01b0384166004820152602401610c7e565b811561186e5783856001600160a01b0316826001600160a01b03167f8c5be1e5ebec7d5bd14f71427d1e84f3dd0314c0f7b2291e5b200ac8c7c3b92560405160405180910390a45b505b50505f90815260046020526040902080546001600160a01b0319166001600160a01b0392909216919091179055565b604080516001600160a01b0385811660248301528416604482015260648082018490528251808303909101815260849091019091526020810180516001600160e01b03166323b872dd60e01b17905261104f90859061195a565b6001600160a01b03821661192257604051633250574960e11b81525f6004820152602401610c7e565b5f61192e83835f6119c6565b90506001600160a01b03811615610a4f576040516339e3563760e11b81525f6004820152602401610c7e565b5f5f60205f8451602086015f885af180611979576040513d5f823e3d81fd5b50505f513d9150811561199057806001141561199d565b6001600160a01b0384163b155b1561104f57604051635274afe760e01b81526001600160a01b0385166004820152602401610c7e565b5f828152600260205260408120546001600160a01b03908116908316156119f2576119f2818486611ab8565b6001600160a01b03811615611a2c57611a0d5f855f5f61179b565b6001600160a01b0381165f90815260036020526040902080545f190190555b6001600160a01b03851615611a5a576001600160a01b0385165f908152600360205260409020805460010190555b5f8481526002602052604080822080546001600160a01b0319166001600160a01b0389811691821790925591518793918516917fddf252ad1be2c89b69c2b068fc378daa952ba7f163c4a11628f55a4df523b3ef91a4949350505050565b611ac3838383611b1c565b610a4f576001600160a01b038316611af157604051637e27328960e01b815260048101829052602401610c7e565b60405163177e802f60e01b81526001600160a01b038316600482015260248101829052604401610c7e565b5f6001600160a01b03831615801590611b785750826001600160a01b0316846001600160a01b03161480611b555750611b5584846110fe565b80611b7857505f828152600460205260409020546001600160a01b038481169116145b949350505050565b6001600160e01b031981168114611b95575f5ffd5b50565b5f60208284031215611ba8575f5ffd5b8135610aa381611b80565b5f81518084528060208401602086015e5f602082860101526020601f19601f83011685010191505092915050565b602081525f610aa36020830184611bb3565b5f60208284031215611c03575f5ffd5b5035919050565b6001600160a01b0381168114611b95575f5ffd5b5f5f60408385031215611c2f575f5ffd5b8235611c3a81611c0a565b946020939093013593505050565b5f60208284031215611c58575f5ffd5b8135610aa381611c0a565b5f5f5f60608486031215611c75575f5ffd5b8335611c8081611c0a565b92506020840135611c9081611c0a565b929592945050506040919091013590565b634e487b7160e01b5f52604160045260245ffd5b604051601f8201601f1916810167ffffffffffffffff81118282101715611cde57611cde611ca1565b604052919050565b5f67ffffffffffffffff821115611cff57611cff611ca1565b5060051b60200190565b5f60208284031215611d19575f5ffd5b813567ffffffffffffffff811115611d2f575f5ffd5b8201601f81018413611d3f575f5ffd5b8035611d52611d4d82611ce6565b611cb5565b8082825260208201915060208360051b850101925086831115611d73575f5ffd5b6020840193505b82841015611d95578335825260209384019390910190611d7a565b9695505050505050565b80516001600160a01b0316825260208082015181840152604080830151606091850182905280519185018290525f920190829060808601905b80831015611dfb5783518252602082019150602084019350600183019250611dd8565b5095945050505050565b5f602082016020835280845180835260408501915060408160051b8601019250602086015f5b82811015611e5c57603f19878603018452611e47858351611d9f565b94506020938401939190910190600101611e2b565b50929695505050505050565b5f5f67ffffffffffffffff841115611e8257611e82611ca1565b50601f8301601f1916602001611e9781611cb5565b915050828152838383011115611eab575f5ffd5b828260208301375f602084830101529392505050565b5f60208284031215611ed1575f5ffd5b813567ffffffffffffffff811115611ee7575f5ffd5b8201601f81018413611ef7575f5ffd5b611b7884823560208401611e68565b6001600160a01b0384168152602080820184905260606040830181905283519083018190525f918401906080840190835b81811015611f55578351835260209384019390920191600101611f37565b5090979650505050505050565b602081525f610aa36020830184611d9f565b5f5f60408385031215611f85575f5ffd5b8235611f9081611c0a565b915060208301358015158114611fa4575f5ffd5b809150509250929050565b5f5f5f5f60608587031215611fc2575f5ffd5b8435611fcd81611c0a565b935060208501359250604085013567ffffffffffffffff811115611fef575f5ffd5b8501601f81018713611fff575f5ffd5b803567ffffffffffffffff811115612015575f5ffd5b876020828401011115612026575f5ffd5b949793965060200194505050565b8215158152604060208201525f611b786040830184611bb3565b5f5f5f5f60808587031215612061575f5ffd5b843561206c81611c0a565b9350602085013561207c81611c0a565b925060408501359150606085013567ffffffffffffffff81111561209e575f5ffd5b8501601f810187136120ae575f5ffd5b6120bd87823560208401611e68565b91505092959194509250565b5f5f604083850312156120da575f5ffd5b82356120e581611c0a565b91506020830135611fa481611c0a565b600181811c9082168061210957607f821691505b602082108103610ab257634e487b7160e01b5f52602260045260245ffd5b601f821115610a4f57805f5260205f20601f840160051c8101602085101561214c5750805b601f840160051c820191505b81811015611490575f8155600101612158565b818103612176575050565b61218082546120f5565b67ffffffffffffffff81111561219857612198611ca1565b6121ac816121a684546120f5565b84612127565b5f601f8211600181146121e0575f83156121c65750848201545b600184901b5f19600386901b1c198216175b855550611490565b5f8581526020808220868352908220601f198616925b8381101561221657828601548255600195860195909101906020016121f6565b508583101561223357818501545f19600388901b60f8161c191681555b5050505050600190811b01905550565b634e487b7160e01b5f52603260045260245ffd5b815167ffffffffffffffff81111561227157612271611ca1565b61227f816121a684546120f5565b6020601f8211600181146122af575f83156121c6575081850151600184901b5f19600386901b1c198216176121d8565b5f84815260208120601f198516915b828110156122de57878501518255602094850194600190920191016122be565b50848210156122fb57868401515f19600387901b60f8161c191681555b50505050600190811b01905550565b634e487b7160e01b5f52601160045260245ffd5b818103818111156108675761086761230a565b5f60208284031215612341575f5ffd5b8151610aa381611c0a565b5f6020828403121561235c575f5ffd5b815167ffffffffffffffff811115612372575f5ffd5b8201601f81018413612382575f5ffd5b8051612390611d4d82611ce6565b8082825260208201915060208360051b8501019250868311156123b1575f5ffd5b6020840193505b82841015611d955783518252602093840193909101906123b8565b80820281158282048414176108675761086761230a565b5f602082840312156123fa575f5ffd5b5051919050565b818382375f9101908152919050565b6001600160a01b03858116825284166020820152604081018390526080606082018190525f90611d9590830184611bb3565b5f60208284031215612452575f5ffd5b8151610aa381611b80565b808201808211156108675761086761230a565b5f600182016124815761248161230a565b506001019056fea26469706673582212204149f3d27992c54c590738e78edf4177245312fb1fd5ad675be8d2d6dca0b5d864736f6c634300081c0033",
    "linkReferences": {}
  },
  "methodIdentifiers": {
    "approve(address,uint256)": "095ea7b3",
    "balanceOf(address)": "70a08231",
    "baseURI()": "6c0360eb",
    "calcPayment(address,uint256)": "92cb8b06",
    "chainId()": "9a8a0592",
    "execute(address,uint256,bytes)": "b61d27f6",
    "freemiumGrinds()": "383211ca",
    "getApproved(uint256)": "081812fc",
    "getIntent(uint256)": "906e277b",
    "getIntentBy(uint256)": "6a2cdfbc",
    "getIntentOf(address)": "ea9d25c3",
    "getIntents(uint256[])": "2a120024",
    "grAI()": "7458f08e",
    "grinder()": "e29e49fb",
    "grinds(uint256)": "fe1ee2ca",
    "grindsOf(address)": "15afebff",
    "intentIdOf(address)": "d490032d",
    "isApprovedForAll(address,address)": "e985e9c5",
    "isPaymentToken(address)": "930eaddc",
    "mint(address,uint256)": "40c10f19",
    "mintTo(address,address,uint256)": "ef9bcb27",
    "name()": "06fdde03",
    "owner()": "8da5cb5b",
    "ownerOf(uint256)": "6352211e",
    "poolsNFT()": "55260ae4",
    "ratePerGrind(address)": "b8e8a6d8",
    "safeTransferFrom(address,address,uint256)": "42842e0e",
    "safeTransferFrom(address,address,uint256,bytes)": "b88d4fde",
    "setApprovalForAll(address,bool)": "a22cb465",
    "setBaseURI(string)": "55f804b3",
    "setFreemiumGrinds(uint256)": "cb7da03f",
    "setGrinder(address)": "fc4333a1",
    "setRatePerGrind(address,uint256)": "7c8e99c5",
    "spentGrinds(uint256)": "b0065807",
    "supportsInterface(bytes4)": "01ffc9a7",
    "symbol()": "95d89b41",
    "tokenURI(uint256)": "c87b56dd",
    "totalGrinds()": "eeaac5e4",
    "totalIntents()": "d06a54f4",
    "totalSupply()": "18160ddd",
    "transferFrom(address,address,uint256)": "23b872dd",
    "unspentGrinds(uint256)": "61ecae67"
  },
  "id": 96
}