{
  "abi": [
    {
      "type": "constructor",
      "inputs": [
        {
          "name": "_poolsNFT",
          "type": "address",
          "internalType": "address"
        },
        {
          "name": "_grAI",
          "type": "address",
          "internalType": "address"
        }
      ],
      "stateMutability": "nonpayable"
    },
    {
      "type": "receive",
      "stateMutability": "payable"
    },
    {
      "type": "function",
      "name": "approve",
      "inputs": [
        {
          "name": "to",
          "type": "address",
          "internalType": "address"
        },
        {
          "name": "tokenId",
          "type": "uint256",
          "internalType": "uint256"
        }
      ],
      "outputs": [],
      "stateMutability": "nonpayable"
    },
    {
      "type": "function",
      "name": "balanceOf",
      "inputs": [
        {
          "name": "owner",
          "type": "address",
          "internalType": "address"
        }
      ],
      "outputs": [
        {
          "name": "",
          "type": "uint256",
          "internalType": "uint256"
        }
      ],
      "stateMutability": "view"
    },
    {
      "type": "function",
      "name": "baseURI",
      "inputs": [],
      "outputs": [
        {
          "name": "",
          "type": "string",
          "internalType": "string"
        }
      ],
      "stateMutability": "view"
    },
    {
      "type": "function",
      "name": "calcPayment",
      "inputs": [
        {
          "name": "paymentToken",
          "type": "address",
          "internalType": "address"
        },
        {
          "name": "_grinds",
          "type": "uint256",
          "internalType": "uint256"
        }
      ],
      "outputs": [
        {
          "name": "paymentAmount",
          "type": "uint256",
          "internalType": "uint256"
        }
      ],
      "stateMutability": "view"
    },
    {
      "type": "function",
      "name": "chainId",
      "inputs": [],
      "outputs": [
        {
          "name": "id",
          "type": "uint256",
          "internalType": "uint256"
        }
      ],
      "stateMutability": "view"
    },
    {
      "type": "function",
      "name": "execute",
      "inputs": [
        {
          "name": "target",
          "type": "address",
          "internalType": "address"
        },
        {
          "name": "value",
          "type": "uint256",
          "internalType": "uint256"
        },
        {
          "name": "data",
          "type": "bytes",
          "internalType": "bytes"
        }
      ],
      "outputs": [
        {
          "name": "success",
          "type": "bool",
          "internalType": "bool"
        },
        {
          "name": "result",
          "type": "bytes",
          "internalType": "bytes"
        }
      ],
      "stateMutability": "payable"
    },
    {
      "type": "function",
      "name": "freemiumGrinds",
      "inputs": [],
      "outputs": [
        {
          "name": "",
          "type": "uint256",
          "internalType": "uint256"
        }
      ],
      "stateMutability": "view"
    },
    {
      "type": "function",
      "name": "getApproved",
      "inputs": [
        {
          "name": "tokenId",
          "type": "uint256",
          "internalType": "uint256"
        }
      ],
      "outputs": [
        {
          "name": "",
          "type": "address",
          "internalType": "address"
        }
      ],
      "stateMutability": "view"
    },
    {
      "type": "function",
      "name": "getIntent",
      "inputs": [
        {
          "name": "intentId",
          "type": "uint256",
          "internalType": "uint256"
        }
      ],
      "outputs": [
        {
          "name": "intent",
          "type": "tuple",
          "internalType": "struct IIntentsNFT.Intent",
          "components": [
            {
              "name": "owner",
              "type": "address",
              "internalType": "address"
            },
            {
              "name": "grinds",
              "type": "uint256",
              "internalType": "uint256"
            },
            {
              "name": "spentGrinds",
              "type": "uint256",
              "internalType": "uint256"
            },
            {
              "name": "unspentGrinds",
              "type": "uint256",
              "internalType": "uint256"
            },
            {
              "name": "poolIds",
              "type": "uint256[]",
              "internalType": "uint256[]"
            }
          ]
        }
      ],
      "stateMutability": "view"
    },
    {
      "type": "function",
      "name": "getIntentBy",
      "inputs": [
        {
          "name": "poolId",
          "type": "uint256",
          "internalType": "uint256"
        }
      ],
      "outputs": [
        {
          "name": "_account",
          "type": "address",
          "internalType": "address"
        },
        {
          "name": "_grinds",
          "type": "uint256",
          "internalType": "uint256"
        },
        {
          "name": "_spentGrinds",
          "type": "uint256",
          "internalType": "uint256"
        },
        {
          "name": "_unspentGrinds",
          "type": "uint256",
          "internalType": "uint256"
        },
        {
          "name": "_poolIds",
          "type": "uint256[]",
          "internalType": "uint256[]"
        }
      ],
      "stateMutability": "view"
    },
    {
      "type": "function",
      "name": "getIntentOf",
      "inputs": [
        {
          "name": "account",
          "type": "address",
          "internalType": "address"
        }
      ],
      "outputs": [
        {
          "name": "_account",
          "type": "address",
          "internalType": "address"
        },
        {
          "name": "_grinds",
          "type": "uint256",
          "internalType": "uint256"
        },
        {
          "name": "_spentGrinds",
          "type": "uint256",
          "internalType": "uint256"
        },
        {
          "name": "_unspentGrinds",
          "type": "uint256",
          "internalType": "uint256"
        },
        {
          "name": "_poolIds",
          "type": "uint256[]",
          "internalType": "uint256[]"
        }
      ],
      "stateMutability": "view"
    },
    {
      "type": "function",
      "name": "getIntents",
      "inputs": [
        {
          "name": "intentIds",
          "type": "uint256[]",
          "internalType": "uint256[]"
        }
      ],
      "outputs": [
        {
          "name": "intents",
          "type": "tuple[]",
          "internalType": "struct IIntentsNFT.Intent[]",
          "components": [
            {
              "name": "owner",
              "type": "address",
              "internalType": "address"
            },
            {
              "name": "grinds",
              "type": "uint256",
              "internalType": "uint256"
            },
            {
              "name": "spentGrinds",
              "type": "uint256",
              "internalType": "uint256"
            },
            {
              "name": "unspentGrinds",
              "type": "uint256",
              "internalType": "uint256"
            },
            {
              "name": "poolIds",
              "type": "uint256[]",
              "internalType": "uint256[]"
            }
          ]
        }
      ],
      "stateMutability": "view"
    },
    {
      "type": "function",
      "name": "grAI",
      "inputs": [],
      "outputs": [
        {
          "name": "",
          "type": "address",
          "internalType": "contract IGRAI"
        }
      ],
      "stateMutability": "view"
    },
    {
      "type": "function",
      "name": "grinder",
      "inputs": [],
      "outputs": [
        {
          "name": "",
          "type": "address",
          "internalType": "address payable"
        }
      ],
      "stateMutability": "view"
    },
    {
      "type": "function",
      "name": "grinds",
      "inputs": [
        {
          "name": "intentId",
          "type": "uint256",
          "internalType": "uint256"
        }
      ],
      "outputs": [
        {
          "name": "",
          "type": "uint256",
          "internalType": "uint256"
        }
      ],
      "stateMutability": "view"
    },
    {
      "type": "function",
      "name": "grindsOf",
      "inputs": [
        {
          "name": "account",
          "type": "address",
          "internalType": "address"
        }
      ],
      "outputs": [
        {
          "name": "",
          "type": "uint256",
          "internalType": "uint256"
        }
      ],
      "stateMutability": "view"
    },
    {
      "type": "function",
      "name": "intentIdOf",
      "inputs": [
        {
          "name": "account",
          "type": "address",
          "internalType": "address"
        }
      ],
      "outputs": [
        {
          "name": "",
          "type": "uint256",
          "internalType": "uint256"
        }
      ],
      "stateMutability": "view"
    },
    {
      "type": "function",
      "name": "isApprovedForAll",
      "inputs": [
        {
          "name": "owner",
          "type": "address",
          "internalType": "address"
        },
        {
          "name": "operator",
          "type": "address",
          "internalType": "address"
        }
      ],
      "outputs": [
        {
          "name": "",
          "type": "bool",
          "internalType": "bool"
        }
      ],
      "stateMutability": "view"
    },
    {
      "type": "function",
      "name": "isPaymentToken",
      "inputs": [
        {
          "name": "paymentToken",
          "type": "address",
          "internalType": "address"
        }
      ],
      "outputs": [
        {
          "name": "",
          "type": "bool",
          "internalType": "bool"
        }
      ],
      "stateMutability": "view"
    },
    {
      "type": "function",
      "name": "mint",
      "inputs": [
        {
          "name": "paymentToken",
          "type": "address",
          "internalType": "address"
        },
        {
          "name": "_grinds",
          "type": "uint256",
          "internalType": "uint256"
        }
      ],
      "outputs": [
        {
          "name": "",
          "type": "uint256",
          "internalType": "uint256"
        },
        {
          "name": "",
          "type": "uint256",
          "internalType": "uint256"
        }
      ],
      "stateMutability": "payable"
    },
    {
      "type": "function",
      "name": "mintTo",
      "inputs": [
        {
          "name": "paymentToken",
          "type": "address",
          "internalType": "address"
        },
        {
          "name": "to",
          "type": "address",
          "internalType": "address"
        },
        {
          "name": "_grinds",
          "type": "uint256",
          "internalType": "uint256"
        }
      ],
      "outputs": [
        {
          "name": "intentId",
          "type": "uint256",
          "internalType": "uint256"
        },
        {
          "name": "grindsAcquired",
          "type": "uint256",
          "internalType": "uint256"
        }
      ],
      "stateMutability": "payable"
    },
    {
      "type": "function",
      "name": "name",
      "inputs": [],
      "outputs": [
        {
          "name": "",
          "type": "string",
          "internalType": "string"
        }
      ],
      "stateMutability": "view"
    },
    {
      "type": "function",
      "name": "owner",
      "inputs": [],
      "outputs": [
        {
          "name": "",
          "type": "address",
          "internalType": "address payable"
        }
      ],
      "stateMutability": "view"
    },
    {
      "type": "function",
      "name": "ownerOf",
      "inputs": [
        {
          "name": "tokenId",
          "type": "uint256",
          "internalType": "uint256"
        }
      ],
      "outputs": [
        {
          "name": "",
          "type": "address",
          "internalType": "address"
        }
      ],
      "stateMutability": "view"
    },
    {
      "type": "function",
      "name": "poolsNFT",
      "inputs": [],
      "outputs": [
        {
          "name": "",
          "type": "address",
          "internalType": "contract IPoolsNFT"
        }
      ],
      "stateMutability": "view"
    },
    {
      "type": "function",
      "name": "ratePerGrind",
      "inputs": [
        {
          "name": "paymentToken",
          "type": "address",
          "internalType": "address"
        }
      ],
      "outputs": [
        {
          "name": "",
          "type": "uint256",
          "internalType": "uint256"
        }
      ],
      "stateMutability": "view"
    },
    {
      "type": "function",
      "name": "safeTransferFrom",
      "inputs": [
        {
          "name": "from",
          "type": "address",
          "internalType": "address"
        },
        {
          "name": "to",
          "type": "address",
          "internalType": "address"
        },
        {
          "name": "tokenId",
          "type": "uint256",
          "internalType": "uint256"
        }
      ],
      "outputs": [],
      "stateMutability": "nonpayable"
    },
    {
      "type": "function",
      "name": "safeTransferFrom",
      "inputs": [
        {
          "name": "from",
          "type": "address",
          "internalType": "address"
        },
        {
          "name": "to",
          "type": "address",
          "internalType": "address"
        },
        {
          "name": "tokenId",
          "type": "uint256",
          "internalType": "uint256"
        },
        {
          "name": "data",
          "type": "bytes",
          "internalType": "bytes"
        }
      ],
      "outputs": [],
      "stateMutability": "nonpayable"
    },
    {
      "type": "function",
      "name": "setApprovalForAll",
      "inputs": [
        {
          "name": "operator",
          "type": "address",
          "internalType": "address"
        },
        {
          "name": "approved",
          "type": "bool",
          "internalType": "bool"
        }
      ],
      "outputs": [],
      "stateMutability": "nonpayable"
    },
    {
      "type": "function",
      "name": "setBaseURI",
      "inputs": [
        {
          "name": "_baseURI",
          "type": "string",
          "internalType": "string"
        }
      ],
      "outputs": [],
      "stateMutability": "nonpayable"
    },
    {
      "type": "function",
      "name": "setFreemiumGrinds",
      "inputs": [
        {
          "name": "_freemiumGrinds",
          "type": "uint256",
          "internalType": "uint256"
        }
      ],
      "outputs": [],
      "stateMutability": "nonpayable"
    },
    {
      "type": "function",
      "name": "setGrinder",
      "inputs": [
        {
          "name": "_grinder",
          "type": "address",
          "internalType": "address payable"
        }
      ],
      "outputs": [],
      "stateMutability": "nonpayable"
    },
    {
      "type": "function",
      "name": "setRatePerGrind",
      "inputs": [
        {
          "name": "token",
          "type": "address",
          "internalType": "address"
        },
        {
          "name": "_ratePerGrind",
          "type": "uint256",
          "internalType": "uint256"
        }
      ],
      "outputs": [],
      "stateMutability": "nonpayable"
    },
    {
      "type": "function",
      "name": "spentGrinds",
      "inputs": [
        {
          "name": "intentId",
          "type": "uint256",
          "internalType": "uint256"
        }
      ],
      "outputs": [
        {
          "name": "",
          "type": "uint256",
          "internalType": "uint256"
        }
      ],
      "stateMutability": "view"
    },
    {
      "type": "function",
      "name": "supportsInterface",
      "inputs": [
        {
          "name": "interfaceId",
          "type": "bytes4",
          "internalType": "bytes4"
        }
      ],
      "outputs": [
        {
          "name": "",
          "type": "bool",
          "internalType": "bool"
        }
      ],
      "stateMutability": "view"
    },
    {
      "type": "function",
      "name": "symbol",
      "inputs": [],
      "outputs": [
        {
          "name": "",
          "type": "string",
          "internalType": "string"
        }
      ],
      "stateMutability": "view"
    },
    {
      "type": "function",
      "name": "tokenURI",
      "inputs": [
        {
          "name": "intentId",
          "type": "uint256",
          "internalType": "uint256"
        }
      ],
      "outputs": [
        {
          "name": "uri",
          "type": "string",
          "internalType": "string"
        }
      ],
      "stateMutability": "view"
    },
    {
      "type": "function",
      "name": "totalGrinds",
      "inputs": [],
      "outputs": [
        {
          "name": "",
          "type": "uint256",
          "internalType": "uint256"
        }
      ],
      "stateMutability": "view"
    },
    {
      "type": "function",
      "name": "totalIntents",
      "inputs": [],
      "outputs": [
        {
          "name": "",
          "type": "uint256",
          "internalType": "uint256"
        }
      ],
      "stateMutability": "view"
    },
    {
      "type": "function",
      "name": "totalSupply",
      "inputs": [],
      "outputs": [
        {
          "name": "",
          "type": "uint256",
          "internalType": "uint256"
        }
      ],
      "stateMutability": "view"
    },
    {
      "type": "function",
      "name": "transferFrom",
      "inputs": [
        {
          "name": "",
          "type": "address",
          "internalType": "address"
        },
        {
          "name": "",
          "type": "address",
          "internalType": "address"
        },
        {
          "name": "",
          "type": "uint256",
          "internalType": "uint256"
        }
      ],
      "outputs": [],
      "stateMutability": "nonpayable"
    },
    {
      "type": "function",
      "name": "unspentGrinds",
      "inputs": [
        {
          "name": "intentId",
          "type": "uint256",
          "internalType": "uint256"
        }
      ],
      "outputs": [
        {
          "name": "",
          "type": "uint256",
          "internalType": "uint256"
        }
      ],
      "stateMutability": "view"
    },
    {
      "type": "event",
      "name": "Approval",
      "inputs": [
        {
          "name": "owner",
          "type": "address",
          "indexed": true,
          "internalType": "address"
        },
        {
          "name": "approved",
          "type": "address",
          "indexed": true,
          "internalType": "address"
        },
        {
          "name": "tokenId",
          "type": "uint256",
          "indexed": true,
          "internalType": "uint256"
        }
      ],
      "anonymous": false
    },
    {
      "type": "event",
      "name": "ApprovalForAll",
      "inputs": [
        {
          "name": "owner",
          "type": "address",
          "indexed": true,
          "internalType": "address"
        },
        {
          "name": "operator",
          "type": "address",
          "indexed": true,
          "internalType": "address"
        },
        {
          "name": "approved",
          "type": "bool",
          "indexed": false,
          "internalType": "bool"
        }
      ],
      "anonymous": false
    },
    {
      "type": "event",
      "name": "Mint",
      "inputs": [
        {
          "name": "intentId",
          "type": "uint256",
          "indexed": false,
          "internalType": "uint256"
        },
        {
          "name": "to",
          "type": "address",
          "indexed": false,
          "internalType": "address"
        },
        {
          "name": "grinds",
          "type": "uint256",
          "indexed": false,
          "internalType": "uint256"
        }
      ],
      "anonymous": false
    },
    {
      "type": "event",
      "name": "Pay",
      "inputs": [
        {
          "name": "paymentToken",
          "type": "address",
          "indexed": false,
          "internalType": "address"
        },
        {
          "name": "payer",
          "type": "address",
          "indexed": false,
          "internalType": "address"
        },
        {
          "name": "paymentAmount",
          "type": "uint256",
          "indexed": false,
          "internalType": "uint256"
        }
      ],
      "anonymous": false
    },
    {
      "type": "event",
      "name": "SetRatePerGrind",
      "inputs": [
        {
          "name": "token",
          "type": "address",
          "indexed": false,
          "internalType": "address"
        },
        {
          "name": "_ratePerGrind",
          "type": "uint256",
          "indexed": false,
          "internalType": "uint256"
        }
      ],
      "anonymous": false
    },
    {
      "type": "event",
      "name": "Transfer",
      "inputs": [
        {
          "name": "from",
          "type": "address",
          "indexed": true,
          "internalType": "address"
        },
        {
          "name": "to",
          "type": "address",
          "indexed": true,
          "internalType": "address"
        },
        {
          "name": "tokenId",
          "type": "uint256",
          "indexed": true,
          "internalType": "uint256"
        }
      ],
      "anonymous": false
    },
    {
      "type": "error",
      "name": "ERC721IncorrectOwner",
      "inputs": [
        {
          "name": "sender",
          "type": "address",
          "internalType": "address"
        },
        {
          "name": "tokenId",
          "type": "uint256",
          "internalType": "uint256"
        },
        {
          "name": "owner",
          "type": "address",
          "internalType": "address"
        }
      ]
    },
    {
      "type": "error",
      "name": "ERC721InsufficientApproval",
      "inputs": [
        {
          "name": "operator",
          "type": "address",
          "internalType": "address"
        },
        {
          "name": "tokenId",
          "type": "uint256",
          "internalType": "uint256"
        }
      ]
    },
    {
      "type": "error",
      "name": "ERC721InvalidApprover",
      "inputs": [
        {
          "name": "approver",
          "type": "address",
          "internalType": "address"
        }
      ]
    },
    {
      "type": "error",
      "name": "ERC721InvalidOperator",
      "inputs": [
        {
          "name": "operator",
          "type": "address",
          "internalType": "address"
        }
      ]
    },
    {
      "type": "error",
      "name": "ERC721InvalidOwner",
      "inputs": [
        {
          "name": "owner",
          "type": "address",
          "internalType": "address"
        }
      ]
    },
    {
      "type": "error",
      "name": "ERC721InvalidReceiver",
      "inputs": [
        {
          "name": "receiver",
          "type": "address",
          "internalType": "address"
        }
      ]
    },
    {
      "type": "error",
      "name": "ERC721InvalidSender",
      "inputs": [
        {
          "name": "sender",
          "type": "address",
          "internalType": "address"
        }
      ]
    },
    {
      "type": "error",
      "name": "ERC721NonexistentToken",
      "inputs": [
        {
          "name": "tokenId",
          "type": "uint256",
          "internalType": "uint256"
        }
      ]
    },
    {
      "type": "error",
      "name": "NotGrinderAI",
      "inputs": []
    },
    {
      "type": "error",
      "name": "NotOwner",
      "inputs": []
    },
    {
      "type": "error",
      "name": "NotPaymentToken",
      "inputs": []
    },
    {
      "type": "error",
      "name": "NotTransferable",
      "inputs": []
    },
    {
      "type": "error",
      "name": "Owned",
      "inputs": []
    },
    {
      "type": "error",
      "name": "SafeERC20FailedOperation",
      "inputs": [
        {
          "name": "token",
          "type": "address",
          "internalType": "address"
        }
      ]
    }
  ],
  "bytecode": {
    "object": "0x608060405234801561000f575f5ffd5b5060405161292d38038061292d83398101604081905261002e916101d1565b6040518060400160405280601c81526020017f4772696e646572414920496e74656e747320436f6c6c656374696f6e000000008152506040518060400160405280600c81526020016b677241495f494e54454e545360a01b815250815f908161009791906102a1565b5060016100a482826102a1565b5050600780546001600160a01b038086166001600160a01b0319928316179092556008805492851692909116919091179055506100df61013c565b600980546001600160a01b0319166001600160a01b039290921691909117905550505f80526010602052655af3107a40007f6e0956cda88cad152e89927e53611735b61a5c762d1428573c6931b0a5efcb01556005600b5561037d565b60075460408051638da5cb5b60e01b815290515f926001600160a01b031691638da5cb5b9160048083019260209291908290030181865afa9250505080156101a1575060408051601f3d908101601f1916820190925261019e9181019061035b565b60015b6101b557506007546001600160a01b031690565b919050565b6001600160a01b03811681146101ce575f5ffd5b50565b5f5f604083850312156101e2575f5ffd5b82516101ed816101ba565b60208401519092506101fe816101ba565b809150509250929050565b634e487b7160e01b5f52604160045260245ffd5b600181811c9082168061023157607f821691505b60208210810361024f57634e487b7160e01b5f52602260045260245ffd5b50919050565b601f82111561029c57805f5260205f20601f840160051c8101602085101561027a5750805b601f840160051c820191505b81811015610299575f8155600101610286565b50505b505050565b81516001600160401b038111156102ba576102ba610209565b6102ce816102c8845461021d565b84610255565b6020601f821160018114610300575f83156102e95750848201515b5f19600385901b1c1916600184901b178455610299565b5f84815260208120601f198516915b8281101561032f578785015182556020948501946001909201910161030f565b508482101561034c57868401515f19600387901b60f8161c191681555b50505050600190811b01905550565b5f6020828403121561036b575f5ffd5b8151610376816101ba565b9392505050565b6125a38061038a5f395ff3fe60806040526004361061024c575f3560e01c8063906e277b11610134578063c87b56dd116100b3578063e985e9c511610078578063e985e9c51461076e578063ea9d25c31461078d578063eeaac5e4146107ac578063ef9bcb27146107c1578063fc4333a1146107d4578063fe1ee2ca146107f3575f5ffd5b8063c87b56dd146106d1578063cb7da03f146106f0578063d06a54f41461070f578063d490032d14610724578063e29e49fb1461074f575f5ffd5b8063a22cb465116100f9578063a22cb46514610628578063b006580714610647578063b61d27f614610666578063b88d4fde14610687578063b8e8a6d8146106a6575f5ffd5b8063906e277b1461058157806392cb8b06146105ad578063930eaddc146105cc57806395d89b41146106025780639a8a059214610616575f5ffd5b806342842e0e116101cb5780636a2cdfbc116101905780636a2cdfbc146104cc5780636c0360eb146104fc57806370a08231146105105780637458f08e1461052f5780637c8e99c51461054e5780638da5cb5b1461056d575f5ffd5b806342842e0e1461043157806355260ae41461045057806355f804b31461046f57806361ecae671461048e5780636352211e146104ad575f5ffd5b806318160ddd1161021157806318160ddd1461039557806323b872dd146103a95780632a120024146103c8578063383211ca146103f457806340c10f1914610409575f5ffd5b806301ffc9a7146102b157806306fdde03146102e5578063081812fc14610306578063095ea7b31461033d57806315afebff1461035c575f5ffd5b366102ad5734156102ab576009546040515f916001600160a01b03169034908381818185875af1925050503d805f81146102a1576040519150601f19603f3d011682016040523d82523d5f602084013e6102a6565b606091505b505050505b005b5f5ffd5b3480156102bc575f5ffd5b506102d06102cb366004611c59565b61081e565b60405190151581526020015b60405180910390f35b3480156102f0575f5ffd5b506102f961086f565b6040516102dc9190611ca2565b348015610311575f5ffd5b50610325610320366004611cb4565b6108fe565b6040516001600160a01b0390911681526020016102dc565b348015610348575f5ffd5b506102ab610357366004611cdf565b610925565b348015610367575f5ffd5b50610387610376366004611d09565b600e6020525f908152604090205481565b6040519081526020016102dc565b3480156103a0575f5ffd5b50600a54610387565b3480156103b4575f5ffd5b506102ab6103c3366004611d24565b610934565b3480156103d3575f5ffd5b506103e76103e2366004611dca565b61095a565b6040516102dc9190611eda565b3480156103ff575f5ffd5b50610387600b5481565b61041c610417366004611cdf565b610a3b565b604080519283526020830191909152016102dc565b34801561043c575f5ffd5b506102ab61044b366004611d24565b610a53565b34801561045b575f5ffd5b50600754610325906001600160a01b031681565b34801561047a575f5ffd5b506102ab610489366004611f96565b610a72565b348015610499575f5ffd5b506103876104a8366004611cb4565b610a86565b3480156104b8575f5ffd5b506103256104c7366004611cb4565b610ad6565b3480156104d7575f5ffd5b506104eb6104e6366004611cb4565b610ae0565b6040516102dc959493929190611fdb565b348015610507575f5ffd5b506102f9610c2c565b34801561051b575f5ffd5b5061038761052a366004611d09565b610cb8565b34801561053a575f5ffd5b50600854610325906001600160a01b031681565b348015610559575f5ffd5b506102ab610568366004611cdf565b610d02565b348015610578575f5ffd5b50610325610d61565b34801561058c575f5ffd5b506105a061059b366004611cb4565b610ddf565b6040516102dc9190612047565b3480156105b8575f5ffd5b506103876105c7366004611cdf565b610ef5565b3480156105d7575f5ffd5b506102d06105e6366004611d09565b6001600160a01b03165f90815260106020526040902054151590565b34801561060d575f5ffd5b506102f9610f73565b348015610621575f5ffd5b5046610387565b348015610633575f5ffd5b506102ab610642366004612059565b610f82565b348015610652575f5ffd5b50610387610661366004611cb4565b610f8d565b610679610674366004612094565b611014565b6040516102dc929190612119565b348015610692575f5ffd5b506102ab6106a1366004612133565b6110db565b3480156106b1575f5ffd5b506103876106c0366004611d09565b60106020525f908152604090205481565b3480156106dc575f5ffd5b506102f96106eb366004611cb4565b6110f9565b3480156106fb575f5ffd5b506102ab61070a366004611cb4565b611195565b34801561071a575f5ffd5b50610387600a5481565b34801561072f575f5ffd5b5061038761073e366004611d09565b600d6020525f908152604090205481565b34801561075a575f5ffd5b50600954610325906001600160a01b031681565b348015610779575f5ffd5b506102d06107883660046121ae565b6111a2565b348015610798575f5ffd5b506104eb6107a7366004611d09565b6111cf565b3480156107b7575f5ffd5b50610387600c5481565b61041c6107cf366004611d24565b61129c565b3480156107df575f5ffd5b506102ab6107ee366004611d09565b6112e7565b3480156107fe575f5ffd5b5061038761080d366004611cb4565b600f6020525f908152604090205481565b5f6001600160e01b031982166380ac58cd60e01b148061084e57506001600160e01b03198216635b5e139f60e01b145b8061086957506301ffc9a760e01b6001600160e01b03198316145b92915050565b60605f805461087d906121da565b80601f01602080910402602001604051908101604052809291908181526020018280546108a9906121da565b80156108f45780601f106108cb576101008083540402835291602001916108f4565b820191905f5260205f20905b8154815290600101906020018083116108d757829003601f168201915b5050505050905090565b5f61090882611311565b505f828152600460205260409020546001600160a01b0316610869565b610930828233611349565b5050565b60066109408180612250565b5060405163dc8d8db760e01b815260040160405180910390fd5b80516060908067ffffffffffffffff81111561097857610978611d62565b6040519080825280602002602001820160405280156109e057816020015b6109cd6040518060a001604052805f6001600160a01b031681526020015f81526020015f81526020015f8152602001606081525090565b8152602001906001900390816109965790505b5091505f5b81811015610a3457610a0f848281518110610a0257610a02612328565b6020026020010151610ddf565b838281518110610a2157610a21612328565b60209081029190910101526001016109e5565b5050919050565b5f5f610a4884338561129c565b915091509250929050565b610a6d83838360405180602001604052805f8152506110db565b505050565b610a7a611356565b6006610930828261233c565b5f5f610a9183610f8d565b5f848152600f60205260409020549091508111610ac8575f838152600f6020526040902054610ac1908290612403565b9392505050565b505f92915050565b50919050565b5f61086982611311565b6007546040516331a9108f60e11b8152600481018390525f918291829182916060916001600160a01b031690636352211e90602401602060405180830381865afa158015610b30573d5f5f3e3d5ffd5b505050506040513d601f19601f82011682018060405250810190610b549190612416565b6001600160a01b0381165f818152600d6020818152604080842054808552600f83529084205494909352529196509450610b8d90610f8d565b6001600160a01b0386165f908152600d6020526040902054909350610bb190610a86565b6007546040516301999b1160e31b81526001600160a01b038881166004830152929450911690630cccd888906024015f60405180830381865afa158015610bfa573d5f5f3e3d5ffd5b505050506040513d5f823e601f3d908101601f19168201604052610c219190810190612431565b905091939590929450565b60068054610c39906121da565b80601f0160208091040260200160405190810160405280929190818152602001828054610c65906121da565b8015610cb05780601f10610c8757610100808354040283529160200191610cb0565b820191905f5260205f20905b815481529060010190602001808311610c9357829003601f168201915b505050505081565b5f6001600160a01b038216610ce7576040516322718ad960e21b81525f60048201526024015b60405180910390fd5b506001600160a01b03165f9081526003602052604090205490565b610d0a611356565b6001600160a01b0382165f81815260106020908152604091829020849055815192835282018390527feeb67eb9d9276721754be06e17d08c3e16be85f9d5ab7a123c6499263dcd11c9910160405180910390a15050565b60075460408051638da5cb5b60e01b815290515f926001600160a01b031691638da5cb5b9160048083019260209291908290030181865afa925050508015610dc6575060408051601f3d908101601f19168201909252610dc391810190612416565b60015b610dda57506007546001600160a01b031690565b919050565b610e166040518060a001604052805f6001600160a01b031681526020015f81526020015f81526020015f8152602001606081525090565b6040518060a00160405280610e2a84610ad6565b6001600160a01b031681525f848152600f6020908152604091829020549083015201610e5584610f8d565b8152602001610e6384610a86565b81526007546020909101906001600160a01b0316630cccd888610e8586610ad6565b6040516001600160e01b031960e084901b1681526001600160a01b0390911660048201526024015f60405180830381865afa158015610ec6573d5f5f3e3d5ffd5b505050506040513d5f823e601f3d908101601f19168201604052610eed9190810190612431565b905292915050565b6001600160a01b0382165f90815260106020526040812054610f2a57604051632c83944560e01b815260040160405180910390fd5b6001600160a01b0383165f90815260106020526040902054600101610f5057505f610869565b6001600160a01b0383165f90815260106020526040902054610ac19083906124b8565b60606001805461087d906121da565b610930338383611391565b6007545f906001600160a01b031663b9f86ad1610fa984610ad6565b6040516001600160e01b031960e084901b1681526001600160a01b039091166004820152602401602060405180830381865afa925050508015611009575060408051601f3d908101601f19168201909252611006918101906124cf565b60015b61086957505f919050565b5f606061101f611356565b6008546001600160a01b03908116908716036110735760405162461bcd60e51b815260206004820152601360248201527219dc9052481a5cc81b9bdd08185b1b1bddd959606a1b6044820152606401610cde565b856001600160a01b031685858560405161108e9291906124e6565b5f6040518083038185875af1925050503d805f81146110c8576040519150601f19603f3d011682016040523d82523d5f602084013e6110cd565b606091505b509097909650945050505050565b6110e6848484610934565b6110f3338585858561142f565b50505050565b606061110482611311565b5060068054611112906121da565b80601f016020809104026020016040519081016040528092919081815260200182805461113e906121da565b80156111895780601f1061116057610100808354040283529160200191611189565b820191905f5260205f20905b81548152906001019060200180831161116c57829003601f168201915b50505050509050919050565b61119d611356565b600b55565b6001600160a01b039182165f90815260056020908152604080832093909416825291909152205460ff1690565b6001600160a01b0381165f908152600d60205260408120548190819081906060906111f981610ad6565b5f828152600f6020526040902054909650945061121581610f8d565b935061122081610a86565b6007546040516301999b1160e31b81526001600160a01b038981166004830152929550911690630cccd888906024015f60405180830381865afa158015611269573d5f5f3e3d5ffd5b505050506040513d5f823e601f3d908101601f191682016040526112909190810190612431565b91505091939590929450565b5f5f5f6112a98685610ef5565b6009549091506112c49087906001600160a01b031683611557565b506112cf8585611667565b90935091506112de85836117e1565b50935093915050565b6112ef611356565b600980546001600160a01b0319166001600160a01b0392909216919091179055565b5f818152600260205260408120546001600160a01b03168061086957604051637e27328960e01b815260048101849052602401610cde565b610a6d838383600161185c565b61135e610d61565b6001600160a01b0316336001600160a01b03161461138f576040516330cd747160e01b815260040160405180910390fd5b565b6001600160a01b0382166113c357604051630b61174360e31b81526001600160a01b0383166004820152602401610cde565b6001600160a01b038381165f81815260056020908152604080832094871680845294825291829020805460ff191686151590811790915591519182527f17307eab39ab6107e8899845ad3d59bd9653f200f220920489ca2b5937696c31910160405180910390a3505050565b6001600160a01b0383163b1561155057604051630a85bd0160e11b81526001600160a01b0384169063150b7a02906114719088908890879087906004016124f5565b6020604051808303815f875af19250505080156114ab575060408051601f3d908101601f191682019092526114a891810190612527565b60015b611512573d8080156114d8576040519150601f19603f3d011682016040523d82523d5f602084013e6114dd565b606091505b5080515f0361150a57604051633250574960e11b81526001600160a01b0385166004820152602401610cde565b805181602001fd5b6001600160e01b03198116630a85bd0160e11b1461154e57604051633250574960e11b81526001600160a01b0385166004820152602401610cde565b505b5050505050565b5f8115611660576001600160a01b038416611601575f836001600160a01b0316836040515f6040518083038185875af1925050503d805f81146115b5576040519150601f19603f3d011682016040523d82523d5f602084013e6115ba565b606091505b50509050806115fb5760405162461bcd60e51b815260206004820152600d60248201526c0ccc2d2d840e6cadcc8408aa89609b1b6044820152606401610cde565b50611616565b6116166001600160a01b038516338585611960565b604080516001600160a01b03861681523360208201529081018390527f288d9a5737d39d766acb848da277a970d9ee31f9115e17490b9393e282fa7b4d9060600160405180910390a15b5092915050565b5f8061167284610cb8565b5f0361170057600a54915061168784836119ba565b6001600160a01b0384165f908152600d60209081526040808320859055600e90915281205490036116e757600b545f838152600f6020526040812080549091906116d2908490612542565b9091555050600b546116e49082612542565b90505b600a8054905f6116f683612555565b919050555061171b565b6001600160a01b0384165f908152600d602052604090205491505b5f828152600f602052604081208054859290611738908490612542565b9091555061174890508382612542565b6001600160a01b0385165f908152600e6020526040812080549293508392909190611774908490612542565b9250508190555080600c5f82825461178c9190612542565b9091555050604080518381526001600160a01b03861660208201529081018290527f4e3883c75cc9c752bb1db2e406a822e4a75067ae77ad9a0a4d179f2709b9e1f69060600160405180910390a19250929050565b5f6117f482670de0b6b3a76400006124b8565b6008546040516340c10f1960e01b81526001600160a01b038681166004830152602482018490529293509116906340c10f19906044015f604051808303815f87803b158015611841575f5ffd5b505af1158015611853573d5f5f3e3d5ffd5b50505050505050565b808061187057506001600160a01b03821615155b15611931575f61187f84611311565b90506001600160a01b038316158015906118ab5750826001600160a01b0316816001600160a01b031614155b80156118be57506118bc81846111a2565b155b156118e75760405163a9fbf51f60e01b81526001600160a01b0384166004820152602401610cde565b811561192f5783856001600160a01b0316826001600160a01b03167f8c5be1e5ebec7d5bd14f71427d1e84f3dd0314c0f7b2291e5b200ac8c7c3b92560405160405180910390a45b505b50505f90815260046020526040902080546001600160a01b0319166001600160a01b0392909216919091179055565b604080516001600160a01b0385811660248301528416604482015260648082018490528251808303909101815260849091019091526020810180516001600160e01b03166323b872dd60e01b1790526110f3908590611a1b565b6001600160a01b0382166119e357604051633250574960e11b81525f6004820152602401610cde565b5f6119ef83835f611a87565b90506001600160a01b03811615610a6d576040516339e3563760e11b81525f6004820152602401610cde565b5f5f60205f8451602086015f885af180611a3a576040513d5f823e3d81fd5b50505f513d91508115611a51578060011415611a5e565b6001600160a01b0384163b155b156110f357604051635274afe760e01b81526001600160a01b0385166004820152602401610cde565b5f828152600260205260408120546001600160a01b0390811690831615611ab357611ab3818486611b79565b6001600160a01b03811615611aed57611ace5f855f5f61185c565b6001600160a01b0381165f90815260036020526040902080545f190190555b6001600160a01b03851615611b1b576001600160a01b0385165f908152600360205260409020805460010190555b5f8481526002602052604080822080546001600160a01b0319166001600160a01b0389811691821790925591518793918516917fddf252ad1be2c89b69c2b068fc378daa952ba7f163c4a11628f55a4df523b3ef91a4949350505050565b611b84838383611bdd565b610a6d576001600160a01b038316611bb257604051637e27328960e01b815260048101829052602401610cde565b60405163177e802f60e01b81526001600160a01b038316600482015260248101829052604401610cde565b5f6001600160a01b03831615801590611c395750826001600160a01b0316846001600160a01b03161480611c165750611c1684846111a2565b80611c3957505f828152600460205260409020546001600160a01b038481169116145b949350505050565b6001600160e01b031981168114611c56575f5ffd5b50565b5f60208284031215611c69575f5ffd5b8135610ac181611c41565b5f81518084528060208401602086015e5f602082860101526020601f19601f83011685010191505092915050565b602081525f610ac16020830184611c74565b5f60208284031215611cc4575f5ffd5b5035919050565b6001600160a01b0381168114611c56575f5ffd5b5f5f60408385031215611cf0575f5ffd5b8235611cfb81611ccb565b946020939093013593505050565b5f60208284031215611d19575f5ffd5b8135610ac181611ccb565b5f5f5f60608486031215611d36575f5ffd5b8335611d4181611ccb565b92506020840135611d5181611ccb565b929592945050506040919091013590565b634e487b7160e01b5f52604160045260245ffd5b604051601f8201601f1916810167ffffffffffffffff81118282101715611d9f57611d9f611d62565b604052919050565b5f67ffffffffffffffff821115611dc057611dc0611d62565b5060051b60200190565b5f60208284031215611dda575f5ffd5b813567ffffffffffffffff811115611df0575f5ffd5b8201601f81018413611e00575f5ffd5b8035611e13611e0e82611da7565b611d76565b8082825260208201915060208360051b850101925086831115611e34575f5ffd5b6020840193505b82841015611e56578335825260209384019390910190611e3b565b9695505050505050565b80516001600160a01b0316825260208082015181840152604080830151908401526060808301519084015260808083015160a091850182905280519185018290525f920190829060c08601905b80831015611ed05783518252602082019150602084019350600183019250611ead565b5095945050505050565b5f602082016020835280845180835260408501915060408160051b8601019250602086015f5b82811015611f3157603f19878603018452611f1c858351611e60565b94506020938401939190910190600101611f00565b50929695505050505050565b5f5f67ffffffffffffffff841115611f5757611f57611d62565b50601f8301601f1916602001611f6c81611d76565b915050828152838383011115611f80575f5ffd5b828260208301375f602084830101529392505050565b5f60208284031215611fa6575f5ffd5b813567ffffffffffffffff811115611fbc575f5ffd5b8201601f81018413611fcc575f5ffd5b611c3984823560208401611f3d565b6001600160a01b03861681526020808201869052604082018590526060820184905260a06080830181905283519083018190525f9184019060c0840190835b8181101561203857835183526020938401939092019160010161201a565b50909998505050505050505050565b602081525f610ac16020830184611e60565b5f5f6040838503121561206a575f5ffd5b823561207581611ccb565b915060208301358015158114612089575f5ffd5b809150509250929050565b5f5f5f5f606085870312156120a7575f5ffd5b84356120b281611ccb565b935060208501359250604085013567ffffffffffffffff8111156120d4575f5ffd5b8501601f810187136120e4575f5ffd5b803567ffffffffffffffff8111156120fa575f5ffd5b87602082840101111561210b575f5ffd5b949793965060200194505050565b8215158152604060208201525f611c396040830184611c74565b5f5f5f5f60808587031215612146575f5ffd5b843561215181611ccb565b9350602085013561216181611ccb565b925060408501359150606085013567ffffffffffffffff811115612183575f5ffd5b8501601f81018713612193575f5ffd5b6121a287823560208401611f3d565b91505092959194509250565b5f5f604083850312156121bf575f5ffd5b82356121ca81611ccb565b9150602083013561208981611ccb565b600181811c908216806121ee57607f821691505b602082108103610ad057634e487b7160e01b5f52602260045260245ffd5b601f821115610a6d57805f5260205f20601f840160051c810160208510156122315750805b601f840160051c820191505b81811015611550575f815560010161223d565b81810361225b575050565b61226582546121da565b67ffffffffffffffff81111561227d5761227d611d62565b6122918161228b84546121da565b8461220c565b5f601f8211600181146122c5575f83156122ab5750848201545b600184901b5f19600386901b1c198216175b855550611550565b5f8581526020808220868352908220601f198616925b838110156122fb57828601548255600195860195909101906020016122db565b508583101561231857818501545f19600388901b60f8161c191681555b5050505050600190811b01905550565b634e487b7160e01b5f52603260045260245ffd5b815167ffffffffffffffff81111561235657612356611d62565b6123648161228b84546121da565b6020601f821160018114612394575f83156122ab575081850151600184901b5f19600386901b1c198216176122bd565b5f84815260208120601f198516915b828110156123c357878501518255602094850194600190920191016123a3565b50848210156123e057868401515f19600387901b60f8161c191681555b50505050600190811b01905550565b634e487b7160e01b5f52601160045260245ffd5b81810381811115610869576108696123ef565b5f60208284031215612426575f5ffd5b8151610ac181611ccb565b5f60208284031215612441575f5ffd5b815167ffffffffffffffff811115612457575f5ffd5b8201601f81018413612467575f5ffd5b8051612475611e0e82611da7565b8082825260208201915060208360051b850101925086831115612496575f5ffd5b6020840193505b82841015611e5657835182526020938401939091019061249d565b8082028115828204841417610869576108696123ef565b5f602082840312156124df575f5ffd5b5051919050565b818382375f9101908152919050565b6001600160a01b03858116825284166020820152604081018390526080606082018190525f90611e5690830184611c74565b5f60208284031215612537575f5ffd5b8151610ac181611c41565b80820180821115610869576108696123ef565b5f60018201612566576125666123ef565b506001019056fea26469706673582212202d8cbd5a17ed872885632c94d6ba59bd481836618b77fd03ff624681198ed13a64736f6c634300081c0033",
    "linkReferences": {}
  },
  "methodIdentifiers": {
    "approve(address,uint256)": "095ea7b3",
    "balanceOf(address)": "70a08231",
    "baseURI()": "6c0360eb",
    "calcPayment(address,uint256)": "92cb8b06",
    "chainId()": "9a8a0592",
    "execute(address,uint256,bytes)": "b61d27f6",
    "freemiumGrinds()": "383211ca",
    "getApproved(uint256)": "081812fc",
    "getIntent(uint256)": "906e277b",
    "getIntentBy(uint256)": "6a2cdfbc",
    "getIntentOf(address)": "ea9d25c3",
    "getIntents(uint256[])": "2a120024",
    "grAI()": "7458f08e",
    "grinder()": "e29e49fb",
    "grinds(uint256)": "fe1ee2ca",
    "grindsOf(address)": "15afebff",
    "intentIdOf(address)": "d490032d",
    "isApprovedForAll(address,address)": "e985e9c5",
    "isPaymentToken(address)": "930eaddc",
    "mint(address,uint256)": "40c10f19",
    "mintTo(address,address,uint256)": "ef9bcb27",
    "name()": "06fdde03",
    "owner()": "8da5cb5b",
    "ownerOf(uint256)": "6352211e",
    "poolsNFT()": "55260ae4",
    "ratePerGrind(address)": "b8e8a6d8",
    "safeTransferFrom(address,address,uint256)": "42842e0e",
    "safeTransferFrom(address,address,uint256,bytes)": "b88d4fde",
    "setApprovalForAll(address,bool)": "a22cb465",
    "setBaseURI(string)": "55f804b3",
    "setFreemiumGrinds(uint256)": "cb7da03f",
    "setGrinder(address)": "fc4333a1",
    "setRatePerGrind(address,uint256)": "7c8e99c5",
    "spentGrinds(uint256)": "b0065807",
    "supportsInterface(bytes4)": "01ffc9a7",
    "symbol()": "95d89b41",
    "tokenURI(uint256)": "c87b56dd",
    "totalGrinds()": "eeaac5e4",
    "totalIntents()": "d06a54f4",
    "totalSupply()": "18160ddd",
    "transferFrom(address,address,uint256)": "23b872dd",
    "unspentGrinds(uint256)": "61ecae67"
  },
  "id": 96
}