{
  "abi": [
    {
      "type": "constructor",
      "inputs": [
        {
          "name": "_poolsNFT",
          "type": "address",
          "internalType": "address"
        }
      ],
      "stateMutability": "nonpayable"
    },
    {
      "type": "receive",
      "stateMutability": "payable"
    },
    {
      "type": "function",
      "name": "MIN_PERIOD",
      "inputs": [],
      "outputs": [
        {
          "name": "",
          "type": "uint256",
          "internalType": "uint256"
        }
      ],
      "stateMutability": "view"
    },
    {
      "type": "function",
      "name": "ONE_DAY",
      "inputs": [],
      "outputs": [
        {
          "name": "",
          "type": "uint256",
          "internalType": "uint256"
        }
      ],
      "stateMutability": "view"
    },
    {
      "type": "function",
      "name": "_mintTo",
      "inputs": [
        {
          "name": "to",
          "type": "address",
          "internalType": "address"
        },
        {
          "name": "period",
          "type": "uint256",
          "internalType": "uint256"
        }
      ],
      "outputs": [
        {
          "name": "intentId",
          "type": "uint256",
          "internalType": "uint256"
        }
      ],
      "stateMutability": "nonpayable"
    },
    {
      "type": "function",
      "name": "approve",
      "inputs": [
        {
          "name": "to",
          "type": "address",
          "internalType": "address"
        },
        {
          "name": "tokenId",
          "type": "uint256",
          "internalType": "uint256"
        }
      ],
      "outputs": [],
      "stateMutability": "nonpayable"
    },
    {
      "type": "function",
      "name": "balanceOf",
      "inputs": [
        {
          "name": "owner",
          "type": "address",
          "internalType": "address"
        }
      ],
      "outputs": [
        {
          "name": "",
          "type": "uint256",
          "internalType": "uint256"
        }
      ],
      "stateMutability": "view"
    },
    {
      "type": "function",
      "name": "baseURI",
      "inputs": [],
      "outputs": [
        {
          "name": "",
          "type": "string",
          "internalType": "string"
        }
      ],
      "stateMutability": "view"
    },
    {
      "type": "function",
      "name": "calcPayment",
      "inputs": [
        {
          "name": "paymentToken",
          "type": "address",
          "internalType": "address"
        },
        {
          "name": "period",
          "type": "uint256",
          "internalType": "uint256"
        }
      ],
      "outputs": [
        {
          "name": "paymentAmount",
          "type": "uint256",
          "internalType": "uint256"
        }
      ],
      "stateMutability": "view"
    },
    {
      "type": "function",
      "name": "chainId",
      "inputs": [],
      "outputs": [
        {
          "name": "id",
          "type": "uint256",
          "internalType": "uint256"
        }
      ],
      "stateMutability": "view"
    },
    {
      "type": "function",
      "name": "expire",
      "inputs": [
        {
          "name": "intentId",
          "type": "uint256",
          "internalType": "uint256"
        }
      ],
      "outputs": [
        {
          "name": "",
          "type": "uint256",
          "internalType": "uint256"
        }
      ],
      "stateMutability": "view"
    },
    {
      "type": "function",
      "name": "getApproved",
      "inputs": [
        {
          "name": "tokenId",
          "type": "uint256",
          "internalType": "uint256"
        }
      ],
      "outputs": [
        {
          "name": "",
          "type": "address",
          "internalType": "address"
        }
      ],
      "stateMutability": "view"
    },
    {
      "type": "function",
      "name": "getIntentBy",
      "inputs": [
        {
          "name": "poolId",
          "type": "uint256",
          "internalType": "uint256"
        }
      ],
      "outputs": [
        {
          "name": "_account",
          "type": "address",
          "internalType": "address"
        },
        {
          "name": "_expire",
          "type": "uint256",
          "internalType": "uint256"
        },
        {
          "name": "_poolIds",
          "type": "uint256[]",
          "internalType": "uint256[]"
        }
      ],
      "stateMutability": "view"
    },
    {
      "type": "function",
      "name": "getIntentOf",
      "inputs": [
        {
          "name": "account",
          "type": "address",
          "internalType": "address"
        }
      ],
      "outputs": [
        {
          "name": "_account",
          "type": "address",
          "internalType": "address"
        },
        {
          "name": "_expire",
          "type": "uint256",
          "internalType": "uint256"
        },
        {
          "name": "_poolIds",
          "type": "uint256[]",
          "internalType": "uint256[]"
        }
      ],
      "stateMutability": "view"
    },
    {
      "type": "function",
      "name": "intentIdOf",
      "inputs": [
        {
          "name": "account",
          "type": "address",
          "internalType": "address"
        }
      ],
      "outputs": [
        {
          "name": "",
          "type": "uint256",
          "internalType": "uint256"
        }
      ],
      "stateMutability": "view"
    },
    {
      "type": "function",
      "name": "isApprovedForAll",
      "inputs": [
        {
          "name": "owner",
          "type": "address",
          "internalType": "address"
        },
        {
          "name": "operator",
          "type": "address",
          "internalType": "address"
        }
      ],
      "outputs": [
        {
          "name": "",
          "type": "bool",
          "internalType": "bool"
        }
      ],
      "stateMutability": "view"
    },
    {
      "type": "function",
      "name": "isPaymentToken",
      "inputs": [
        {
          "name": "paymentToken",
          "type": "address",
          "internalType": "address"
        }
      ],
      "outputs": [
        {
          "name": "",
          "type": "bool",
          "internalType": "bool"
        }
      ],
      "stateMutability": "view"
    },
    {
      "type": "function",
      "name": "mint",
      "inputs": [
        {
          "name": "paymentToken",
          "type": "address",
          "internalType": "address"
        },
        {
          "name": "period",
          "type": "uint256",
          "internalType": "uint256"
        }
      ],
      "outputs": [
        {
          "name": "",
          "type": "uint256",
          "internalType": "uint256"
        }
      ],
      "stateMutability": "payable"
    },
    {
      "type": "function",
      "name": "mintTo",
      "inputs": [
        {
          "name": "paymentToken",
          "type": "address",
          "internalType": "address"
        },
        {
          "name": "to",
          "type": "address",
          "internalType": "address"
        },
        {
          "name": "period",
          "type": "uint256",
          "internalType": "uint256"
        }
      ],
      "outputs": [
        {
          "name": "intentId",
          "type": "uint256",
          "internalType": "uint256"
        }
      ],
      "stateMutability": "payable"
    },
    {
      "type": "function",
      "name": "name",
      "inputs": [],
      "outputs": [
        {
          "name": "",
          "type": "string",
          "internalType": "string"
        }
      ],
      "stateMutability": "view"
    },
    {
      "type": "function",
      "name": "owner",
      "inputs": [],
      "outputs": [
        {
          "name": "",
          "type": "address",
          "internalType": "address"
        }
      ],
      "stateMutability": "view"
    },
    {
      "type": "function",
      "name": "ownerOf",
      "inputs": [
        {
          "name": "tokenId",
          "type": "uint256",
          "internalType": "uint256"
        }
      ],
      "outputs": [
        {
          "name": "",
          "type": "address",
          "internalType": "address"
        }
      ],
      "stateMutability": "view"
    },
    {
      "type": "function",
      "name": "poolsNFT",
      "inputs": [],
      "outputs": [
        {
          "name": "",
          "type": "address",
          "internalType": "contract IPoolsNFT"
        }
      ],
      "stateMutability": "view"
    },
    {
      "type": "function",
      "name": "ratePerOneDay",
      "inputs": [
        {
          "name": "paymentToken",
          "type": "address",
          "internalType": "address"
        }
      ],
      "outputs": [
        {
          "name": "",
          "type": "uint256",
          "internalType": "uint256"
        }
      ],
      "stateMutability": "view"
    },
    {
      "type": "function",
      "name": "safeTransferFrom",
      "inputs": [
        {
          "name": "from",
          "type": "address",
          "internalType": "address"
        },
        {
          "name": "to",
          "type": "address",
          "internalType": "address"
        },
        {
          "name": "tokenId",
          "type": "uint256",
          "internalType": "uint256"
        }
      ],
      "outputs": [],
      "stateMutability": "nonpayable"
    },
    {
      "type": "function",
      "name": "safeTransferFrom",
      "inputs": [
        {
          "name": "from",
          "type": "address",
          "internalType": "address"
        },
        {
          "name": "to",
          "type": "address",
          "internalType": "address"
        },
        {
          "name": "tokenId",
          "type": "uint256",
          "internalType": "uint256"
        },
        {
          "name": "data",
          "type": "bytes",
          "internalType": "bytes"
        }
      ],
      "outputs": [],
      "stateMutability": "nonpayable"
    },
    {
      "type": "function",
      "name": "setApprovalForAll",
      "inputs": [
        {
          "name": "operator",
          "type": "address",
          "internalType": "address"
        },
        {
          "name": "approved",
          "type": "bool",
          "internalType": "bool"
        }
      ],
      "outputs": [],
      "stateMutability": "nonpayable"
    },
    {
      "type": "function",
      "name": "setBaseURI",
      "inputs": [
        {
          "name": "_baseURI",
          "type": "string",
          "internalType": "string"
        }
      ],
      "outputs": [],
      "stateMutability": "nonpayable"
    },
    {
      "type": "function",
      "name": "setPoolsNFT",
      "inputs": [
        {
          "name": "_poolsNFT",
          "type": "address",
          "internalType": "address"
        }
      ],
      "outputs": [],
      "stateMutability": "nonpayable"
    },
    {
      "type": "function",
      "name": "setRatePerOneDay",
      "inputs": [
        {
          "name": "token",
          "type": "address",
          "internalType": "address"
        },
        {
          "name": "_ratePerOneDay",
          "type": "uint256",
          "internalType": "uint256"
        }
      ],
      "outputs": [],
      "stateMutability": "nonpayable"
    },
    {
      "type": "function",
      "name": "supportsInterface",
      "inputs": [
        {
          "name": "interfaceId",
          "type": "bytes4",
          "internalType": "bytes4"
        }
      ],
      "outputs": [
        {
          "name": "",
          "type": "bool",
          "internalType": "bool"
        }
      ],
      "stateMutability": "view"
    },
    {
      "type": "function",
      "name": "symbol",
      "inputs": [],
      "outputs": [
        {
          "name": "",
          "type": "string",
          "internalType": "string"
        }
      ],
      "stateMutability": "view"
    },
    {
      "type": "function",
      "name": "tokenURI",
      "inputs": [
        {
          "name": "poolId",
          "type": "uint256",
          "internalType": "uint256"
        }
      ],
      "outputs": [
        {
          "name": "uri",
          "type": "string",
          "internalType": "string"
        }
      ],
      "stateMutability": "view"
    },
    {
      "type": "function",
      "name": "totalIntents",
      "inputs": [],
      "outputs": [
        {
          "name": "",
          "type": "uint256",
          "internalType": "uint256"
        }
      ],
      "stateMutability": "view"
    },
    {
      "type": "function",
      "name": "totalSupply",
      "inputs": [],
      "outputs": [
        {
          "name": "",
          "type": "uint256",
          "internalType": "uint256"
        }
      ],
      "stateMutability": "view"
    },
    {
      "type": "function",
      "name": "transfer",
      "inputs": [
        {
          "name": "to",
          "type": "address",
          "internalType": "address"
        },
        {
          "name": "intentId",
          "type": "uint256",
          "internalType": "uint256"
        }
      ],
      "outputs": [],
      "stateMutability": "nonpayable"
    },
    {
      "type": "function",
      "name": "transferFrom",
      "inputs": [
        {
          "name": "from",
          "type": "address",
          "internalType": "address"
        },
        {
          "name": "to",
          "type": "address",
          "internalType": "address"
        },
        {
          "name": "tokenId",
          "type": "uint256",
          "internalType": "uint256"
        }
      ],
      "outputs": [],
      "stateMutability": "nonpayable"
    },
    {
      "type": "event",
      "name": "Approval",
      "inputs": [
        {
          "name": "owner",
          "type": "address",
          "indexed": true,
          "internalType": "address"
        },
        {
          "name": "approved",
          "type": "address",
          "indexed": true,
          "internalType": "address"
        },
        {
          "name": "tokenId",
          "type": "uint256",
          "indexed": true,
          "internalType": "uint256"
        }
      ],
      "anonymous": false
    },
    {
      "type": "event",
      "name": "ApprovalForAll",
      "inputs": [
        {
          "name": "owner",
          "type": "address",
          "indexed": true,
          "internalType": "address"
        },
        {
          "name": "operator",
          "type": "address",
          "indexed": true,
          "internalType": "address"
        },
        {
          "name": "approved",
          "type": "bool",
          "indexed": false,
          "internalType": "bool"
        }
      ],
      "anonymous": false
    },
    {
      "type": "event",
      "name": "SetRatePerOneDay",
      "inputs": [
        {
          "name": "token",
          "type": "address",
          "indexed": false,
          "internalType": "address"
        },
        {
          "name": "_ratePerOneDay",
          "type": "uint256",
          "indexed": false,
          "internalType": "uint256"
        }
      ],
      "anonymous": false
    },
    {
      "type": "event",
      "name": "Transfer",
      "inputs": [
        {
          "name": "from",
          "type": "address",
          "indexed": true,
          "internalType": "address"
        },
        {
          "name": "to",
          "type": "address",
          "indexed": true,
          "internalType": "address"
        },
        {
          "name": "tokenId",
          "type": "uint256",
          "indexed": true,
          "internalType": "uint256"
        }
      ],
      "anonymous": false
    },
    {
      "type": "error",
      "name": "BelowMinPeriod",
      "inputs": []
    },
    {
      "type": "error",
      "name": "ERC721IncorrectOwner",
      "inputs": [
        {
          "name": "sender",
          "type": "address",
          "internalType": "address"
        },
        {
          "name": "tokenId",
          "type": "uint256",
          "internalType": "uint256"
        },
        {
          "name": "owner",
          "type": "address",
          "internalType": "address"
        }
      ]
    },
    {
      "type": "error",
      "name": "ERC721InsufficientApproval",
      "inputs": [
        {
          "name": "operator",
          "type": "address",
          "internalType": "address"
        },
        {
          "name": "tokenId",
          "type": "uint256",
          "internalType": "uint256"
        }
      ]
    },
    {
      "type": "error",
      "name": "ERC721InvalidApprover",
      "inputs": [
        {
          "name": "approver",
          "type": "address",
          "internalType": "address"
        }
      ]
    },
    {
      "type": "error",
      "name": "ERC721InvalidOperator",
      "inputs": [
        {
          "name": "operator",
          "type": "address",
          "internalType": "address"
        }
      ]
    },
    {
      "type": "error",
      "name": "ERC721InvalidOwner",
      "inputs": [
        {
          "name": "owner",
          "type": "address",
          "internalType": "address"
        }
      ]
    },
    {
      "type": "error",
      "name": "ERC721InvalidReceiver",
      "inputs": [
        {
          "name": "receiver",
          "type": "address",
          "internalType": "address"
        }
      ]
    },
    {
      "type": "error",
      "name": "ERC721InvalidSender",
      "inputs": [
        {
          "name": "sender",
          "type": "address",
          "internalType": "address"
        }
      ]
    },
    {
      "type": "error",
      "name": "ERC721NonexistentToken",
      "inputs": [
        {
          "name": "tokenId",
          "type": "uint256",
          "internalType": "uint256"
        }
      ]
    },
    {
      "type": "error",
      "name": "NotOwner",
      "inputs": []
    },
    {
      "type": "error",
      "name": "NotPaymentToken",
      "inputs": []
    },
    {
      "type": "error",
      "name": "SafeERC20FailedOperation",
      "inputs": [
        {
          "name": "token",
          "type": "address",
          "internalType": "address"
        }
      ]
    }
  ],
  "bytecode": {
    "object": "0x608060405234801561000f575f5ffd5b506040516125ca3803806125ca83398101604081905261002e91610522565b6040518060400160405280601c81526020017f4772696e646572414920496e74656e747320436f6c6c656374696f6e000000008152506040518060400160405280600c81526020016b677241495f494e54454e545360a01b815250815f908161009791906105df565b5060016100a482826105df565b5050600680546001600160a01b0319166001600160a01b038416179055505f808052600b602052655af3107a40007fdf7de25b7f1fd6d0b5205f0e18f1f35bd7b8d84cce336588d184533ce43a6f7655336100ff818361012b565b61010d426312cea600610699565b5f9283526009602052604090922091909155505060016007556106b8565b6001600160a01b03821661015957604051633250574960e11b81525f60048201526024015b60405180910390fd5b5f610165838383610196565b90506001600160a01b03811615610191576040516339e3563760e11b81525f6004820152602401610150565b505050565b5f806101a38585856101e9565b90506001600160a01b0385166101ba5790506101e2565b6001600160a01b038082165f908152600a602052604080822082905591871681522084905590505b9392505050565b5f828152600260205260408120546001600160a01b0390811690831615610215576102158184866102db565b6001600160a01b0381161561024f576102305f85818061033f565b6001600160a01b0381165f90815260036020526040902080545f190190555b6001600160a01b0385161561027d576001600160a01b0385165f908152600360205260409020805460010190555b5f8481526002602052604080822080546001600160a01b0319166001600160a01b0389811691821790925591518793918516917fddf252ad1be2c89b69c2b068fc378daa952ba7f163c4a11628f55a4df523b3ef91a4949350505050565b6102e6838383610461565b610191576001600160a01b03831661031457604051637e27328960e01b815260048101829052602401610150565b60405163177e802f60e01b81526001600160a01b038316600482015260248101829052604401610150565b808061035357506001600160a01b03821615155b15610432575f610362846104e4565b90506001600160a01b0383161580159061038e5750826001600160a01b0316816001600160a01b031614155b80156103bf57506001600160a01b038082165f9081526005602090815260408083209387168352929052205460ff16155b156103e85760405163a9fbf51f60e01b81526001600160a01b0384166004820152602401610150565b81156104305783856001600160a01b0316826001600160a01b03167f8c5be1e5ebec7d5bd14f71427d1e84f3dd0314c0f7b2291e5b200ac8c7c3b92560405160405180910390a45b505b50505f90815260046020526040902080546001600160a01b0319166001600160a01b0392909216919091179055565b5f6001600160a01b038316158015906104dc5750826001600160a01b0316846001600160a01b031614806104b957506001600160a01b038085165f9081526005602090815260408083209387168352929052205460ff165b806104dc57505f828152600460205260409020546001600160a01b038481169116145b949350505050565b5f818152600260205260408120546001600160a01b03168061051c57604051637e27328960e01b815260048101849052602401610150565b92915050565b5f60208284031215610532575f5ffd5b81516001600160a01b03811681146101e2575f5ffd5b634e487b7160e01b5f52604160045260245ffd5b600181811c9082168061057057607f821691505b60208210810361058e57634e487b7160e01b5f52602260045260245ffd5b50919050565b601f82111561019157805f5260205f20601f840160051c810160208510156105b95750805b601f840160051c820191505b818110156105d8575f81556001016105c5565b5050505050565b81516001600160401b038111156105f8576105f8610548565b61060c81610606845461055c565b84610594565b6020601f82116001811461063e575f83156106275750848201515b5f19600385901b1c1916600184901b1784556105d8565b5f84815260208120601f198516915b8281101561066d578785015182556020948501946001909201910161064d565b508482101561068a57868401515f19600387901b60f8161c191681555b50505050600190811b01905550565b8082018082111561051c57634e487b7160e01b5f52601160045260245ffd5b611f05806106c55f395ff3fe6080604052600436106101ff575f3560e01c806392cb8b0611610113578063c87b56dd1161009d578063d490032d1161006d578063d490032d146105fa578063e985e9c514610625578063ea9d25c314610644578063ef9bcb2714610663578063f289888914610676575f5ffd5b8063c87b56dd14610588578063d06a54f4146105a7578063d0820d87146105bc578063d30a62cc146105db575f5ffd5b8063a22cb465116100e3578063a22cb46514610500578063a9059cbb1461051f578063b88d4fde1461053e578063bbccf1541461045b578063bf81bf431461055d575f5ffd5b806392cb8b0614610485578063930eaddc146104a457806395d89b41146104da5780639a8a0592146104ee575f5ffd5b806355260ae4116101945780636a2cdfbc116101645780636a2cdfbc146103fa5780636c0360eb1461042857806370a082311461043c578063863e76db1461045b5780638da5cb5b14610471575f5ffd5b806355260ae41461037e57806355f804b31461039d578063598e00fb146103bc5780636352211e146103db575f5ffd5b806318160ddd116101cf57806318160ddd1461030f57806323b872dd1461032d57806340c10f191461034c57806342842e0e1461035f575f5ffd5b806301ffc9a71461026457806306fdde0314610298578063081812fc146102b9578063095ea7b3146102f0575f5ffd5b3661026057341561025e576006546040515f916001600160a01b03169034908381818185875af1925050503d805f8114610254576040519150601f19603f3d011682016040523d82523d5f602084013e610259565b606091505b505050505b005b5f5ffd5b34801561026f575f5ffd5b5061028361027e366004611824565b6106a1565b60405190151581526020015b60405180910390f35b3480156102a3575f5ffd5b506102ac6106f2565b60405161028f919061186d565b3480156102c4575f5ffd5b506102d86102d336600461187f565b610781565b6040516001600160a01b03909116815260200161028f565b3480156102fb575f5ffd5b5061025e61030a3660046118aa565b6107a8565b34801561031a575f5ffd5b506007545b60405190815260200161028f565b348015610338575f5ffd5b5061025e6103473660046118d4565b6107b7565b61031f61035a3660046118aa565b610845565b34801561036a575f5ffd5b5061025e6103793660046118d4565b610858565b348015610389575f5ffd5b506006546102d8906001600160a01b031681565b3480156103a8575f5ffd5b5061025e6103b73660046119b0565b610877565b3480156103c7575f5ffd5b5061025e6103d63660046119f5565b61088b565b3480156103e6575f5ffd5b506102d86103f536600461187f565b6108b5565b348015610405575f5ffd5b5061041961041436600461187f565b6108bf565b60405161028f93929190611a10565b348015610433575f5ffd5b506102ac6109ca565b348015610447575f5ffd5b5061031f6104563660046119f5565b610a56565b348015610466575f5ffd5b5061031f6201518081565b34801561047c575f5ffd5b506102d8610a9b565b348015610490575f5ffd5b5061031f61049f3660046118aa565b610b19565b3480156104af575f5ffd5b506102836104be3660046119f5565b6001600160a01b03165f908152600b6020526040902054151590565b3480156104e5575f5ffd5b506102ac610bca565b3480156104f9575f5ffd5b504661031f565b34801561050b575f5ffd5b5061025e61051a366004611a6c565b610bd9565b34801561052a575f5ffd5b5061025e6105393660046118aa565b610be4565b348015610549575f5ffd5b5061025e610558366004611aa7565b610bef565b348015610568575f5ffd5b5061031f61057736600461187f565b60096020525f908152604090205481565b348015610593575f5ffd5b506102ac6105a236600461187f565b610c07565b3480156105b2575f5ffd5b5061031f60075481565b3480156105c7575f5ffd5b5061031f6105d63660046118aa565b610c69565b3480156105e6575f5ffd5b5061025e6105f53660046118aa565b610d4a565b348015610605575f5ffd5b5061031f6106143660046119f5565b600a6020525f908152604090205481565b348015610630575f5ffd5b5061028361063f366004611b22565b610da9565b34801561064f575f5ffd5b5061041961065e3660046119f5565b610dd6565b61031f6106713660046118d4565b610e88565b348015610681575f5ffd5b5061031f6106903660046119f5565b600b6020525f908152604090205481565b5f6001600160e01b031982166380ac58cd60e01b14806106d157506001600160e01b03198216635b5e139f60e01b145b806106ec57506301ffc9a760e01b6001600160e01b03198316145b92915050565b60605f805461070090611b4e565b80601f016020809104026020016040519081016040528092919081815260200182805461072c90611b4e565b80156107775780601f1061074e57610100808354040283529160200191610777565b820191905f5260205f20905b81548152906001019060200180831161075a57829003601f168201915b5050505050905090565b5f61078b82610ebc565b505f828152600460205260409020546001600160a01b03166106ec565b6107b3828233610ef4565b5050565b6001600160a01b0382166107e557604051633250574960e11b81525f60048201526024015b60405180910390fd5b5f6107f1838333610f01565b9050836001600160a01b0316816001600160a01b03161461083f576040516364283d7b60e01b81526001600160a01b03808616600483015260248201849052821660448201526064016107dc565b50505050565b5f610851833384610e88565b9392505050565b61087283838360405180602001604052805f815250610bef565b505050565b61087f610f53565b60086107b38282611bca565b610893610f53565b600680546001600160a01b0319166001600160a01b0392909216919091179055565b5f6106ec82610ebc565b6006546040516331a9108f60e11b8152600481018390525f9182916060916001600160a01b031690636352211e90602401602060405180830381865afa15801561090b573d5f5f3e3d5ffd5b505050506040513d601f19601f8201168201806040525081019061092f9190611c85565b6001600160a01b038181165f818152600a602090815260408083205483526009909152908190205460065491516301999b1160e31b81526004810193909352939650929450911690630cccd888906024015f60405180830381865afa15801561099a573d5f5f3e3d5ffd5b505050506040513d5f823e601f3d908101601f191682016040526109c19190810190611ca0565b93959294505050565b600880546109d790611b4e565b80601f0160208091040260200160405190810160405280929190818152602001828054610a0390611b4e565b8015610a4e5780601f10610a2557610100808354040283529160200191610a4e565b820191905f5260205f20905b815481529060010190602001808311610a3157829003601f168201915b505050505081565b5f6001600160a01b038216610a80576040516322718ad960e21b81525f60048201526024016107dc565b506001600160a01b03165f9081526003602052604090205490565b60065460408051638da5cb5b60e01b815290515f926001600160a01b031691638da5cb5b9160048083019260209291908290030181865afa925050508015610b00575060408051601f3d908101601f19168201909252610afd91810190611c85565b60015b610b1457506006546001600160a01b031690565b919050565b6001600160a01b0382165f908152600b6020526040812054610b4e57604051632c83944560e01b815260040160405180910390fd5b62015180821015610b725760405163126e0b4960e21b815260040160405180910390fd5b6001600160a01b0383165f908152600b6020526040902054600101610b9857505f6106ec565b6001600160a01b0383165f908152600b60205260409020546201518090610bc0908490611d6d565b6108519190611d84565b60606001805461070090611b4e565b6107b3338383610f8e565b6107b333838361102c565b610bfa8484846107b7565b61083f33858585856110d9565b6060610c1282610ebc565b505f6008610c1f84611201565b604051602001610c30929190611dba565b604051602081830303815290604052905080604051602001610c529190611e2d565b604051602081830303815290604052915050919050565b5f610c7383610a56565b5f03610cd25750600754610c878242611e4d565b5f828152600960209081526040808320939093556001600160a01b0386168252600a905220819055610cb98382611291565b60078054905f610cc883611e60565b91905055506106ec565b506001600160a01b0382165f908152600a60209081526040808320548084526009909252909120544290811115610d2057610d0d8382611e4d565b5f83815260096020526040902055610d43565b5f8281526009602052604081208054859290610d3d908490611e4d565b90915550505b5092915050565b610d52610f53565b6001600160a01b0382165f818152600b6020908152604091829020849055815192835282018390527f4d0c0d54d8ed5947d7fd8df750312c7754d572bb386c2327ebcc8ba36e5e1391910160405180910390a15050565b6001600160a01b039182165f90815260056020908152604080832093909416825291909152205460ff1690565b6001600160a01b0381165f908152600a60205260408120548190606090610dfc816108b5565b5f82815260096020526040908190205460065491516301999b1160e31b81526001600160a01b038085166004830152939750909550911690630cccd888906024015f60405180830381865afa158015610e57573d5f5f3e3d5ffd5b505050506040513d5f823e601f3d908101601f19168201604052610e7e9190810190611ca0565b9496939550505050565b5f5f610e948584610b19565b9050610ea885610ea2610a9b565b836112f2565b50610eb38484610c69565b95945050505050565b5f818152600260205260408120546001600160a01b0316806106ec57604051637e27328960e01b8152600481018490526024016107dc565b61087283838360016113b1565b5f5f610f0e8585856114b5565b90506001600160a01b038516610f25579050610851565b6001600160a01b038082165f908152600a602052604080822082905591871681522084905590509392505050565b610f5b610a9b565b6001600160a01b0316336001600160a01b031614610f8c576040516330cd747160e01b815260040160405180910390fd5b565b6001600160a01b038216610fc057604051630b61174360e31b81526001600160a01b03831660048201526024016107dc565b6001600160a01b038381165f81815260056020908152604080832094871680845294825291829020805460ff191686151590811790915591519182527f17307eab39ab6107e8899845ad3d59bd9653f200f220920489ca2b5937696c31910160405180910390a3505050565b6001600160a01b03821661105557604051633250574960e11b81525f60048201526024016107dc565b5f61106183835f610f01565b90506001600160a01b03811661108d57604051637e27328960e01b8152600481018390526024016107dc565b836001600160a01b0316816001600160a01b03161461083f576040516364283d7b60e01b81526001600160a01b03808616600483015260248201849052821660448201526064016107dc565b6001600160a01b0383163b156111fa57604051630a85bd0160e11b81526001600160a01b0384169063150b7a029061111b908890889087908790600401611e78565b6020604051808303815f875af1925050508015611155575060408051601f3d908101601f1916820190925261115291810190611eb4565b60015b6111bc573d808015611182576040519150601f19603f3d011682016040523d82523d5f602084013e611187565b606091505b5080515f036111b457604051633250574960e11b81526001600160a01b03851660048201526024016107dc565b805181602001fd5b6001600160e01b03198116630a85bd0160e11b146111f857604051633250574960e11b81526001600160a01b03851660048201526024016107dc565b505b5050505050565b60605f61120d836115a7565b60010190505f8167ffffffffffffffff81111561122c5761122c611912565b6040519080825280601f01601f191660200182016040528015611256576020820181803683370190505b5090508181016020015b5f19016f181899199a1a9b1b9c1cb0b131b232b360811b600a86061a8153600a850494508461126057509392505050565b6001600160a01b0382166112ba57604051633250574960e11b81525f60048201526024016107dc565b5f6112c683835f610f01565b90506001600160a01b03811615610872576040516339e3563760e11b81525f60048201526024016107dc565b5f8115610d43576001600160a01b03841661139c575f836001600160a01b0316836040515f6040518083038185875af1925050503d805f8114611350576040519150601f19603f3d011682016040523d82523d5f602084013e611355565b606091505b50509050806113965760405162461bcd60e51b815260206004820152600d60248201526c0ccc2d2d840e6cadcc8408aa89609b1b60448201526064016107dc565b50610d43565b610d436001600160a01b03851633858561167e565b80806113c557506001600160a01b03821615155b15611486575f6113d484610ebc565b90506001600160a01b038316158015906114005750826001600160a01b0316816001600160a01b031614155b801561141357506114118184610da9565b155b1561143c5760405163a9fbf51f60e01b81526001600160a01b03841660048201526024016107dc565b81156114845783856001600160a01b0316826001600160a01b03167f8c5be1e5ebec7d5bd14f71427d1e84f3dd0314c0f7b2291e5b200ac8c7c3b92560405160405180910390a45b505b50505f90815260046020526040902080546001600160a01b0319166001600160a01b0392909216919091179055565b5f828152600260205260408120546001600160a01b03908116908316156114e1576114e18184866116d8565b6001600160a01b0381161561151b576114fc5f855f5f6113b1565b6001600160a01b0381165f90815260036020526040902080545f190190555b6001600160a01b03851615611549576001600160a01b0385165f908152600360205260409020805460010190555b5f8481526002602052604080822080546001600160a01b0319166001600160a01b0389811691821790925591518793918516917fddf252ad1be2c89b69c2b068fc378daa952ba7f163c4a11628f55a4df523b3ef91a4949350505050565b5f8072184f03e93ff9f4daa797ed6e38ed64bf6a1f0160401b83106115e55772184f03e93ff9f4daa797ed6e38ed64bf6a1f0160401b830492506040015b6d04ee2d6d415b85acef81000000008310611611576d04ee2d6d415b85acef8100000000830492506020015b662386f26fc10000831061162f57662386f26fc10000830492506010015b6305f5e1008310611647576305f5e100830492506008015b612710831061165b57612710830492506004015b6064831061166d576064830492506002015b600a83106106ec5760010192915050565b604080516001600160a01b0385811660248301528416604482015260648082018490528251808303909101815260849091019091526020810180516001600160e01b03166323b872dd60e01b17905261083f90859061173c565b6116e38383836117a8565b610872576001600160a01b03831661171157604051637e27328960e01b8152600481018290526024016107dc565b60405163177e802f60e01b81526001600160a01b0383166004820152602481018290526044016107dc565b5f5f60205f8451602086015f885af18061175b576040513d5f823e3d81fd5b50505f513d9150811561177257806001141561177f565b6001600160a01b0384163b155b1561083f57604051635274afe760e01b81526001600160a01b03851660048201526024016107dc565b5f6001600160a01b038316158015906118045750826001600160a01b0316846001600160a01b031614806117e157506117e18484610da9565b8061180457505f828152600460205260409020546001600160a01b038481169116145b949350505050565b6001600160e01b031981168114611821575f5ffd5b50565b5f60208284031215611834575f5ffd5b81356108518161180c565b5f81518084528060208401602086015e5f602082860101526020601f19601f83011685010191505092915050565b602081525f610851602083018461183f565b5f6020828403121561188f575f5ffd5b5035919050565b6001600160a01b0381168114611821575f5ffd5b5f5f604083850312156118bb575f5ffd5b82356118c681611896565b946020939093013593505050565b5f5f5f606084860312156118e6575f5ffd5b83356118f181611896565b9250602084013561190181611896565b929592945050506040919091013590565b634e487b7160e01b5f52604160045260245ffd5b604051601f8201601f1916810167ffffffffffffffff8111828210171561194f5761194f611912565b604052919050565b5f5f67ffffffffffffffff84111561197157611971611912565b50601f8301601f191660200161198681611926565b91505082815283838301111561199a575f5ffd5b828260208301375f602084830101529392505050565b5f602082840312156119c0575f5ffd5b813567ffffffffffffffff8111156119d6575f5ffd5b8201601f810184136119e6575f5ffd5b61180484823560208401611957565b5f60208284031215611a05575f5ffd5b813561085181611896565b6001600160a01b0384168152602080820184905260606040830181905283519083018190525f918401906080840190835b81811015611a5f578351835260209384019390920191600101611a41565b5090979650505050505050565b5f5f60408385031215611a7d575f5ffd5b8235611a8881611896565b915060208301358015158114611a9c575f5ffd5b809150509250929050565b5f5f5f5f60808587031215611aba575f5ffd5b8435611ac581611896565b93506020850135611ad581611896565b925060408501359150606085013567ffffffffffffffff811115611af7575f5ffd5b8501601f81018713611b07575f5ffd5b611b1687823560208401611957565b91505092959194509250565b5f5f60408385031215611b33575f5ffd5b8235611b3e81611896565b91506020830135611a9c81611896565b600181811c90821680611b6257607f821691505b602082108103611b8057634e487b7160e01b5f52602260045260245ffd5b50919050565b601f82111561087257805f5260205f20601f840160051c81016020851015611bab5750805b601f840160051c820191505b818110156111fa575f8155600101611bb7565b815167ffffffffffffffff811115611be457611be4611912565b611bf881611bf28454611b4e565b84611b86565b6020601f821160018114611c2a575f8315611c135750848201515b5f19600385901b1c1916600184901b1784556111fa565b5f84815260208120601f198516915b82811015611c595787850151825560209485019460019092019101611c39565b5084821015611c7657868401515f19600387901b60f8161c191681555b50505050600190811b01905550565b5f60208284031215611c95575f5ffd5b815161085181611896565b5f5f60408385031215611cb1575f5ffd5b8251602084015190925067ffffffffffffffff811115611ccf575f5ffd5b8301601f81018513611cdf575f5ffd5b805167ffffffffffffffff811115611cf957611cf9611912565b8060051b611d0960208201611926565b91825260208184018101929081019088841115611d24575f5ffd5b6020850194505b83851015611d4a57845180835260209586019590935090910190611d2b565b80955050505050509250929050565b634e487b7160e01b5f52601160045260245ffd5b80820281158282048414176106ec576106ec611d59565b5f82611d9e57634e487b7160e01b5f52601260045260245ffd5b500490565b5f81518060208401855e5f93019283525090919050565b5f5f8454611dc781611b4e565b600182168015611dde5760018114611df357611e20565b60ff1983168652811515820286019350611e20565b875f5260205f205f5b83811015611e1857815488820152600190910190602001611dfc565b505081860193505b505050610eb38185611da3565b5f611e388284611da3565b64173539b7b760d91b81526005019392505050565b808201808211156106ec576106ec611d59565b5f60018201611e7157611e71611d59565b5060010190565b6001600160a01b03858116825284166020820152604081018390526080606082018190525f90611eaa9083018461183f565b9695505050505050565b5f60208284031215611ec4575f5ffd5b81516108518161180c56fea2646970667358221220d85d1ed73cf131e1716bd37c296402428428cac2a3d8f96559686ed21769960264736f6c634300081c0033",
    "linkReferences": {}
  },
  "methodIdentifiers": {
    "MIN_PERIOD()": "bbccf154",
    "ONE_DAY()": "863e76db",
    "_mintTo(address,uint256)": "d0820d87",
    "approve(address,uint256)": "095ea7b3",
    "balanceOf(address)": "70a08231",
    "baseURI()": "6c0360eb",
    "calcPayment(address,uint256)": "92cb8b06",
    "chainId()": "9a8a0592",
    "expire(uint256)": "bf81bf43",
    "getApproved(uint256)": "081812fc",
    "getIntentBy(uint256)": "6a2cdfbc",
    "getIntentOf(address)": "ea9d25c3",
    "intentIdOf(address)": "d490032d",
    "isApprovedForAll(address,address)": "e985e9c5",
    "isPaymentToken(address)": "930eaddc",
    "mint(address,uint256)": "40c10f19",
    "mintTo(address,address,uint256)": "ef9bcb27",
    "name()": "06fdde03",
    "owner()": "8da5cb5b",
    "ownerOf(uint256)": "6352211e",
    "poolsNFT()": "55260ae4",
    "ratePerOneDay(address)": "f2898889",
    "safeTransferFrom(address,address,uint256)": "42842e0e",
    "safeTransferFrom(address,address,uint256,bytes)": "b88d4fde",
    "setApprovalForAll(address,bool)": "a22cb465",
    "setBaseURI(string)": "55f804b3",
    "setPoolsNFT(address)": "598e00fb",
    "setRatePerOneDay(address,uint256)": "d30a62cc",
    "supportsInterface(bytes4)": "01ffc9a7",
    "symbol()": "95d89b41",
    "tokenURI(uint256)": "c87b56dd",
    "totalIntents()": "d06a54f4",
    "totalSupply()": "18160ddd",
    "transfer(address,uint256)": "a9059cbb",
    "transferFrom(address,address,uint256)": "23b872dd"
  },
  "id": 69
}