{
  "abi": [
    {
      "type": "constructor",
      "inputs": [
        {
          "name": "_poolsNFT",
          "type": "address",
          "internalType": "address"
        }
      ],
      "stateMutability": "nonpayable"
    },
    {
      "type": "receive",
      "stateMutability": "payable"
    },
    {
      "type": "function",
      "name": "MIN_PERIOD",
      "inputs": [],
      "outputs": [
        {
          "name": "",
          "type": "uint256",
          "internalType": "uint256"
        }
      ],
      "stateMutability": "view"
    },
    {
      "type": "function",
      "name": "ONE_DAY",
      "inputs": [],
      "outputs": [
        {
          "name": "",
          "type": "uint256",
          "internalType": "uint256"
        }
      ],
      "stateMutability": "view"
    },
    {
      "type": "function",
      "name": "_mintTo",
      "inputs": [
        {
          "name": "to",
          "type": "address",
          "internalType": "address"
        },
        {
          "name": "period",
          "type": "uint256",
          "internalType": "uint256"
        }
      ],
      "outputs": [
        {
          "name": "intentId",
          "type": "uint256",
          "internalType": "uint256"
        }
      ],
      "stateMutability": "nonpayable"
    },
    {
      "type": "function",
      "name": "approve",
      "inputs": [
        {
          "name": "to",
          "type": "address",
          "internalType": "address"
        },
        {
          "name": "tokenId",
          "type": "uint256",
          "internalType": "uint256"
        }
      ],
      "outputs": [],
      "stateMutability": "nonpayable"
    },
    {
      "type": "function",
      "name": "balanceOf",
      "inputs": [
        {
          "name": "owner",
          "type": "address",
          "internalType": "address"
        }
      ],
      "outputs": [
        {
          "name": "",
          "type": "uint256",
          "internalType": "uint256"
        }
      ],
      "stateMutability": "view"
    },
    {
      "type": "function",
      "name": "baseURI",
      "inputs": [],
      "outputs": [
        {
          "name": "",
          "type": "string",
          "internalType": "string"
        }
      ],
      "stateMutability": "view"
    },
    {
      "type": "function",
      "name": "calcPayment",
      "inputs": [
        {
          "name": "paymentToken",
          "type": "address",
          "internalType": "address"
        },
        {
          "name": "period",
          "type": "uint256",
          "internalType": "uint256"
        }
      ],
      "outputs": [
        {
          "name": "paymentAmount",
          "type": "uint256",
          "internalType": "uint256"
        }
      ],
      "stateMutability": "view"
    },
    {
      "type": "function",
      "name": "chainId",
      "inputs": [],
      "outputs": [
        {
          "name": "id",
          "type": "uint256",
          "internalType": "uint256"
        }
      ],
      "stateMutability": "view"
    },
    {
      "type": "function",
      "name": "expire",
      "inputs": [
        {
          "name": "intentId",
          "type": "uint256",
          "internalType": "uint256"
        }
      ],
      "outputs": [
        {
          "name": "",
          "type": "uint256",
          "internalType": "uint256"
        }
      ],
      "stateMutability": "view"
    },
    {
      "type": "function",
      "name": "getApproved",
      "inputs": [
        {
          "name": "tokenId",
          "type": "uint256",
          "internalType": "uint256"
        }
      ],
      "outputs": [
        {
          "name": "",
          "type": "address",
          "internalType": "address"
        }
      ],
      "stateMutability": "view"
    },
    {
      "type": "function",
      "name": "getIntent",
      "inputs": [
        {
          "name": "intentId",
          "type": "uint256",
          "internalType": "uint256"
        }
      ],
      "outputs": [
        {
          "name": "intent",
          "type": "tuple",
          "internalType": "struct IIntentNFT.Intent",
          "components": [
            {
              "name": "owner",
              "type": "address",
              "internalType": "address"
            },
            {
              "name": "expire",
              "type": "uint256",
              "internalType": "uint256"
            },
            {
              "name": "poolIds",
              "type": "uint256[]",
              "internalType": "uint256[]"
            }
          ]
        }
      ],
      "stateMutability": "view"
    },
    {
      "type": "function",
      "name": "getIntentBy",
      "inputs": [
        {
          "name": "poolId",
          "type": "uint256",
          "internalType": "uint256"
        }
      ],
      "outputs": [
        {
          "name": "_account",
          "type": "address",
          "internalType": "address"
        },
        {
          "name": "_expire",
          "type": "uint256",
          "internalType": "uint256"
        },
        {
          "name": "_poolIds",
          "type": "uint256[]",
          "internalType": "uint256[]"
        }
      ],
      "stateMutability": "view"
    },
    {
      "type": "function",
      "name": "getIntentOf",
      "inputs": [
        {
          "name": "account",
          "type": "address",
          "internalType": "address"
        }
      ],
      "outputs": [
        {
          "name": "_account",
          "type": "address",
          "internalType": "address"
        },
        {
          "name": "_expire",
          "type": "uint256",
          "internalType": "uint256"
        },
        {
          "name": "_poolIds",
          "type": "uint256[]",
          "internalType": "uint256[]"
        }
      ],
      "stateMutability": "view"
    },
    {
      "type": "function",
      "name": "getIntents",
      "inputs": [
        {
          "name": "intentIds",
          "type": "uint256[]",
          "internalType": "uint256[]"
        }
      ],
      "outputs": [
        {
          "name": "intents",
          "type": "tuple[]",
          "internalType": "struct IIntentNFT.Intent[]",
          "components": [
            {
              "name": "owner",
              "type": "address",
              "internalType": "address"
            },
            {
              "name": "expire",
              "type": "uint256",
              "internalType": "uint256"
            },
            {
              "name": "poolIds",
              "type": "uint256[]",
              "internalType": "uint256[]"
            }
          ]
        }
      ],
      "stateMutability": "view"
    },
    {
      "type": "function",
      "name": "intentIdOf",
      "inputs": [
        {
          "name": "account",
          "type": "address",
          "internalType": "address"
        }
      ],
      "outputs": [
        {
          "name": "",
          "type": "uint256",
          "internalType": "uint256"
        }
      ],
      "stateMutability": "view"
    },
    {
      "type": "function",
      "name": "isApprovedForAll",
      "inputs": [
        {
          "name": "owner",
          "type": "address",
          "internalType": "address"
        },
        {
          "name": "operator",
          "type": "address",
          "internalType": "address"
        }
      ],
      "outputs": [
        {
          "name": "",
          "type": "bool",
          "internalType": "bool"
        }
      ],
      "stateMutability": "view"
    },
    {
      "type": "function",
      "name": "isPaymentToken",
      "inputs": [
        {
          "name": "paymentToken",
          "type": "address",
          "internalType": "address"
        }
      ],
      "outputs": [
        {
          "name": "",
          "type": "bool",
          "internalType": "bool"
        }
      ],
      "stateMutability": "view"
    },
    {
      "type": "function",
      "name": "mint",
      "inputs": [
        {
          "name": "paymentToken",
          "type": "address",
          "internalType": "address"
        },
        {
          "name": "period",
          "type": "uint256",
          "internalType": "uint256"
        }
      ],
      "outputs": [
        {
          "name": "",
          "type": "uint256",
          "internalType": "uint256"
        }
      ],
      "stateMutability": "payable"
    },
    {
      "type": "function",
      "name": "mintTo",
      "inputs": [
        {
          "name": "paymentToken",
          "type": "address",
          "internalType": "address"
        },
        {
          "name": "to",
          "type": "address",
          "internalType": "address"
        },
        {
          "name": "period",
          "type": "uint256",
          "internalType": "uint256"
        }
      ],
      "outputs": [
        {
          "name": "intentId",
          "type": "uint256",
          "internalType": "uint256"
        }
      ],
      "stateMutability": "payable"
    },
    {
      "type": "function",
      "name": "name",
      "inputs": [],
      "outputs": [
        {
          "name": "",
          "type": "string",
          "internalType": "string"
        }
      ],
      "stateMutability": "view"
    },
    {
      "type": "function",
      "name": "owner",
      "inputs": [],
      "outputs": [
        {
          "name": "",
          "type": "address",
          "internalType": "address"
        }
      ],
      "stateMutability": "view"
    },
    {
      "type": "function",
      "name": "ownerOf",
      "inputs": [
        {
          "name": "tokenId",
          "type": "uint256",
          "internalType": "uint256"
        }
      ],
      "outputs": [
        {
          "name": "",
          "type": "address",
          "internalType": "address"
        }
      ],
      "stateMutability": "view"
    },
    {
      "type": "function",
      "name": "poolsNFT",
      "inputs": [],
      "outputs": [
        {
          "name": "",
          "type": "address",
          "internalType": "contract IPoolsNFT"
        }
      ],
      "stateMutability": "view"
    },
    {
      "type": "function",
      "name": "ratePerOneDay",
      "inputs": [
        {
          "name": "paymentToken",
          "type": "address",
          "internalType": "address"
        }
      ],
      "outputs": [
        {
          "name": "",
          "type": "uint256",
          "internalType": "uint256"
        }
      ],
      "stateMutability": "view"
    },
    {
      "type": "function",
      "name": "safeTransferFrom",
      "inputs": [
        {
          "name": "from",
          "type": "address",
          "internalType": "address"
        },
        {
          "name": "to",
          "type": "address",
          "internalType": "address"
        },
        {
          "name": "tokenId",
          "type": "uint256",
          "internalType": "uint256"
        }
      ],
      "outputs": [],
      "stateMutability": "nonpayable"
    },
    {
      "type": "function",
      "name": "safeTransferFrom",
      "inputs": [
        {
          "name": "from",
          "type": "address",
          "internalType": "address"
        },
        {
          "name": "to",
          "type": "address",
          "internalType": "address"
        },
        {
          "name": "tokenId",
          "type": "uint256",
          "internalType": "uint256"
        },
        {
          "name": "data",
          "type": "bytes",
          "internalType": "bytes"
        }
      ],
      "outputs": [],
      "stateMutability": "nonpayable"
    },
    {
      "type": "function",
      "name": "setApprovalForAll",
      "inputs": [
        {
          "name": "operator",
          "type": "address",
          "internalType": "address"
        },
        {
          "name": "approved",
          "type": "bool",
          "internalType": "bool"
        }
      ],
      "outputs": [],
      "stateMutability": "nonpayable"
    },
    {
      "type": "function",
      "name": "setBaseURI",
      "inputs": [
        {
          "name": "_baseURI",
          "type": "string",
          "internalType": "string"
        }
      ],
      "outputs": [],
      "stateMutability": "nonpayable"
    },
    {
      "type": "function",
      "name": "setPoolsNFT",
      "inputs": [
        {
          "name": "_poolsNFT",
          "type": "address",
          "internalType": "address"
        }
      ],
      "outputs": [],
      "stateMutability": "nonpayable"
    },
    {
      "type": "function",
      "name": "setRatePerOneDay",
      "inputs": [
        {
          "name": "token",
          "type": "address",
          "internalType": "address"
        },
        {
          "name": "_ratePerOneDay",
          "type": "uint256",
          "internalType": "uint256"
        }
      ],
      "outputs": [],
      "stateMutability": "nonpayable"
    },
    {
      "type": "function",
      "name": "supportsInterface",
      "inputs": [
        {
          "name": "interfaceId",
          "type": "bytes4",
          "internalType": "bytes4"
        }
      ],
      "outputs": [
        {
          "name": "",
          "type": "bool",
          "internalType": "bool"
        }
      ],
      "stateMutability": "view"
    },
    {
      "type": "function",
      "name": "symbol",
      "inputs": [],
      "outputs": [
        {
          "name": "",
          "type": "string",
          "internalType": "string"
        }
      ],
      "stateMutability": "view"
    },
    {
      "type": "function",
      "name": "tokenURI",
      "inputs": [
        {
          "name": "poolId",
          "type": "uint256",
          "internalType": "uint256"
        }
      ],
      "outputs": [
        {
          "name": "uri",
          "type": "string",
          "internalType": "string"
        }
      ],
      "stateMutability": "view"
    },
    {
      "type": "function",
      "name": "totalIntents",
      "inputs": [],
      "outputs": [
        {
          "name": "",
          "type": "uint256",
          "internalType": "uint256"
        }
      ],
      "stateMutability": "view"
    },
    {
      "type": "function",
      "name": "totalSupply",
      "inputs": [],
      "outputs": [
        {
          "name": "",
          "type": "uint256",
          "internalType": "uint256"
        }
      ],
      "stateMutability": "view"
    },
    {
      "type": "function",
      "name": "transfer",
      "inputs": [
        {
          "name": "to",
          "type": "address",
          "internalType": "address"
        },
        {
          "name": "intentId",
          "type": "uint256",
          "internalType": "uint256"
        }
      ],
      "outputs": [],
      "stateMutability": "nonpayable"
    },
    {
      "type": "function",
      "name": "transferFrom",
      "inputs": [
        {
          "name": "from",
          "type": "address",
          "internalType": "address"
        },
        {
          "name": "to",
          "type": "address",
          "internalType": "address"
        },
        {
          "name": "tokenId",
          "type": "uint256",
          "internalType": "uint256"
        }
      ],
      "outputs": [],
      "stateMutability": "nonpayable"
    },
    {
      "type": "event",
      "name": "Approval",
      "inputs": [
        {
          "name": "owner",
          "type": "address",
          "indexed": true,
          "internalType": "address"
        },
        {
          "name": "approved",
          "type": "address",
          "indexed": true,
          "internalType": "address"
        },
        {
          "name": "tokenId",
          "type": "uint256",
          "indexed": true,
          "internalType": "uint256"
        }
      ],
      "anonymous": false
    },
    {
      "type": "event",
      "name": "ApprovalForAll",
      "inputs": [
        {
          "name": "owner",
          "type": "address",
          "indexed": true,
          "internalType": "address"
        },
        {
          "name": "operator",
          "type": "address",
          "indexed": true,
          "internalType": "address"
        },
        {
          "name": "approved",
          "type": "bool",
          "indexed": false,
          "internalType": "bool"
        }
      ],
      "anonymous": false
    },
    {
      "type": "event",
      "name": "Extended",
      "inputs": [
        {
          "name": "intentId",
          "type": "uint256",
          "indexed": false,
          "internalType": "uint256"
        },
        {
          "name": "to",
          "type": "address",
          "indexed": false,
          "internalType": "address"
        },
        {
          "name": "newExpire",
          "type": "uint256",
          "indexed": false,
          "internalType": "uint256"
        }
      ],
      "anonymous": false
    },
    {
      "type": "event",
      "name": "Mint",
      "inputs": [
        {
          "name": "intentId",
          "type": "uint256",
          "indexed": false,
          "internalType": "uint256"
        },
        {
          "name": "to",
          "type": "address",
          "indexed": false,
          "internalType": "address"
        },
        {
          "name": "expire",
          "type": "uint256",
          "indexed": false,
          "internalType": "uint256"
        }
      ],
      "anonymous": false
    },
    {
      "type": "event",
      "name": "Pay",
      "inputs": [
        {
          "name": "paymentToken",
          "type": "address",
          "indexed": false,
          "internalType": "address"
        },
        {
          "name": "payer",
          "type": "address",
          "indexed": false,
          "internalType": "address"
        },
        {
          "name": "paymentAmount",
          "type": "uint256",
          "indexed": false,
          "internalType": "uint256"
        }
      ],
      "anonymous": false
    },
    {
      "type": "event",
      "name": "SetRatePerOneDay",
      "inputs": [
        {
          "name": "token",
          "type": "address",
          "indexed": false,
          "internalType": "address"
        },
        {
          "name": "_ratePerOneDay",
          "type": "uint256",
          "indexed": false,
          "internalType": "uint256"
        }
      ],
      "anonymous": false
    },
    {
      "type": "event",
      "name": "Transfer",
      "inputs": [
        {
          "name": "from",
          "type": "address",
          "indexed": true,
          "internalType": "address"
        },
        {
          "name": "to",
          "type": "address",
          "indexed": true,
          "internalType": "address"
        },
        {
          "name": "tokenId",
          "type": "uint256",
          "indexed": true,
          "internalType": "uint256"
        }
      ],
      "anonymous": false
    },
    {
      "type": "error",
      "name": "BelowMinPeriod",
      "inputs": []
    },
    {
      "type": "error",
      "name": "ERC721IncorrectOwner",
      "inputs": [
        {
          "name": "sender",
          "type": "address",
          "internalType": "address"
        },
        {
          "name": "tokenId",
          "type": "uint256",
          "internalType": "uint256"
        },
        {
          "name": "owner",
          "type": "address",
          "internalType": "address"
        }
      ]
    },
    {
      "type": "error",
      "name": "ERC721InsufficientApproval",
      "inputs": [
        {
          "name": "operator",
          "type": "address",
          "internalType": "address"
        },
        {
          "name": "tokenId",
          "type": "uint256",
          "internalType": "uint256"
        }
      ]
    },
    {
      "type": "error",
      "name": "ERC721InvalidApprover",
      "inputs": [
        {
          "name": "approver",
          "type": "address",
          "internalType": "address"
        }
      ]
    },
    {
      "type": "error",
      "name": "ERC721InvalidOperator",
      "inputs": [
        {
          "name": "operator",
          "type": "address",
          "internalType": "address"
        }
      ]
    },
    {
      "type": "error",
      "name": "ERC721InvalidOwner",
      "inputs": [
        {
          "name": "owner",
          "type": "address",
          "internalType": "address"
        }
      ]
    },
    {
      "type": "error",
      "name": "ERC721InvalidReceiver",
      "inputs": [
        {
          "name": "receiver",
          "type": "address",
          "internalType": "address"
        }
      ]
    },
    {
      "type": "error",
      "name": "ERC721InvalidSender",
      "inputs": [
        {
          "name": "sender",
          "type": "address",
          "internalType": "address"
        }
      ]
    },
    {
      "type": "error",
      "name": "ERC721NonexistentToken",
      "inputs": [
        {
          "name": "tokenId",
          "type": "uint256",
          "internalType": "uint256"
        }
      ]
    },
    {
      "type": "error",
      "name": "NotOwner",
      "inputs": []
    },
    {
      "type": "error",
      "name": "NotPaymentToken",
      "inputs": []
    },
    {
      "type": "error",
      "name": "SafeERC20FailedOperation",
      "inputs": [
        {
          "name": "token",
          "type": "address",
          "internalType": "address"
        }
      ]
    }
  ],
  "bytecode": {
    "object": "0x608060405234801561000f575f5ffd5b50604051612a51380380612a5183398101604081905261002e91610522565b6040518060400160405280601c81526020017f4772696e646572414920496e74656e747320436f6c6c656374696f6e000000008152506040518060400160405280600c81526020016b677241495f494e54454e545360a01b815250815f908161009791906105df565b5060016100a482826105df565b5050600680546001600160a01b0319166001600160a01b038416179055505f808052600b602052655af3107a40007fdf7de25b7f1fd6d0b5205f0e18f1f35bd7b8d84cce336588d184533ce43a6f7655336100ff818361012b565b61010d426312cea600610699565b5f9283526009602052604090922091909155505060016007556106b8565b6001600160a01b03821661015957604051633250574960e11b81525f60048201526024015b60405180910390fd5b5f610165838383610196565b90506001600160a01b03811615610191576040516339e3563760e11b81525f6004820152602401610150565b505050565b5f806101a38585856101e9565b90506001600160a01b0385166101ba5790506101e2565b6001600160a01b038082165f908152600a602052604080822082905591871681522084905590505b9392505050565b5f828152600260205260408120546001600160a01b0390811690831615610215576102158184866102db565b6001600160a01b0381161561024f576102305f85818061033f565b6001600160a01b0381165f90815260036020526040902080545f190190555b6001600160a01b0385161561027d576001600160a01b0385165f908152600360205260409020805460010190555b5f8481526002602052604080822080546001600160a01b0319166001600160a01b0389811691821790925591518793918516917fddf252ad1be2c89b69c2b068fc378daa952ba7f163c4a11628f55a4df523b3ef91a4949350505050565b6102e6838383610461565b610191576001600160a01b03831661031457604051637e27328960e01b815260048101829052602401610150565b60405163177e802f60e01b81526001600160a01b038316600482015260248101829052604401610150565b808061035357506001600160a01b03821615155b15610432575f610362846104e4565b90506001600160a01b0383161580159061038e5750826001600160a01b0316816001600160a01b031614155b80156103bf57506001600160a01b038082165f9081526005602090815260408083209387168352929052205460ff16155b156103e85760405163a9fbf51f60e01b81526001600160a01b0384166004820152602401610150565b81156104305783856001600160a01b0316826001600160a01b03167f8c5be1e5ebec7d5bd14f71427d1e84f3dd0314c0f7b2291e5b200ac8c7c3b92560405160405180910390a45b505b50505f90815260046020526040902080546001600160a01b0319166001600160a01b0392909216919091179055565b5f6001600160a01b038316158015906104dc5750826001600160a01b0316846001600160a01b031614806104b957506001600160a01b038085165f9081526005602090815260408083209387168352929052205460ff165b806104dc57505f828152600460205260409020546001600160a01b038481169116145b949350505050565b5f818152600260205260408120546001600160a01b03168061051c57604051637e27328960e01b815260048101849052602401610150565b92915050565b5f60208284031215610532575f5ffd5b81516001600160a01b03811681146101e2575f5ffd5b634e487b7160e01b5f52604160045260245ffd5b600181811c9082168061057057607f821691505b60208210810361058e57634e487b7160e01b5f52602260045260245ffd5b50919050565b601f82111561019157805f5260205f20601f840160051c810160208510156105b95750805b601f840160051c820191505b818110156105d8575f81556001016105c5565b5050505050565b81516001600160401b038111156105f8576105f8610548565b61060c81610606845461055c565b84610594565b6020601f82116001811461063e575f83156106275750848201515b5f19600385901b1c1916600184901b1784556105d8565b5f84815260208120601f198516915b8281101561066d578785015182556020948501946001909201910161064d565b508482101561068a57868401515f19600387901b60f8161c191681555b50505050600190811b01905550565b8082018082111561051c57634e487b7160e01b5f52601160045260245ffd5b61238c806106c55f395ff3fe608060405260043610610215575f3560e01c8063906e277b1161011e578063bf81bf43116100a8578063d490032d1161006d578063d490032d14610668578063e985e9c514610693578063ea9d25c3146106b2578063ef9bcb27146106d1578063f2898889146106e4575f5ffd5b8063bf81bf43146105cb578063c87b56dd146105f6578063d06a54f414610615578063d0820d871461062a578063d30a62cc14610649575f5ffd5b80639a8a0592116100ee5780639a8a05921461055c578063a22cb4651461056e578063a9059cbb1461058d578063b88d4fde146105ac578063bbccf1541461049d575f5ffd5b8063906e277b146104c757806392cb8b06146104f3578063930eaddc1461051257806395d89b4114610548575f5ffd5b806355260ae41161019f5780636a2cdfbc1161016f5780636a2cdfbc1461043c5780636c0360eb1461046a57806370a082311461047e578063863e76db1461049d5780638da5cb5b146104b3575f5ffd5b806355260ae4146103c057806355f804b3146103df578063598e00fb146103fe5780636352211e1461041d575f5ffd5b806318160ddd116101e557806318160ddd1461032557806323b872dd146103435780632a1200241461036257806340c10f191461038e57806342842e0e146103a1575f5ffd5b806301ffc9a71461027a57806306fdde03146102ae578063081812fc146102cf578063095ea7b314610306575f5ffd5b36610276573415610274576006546040515f916001600160a01b03169034908381818185875af1925050503d805f811461026a576040519150601f19603f3d011682016040523d82523d5f602084013e61026f565b606091505b505050505b005b5f5ffd5b348015610285575f5ffd5b50610299610294366004611b3f565b61070f565b60405190151581526020015b60405180910390f35b3480156102b9575f5ffd5b506102c2610760565b6040516102a59190611b88565b3480156102da575f5ffd5b506102ee6102e9366004611b9a565b6107ef565b6040516001600160a01b0390911681526020016102a5565b348015610311575f5ffd5b50610274610320366004611bc5565b610816565b348015610330575f5ffd5b506007545b6040519081526020016102a5565b34801561034e575f5ffd5b5061027461035d366004611bef565b610825565b34801561036d575f5ffd5b5061038161037c366004611c95565b6108b3565b6040516102a59190611d91565b61033561039c366004611bc5565b610978565b3480156103ac575f5ffd5b506102746103bb366004611bef565b61098b565b3480156103cb575f5ffd5b506006546102ee906001600160a01b031681565b3480156103ea575f5ffd5b506102746103f9366004611e4d565b6109aa565b348015610409575f5ffd5b50610274610418366004611e92565b6109be565b348015610428575f5ffd5b506102ee610437366004611b9a565b6109e8565b348015610447575f5ffd5b5061045b610456366004611b9a565b6109f2565b6040516102a593929190611ead565b348015610475575f5ffd5b506102c2610afc565b348015610489575f5ffd5b50610335610498366004611e92565b610b88565b3480156104a8575f5ffd5b506103356201518081565b3480156104be575f5ffd5b506102ee610bcd565b3480156104d2575f5ffd5b506104e66104e1366004611b9a565b610c4b565b6040516102a59190611f09565b3480156104fe575f5ffd5b5061033561050d366004611bc5565b610d22565b34801561051d575f5ffd5b5061029961052c366004611e92565b6001600160a01b03165f908152600b6020526040902054151590565b348015610553575f5ffd5b506102c2610dd3565b348015610567575f5ffd5b5046610335565b348015610579575f5ffd5b50610274610588366004611f1b565b610de2565b348015610598575f5ffd5b506102746105a7366004611bc5565b610ded565b3480156105b7575f5ffd5b506102746105c6366004611f56565b610df8565b3480156105d6575f5ffd5b506103356105e5366004611b9a565b60096020525f908152604090205481565b348015610601575f5ffd5b506102c2610610366004611b9a565b610e10565b348015610620575f5ffd5b5061033560075481565b348015610635575f5ffd5b50610335610644366004611bc5565b610e72565b348015610654575f5ffd5b50610274610663366004611bc5565b611019565b348015610673575f5ffd5b50610335610682366004611e92565b600a6020525f908152604090205481565b34801561069e575f5ffd5b506102996106ad366004611fd1565b611078565b3480156106bd575f5ffd5b5061045b6106cc366004611e92565b6110a5565b6103356106df366004611bef565b611156565b3480156106ef575f5ffd5b506103356106fe366004611e92565b600b6020525f908152604090205481565b5f6001600160e01b031982166380ac58cd60e01b148061073f57506001600160e01b03198216635b5e139f60e01b145b8061075a57506301ffc9a760e01b6001600160e01b03198316145b92915050565b60605f805461076e90611ffd565b80601f016020809104026020016040519081016040528092919081815260200182805461079a90611ffd565b80156107e55780601f106107bc576101008083540402835291602001916107e5565b820191905f5260205f20905b8154815290600101906020018083116107c857829003601f168201915b5050505050905090565b5f6107f98261118a565b505f828152600460205260409020546001600160a01b031661075a565b6108218282336111c2565b5050565b6001600160a01b03821661085357604051633250574960e11b81525f60048201526024015b60405180910390fd5b5f61085f8383336111cf565b9050836001600160a01b0316816001600160a01b0316146108ad576040516364283d7b60e01b81526001600160a01b038086166004830152602482018490528216604482015260640161084a565b50505050565b80516060908067ffffffffffffffff8111156108d1576108d1611c2d565b60405190808252806020026020018201604052801561091d57816020015b60408051606080820183525f8083526020830152918101919091528152602001906001900390816108ef5790505b5091505f5b818110156109715761094c84828151811061093f5761093f612035565b6020026020010151610c4b565b83828151811061095e5761095e612035565b6020908102919091010152600101610922565b5050919050565b5f610984833384611156565b9392505050565b6109a583838360405180602001604052805f815250610df8565b505050565b6109b2611221565b6008610821828261208d565b6109c6611221565b600680546001600160a01b0319166001600160a01b0392909216919091179055565b5f61075a8261118a565b6006546040516331a9108f60e11b8152600481018390525f9182916060916001600160a01b031690636352211e90602401602060405180830381865afa158015610a3e573d5f5f3e3d5ffd5b505050506040513d601f19601f82011682018060405250810190610a629190612148565b6001600160a01b038181165f818152600a602090815260408083205483526009909152908190205460065491516301999b1160e31b81526004810193909352939650929450911690630cccd888906024015f60405180830381865afa158015610acd573d5f5f3e3d5ffd5b505050506040513d5f823e601f3d908101601f19168201604052610af49190810190612163565b929491935050565b60088054610b0990611ffd565b80601f0160208091040260200160405190810160405280929190818152602001828054610b3590611ffd565b8015610b805780601f10610b5757610100808354040283529160200191610b80565b820191905f5260205f20905b815481529060010190602001808311610b6357829003601f168201915b505050505081565b5f6001600160a01b038216610bb2576040516322718ad960e21b81525f600482015260240161084a565b506001600160a01b03165f9081526003602052604090205490565b60065460408051638da5cb5b60e01b815290515f926001600160a01b031691638da5cb5b9160048083019260209291908290030181865afa925050508015610c32575060408051601f3d908101601f19168201909252610c2f91810190612148565b60015b610c4657506006546001600160a01b031690565b919050565b60408051606080820183525f8083526020830152918101919091526040518060600160405280610c7a846109e8565b6001600160a01b0390811682525f85815260096020908152604091829020549084015260065492019116630cccd888610cb2866109e8565b6040516001600160e01b031960e084901b1681526001600160a01b0390911660048201526024015f60405180830381865afa158015610cf3573d5f5f3e3d5ffd5b505050506040513d5f823e601f3d908101601f19168201604052610d1a9190810190612163565b905292915050565b6001600160a01b0382165f908152600b6020526040812054610d5757604051632c83944560e01b815260040160405180910390fd5b62015180821015610d7b5760405163126e0b4960e21b815260040160405180910390fd5b6001600160a01b0383165f908152600b6020526040902054600101610da157505f61075a565b6001600160a01b0383165f908152600b60205260409020546201518090610dc99084906121fe565b6109849190612215565b60606001805461076e90611ffd565b61082133838361125c565b6108213383836112fa565b610e03848484610825565b6108ad33858585856113a7565b6060610e1b8261118a565b505f6008610e28846114cf565b604051602001610e3992919061224b565b604051602081830303815290604052905080604051602001610e5b91906122be565b604051602081830303815290604052915050919050565b5f610e7c83610b88565b5f03610f3e5750600754610e9082426122de565b5f828152600960209081526040808320939093556001600160a01b0386168252600a905220819055610ec2838261155f565b60078054905f610ed1836122f1565b90915550505f81815260096020526040908190205490517f4e3883c75cc9c752bb1db2e406a822e4a75067ae77ad9a0a4d179f2709b9e1f691610f3191849187919283526001600160a01b03919091166020830152604082015260600190565b60405180910390a161075a565b506001600160a01b0382165f908152600a60209081526040808320548084526009909252909120544290811115610f8c57610f7983826122de565b5f83815260096020526040902055610faf565b5f8281526009602052604081208054859290610fa99084906122de565b90915550505b5f82815260096020526040908190205490517fba54ef70602e093589910be477efca38c254827e81b87e843e85e63d329c242b9161100a91859188919283526001600160a01b03919091166020830152604082015260600190565b60405180910390a15092915050565b611021611221565b6001600160a01b0382165f818152600b6020908152604091829020849055815192835282018390527f4d0c0d54d8ed5947d7fd8df750312c7754d572bb386c2327ebcc8ba36e5e1391910160405180910390a15050565b6001600160a01b039182165f90815260056020908152604080832093909416825291909152205460ff1690565b6001600160a01b0381165f908152600a602052604081205481906060906110cb816109e8565b5f82815260096020526040908190205460065491516301999b1160e31b81526001600160a01b038085166004830152939750909550911690630cccd888906024015f60405180830381865afa158015611126573d5f5f3e3d5ffd5b505050506040513d5f823e601f3d908101601f1916820160405261114d9190810190612163565b93959294505050565b5f5f6111628584610d22565b905061117685611170610bcd565b836115c0565b506111818484610e72565b95945050505050565b5f818152600260205260408120546001600160a01b03168061075a57604051637e27328960e01b81526004810184905260240161084a565b6109a583838360016116cc565b5f5f6111dc8585856117d0565b90506001600160a01b0385166111f3579050610984565b6001600160a01b038082165f908152600a602052604080822082905591871681522084905590509392505050565b611229610bcd565b6001600160a01b0316336001600160a01b03161461125a576040516330cd747160e01b815260040160405180910390fd5b565b6001600160a01b03821661128e57604051630b61174360e31b81526001600160a01b038316600482015260240161084a565b6001600160a01b038381165f81815260056020908152604080832094871680845294825291829020805460ff191686151590811790915591519182527f17307eab39ab6107e8899845ad3d59bd9653f200f220920489ca2b5937696c31910160405180910390a3505050565b6001600160a01b03821661132357604051633250574960e11b81525f600482015260240161084a565b5f61132f83835f6111cf565b90506001600160a01b03811661135b57604051637e27328960e01b81526004810183905260240161084a565b836001600160a01b0316816001600160a01b0316146108ad576040516364283d7b60e01b81526001600160a01b038086166004830152602482018490528216604482015260640161084a565b6001600160a01b0383163b156114c857604051630a85bd0160e11b81526001600160a01b0384169063150b7a02906113e9908890889087908790600401612309565b6020604051808303815f875af1925050508015611423575060408051601f3d908101601f191682019092526114209181019061233b565b60015b61148a573d808015611450576040519150601f19603f3d011682016040523d82523d5f602084013e611455565b606091505b5080515f0361148257604051633250574960e11b81526001600160a01b038516600482015260240161084a565b805181602001fd5b6001600160e01b03198116630a85bd0160e11b146114c657604051633250574960e11b81526001600160a01b038516600482015260240161084a565b505b5050505050565b60605f6114db836118c2565b60010190505f8167ffffffffffffffff8111156114fa576114fa611c2d565b6040519080825280601f01601f191660200182016040528015611524576020820181803683370190505b5090508181016020015b5f19016f181899199a1a9b1b9c1cb0b131b232b360811b600a86061a8153600a850494508461152e57509392505050565b6001600160a01b03821661158857604051633250574960e11b81525f600482015260240161084a565b5f61159483835f6111cf565b90506001600160a01b038116156109a5576040516339e3563760e11b81525f600482015260240161084a565b5f81156116c5576001600160a01b03841661166a575f836001600160a01b0316836040515f6040518083038185875af1925050503d805f811461161e576040519150601f19603f3d011682016040523d82523d5f602084013e611623565b606091505b50509050806116645760405162461bcd60e51b815260206004820152600d60248201526c0ccc2d2d840e6cadcc8408aa89609b1b604482015260640161084a565b5061167f565b61167f6001600160a01b038516338585611999565b604080516001600160a01b03861681523360208201529081018390527f288d9a5737d39d766acb848da277a970d9ee31f9115e17490b9393e282fa7b4d9060600161100a565b5092915050565b80806116e057506001600160a01b03821615155b156117a1575f6116ef8461118a565b90506001600160a01b0383161580159061171b5750826001600160a01b0316816001600160a01b031614155b801561172e575061172c8184611078565b155b156117575760405163a9fbf51f60e01b81526001600160a01b038416600482015260240161084a565b811561179f5783856001600160a01b0316826001600160a01b03167f8c5be1e5ebec7d5bd14f71427d1e84f3dd0314c0f7b2291e5b200ac8c7c3b92560405160405180910390a45b505b50505f90815260046020526040902080546001600160a01b0319166001600160a01b0392909216919091179055565b5f828152600260205260408120546001600160a01b03908116908316156117fc576117fc8184866119f3565b6001600160a01b03811615611836576118175f855f5f6116cc565b6001600160a01b0381165f90815260036020526040902080545f190190555b6001600160a01b03851615611864576001600160a01b0385165f908152600360205260409020805460010190555b5f8481526002602052604080822080546001600160a01b0319166001600160a01b0389811691821790925591518793918516917fddf252ad1be2c89b69c2b068fc378daa952ba7f163c4a11628f55a4df523b3ef91a4949350505050565b5f8072184f03e93ff9f4daa797ed6e38ed64bf6a1f0160401b83106119005772184f03e93ff9f4daa797ed6e38ed64bf6a1f0160401b830492506040015b6d04ee2d6d415b85acef8100000000831061192c576d04ee2d6d415b85acef8100000000830492506020015b662386f26fc10000831061194a57662386f26fc10000830492506010015b6305f5e1008310611962576305f5e100830492506008015b612710831061197657612710830492506004015b60648310611988576064830492506002015b600a831061075a5760010192915050565b604080516001600160a01b0385811660248301528416604482015260648082018490528251808303909101815260849091019091526020810180516001600160e01b03166323b872dd60e01b1790526108ad908590611a57565b6119fe838383611ac3565b6109a5576001600160a01b038316611a2c57604051637e27328960e01b81526004810182905260240161084a565b60405163177e802f60e01b81526001600160a01b03831660048201526024810182905260440161084a565b5f5f60205f8451602086015f885af180611a76576040513d5f823e3d81fd5b50505f513d91508115611a8d578060011415611a9a565b6001600160a01b0384163b155b156108ad57604051635274afe760e01b81526001600160a01b038516600482015260240161084a565b5f6001600160a01b03831615801590611b1f5750826001600160a01b0316846001600160a01b03161480611afc5750611afc8484611078565b80611b1f57505f828152600460205260409020546001600160a01b038481169116145b949350505050565b6001600160e01b031981168114611b3c575f5ffd5b50565b5f60208284031215611b4f575f5ffd5b813561098481611b27565b5f81518084528060208401602086015e5f602082860101526020601f19601f83011685010191505092915050565b602081525f6109846020830184611b5a565b5f60208284031215611baa575f5ffd5b5035919050565b6001600160a01b0381168114611b3c575f5ffd5b5f5f60408385031215611bd6575f5ffd5b8235611be181611bb1565b946020939093013593505050565b5f5f5f60608486031215611c01575f5ffd5b8335611c0c81611bb1565b92506020840135611c1c81611bb1565b929592945050506040919091013590565b634e487b7160e01b5f52604160045260245ffd5b604051601f8201601f1916810167ffffffffffffffff81118282101715611c6a57611c6a611c2d565b604052919050565b5f67ffffffffffffffff821115611c8b57611c8b611c2d565b5060051b60200190565b5f60208284031215611ca5575f5ffd5b813567ffffffffffffffff811115611cbb575f5ffd5b8201601f81018413611ccb575f5ffd5b8035611cde611cd982611c72565b611c41565b8082825260208201915060208360051b850101925086831115611cff575f5ffd5b6020840193505b82841015611d21578335825260209384019390910190611d06565b9695505050505050565b80516001600160a01b0316825260208082015181840152604080830151606091850182905280519185018290525f920190829060808601905b80831015611d875783518252602082019150602084019350600183019250611d64565b5095945050505050565b5f602082016020835280845180835260408501915060408160051b8601019250602086015f5b82811015611de857603f19878603018452611dd3858351611d2b565b94506020938401939190910190600101611db7565b50929695505050505050565b5f5f67ffffffffffffffff841115611e0e57611e0e611c2d565b50601f8301601f1916602001611e2381611c41565b915050828152838383011115611e37575f5ffd5b828260208301375f602084830101529392505050565b5f60208284031215611e5d575f5ffd5b813567ffffffffffffffff811115611e73575f5ffd5b8201601f81018413611e83575f5ffd5b611b1f84823560208401611df4565b5f60208284031215611ea2575f5ffd5b813561098481611bb1565b6001600160a01b0384168152602080820184905260606040830181905283519083018190525f918401906080840190835b81811015611efc578351835260209384019390920191600101611ede565b5090979650505050505050565b602081525f6109846020830184611d2b565b5f5f60408385031215611f2c575f5ffd5b8235611f3781611bb1565b915060208301358015158114611f4b575f5ffd5b809150509250929050565b5f5f5f5f60808587031215611f69575f5ffd5b8435611f7481611bb1565b93506020850135611f8481611bb1565b925060408501359150606085013567ffffffffffffffff811115611fa6575f5ffd5b8501601f81018713611fb6575f5ffd5b611fc587823560208401611df4565b91505092959194509250565b5f5f60408385031215611fe2575f5ffd5b8235611fed81611bb1565b91506020830135611f4b81611bb1565b600181811c9082168061201157607f821691505b60208210810361202f57634e487b7160e01b5f52602260045260245ffd5b50919050565b634e487b7160e01b5f52603260045260245ffd5b601f8211156109a557805f5260205f20601f840160051c8101602085101561206e5750805b601f840160051c820191505b818110156114c8575f815560010161207a565b815167ffffffffffffffff8111156120a7576120a7611c2d565b6120bb816120b58454611ffd565b84612049565b6020601f8211600181146120ed575f83156120d65750848201515b5f19600385901b1c1916600184901b1784556114c8565b5f84815260208120601f198516915b8281101561211c57878501518255602094850194600190920191016120fc565b508482101561213957868401515f19600387901b60f8161c191681555b50505050600190811b01905550565b5f60208284031215612158575f5ffd5b815161098481611bb1565b5f60208284031215612173575f5ffd5b815167ffffffffffffffff811115612189575f5ffd5b8201601f81018413612199575f5ffd5b80516121a7611cd982611c72565b8082825260208201915060208360051b8501019250868311156121c8575f5ffd5b6020840193505b82841015611d215783518252602093840193909101906121cf565b634e487b7160e01b5f52601160045260245ffd5b808202811582820484141761075a5761075a6121ea565b5f8261222f57634e487b7160e01b5f52601260045260245ffd5b500490565b5f81518060208401855e5f93019283525090919050565b5f5f845461225881611ffd565b60018216801561226f5760018114612284576122b1565b60ff19831686528115158202860193506122b1565b875f5260205f205f5b838110156122a95781548882015260019091019060200161228d565b505081860193505b5050506111818185612234565b5f6122c98284612234565b64173539b7b760d91b81526005019392505050565b8082018082111561075a5761075a6121ea565b5f60018201612302576123026121ea565b5060010190565b6001600160a01b03858116825284166020820152604081018390526080606082018190525f90611d2190830184611b5a565b5f6020828403121561234b575f5ffd5b815161098481611b2756fea2646970667358221220c7b9c0a722e9d4674ba8bcc82ab0cfff7af012ab496920379117945e0e6e917464736f6c634300081c0033",
    "linkReferences": {}
  },
  "methodIdentifiers": {
    "MIN_PERIOD()": "bbccf154",
    "ONE_DAY()": "863e76db",
    "_mintTo(address,uint256)": "d0820d87",
    "approve(address,uint256)": "095ea7b3",
    "balanceOf(address)": "70a08231",
    "baseURI()": "6c0360eb",
    "calcPayment(address,uint256)": "92cb8b06",
    "chainId()": "9a8a0592",
    "expire(uint256)": "bf81bf43",
    "getApproved(uint256)": "081812fc",
    "getIntent(uint256)": "906e277b",
    "getIntentBy(uint256)": "6a2cdfbc",
    "getIntentOf(address)": "ea9d25c3",
    "getIntents(uint256[])": "2a120024",
    "intentIdOf(address)": "d490032d",
    "isApprovedForAll(address,address)": "e985e9c5",
    "isPaymentToken(address)": "930eaddc",
    "mint(address,uint256)": "40c10f19",
    "mintTo(address,address,uint256)": "ef9bcb27",
    "name()": "06fdde03",
    "owner()": "8da5cb5b",
    "ownerOf(uint256)": "6352211e",
    "poolsNFT()": "55260ae4",
    "ratePerOneDay(address)": "f2898889",
    "safeTransferFrom(address,address,uint256)": "42842e0e",
    "safeTransferFrom(address,address,uint256,bytes)": "b88d4fde",
    "setApprovalForAll(address,bool)": "a22cb465",
    "setBaseURI(string)": "55f804b3",
    "setPoolsNFT(address)": "598e00fb",
    "setRatePerOneDay(address,uint256)": "d30a62cc",
    "supportsInterface(bytes4)": "01ffc9a7",
    "symbol()": "95d89b41",
    "tokenURI(uint256)": "c87b56dd",
    "totalIntents()": "d06a54f4",
    "totalSupply()": "18160ddd",
    "transfer(address,uint256)": "a9059cbb",
    "transferFrom(address,address,uint256)": "23b872dd"
  },
  "id": 66
}