{
  "abi": [
    {
      "type": "constructor",
      "inputs": [],
      "stateMutability": "nonpayable"
    },
    {
      "type": "receive",
      "stateMutability": "payable"
    },
    {
      "type": "function",
      "name": "DENOMINATOR",
      "inputs": [],
      "outputs": [
        {
          "name": "",
          "type": "uint16",
          "internalType": "uint16"
        }
      ],
      "stateMutability": "view"
    },
    {
      "type": "function",
      "name": "approve",
      "inputs": [
        {
          "name": "to",
          "type": "address",
          "internalType": "address"
        },
        {
          "name": "tokenId",
          "type": "uint256",
          "internalType": "uint256"
        }
      ],
      "outputs": [],
      "stateMutability": "nonpayable"
    },
    {
      "type": "function",
      "name": "balanceOf",
      "inputs": [
        {
          "name": "owner",
          "type": "address",
          "internalType": "address"
        }
      ],
      "outputs": [
        {
          "name": "",
          "type": "uint256",
          "internalType": "uint256"
        }
      ],
      "stateMutability": "view"
    },
    {
      "type": "function",
      "name": "baseURI",
      "inputs": [],
      "outputs": [
        {
          "name": "",
          "type": "string",
          "internalType": "string"
        }
      ],
      "stateMutability": "view"
    },
    {
      "type": "function",
      "name": "buyRoyalty",
      "inputs": [
        {
          "name": "poolId",
          "type": "uint256",
          "internalType": "uint256"
        }
      ],
      "outputs": [
        {
          "name": "",
          "type": "uint256",
          "internalType": "uint256"
        }
      ],
      "stateMutability": "nonpayable"
    },
    {
      "type": "function",
      "name": "buyRoyaltyTo",
      "inputs": [
        {
          "name": "poolId",
          "type": "uint256",
          "internalType": "uint256"
        },
        {
          "name": "to",
          "type": "address",
          "internalType": "address"
        }
      ],
      "outputs": [
        {
          "name": "royaltyPricePaid",
          "type": "uint256",
          "internalType": "uint256"
        }
      ],
      "stateMutability": "nonpayable"
    },
    {
      "type": "function",
      "name": "calcGRETHShares",
      "inputs": [
        {
          "name": "poolId",
          "type": "uint256",
          "internalType": "uint256"
        },
        {
          "name": "grethReward",
          "type": "uint256",
          "internalType": "uint256"
        },
        {
          "name": "grinder",
          "type": "address",
          "internalType": "address"
        }
      ],
      "outputs": [
        {
          "name": "actors",
          "type": "address[]",
          "internalType": "address[]"
        },
        {
          "name": "grethShares",
          "type": "uint256[]",
          "internalType": "uint256[]"
        }
      ],
      "stateMutability": "view"
    },
    {
      "type": "function",
      "name": "calcRoyaltyPriceShares",
      "inputs": [
        {
          "name": "poolId",
          "type": "uint256",
          "internalType": "uint256"
        }
      ],
      "outputs": [
        {
          "name": "compensationShare",
          "type": "uint256",
          "internalType": "uint256"
        },
        {
          "name": "poolOwnerShare",
          "type": "uint256",
          "internalType": "uint256"
        },
        {
          "name": "reserveShare",
          "type": "uint256",
          "internalType": "uint256"
        },
        {
          "name": "ownerShare",
          "type": "uint256",
          "internalType": "uint256"
        },
        {
          "name": "oldRoyaltyPrice",
          "type": "uint256",
          "internalType": "uint256"
        },
        {
          "name": "newRoyaltyPrice",
          "type": "uint256",
          "internalType": "uint256"
        }
      ],
      "stateMutability": "view"
    },
    {
      "type": "function",
      "name": "calcRoyaltyShares",
      "inputs": [
        {
          "name": "poolId",
          "type": "uint256",
          "internalType": "uint256"
        },
        {
          "name": "profit",
          "type": "uint256",
          "internalType": "uint256"
        }
      ],
      "outputs": [
        {
          "name": "receivers",
          "type": "address[]",
          "internalType": "address[]"
        },
        {
          "name": "amounts",
          "type": "uint256[]",
          "internalType": "uint256[]"
        }
      ],
      "stateMutability": "view"
    },
    {
      "type": "function",
      "name": "deposit",
      "inputs": [
        {
          "name": "poolId",
          "type": "uint256",
          "internalType": "uint256"
        },
        {
          "name": "quoteTokenAmount",
          "type": "uint256",
          "internalType": "uint256"
        }
      ],
      "outputs": [
        {
          "name": "",
          "type": "uint256",
          "internalType": "uint256"
        }
      ],
      "stateMutability": "nonpayable"
    },
    {
      "type": "function",
      "name": "deposited",
      "inputs": [
        {
          "name": "poolId",
          "type": "uint256",
          "internalType": "uint256"
        },
        {
          "name": "token",
          "type": "address",
          "internalType": "address"
        }
      ],
      "outputs": [
        {
          "name": "",
          "type": "uint256",
          "internalType": "uint256"
        }
      ],
      "stateMutability": "view"
    },
    {
      "type": "function",
      "name": "execute",
      "inputs": [
        {
          "name": "target",
          "type": "address",
          "internalType": "address"
        },
        {
          "name": "value",
          "type": "uint256",
          "internalType": "uint256"
        },
        {
          "name": "data",
          "type": "bytes",
          "internalType": "bytes"
        }
      ],
      "outputs": [],
      "stateMutability": "nonpayable"
    },
    {
      "type": "function",
      "name": "exit",
      "inputs": [
        {
          "name": "poolId",
          "type": "uint256",
          "internalType": "uint256"
        }
      ],
      "outputs": [
        {
          "name": "quoteTokenAmount",
          "type": "uint256",
          "internalType": "uint256"
        },
        {
          "name": "baseTokenAmount",
          "type": "uint256",
          "internalType": "uint256"
        }
      ],
      "stateMutability": "nonpayable"
    },
    {
      "type": "function",
      "name": "getApproved",
      "inputs": [
        {
          "name": "tokenId",
          "type": "uint256",
          "internalType": "uint256"
        }
      ],
      "outputs": [
        {
          "name": "",
          "type": "address",
          "internalType": "address"
        }
      ],
      "stateMutability": "view"
    },
    {
      "type": "function",
      "name": "getConfig",
      "inputs": [
        {
          "name": "poolId",
          "type": "uint256",
          "internalType": "uint256"
        }
      ],
      "outputs": [
        {
          "name": "longNumberMax",
          "type": "uint8",
          "internalType": "uint8"
        },
        {
          "name": "hedgeNumberMax",
          "type": "uint8",
          "internalType": "uint8"
        },
        {
          "name": "extraCoef",
          "type": "uint256",
          "internalType": "uint256"
        },
        {
          "name": "priceVolatility",
          "type": "uint256",
          "internalType": "uint256"
        },
        {
          "name": "returnPercentLongSell",
          "type": "uint256",
          "internalType": "uint256"
        },
        {
          "name": "returnPercentHedgeSell",
          "type": "uint256",
          "internalType": "uint256"
        },
        {
          "name": "returnPercentHedgeRebuy",
          "type": "uint256",
          "internalType": "uint256"
        }
      ],
      "stateMutability": "view"
    },
    {
      "type": "function",
      "name": "getFeeConfig",
      "inputs": [
        {
          "name": "poolId",
          "type": "uint256",
          "internalType": "uint256"
        }
      ],
      "outputs": [
        {
          "name": "longSellFeeCoef",
          "type": "uint256",
          "internalType": "uint256"
        },
        {
          "name": "hedgeSellFeeCoef",
          "type": "uint256",
          "internalType": "uint256"
        },
        {
          "name": "hedgeRebuyFeeCoef",
          "type": "uint256",
          "internalType": "uint256"
        }
      ],
      "stateMutability": "view"
    },
    {
      "type": "function",
      "name": "getPoolIdsOf",
      "inputs": [
        {
          "name": "poolOwner",
          "type": "address",
          "internalType": "address"
        }
      ],
      "outputs": [
        {
          "name": "poolIdsOwnedByPoolOwner",
          "type": "uint256[]",
          "internalType": "uint256[]"
        }
      ],
      "stateMutability": "view"
    },
    {
      "type": "function",
      "name": "getPoolNFTInfosBy",
      "inputs": [
        {
          "name": "_poolIds",
          "type": "uint256[]",
          "internalType": "uint256[]"
        }
      ],
      "outputs": [
        {
          "name": "poolNFTInfos",
          "type": "tuple[]",
          "internalType": "struct IPoolsNFTLens.PoolNFTInfo[]",
          "components": [
            {
              "name": "poolId",
              "type": "uint256",
              "internalType": "uint256"
            },
            {
              "name": "strategyId",
              "type": "uint256",
              "internalType": "uint256"
            },
            {
              "name": "pool",
              "type": "address",
              "internalType": "address"
            },
            {
              "name": "config",
              "type": "tuple",
              "internalType": "struct IURUS.Config",
              "components": [
                {
                  "name": "longNumberMax",
                  "type": "uint8",
                  "internalType": "uint8"
                },
                {
                  "name": "hedgeNumberMax",
                  "type": "uint8",
                  "internalType": "uint8"
                },
                {
                  "name": "extraCoef",
                  "type": "uint256",
                  "internalType": "uint256"
                },
                {
                  "name": "priceVolatilityPercent",
                  "type": "uint256",
                  "internalType": "uint256"
                },
                {
                  "name": "returnPercentLongSell",
                  "type": "uint256",
                  "internalType": "uint256"
                },
                {
                  "name": "returnPercentHedgeSell",
                  "type": "uint256",
                  "internalType": "uint256"
                },
                {
                  "name": "returnPercentHedgeRebuy",
                  "type": "uint256",
                  "internalType": "uint256"
                }
              ]
            },
            {
              "name": "feeConfig",
              "type": "tuple",
              "internalType": "struct IURUS.FeeConfig",
              "components": [
                {
                  "name": "longSellFeeCoef",
                  "type": "uint256",
                  "internalType": "uint256"
                },
                {
                  "name": "hedgeSellFeeCoef",
                  "type": "uint256",
                  "internalType": "uint256"
                },
                {
                  "name": "hedgeRebuyFeeCoef",
                  "type": "uint256",
                  "internalType": "uint256"
                }
              ]
            },
            {
              "name": "oracleQuoteTokenPerBaseToken",
              "type": "address",
              "internalType": "address"
            },
            {
              "name": "oracleQuoteTokenPerFeeToken",
              "type": "address",
              "internalType": "address"
            },
            {
              "name": "feeToken",
              "type": "address",
              "internalType": "address"
            },
            {
              "name": "quoteToken",
              "type": "address",
              "internalType": "address"
            },
            {
              "name": "baseToken",
              "type": "address",
              "internalType": "address"
            },
            {
              "name": "feeTokenSymbol",
              "type": "string",
              "internalType": "string"
            },
            {
              "name": "quoteTokenSymbol",
              "type": "string",
              "internalType": "string"
            },
            {
              "name": "baseTokenSymbol",
              "type": "string",
              "internalType": "string"
            },
            {
              "name": "oracleQuoteTokenPerBaseTokenDecimals",
              "type": "uint8",
              "internalType": "uint8"
            },
            {
              "name": "oracleQuoteTokenPerFeeTokenDecimals",
              "type": "uint8",
              "internalType": "uint8"
            },
            {
              "name": "quoteTokenDecimals",
              "type": "uint8",
              "internalType": "uint8"
            },
            {
              "name": "baseTokenDecimals",
              "type": "uint8",
              "internalType": "uint8"
            },
            {
              "name": "quoteTokenAmount",
              "type": "uint256",
              "internalType": "uint256"
            },
            {
              "name": "baseTokenAmount",
              "type": "uint256",
              "internalType": "uint256"
            },
            {
              "name": "activeCapital",
              "type": "uint256",
              "internalType": "uint256"
            },
            {
              "name": "startTimestamp",
              "type": "uint256",
              "internalType": "uint256"
            },
            {
              "name": "totalProfits",
              "type": "tuple",
              "internalType": "struct IURUS.TotalProfits",
              "components": [
                {
                  "name": "quoteTokenYieldProfit",
                  "type": "uint256",
                  "internalType": "uint256"
                },
                {
                  "name": "baseTokenYieldProfit",
                  "type": "uint256",
                  "internalType": "uint256"
                },
                {
                  "name": "quoteTokenTradeProfit",
                  "type": "uint256",
                  "internalType": "uint256"
                },
                {
                  "name": "baseTokenTradeProfit",
                  "type": "uint256",
                  "internalType": "uint256"
                }
              ]
            },
            {
              "name": "roi",
              "type": "tuple",
              "internalType": "struct IPoolsNFTLens.ROI",
              "components": [
                {
                  "name": "ROINumerator",
                  "type": "uint256",
                  "internalType": "uint256"
                },
                {
                  "name": "ROIDeniminator",
                  "type": "uint256",
                  "internalType": "uint256"
                },
                {
                  "name": "ROIPeriod",
                  "type": "uint256",
                  "internalType": "uint256"
                }
              ]
            },
            {
              "name": "apr",
              "type": "tuple",
              "internalType": "struct IPoolsNFTLens.APR",
              "components": [
                {
                  "name": "APRNumerator",
                  "type": "uint256",
                  "internalType": "uint256"
                },
                {
                  "name": "APRDenominator",
                  "type": "uint256",
                  "internalType": "uint256"
                }
              ]
            },
            {
              "name": "royaltyPrice",
              "type": "uint256",
              "internalType": "uint256"
            }
          ]
        }
      ],
      "stateMutability": "view"
    },
    {
      "type": "function",
      "name": "getPositions",
      "inputs": [
        {
          "name": "poolId",
          "type": "uint256",
          "internalType": "uint256"
        }
      ],
      "outputs": [
        {
          "name": "long",
          "type": "tuple",
          "internalType": "struct IURUS.Position",
          "components": [
            {
              "name": "number",
              "type": "uint8",
              "internalType": "uint8"
            },
            {
              "name": "numberMax",
              "type": "uint8",
              "internalType": "uint8"
            },
            {
              "name": "priceMin",
              "type": "uint256",
              "internalType": "uint256"
            },
            {
              "name": "liquidity",
              "type": "uint256",
              "internalType": "uint256"
            },
            {
              "name": "qty",
              "type": "uint256",
              "internalType": "uint256"
            },
            {
              "name": "price",
              "type": "uint256",
              "internalType": "uint256"
            },
            {
              "name": "feeQty",
              "type": "uint256",
              "internalType": "uint256"
            },
            {
              "name": "feePrice",
              "type": "uint256",
              "internalType": "uint256"
            }
          ]
        },
        {
          "name": "hedge",
          "type": "tuple",
          "internalType": "struct IURUS.Position",
          "components": [
            {
              "name": "number",
              "type": "uint8",
              "internalType": "uint8"
            },
            {
              "name": "numberMax",
              "type": "uint8",
              "internalType": "uint8"
            },
            {
              "name": "priceMin",
              "type": "uint256",
              "internalType": "uint256"
            },
            {
              "name": "liquidity",
              "type": "uint256",
              "internalType": "uint256"
            },
            {
              "name": "qty",
              "type": "uint256",
              "internalType": "uint256"
            },
            {
              "name": "price",
              "type": "uint256",
              "internalType": "uint256"
            },
            {
              "name": "feeQty",
              "type": "uint256",
              "internalType": "uint256"
            },
            {
              "name": "feePrice",
              "type": "uint256",
              "internalType": "uint256"
            }
          ]
        }
      ],
      "stateMutability": "view"
    },
    {
      "type": "function",
      "name": "getRoyaltyReceiver",
      "inputs": [
        {
          "name": "poolId",
          "type": "uint256",
          "internalType": "uint256"
        }
      ],
      "outputs": [
        {
          "name": "receiver",
          "type": "address",
          "internalType": "address"
        }
      ],
      "stateMutability": "view"
    },
    {
      "type": "function",
      "name": "getThresholds",
      "inputs": [
        {
          "name": "poolId",
          "type": "uint256",
          "internalType": "uint256"
        }
      ],
      "outputs": [
        {
          "name": "longBuyPriceMin",
          "type": "uint256",
          "internalType": "uint256"
        },
        {
          "name": "longSellQuoteTokenAmountThreshold",
          "type": "uint256",
          "internalType": "uint256"
        },
        {
          "name": "longSellSwapPriceThreshold",
          "type": "uint256",
          "internalType": "uint256"
        },
        {
          "name": "hedgeSellInitPriceThresholdHigh",
          "type": "uint256",
          "internalType": "uint256"
        },
        {
          "name": "hedgeSellInitPriceThresholdLow",
          "type": "uint256",
          "internalType": "uint256"
        },
        {
          "name": "hedgeSellLiquidity",
          "type": "uint256",
          "internalType": "uint256"
        },
        {
          "name": "hedgeSellQuoteTokenAmountThreshold",
          "type": "uint256",
          "internalType": "uint256"
        },
        {
          "name": "hedgeSellTargetPrice",
          "type": "uint256",
          "internalType": "uint256"
        },
        {
          "name": "hedgeSellSwapPriceThreshold",
          "type": "uint256",
          "internalType": "uint256"
        },
        {
          "name": "hedgeRebuyBaseTokenAmountThreshold",
          "type": "uint256",
          "internalType": "uint256"
        },
        {
          "name": "hedgeRebuySwapPriceThreshold",
          "type": "uint256",
          "internalType": "uint256"
        }
      ],
      "stateMutability": "view"
    },
    {
      "type": "function",
      "name": "grETH",
      "inputs": [],
      "outputs": [
        {
          "name": "",
          "type": "address",
          "internalType": "contract IGRETH"
        }
      ],
      "stateMutability": "view"
    },
    {
      "type": "function",
      "name": "grethGrinderShareNumerator",
      "inputs": [],
      "outputs": [
        {
          "name": "",
          "type": "uint16",
          "internalType": "uint16"
        }
      ],
      "stateMutability": "view"
    },
    {
      "type": "function",
      "name": "grethPoolOwnerShareNumerator",
      "inputs": [],
      "outputs": [
        {
          "name": "",
          "type": "uint16",
          "internalType": "uint16"
        }
      ],
      "stateMutability": "view"
    },
    {
      "type": "function",
      "name": "grethReserveShareNumerator",
      "inputs": [],
      "outputs": [
        {
          "name": "",
          "type": "uint16",
          "internalType": "uint16"
        }
      ],
      "stateMutability": "view"
    },
    {
      "type": "function",
      "name": "grethRoyaltyReceiverShareNumerator",
      "inputs": [],
      "outputs": [
        {
          "name": "",
          "type": "uint16",
          "internalType": "uint16"
        }
      ],
      "stateMutability": "view"
    },
    {
      "type": "function",
      "name": "grind",
      "inputs": [
        {
          "name": "poolId",
          "type": "uint256",
          "internalType": "uint256"
        }
      ],
      "outputs": [
        {
          "name": "",
          "type": "bool",
          "internalType": "bool"
        }
      ],
      "stateMutability": "nonpayable"
    },
    {
      "type": "function",
      "name": "grindOp",
      "inputs": [
        {
          "name": "poolId",
          "type": "uint256",
          "internalType": "uint256"
        },
        {
          "name": "op",
          "type": "uint8",
          "internalType": "uint8"
        }
      ],
      "outputs": [
        {
          "name": "",
          "type": "bool",
          "internalType": "bool"
        }
      ],
      "stateMutability": "nonpayable"
    },
    {
      "type": "function",
      "name": "grindOpTo",
      "inputs": [
        {
          "name": "poolId",
          "type": "uint256",
          "internalType": "uint256"
        },
        {
          "name": "op",
          "type": "uint8",
          "internalType": "uint8"
        },
        {
          "name": "grinder",
          "type": "address",
          "internalType": "address"
        }
      ],
      "outputs": [
        {
          "name": "isGrinded",
          "type": "bool",
          "internalType": "bool"
        }
      ],
      "stateMutability": "nonpayable"
    },
    {
      "type": "function",
      "name": "grindTo",
      "inputs": [
        {
          "name": "poolId",
          "type": "uint256",
          "internalType": "uint256"
        },
        {
          "name": "grinder",
          "type": "address",
          "internalType": "address"
        }
      ],
      "outputs": [
        {
          "name": "isGrinded",
          "type": "bool",
          "internalType": "bool"
        }
      ],
      "stateMutability": "nonpayable"
    },
    {
      "type": "function",
      "name": "grinderAI",
      "inputs": [],
      "outputs": [
        {
          "name": "",
          "type": "address",
          "internalType": "contract IGrinderAI"
        }
      ],
      "stateMutability": "view"
    },
    {
      "type": "function",
      "name": "init",
      "inputs": [
        {
          "name": "_poolsNFTLens",
          "type": "address",
          "internalType": "address"
        },
        {
          "name": "_grETH",
          "type": "address",
          "internalType": "address"
        },
        {
          "name": "_grinderAI",
          "type": "address",
          "internalType": "address"
        }
      ],
      "outputs": [],
      "stateMutability": "nonpayable"
    },
    {
      "type": "function",
      "name": "isAgentOf",
      "inputs": [
        {
          "name": "_ownerOf",
          "type": "address",
          "internalType": "address"
        },
        {
          "name": "_agent",
          "type": "address",
          "internalType": "address"
        }
      ],
      "outputs": [
        {
          "name": "",
          "type": "bool",
          "internalType": "bool"
        }
      ],
      "stateMutability": "view"
    },
    {
      "type": "function",
      "name": "isApprovedForAll",
      "inputs": [
        {
          "name": "owner",
          "type": "address",
          "internalType": "address"
        },
        {
          "name": "operator",
          "type": "address",
          "internalType": "address"
        }
      ],
      "outputs": [
        {
          "name": "",
          "type": "bool",
          "internalType": "bool"
        }
      ],
      "stateMutability": "view"
    },
    {
      "type": "function",
      "name": "isDepositorOf",
      "inputs": [
        {
          "name": "poolId",
          "type": "uint256",
          "internalType": "uint256"
        },
        {
          "name": "_depositor",
          "type": "address",
          "internalType": "address"
        }
      ],
      "outputs": [
        {
          "name": "",
          "type": "bool",
          "internalType": "bool"
        }
      ],
      "stateMutability": "view"
    },
    {
      "type": "function",
      "name": "isDisapprovedGrinderAI",
      "inputs": [
        {
          "name": "_ownerOf",
          "type": "address",
          "internalType": "address"
        }
      ],
      "outputs": [
        {
          "name": "",
          "type": "bool",
          "internalType": "bool"
        }
      ],
      "stateMutability": "view"
    },
    {
      "type": "function",
      "name": "isStrategyStopped",
      "inputs": [
        {
          "name": "strategyId",
          "type": "uint16",
          "internalType": "uint16"
        }
      ],
      "outputs": [
        {
          "name": "",
          "type": "bool",
          "internalType": "bool"
        }
      ],
      "stateMutability": "view"
    },
    {
      "type": "function",
      "name": "maxDeposit",
      "inputs": [
        {
          "name": "token",
          "type": "address",
          "internalType": "address"
        }
      ],
      "outputs": [
        {
          "name": "",
          "type": "uint256",
          "internalType": "uint256"
        }
      ],
      "stateMutability": "view"
    },
    {
      "type": "function",
      "name": "minDeposit",
      "inputs": [
        {
          "name": "token",
          "type": "address",
          "internalType": "address"
        }
      ],
      "outputs": [
        {
          "name": "",
          "type": "uint256",
          "internalType": "uint256"
        }
      ],
      "stateMutability": "view"
    },
    {
      "type": "function",
      "name": "mint",
      "inputs": [
        {
          "name": "strategyId",
          "type": "uint16",
          "internalType": "uint16"
        },
        {
          "name": "quoteToken",
          "type": "address",
          "internalType": "address"
        },
        {
          "name": "baseToken",
          "type": "address",
          "internalType": "address"
        },
        {
          "name": "quoteTokenAmount",
          "type": "uint256",
          "internalType": "uint256"
        }
      ],
      "outputs": [
        {
          "name": "",
          "type": "uint256",
          "internalType": "uint256"
        }
      ],
      "stateMutability": "nonpayable"
    },
    {
      "type": "function",
      "name": "mintTo",
      "inputs": [
        {
          "name": "to",
          "type": "address",
          "internalType": "address"
        },
        {
          "name": "strategyId",
          "type": "uint16",
          "internalType": "uint16"
        },
        {
          "name": "quoteToken",
          "type": "address",
          "internalType": "address"
        },
        {
          "name": "baseToken",
          "type": "address",
          "internalType": "address"
        },
        {
          "name": "quoteTokenAmount",
          "type": "uint256",
          "internalType": "uint256"
        }
      ],
      "outputs": [
        {
          "name": "poolId",
          "type": "uint256",
          "internalType": "uint256"
        }
      ],
      "stateMutability": "nonpayable"
    },
    {
      "type": "function",
      "name": "minter",
      "inputs": [
        {
          "name": "poolId",
          "type": "uint256",
          "internalType": "uint256"
        }
      ],
      "outputs": [
        {
          "name": "",
          "type": "address",
          "internalType": "address"
        }
      ],
      "stateMutability": "view"
    },
    {
      "type": "function",
      "name": "name",
      "inputs": [],
      "outputs": [
        {
          "name": "",
          "type": "string",
          "internalType": "string"
        }
      ],
      "stateMutability": "pure"
    },
    {
      "type": "function",
      "name": "owner",
      "inputs": [],
      "outputs": [
        {
          "name": "",
          "type": "address",
          "internalType": "address payable"
        }
      ],
      "stateMutability": "view"
    },
    {
      "type": "function",
      "name": "ownerOf",
      "inputs": [
        {
          "name": "tokenId",
          "type": "uint256",
          "internalType": "uint256"
        }
      ],
      "outputs": [
        {
          "name": "",
          "type": "address",
          "internalType": "address"
        }
      ],
      "stateMutability": "view"
    },
    {
      "type": "function",
      "name": "pendingOwner",
      "inputs": [],
      "outputs": [
        {
          "name": "",
          "type": "address",
          "internalType": "address payable"
        }
      ],
      "stateMutability": "view"
    },
    {
      "type": "function",
      "name": "poolIds",
      "inputs": [
        {
          "name": "pool",
          "type": "address",
          "internalType": "address"
        }
      ],
      "outputs": [
        {
          "name": "",
          "type": "uint256",
          "internalType": "uint256"
        }
      ],
      "stateMutability": "view"
    },
    {
      "type": "function",
      "name": "poolOwnerShareNumerator",
      "inputs": [],
      "outputs": [
        {
          "name": "",
          "type": "uint16",
          "internalType": "uint16"
        }
      ],
      "stateMutability": "view"
    },
    {
      "type": "function",
      "name": "pools",
      "inputs": [
        {
          "name": "poolId",
          "type": "uint256",
          "internalType": "uint256"
        }
      ],
      "outputs": [
        {
          "name": "",
          "type": "address",
          "internalType": "address"
        }
      ],
      "stateMutability": "view"
    },
    {
      "type": "function",
      "name": "poolsNFTLens",
      "inputs": [],
      "outputs": [
        {
          "name": "",
          "type": "address",
          "internalType": "contract IPoolsNFTLens"
        }
      ],
      "stateMutability": "view"
    },
    {
      "type": "function",
      "name": "rebalance",
      "inputs": [
        {
          "name": "poolId0",
          "type": "uint256",
          "internalType": "uint256"
        },
        {
          "name": "poolId1",
          "type": "uint256",
          "internalType": "uint256"
        },
        {
          "name": "rebalance0",
          "type": "uint8",
          "internalType": "uint8"
        },
        {
          "name": "rebalance1",
          "type": "uint8",
          "internalType": "uint8"
        }
      ],
      "outputs": [],
      "stateMutability": "nonpayable"
    },
    {
      "type": "function",
      "name": "royaltyInfo",
      "inputs": [
        {
          "name": "tokenId",
          "type": "uint256",
          "internalType": "uint256"
        },
        {
          "name": "salePrice",
          "type": "uint256",
          "internalType": "uint256"
        }
      ],
      "outputs": [
        {
          "name": "receiver",
          "type": "address",
          "internalType": "address"
        },
        {
          "name": "royaltyAmount",
          "type": "uint256",
          "internalType": "uint256"
        }
      ],
      "stateMutability": "view"
    },
    {
      "type": "function",
      "name": "royaltyNumerator",
      "inputs": [],
      "outputs": [
        {
          "name": "",
          "type": "uint16",
          "internalType": "uint16"
        }
      ],
      "stateMutability": "view"
    },
    {
      "type": "function",
      "name": "royaltyOwnerShareNumerator",
      "inputs": [],
      "outputs": [
        {
          "name": "",
          "type": "uint16",
          "internalType": "uint16"
        }
      ],
      "stateMutability": "view"
    },
    {
      "type": "function",
      "name": "royaltyPrice",
      "inputs": [
        {
          "name": "poolId",
          "type": "uint256",
          "internalType": "uint256"
        }
      ],
      "outputs": [
        {
          "name": "",
          "type": "uint256",
          "internalType": "uint256"
        }
      ],
      "stateMutability": "view"
    },
    {
      "type": "function",
      "name": "royaltyPriceCompensationShareNumerator",
      "inputs": [],
      "outputs": [
        {
          "name": "",
          "type": "uint16",
          "internalType": "uint16"
        }
      ],
      "stateMutability": "view"
    },
    {
      "type": "function",
      "name": "royaltyPriceInitNumerator",
      "inputs": [],
      "outputs": [
        {
          "name": "",
          "type": "uint16",
          "internalType": "uint16"
        }
      ],
      "stateMutability": "view"
    },
    {
      "type": "function",
      "name": "royaltyPriceOwnerShareNumerator",
      "inputs": [],
      "outputs": [
        {
          "name": "",
          "type": "uint16",
          "internalType": "uint16"
        }
      ],
      "stateMutability": "view"
    },
    {
      "type": "function",
      "name": "royaltyPricePoolOwnerShareNumerator",
      "inputs": [],
      "outputs": [
        {
          "name": "",
          "type": "uint16",
          "internalType": "uint16"
        }
      ],
      "stateMutability": "view"
    },
    {
      "type": "function",
      "name": "royaltyPriceReserveShareNumerator",
      "inputs": [],
      "outputs": [
        {
          "name": "",
          "type": "uint16",
          "internalType": "uint16"
        }
      ],
      "stateMutability": "view"
    },
    {
      "type": "function",
      "name": "royaltyReceiver",
      "inputs": [
        {
          "name": "poolId",
          "type": "uint256",
          "internalType": "uint256"
        }
      ],
      "outputs": [
        {
          "name": "",
          "type": "address",
          "internalType": "address"
        }
      ],
      "stateMutability": "view"
    },
    {
      "type": "function",
      "name": "royaltyReceiverShareNumerator",
      "inputs": [],
      "outputs": [
        {
          "name": "",
          "type": "uint16",
          "internalType": "uint16"
        }
      ],
      "stateMutability": "view"
    },
    {
      "type": "function",
      "name": "royaltyReserveShareNumerator",
      "inputs": [],
      "outputs": [
        {
          "name": "",
          "type": "uint16",
          "internalType": "uint16"
        }
      ],
      "stateMutability": "view"
    },
    {
      "type": "function",
      "name": "safeTransferFrom",
      "inputs": [
        {
          "name": "from",
          "type": "address",
          "internalType": "address"
        },
        {
          "name": "to",
          "type": "address",
          "internalType": "address"
        },
        {
          "name": "tokenId",
          "type": "uint256",
          "internalType": "uint256"
        }
      ],
      "outputs": [],
      "stateMutability": "nonpayable"
    },
    {
      "type": "function",
      "name": "safeTransferFrom",
      "inputs": [
        {
          "name": "from",
          "type": "address",
          "internalType": "address"
        },
        {
          "name": "to",
          "type": "address",
          "internalType": "address"
        },
        {
          "name": "tokenId",
          "type": "uint256",
          "internalType": "uint256"
        },
        {
          "name": "data",
          "type": "bytes",
          "internalType": "bytes"
        }
      ],
      "outputs": [],
      "stateMutability": "nonpayable"
    },
    {
      "type": "function",
      "name": "setAgent",
      "inputs": [
        {
          "name": "_agent",
          "type": "address",
          "internalType": "address"
        },
        {
          "name": "_agentApproval",
          "type": "bool",
          "internalType": "bool"
        }
      ],
      "outputs": [],
      "stateMutability": "nonpayable"
    },
    {
      "type": "function",
      "name": "setApprovalForAll",
      "inputs": [
        {
          "name": "operator",
          "type": "address",
          "internalType": "address"
        },
        {
          "name": "approved",
          "type": "bool",
          "internalType": "bool"
        }
      ],
      "outputs": [],
      "stateMutability": "nonpayable"
    },
    {
      "type": "function",
      "name": "setDepositor",
      "inputs": [
        {
          "name": "poolId",
          "type": "uint256",
          "internalType": "uint256"
        },
        {
          "name": "depositor",
          "type": "address",
          "internalType": "address"
        },
        {
          "name": "_depositorApproval",
          "type": "bool",
          "internalType": "bool"
        }
      ],
      "outputs": [],
      "stateMutability": "nonpayable"
    },
    {
      "type": "function",
      "name": "setGRETH",
      "inputs": [
        {
          "name": "_grETH",
          "type": "address",
          "internalType": "address"
        }
      ],
      "outputs": [],
      "stateMutability": "nonpayable"
    },
    {
      "type": "function",
      "name": "setGRETHShares",
      "inputs": [
        {
          "name": "_grethGrinderShareNumerator",
          "type": "uint16",
          "internalType": "uint16"
        },
        {
          "name": "_grethReserveShareNumerator",
          "type": "uint16",
          "internalType": "uint16"
        },
        {
          "name": "_grethPoolOwnerShareNumerator",
          "type": "uint16",
          "internalType": "uint16"
        },
        {
          "name": "_grethRoyaltyReceiverShareNumerator",
          "type": "uint16",
          "internalType": "uint16"
        }
      ],
      "outputs": [],
      "stateMutability": "nonpayable"
    },
    {
      "type": "function",
      "name": "setGrinderAI",
      "inputs": [
        {
          "name": "_grinderAI",
          "type": "address",
          "internalType": "address"
        }
      ],
      "outputs": [],
      "stateMutability": "nonpayable"
    },
    {
      "type": "function",
      "name": "setMaxDeposit",
      "inputs": [
        {
          "name": "token",
          "type": "address",
          "internalType": "address"
        },
        {
          "name": "_maxDeposit",
          "type": "uint256",
          "internalType": "uint256"
        }
      ],
      "outputs": [],
      "stateMutability": "nonpayable"
    },
    {
      "type": "function",
      "name": "setMinDeposit",
      "inputs": [
        {
          "name": "token",
          "type": "address",
          "internalType": "address"
        },
        {
          "name": "_minDeposit",
          "type": "uint256",
          "internalType": "uint256"
        }
      ],
      "outputs": [],
      "stateMutability": "nonpayable"
    },
    {
      "type": "function",
      "name": "setPoolsNFTLens",
      "inputs": [
        {
          "name": "_poolsNFTLens",
          "type": "address",
          "internalType": "address"
        }
      ],
      "outputs": [],
      "stateMutability": "nonpayable"
    },
    {
      "type": "function",
      "name": "setRoyaltyPriceInitNumerator",
      "inputs": [
        {
          "name": "_royaltyPriceInitNumerator",
          "type": "uint16",
          "internalType": "uint16"
        }
      ],
      "outputs": [],
      "stateMutability": "nonpayable"
    },
    {
      "type": "function",
      "name": "setRoyaltyPriceShares",
      "inputs": [
        {
          "name": "_royaltyPriceCompensationShareNumerator",
          "type": "uint16",
          "internalType": "uint16"
        },
        {
          "name": "_royaltyPriceReserveShareNumerator",
          "type": "uint16",
          "internalType": "uint16"
        },
        {
          "name": "_royaltyPricePoolOwnerShareNumerator",
          "type": "uint16",
          "internalType": "uint16"
        },
        {
          "name": "_royaltyPriceOwnerShareNumerator",
          "type": "uint16",
          "internalType": "uint16"
        }
      ],
      "outputs": [],
      "stateMutability": "nonpayable"
    },
    {
      "type": "function",
      "name": "setRoyaltyShares",
      "inputs": [
        {
          "name": "_poolOwnerRoyaltyShareNumerator",
          "type": "uint16",
          "internalType": "uint16"
        },
        {
          "name": "_royaltyReceiverShareNumerator",
          "type": "uint16",
          "internalType": "uint16"
        },
        {
          "name": "_royaltyReserveShareNumerator",
          "type": "uint16",
          "internalType": "uint16"
        },
        {
          "name": "_royaltyOwnerShareNumerator",
          "type": "uint16",
          "internalType": "uint16"
        }
      ],
      "outputs": [],
      "stateMutability": "nonpayable"
    },
    {
      "type": "function",
      "name": "setStrategyFactory",
      "inputs": [
        {
          "name": "_strategyFactory",
          "type": "address",
          "internalType": "address"
        }
      ],
      "outputs": [],
      "stateMutability": "nonpayable"
    },
    {
      "type": "function",
      "name": "setStrategyStopped",
      "inputs": [
        {
          "name": "strategyId",
          "type": "uint16",
          "internalType": "uint16"
        },
        {
          "name": "_isStrategyStopped",
          "type": "bool",
          "internalType": "bool"
        }
      ],
      "outputs": [],
      "stateMutability": "nonpayable"
    },
    {
      "type": "function",
      "name": "strategyFactory",
      "inputs": [
        {
          "name": "strategyId",
          "type": "uint16",
          "internalType": "uint16"
        }
      ],
      "outputs": [
        {
          "name": "",
          "type": "address",
          "internalType": "address"
        }
      ],
      "stateMutability": "view"
    },
    {
      "type": "function",
      "name": "supportsInterface",
      "inputs": [
        {
          "name": "interfaceId",
          "type": "bytes4",
          "internalType": "bytes4"
        }
      ],
      "outputs": [
        {
          "name": "",
          "type": "bool",
          "internalType": "bool"
        }
      ],
      "stateMutability": "view"
    },
    {
      "type": "function",
      "name": "symbol",
      "inputs": [],
      "outputs": [
        {
          "name": "",
          "type": "string",
          "internalType": "string"
        }
      ],
      "stateMutability": "pure"
    },
    {
      "type": "function",
      "name": "tokenByIndex",
      "inputs": [
        {
          "name": "index",
          "type": "uint256",
          "internalType": "uint256"
        }
      ],
      "outputs": [
        {
          "name": "",
          "type": "uint256",
          "internalType": "uint256"
        }
      ],
      "stateMutability": "view"
    },
    {
      "type": "function",
      "name": "tokenOfOwnerByIndex",
      "inputs": [
        {
          "name": "owner",
          "type": "address",
          "internalType": "address"
        },
        {
          "name": "index",
          "type": "uint256",
          "internalType": "uint256"
        }
      ],
      "outputs": [
        {
          "name": "",
          "type": "uint256",
          "internalType": "uint256"
        }
      ],
      "stateMutability": "view"
    },
    {
      "type": "function",
      "name": "tokenURI",
      "inputs": [
        {
          "name": "poolId",
          "type": "uint256",
          "internalType": "uint256"
        }
      ],
      "outputs": [
        {
          "name": "uri",
          "type": "string",
          "internalType": "string"
        }
      ],
      "stateMutability": "view"
    },
    {
      "type": "function",
      "name": "totalDeposited",
      "inputs": [
        {
          "name": "token",
          "type": "address",
          "internalType": "address"
        }
      ],
      "outputs": [
        {
          "name": "",
          "type": "uint256",
          "internalType": "uint256"
        }
      ],
      "stateMutability": "view"
    },
    {
      "type": "function",
      "name": "totalPools",
      "inputs": [],
      "outputs": [
        {
          "name": "",
          "type": "uint256",
          "internalType": "uint256"
        }
      ],
      "stateMutability": "view"
    },
    {
      "type": "function",
      "name": "totalSupply",
      "inputs": [],
      "outputs": [
        {
          "name": "",
          "type": "uint256",
          "internalType": "uint256"
        }
      ],
      "stateMutability": "view"
    },
    {
      "type": "function",
      "name": "transfer",
      "inputs": [
        {
          "name": "to",
          "type": "address",
          "internalType": "address"
        },
        {
          "name": "poolId",
          "type": "uint256",
          "internalType": "uint256"
        }
      ],
      "outputs": [],
      "stateMutability": "nonpayable"
    },
    {
      "type": "function",
      "name": "transferFrom",
      "inputs": [
        {
          "name": "from",
          "type": "address",
          "internalType": "address"
        },
        {
          "name": "to",
          "type": "address",
          "internalType": "address"
        },
        {
          "name": "tokenId",
          "type": "uint256",
          "internalType": "uint256"
        }
      ],
      "outputs": [],
      "stateMutability": "nonpayable"
    },
    {
      "type": "function",
      "name": "transferOwnership",
      "inputs": [
        {
          "name": "newOwner",
          "type": "address",
          "internalType": "address payable"
        }
      ],
      "outputs": [],
      "stateMutability": "nonpayable"
    },
    {
      "type": "function",
      "name": "withdraw",
      "inputs": [
        {
          "name": "poolId",
          "type": "uint256",
          "internalType": "uint256"
        },
        {
          "name": "quoteTokenAmount",
          "type": "uint256",
          "internalType": "uint256"
        }
      ],
      "outputs": [
        {
          "name": "",
          "type": "uint256",
          "internalType": "uint256"
        }
      ],
      "stateMutability": "nonpayable"
    },
    {
      "type": "function",
      "name": "withdrawTo",
      "inputs": [
        {
          "name": "poolId",
          "type": "uint256",
          "internalType": "uint256"
        },
        {
          "name": "to",
          "type": "address",
          "internalType": "address"
        },
        {
          "name": "quoteTokenAmount",
          "type": "uint256",
          "internalType": "uint256"
        }
      ],
      "outputs": [
        {
          "name": "withdrawn",
          "type": "uint256",
          "internalType": "uint256"
        }
      ],
      "stateMutability": "nonpayable"
    },
    {
      "type": "event",
      "name": "Approval",
      "inputs": [
        {
          "name": "owner",
          "type": "address",
          "indexed": true,
          "internalType": "address"
        },
        {
          "name": "approved",
          "type": "address",
          "indexed": true,
          "internalType": "address"
        },
        {
          "name": "tokenId",
          "type": "uint256",
          "indexed": true,
          "internalType": "uint256"
        }
      ],
      "anonymous": false
    },
    {
      "type": "event",
      "name": "ApprovalForAll",
      "inputs": [
        {
          "name": "owner",
          "type": "address",
          "indexed": true,
          "internalType": "address"
        },
        {
          "name": "operator",
          "type": "address",
          "indexed": true,
          "internalType": "address"
        },
        {
          "name": "approved",
          "type": "bool",
          "indexed": false,
          "internalType": "bool"
        }
      ],
      "anonymous": false
    },
    {
      "type": "event",
      "name": "BuyRoyalty",
      "inputs": [
        {
          "name": "poolId",
          "type": "uint256",
          "indexed": false,
          "internalType": "uint256"
        },
        {
          "name": "buyer",
          "type": "address",
          "indexed": false,
          "internalType": "address"
        },
        {
          "name": "paidPrice",
          "type": "uint256",
          "indexed": false,
          "internalType": "uint256"
        }
      ],
      "anonymous": false
    },
    {
      "type": "event",
      "name": "Deposit",
      "inputs": [
        {
          "name": "poolId",
          "type": "uint256",
          "indexed": false,
          "internalType": "uint256"
        },
        {
          "name": "pool",
          "type": "address",
          "indexed": false,
          "internalType": "address"
        },
        {
          "name": "quoteToken",
          "type": "address",
          "indexed": false,
          "internalType": "address"
        },
        {
          "name": "quoteTokenAmount",
          "type": "uint256",
          "indexed": false,
          "internalType": "uint256"
        }
      ],
      "anonymous": false
    },
    {
      "type": "event",
      "name": "Exit",
      "inputs": [
        {
          "name": "poolId",
          "type": "uint256",
          "indexed": false,
          "internalType": "uint256"
        },
        {
          "name": "quoteTokenAmount",
          "type": "uint256",
          "indexed": false,
          "internalType": "uint256"
        },
        {
          "name": "baseTokenAmount",
          "type": "uint256",
          "indexed": false,
          "internalType": "uint256"
        }
      ],
      "anonymous": false
    },
    {
      "type": "event",
      "name": "Grind",
      "inputs": [
        {
          "name": "poolId",
          "type": "uint256",
          "indexed": false,
          "internalType": "uint256"
        },
        {
          "name": "op",
          "type": "uint8",
          "indexed": false,
          "internalType": "uint8"
        },
        {
          "name": "grinder",
          "type": "address",
          "indexed": false,
          "internalType": "address"
        },
        {
          "name": "isGrinded",
          "type": "bool",
          "indexed": false,
          "internalType": "bool"
        }
      ],
      "anonymous": false
    },
    {
      "type": "event",
      "name": "Mint",
      "inputs": [
        {
          "name": "poolId",
          "type": "uint256",
          "indexed": false,
          "internalType": "uint256"
        },
        {
          "name": "baseToken",
          "type": "address",
          "indexed": false,
          "internalType": "address"
        },
        {
          "name": "quoteToken",
          "type": "address",
          "indexed": false,
          "internalType": "address"
        }
      ],
      "anonymous": false
    },
    {
      "type": "event",
      "name": "Rebalance",
      "inputs": [
        {
          "name": "poolId0",
          "type": "uint256",
          "indexed": false,
          "internalType": "uint256"
        },
        {
          "name": "poolId1",
          "type": "uint256",
          "indexed": false,
          "internalType": "uint256"
        }
      ],
      "anonymous": false
    },
    {
      "type": "event",
      "name": "Transfer",
      "inputs": [
        {
          "name": "from",
          "type": "address",
          "indexed": true,
          "internalType": "address"
        },
        {
          "name": "to",
          "type": "address",
          "indexed": true,
          "internalType": "address"
        },
        {
          "name": "tokenId",
          "type": "uint256",
          "indexed": true,
          "internalType": "uint256"
        }
      ],
      "anonymous": false
    },
    {
      "type": "event",
      "name": "Withdraw",
      "inputs": [
        {
          "name": "poolId",
          "type": "uint256",
          "indexed": false,
          "internalType": "uint256"
        },
        {
          "name": "to",
          "type": "address",
          "indexed": false,
          "internalType": "address"
        },
        {
          "name": "quoteToken",
          "type": "address",
          "indexed": false,
          "internalType": "address"
        },
        {
          "name": "quoteTokenAmount",
          "type": "uint256",
          "indexed": false,
          "internalType": "uint256"
        }
      ],
      "anonymous": false
    },
    {
      "type": "error",
      "name": "DifferentOwnersOfPools",
      "inputs": []
    },
    {
      "type": "error",
      "name": "DifferentTokens",
      "inputs": []
    },
    {
      "type": "error",
      "name": "ERC721EnumerableForbiddenBatchMint",
      "inputs": []
    },
    {
      "type": "error",
      "name": "ERC721IncorrectOwner",
      "inputs": [
        {
          "name": "sender",
          "type": "address",
          "internalType": "address"
        },
        {
          "name": "tokenId",
          "type": "uint256",
          "internalType": "uint256"
        },
        {
          "name": "owner",
          "type": "address",
          "internalType": "address"
        }
      ]
    },
    {
      "type": "error",
      "name": "ERC721InsufficientApproval",
      "inputs": [
        {
          "name": "operator",
          "type": "address",
          "internalType": "address"
        },
        {
          "name": "tokenId",
          "type": "uint256",
          "internalType": "uint256"
        }
      ]
    },
    {
      "type": "error",
      "name": "ERC721InvalidApprover",
      "inputs": [
        {
          "name": "approver",
          "type": "address",
          "internalType": "address"
        }
      ]
    },
    {
      "type": "error",
      "name": "ERC721InvalidOperator",
      "inputs": [
        {
          "name": "operator",
          "type": "address",
          "internalType": "address"
        }
      ]
    },
    {
      "type": "error",
      "name": "ERC721InvalidOwner",
      "inputs": [
        {
          "name": "owner",
          "type": "address",
          "internalType": "address"
        }
      ]
    },
    {
      "type": "error",
      "name": "ERC721InvalidReceiver",
      "inputs": [
        {
          "name": "receiver",
          "type": "address",
          "internalType": "address"
        }
      ]
    },
    {
      "type": "error",
      "name": "ERC721InvalidSender",
      "inputs": [
        {
          "name": "sender",
          "type": "address",
          "internalType": "address"
        }
      ]
    },
    {
      "type": "error",
      "name": "ERC721NonexistentToken",
      "inputs": [
        {
          "name": "tokenId",
          "type": "uint256",
          "internalType": "uint256"
        }
      ]
    },
    {
      "type": "error",
      "name": "ERC721OutOfBoundsIndex",
      "inputs": [
        {
          "name": "owner",
          "type": "address",
          "internalType": "address"
        },
        {
          "name": "index",
          "type": "uint256",
          "internalType": "uint256"
        }
      ]
    },
    {
      "type": "error",
      "name": "ExceededMaxDeposit",
      "inputs": []
    },
    {
      "type": "error",
      "name": "InsufficientMinDeposit",
      "inputs": []
    },
    {
      "type": "error",
      "name": "InvalidGRETHShares",
      "inputs": []
    },
    {
      "type": "error",
      "name": "InvalidOp",
      "inputs": []
    },
    {
      "type": "error",
      "name": "InvalidRoyaltyPriceInit",
      "inputs": []
    },
    {
      "type": "error",
      "name": "InvalidRoyaltyPriceShare",
      "inputs": []
    },
    {
      "type": "error",
      "name": "InvalidRoyaltyShares",
      "inputs": []
    },
    {
      "type": "error",
      "name": "NoCapital",
      "inputs": []
    },
    {
      "type": "error",
      "name": "NotAgent",
      "inputs": []
    },
    {
      "type": "error",
      "name": "NotDepositor",
      "inputs": []
    },
    {
      "type": "error",
      "name": "NotMatchPoolsNFT",
      "inputs": []
    },
    {
      "type": "error",
      "name": "NotOwner",
      "inputs": []
    },
    {
      "type": "error",
      "name": "NotOwnerOf",
      "inputs": []
    },
    {
      "type": "error",
      "name": "NotOwnerOrPending",
      "inputs": []
    },
    {
      "type": "error",
      "name": "ReentrancyGuardReentrantCall",
      "inputs": []
    },
    {
      "type": "error",
      "name": "SafeERC20FailedOperation",
      "inputs": [
        {
          "name": "token",
          "type": "address",
          "internalType": "address"
        }
      ]
    },
    {
      "type": "error",
      "name": "StrategyStopped",
      "inputs": []
    }
  ],
  "bytecode": {
    "object": "0x608060405234801561000f575f5ffd5b5060408051602080820183525f8083528351918201909352828152909161003683826102c7565b50600161004382826102c7565b50506001600a55505f600e55600c80546001600160a01b0319908116909155600d8054339216919091179055600b80546001600160501b031916686401f400642774006417908190556127109061ffff680100000000000000008204811691660100000000000081048216916100cb9164010000000081048216916201000090910416610381565b6100d59190610381565b6100df9190610381565b61ffff16116100ec575f5ffd5b600b8054600160501b600160901b03191671012c00c805dc1f400000000000000000000017908190556127109061ffff600160801b8204811691600160701b810482169161015c916c0100000000000000000000000081048216916a010000000000000000000090910416610381565b6101669190610381565b6101709190610381565b61ffff161461017d575f5ffd5b600b8054600160901b600160e01b031916681f401f403e81f4007d60941b1790819055612710906101c29061ffff600160a01b8204811691600160901b900416610381565b61ffff16146101cf575f5ffd5b600b546127109061ffff600160d01b8204811691600160c01b810482169161020991600160b01b8104821691600160a01b90910416610381565b6102139190610381565b61021d9190610381565b61ffff161461022a575f5ffd5b6103ad565b634e487b7160e01b5f52604160045260245ffd5b600181811c9082168061025757607f821691505b60208210810361027557634e487b7160e01b5f52602260045260245ffd5b50919050565b601f8211156102c257805f5260205f20601f840160051c810160208510156102a05750805b601f840160051c820191505b818110156102bf575f81556001016102ac565b50505b505050565b81516001600160401b038111156102e0576102e061022f565b6102f4816102ee8454610243565b8461027b565b6020601f821160018114610326575f831561030f5750848201515b5f19600385901b1c1916600184901b1784556102bf565b5f84815260208120601f198516915b828110156103555787850151825560209485019460019092019101610335565b508482101561037257868401515f19600387901b60f8161c191681555b50505050600190811b01905550565b61ffff81811683821601908111156103a757634e487b7160e01b5f52601160045260245ffd5b92915050565b615c52806103ba5f395ff3fe6080604052600436106104f5575f3560e01c80637f8661a11161028e578063b88d4fde11610160578063dec39715116100c9578063eb9b798611610083578063eb9b7986146112bf578063ef38e4e3146112f3578063f059deb21461133f578063f26027201461135e578063f2fde38b1461137d578063f92989281461139c575f5ffd5b8063dec39715146111f4578063e2bbb15814611213578063e30c397814611232578063e60ed1f314611251578063e985e9c514611272578063ea85781d14611291575f5ffd5b8063ca05262b1161011a578063ca05262b1461112c578063caa7262b1461114b578063cdb0d0231461116a578063ce33939514611189578063d4175be2146111aa578063dc49b190146111d5575f5ffd5b8063b88d4fde14611055578063bfe121e514611074578063c0b7b57814611095578063c0b929e6146110b4578063c87b56dd146110d3578063c8b7cdb5146110f2575f5ffd5b8063a5352bfd11610202578063ab6e9690116101bc578063ab6e969014610f6f578063ac4afa3814610f8e578063ac8d856c14610fc2578063b2d5cca714610ff6578063b362893214611015578063b61d27f614611036575f5ffd5b8063a5352bfd14610e77578063a81b2f8d14610e96578063a8c9d30414610eef578063a9059cbb14610f1c578063a93d57a114610f3b578063ab3c7e5214610f5a575f5ffd5b8063918f867411610253578063918f867414610d6657806395d89b4114610d7b57806397d8c67614610db257806398ac325514610e03578063a22cb46514610e22578063a238310614610e41575f5ffd5b80637f8661a114610cb6578063849784d414610cea5780638da5cb5b14610d095780638e22e7c314610d28578063912d1a8614610d47575f5ffd5b806336e68f54116103c75780635b71ecb51161033b5780636c0360eb116102f55780636c0360eb14610bf65780636d3a87db14610c0a5780636db47de914610c2b57806370a0823114610c5957806373f65f8a14610c78578063755b916214610c97575f5ffd5b80635b71ecb514610ad45780635cd2dd5e14610af35780635d2d192014610b275780635db4474414610b465780636352211e14610b65578063685fb6da14610b84575f5ffd5b8063441a3e701161038c578063441a3e7014610a0c5780634f6ccce714610a2b5780634f99f04a14610a4a5780635305548114610a6b57806355b2d01e14610a96578063592ae17f14610ab5575f5ffd5b806336e68f541461094c57806337566d54146109785780633c29f83914610997578063402d267d146109c257806342842e0e146109ed575f5ffd5b80631927c4ea116104695780632a67fe0b116104235780632a67fe0b146108845780632bb804741461089e5780632f745c59146108bf57806330e00596146108de578063352333f21461090b57806336b02baf1461092b575f5ffd5b80631927c4ea1461079d57806323b872dd146107be57806326ca015a146107dd57806327f8cabb146108085780632980b2ff146108275780632a55205a14610846575f5ffd5b80630861751f116104ba5780630861751f146106d7578063095ea7b3146106f657806309dbb6ea146107155780630cccd8881461073457806318160ddd14610760578063184b95591461077e575f5ffd5b806301ffc9a7146105c957806304f6430e146105fd578063053604ed1461063157806306fdde0314610652578063081812fc146106a0575f5ffd5b366105c55734156105c3576010545f906001600160a01b031661056c57600d546040516001600160a01b039091169034905f81818185875af1925050503d805f811461055c576040519150601f19603f3d011682016040523d82523d5f602084013e610561565b606091505b5050809150506105c1565b6010546040516001600160a01b039091169034905f81818185875af1925050503d805f81146105b6576040519150601f19603f3d011682016040523d82523d5f602084013e6105bb565b606091505b50909150505b505b005b5f5ffd5b3480156105d4575f5ffd5b506105e86105e33660046148ef565b6113be565b60405190151581526020015b60405180910390f35b348015610608575f5ffd5b50600b5461061e90600160501b900461ffff1681565b60405161ffff90911681526020016105f4565b34801561063c575f5ffd5b50600b5461061e90600160b01b900461ffff1681565b34801561065d575f5ffd5b5060408051808201909152601a81527f4772696e645552555320506f6f6c7320436f6c6c656374696f6e00000000000060208201525b6040516105f49190614938565b3480156106ab575f5ffd5b506106bf6106ba36600461494a565b6113ce565b6040516001600160a01b0390911681526020016105f4565b3480156106e2575f5ffd5b506105c36106f1366004614975565b6113f5565b348015610701575f5ffd5b506105c3610710366004614990565b6114a4565b348015610720575f5ffd5b506105e861072f36600461494a565b6114b3565b34801561073f575f5ffd5b5061075361074e366004614975565b6114be565b6040516105f491906149f4565b34801561076b575f5ffd5b506008545b6040519081526020016105f4565b348015610789575f5ffd5b506105c3610798366004614a06565b61156c565b3480156107a8575f5ffd5b50600b5461061e90600160701b900461ffff1681565b3480156107c9575f5ffd5b506105c36107d8366004614a4e565b6115ea565b3480156107e8575f5ffd5b506107706107f736600461494a565b60156020525f908152604090205481565b348015610813575f5ffd5b506105c3610822366004614a9b565b611678565b348015610832575f5ffd5b506011546106bf906001600160a01b031681565b348015610851575f5ffd5b50610865610860366004614af4565b61174d565b604080516001600160a01b0390931683526020830191909152016105f4565b34801561088f575f5ffd5b50600b5461061e9061ffff1681565b3480156108a9575f5ffd5b50600b5461061e90600160901b900461ffff1681565b3480156108ca575f5ffd5b506107706108d9366004614990565b61178a565b3480156108e9575f5ffd5b506108fd6108f836600461494a565b6117ed565b6040516105f4929190614b68565b348015610916575f5ffd5b50600b5461061e9062010000900461ffff1681565b348015610936575f5ffd5b50600b5461061e90600160401b900461ffff1681565b348015610957575f5ffd5b5061096b610966366004614c59565b6118ee565b6040516105f49190614ce4565b348015610983575f5ffd5b50610770610992366004614f80565b611960565b3480156109a2575f5ffd5b506107706109b1366004614975565b601b6020525f908152604090205481565b3480156109cd575f5ffd5b506107706109dc366004614975565b601c6020525f908152604090205481565b3480156109f8575f5ffd5b506105c3610a07366004614a4e565b611977565b348015610a17575f5ffd5b50610770610a26366004614af4565b611996565b348015610a36575f5ffd5b50610770610a4536600461494a565b6119a9565b348015610a55575f5ffd5b50600b5461061e90600160301b900461ffff1681565b348015610a76575f5ffd5b50610770610a85366004614975565b601a6020525f908152604090205481565b348015610aa1575f5ffd5b506105c3610ab0366004614fdb565b6119fe565b348015610ac0575f5ffd5b50610770610acf366004615012565b611a2b565b348015610adf575f5ffd5b506106bf610aee36600461494a565b611be2565b348015610afe575f5ffd5b506106bf610b0d36600461494a565b60146020525f90815260409020546001600160a01b031681565b348015610b32575f5ffd5b506105c3610b41366004615072565b611c0c565b348015610b51575f5ffd5b506105c3610b603660046150b4565b611c6d565b348015610b70575f5ffd5b506106bf610b7f36600461494a565b61228e565b348015610b8f575f5ffd5b50610ba3610b9e36600461494a565b612298565b604080519b8c5260208c019a909a52988a01979097526060890195909552608088019390935260a087019190915260c086015260e0850152610100840152610120830152610140820152610160016105f4565b348015610c01575f5ffd5b5061069361233d565b348015610c15575f5ffd5b50600b5461061e90600160c01b900461ffff1681565b348015610c36575f5ffd5b506105e8610c453660046150f0565b60136020525f908152604090205460ff1681565b348015610c64575f5ffd5b50610770610c73366004614975565b6123b0565b348015610c83575f5ffd5b506105c3610c92366004614990565b6123f5565b348015610ca2575f5ffd5b50610770610cb136600461494a565b612418565b348015610cc1575f5ffd5b50610cd5610cd036600461494a565b612423565b604080519283526020830191909152016105f4565b348015610cf5575f5ffd5b506105e8610d0436600461510b565b6125a9565b348015610d14575f5ffd5b50600d546106bf906001600160a01b031681565b348015610d33575f5ffd5b50600f546106bf906001600160a01b031681565b348015610d52575f5ffd5b506105c3610d61366004614990565b612618565b348015610d71575f5ffd5b5061061e61271081565b348015610d86575f5ffd5b5060408051808201909152600f81526e4752494e44555255535f504f4f4c5360881b6020820152610693565b348015610dbd575f5ffd5b506105c3610dcc36600461512e565b335f908152601e602090815260408083206001600160a01b0395909516835293905291909120805460ff1916911515919091179055565b348015610e0e575f5ffd5b506105c3610e1d366004614975565b61263b565b348015610e2d575f5ffd5b506105c3610e3c36600461512e565b61269c565b348015610e4c575f5ffd5b50610770610e5b36600461510b565b601960209081525f928352604080842090915290825290205481565b348015610e82575f5ffd5b506105c3610e91366004614975565b6126a7565b348015610ea1575f5ffd5b50610eb5610eb036600461494a565b612756565b6040805160ff9889168152979096166020880152948601939093526060850191909152608084015260a083015260c082015260e0016105f4565b348015610efa575f5ffd5b50610f0e610f09366004614af4565b6127e4565b6040516105f492919061514a565b348015610f27575f5ffd5b506105c3610f36366004614990565b612a79565b348015610f46575f5ffd5b506010546106bf906001600160a01b031681565b348015610f65575f5ffd5b50610770600e5481565b348015610f7a575f5ffd5b506105c3610f893660046150f0565b612a84565b348015610f99575f5ffd5b506106bf610fa836600461494a565b60176020525f90815260409020546001600160a01b031681565b348015610fcd575f5ffd5b506106bf610fdc36600461494a565b60166020525f90815260409020546001600160a01b031681565b348015611001575f5ffd5b506105e861101036600461510b565b612aca565b348015611020575f5ffd5b50600b5461061e90600160801b900461ffff1681565b348015611041575f5ffd5b506105c3611050366004615213565b612bde565b348015611060575f5ffd5b506105c361106f366004615267565b612c48565b34801561107f575f5ffd5b50600b5461061e90600160d01b900461ffff1681565b3480156110a0575f5ffd5b506105e86110af3660046152ce565b612c60565b3480156110bf575f5ffd5b506105c36110ce366004614a9b565b612ec0565b3480156110de575f5ffd5b506106936110ed36600461494a565b612f5d565b3480156110fd575f5ffd5b5061111161110c36600461494a565b612fd6565b604080519384526020840192909252908201526060016105f4565b348015611137575f5ffd5b506105c3611146366004614a9b565b613052565b348015611156575f5ffd5b506107706111653660046152f2565b613106565b348015611175575f5ffd5b506105e8611184366004615316565b613299565b348015611194575f5ffd5b50600b5461061e90600160601b900461ffff1681565b3480156111b5575f5ffd5b506107706111c4366004614975565b60186020525f908152604090205481565b3480156111e0575f5ffd5b506107706111ef36600461510b565b613334565b3480156111ff575f5ffd5b50610f0e61120e366004615342565b613542565b34801561121e575f5ffd5b5061077061122d366004614af4565b6137e3565b34801561123d575f5ffd5b50600c546106bf906001600160a01b031681565b34801561125c575f5ffd5b50600b5461061e90600160a01b900461ffff1681565b34801561127d575f5ffd5b506105e861128c366004615316565b613815565b34801561129c575f5ffd5b506105e86112ab366004614975565b601d6020525f908152604090205460ff1681565b3480156112ca575f5ffd5b506106bf6112d93660046150f0565b60126020525f90815260409020546001600160a01b031681565b3480156112fe575f5ffd5b5061131261130d36600461494a565b613842565b604080519687526020870195909552938501929092526060840152608083015260a082015260c0016105f4565b34801561134a575f5ffd5b506105e861135936600461536d565b61392c565b348015611369575f5ffd5b506105c3611378366004614975565b613938565b348015611388575f5ffd5b506105c3611397366004614975565b613999565b3480156113a7575f5ffd5b50600b5461061e90640100000000900461ffff1681565b5f6113c882613a1e565b92915050565b5f6113d882613a42565b505f828152600460205260409020546001600160a01b03166113c8565b6113fd613a7a565b601080546001600160a01b0319166001600160a01b0383169081179091556040805163154982b960e21b815290513092916355260ae49160048083019260209291908290030181865afa158015611456573d5f5f3e3d5ffd5b505050506040513d601f19601f8201168201806040525081019061147a9190615390565b6001600160a01b0316146114a157604051630efe13f560e21b815260040160405180910390fd5b50565b6114af828233613aa7565b5050565b5f6113c88233612aca565b60605f6114ca836123b0565b9050805f036114e8575050604080515f815260208101909152919050565b5f816001600160401b0381111561150157611501614b85565b60405190808252806020026020018201604052801561152a578160200160208202803683370190505b5092505b8181101561156557611540848261178a565b838281518110611552576115526153ab565b602090810291909101015260010161152e565b5050919050565b600f546001600160a01b031615801561158e57506010546001600160a01b0316155b80156115a357506011546001600160a01b0316155b6115ab575f5ffd5b600f80546001600160a01b039485166001600160a01b031991821617909155601080549385169382169390931790925560118054919093169116179055565b6001600160a01b03821661161857604051633250574960e11b81525f60048201526024015b60405180910390fd5b5f611624838333613ab4565b9050836001600160a01b0316816001600160a01b031614611672576040516364283d7b60e01b81526001600160a01b038086166004830152602482018490528216604482015260640161160f565b50505050565b611680613a7a565b612710818361168f86886153d3565b61169991906153d3565b6116a391906153d3565b61ffff16146116c557604051631be3f71160e01b815260040160405180910390fd5b6116d1846127106153ed565b600b805463ffffffff60901b1916600160901b61ffff9384160261ffff60a01b191617600160a01b968316969096029590951763ffffffff60b01b1916600160b01b9482169490940261ffff60c01b191693909317600160c01b928416929092029190911761ffff60d01b1916600160d01b9190921602179055565b5f5f61175884611be2565b600b549092506127109061177790600160901b900461ffff1685615407565b611781919061541e565b90509250929050565b5f611794836123b0565b82106117c55760405163295f44f760e21b81526001600160a01b03841660048201526024810183905260440161160f565b506001600160a01b03919091165f908152600660209081526040808320938352929052205490565b6118336040518061010001604052805f60ff1681526020015f60ff1681526020015f81526020015f81526020015f81526020015f81526020015f81526020015f81525090565b6118796040518061010001604052805f60ff1681526020015f60ff1681526020015f81526020015f81526020015f81526020015f81526020015f81526020015f81525090565b600f5460405163187002cb60e11b8152600481018590526001600160a01b03909116906330e005969060240161020060405180830381865afa1580156118c1573d5f5f3e3d5ffd5b505050506040513d601f19601f820116820180604052508101906118e591906154c5565b91509150915091565b600f54604051630db9a3d560e21b81526060916001600160a01b0316906336e68f549061191f9085906004016149f4565b5f60405180830381865afa158015611939573d5f5f3e3d5ffd5b505050506040513d5f823e601f3d908101601f191682016040526113c891908101906156bf565b5f61196e3386868686611a2b565b95945050505050565b61199183838360405180602001604052805f815250612c48565b505050565b5f6119a2833384613106565b9392505050565b5f6119b360085490565b82106119db5760405163295f44f760e21b81525f60048201526024810183905260440161160f565b600882815481106119ee576119ee6153ab565b905f5260205f2001549050919050565b611a06613a7a565b61ffff919091165f908152601360205260409020805460ff1916911515919091179055565b61ffff84165f9081526013602052604081205460ff1615611a5f576040516326d25d2560e21b815260040160405180910390fd5b50600e5461ffff85165f90815260126020526040808220549051634a217eb160e11b8152600481018490526001600160a01b038781166024830152868116604483015290911690639442fd62906064016020604051808303815f875af1158015611acb573d5f5f3e3d5ffd5b505050506040513d601f19601f82011682018060405250810190611aef9190615390565b5f83815260166020908152604080832080546001600160a01b031990811633179091556017835281842080546001600160a01b0387169216821790558352601890915290208390559050611b438783613b87565b600e8054905f611b5283615972565b9091555050604080518381526001600160a01b03868116602083015287168183015290517f3794f7f7a2011a8e813b6d89dbacb3d42f6810b632e735dc2eab8628afdb77d99181900360600190a1611baa8284613be8565b50600b5461271090611bc09061ffff1685615407565b611bca919061541e565b5f838152601560205260409020555095945050505050565b5f818152601460205260409020546001600160a01b031680611c07576113c88261228e565b919050565b611c1583613da6565b5f838152601f602052604081208291611c2d8661228e565b6001600160a01b03908116825260208083019390935260409182015f90812096909116815294909152909220805460ff1916921515929092179091555050565b611c768361228e565b6001600160a01b0316611c888561228e565b6001600160a01b031614611caf5760405163df870c7560e01b815260040160405180910390fd5b611cc1611cbb8561228e565b33613299565b611cde57604051630d9ab13f60e01b815260040160405180910390fd5b5f8481526017602090815260408083205486845292819020548151630217a4b760e41b815291516001600160a01b039485169490911692839263217a4b7092600480830193928290030181865afa158015611d3b573d5f5f3e3d5ffd5b505050506040513d601f19601f82011682018060405250810190611d5f9190615390565b6001600160a01b0316826001600160a01b031663217a4b706040518163ffffffff1660e01b8152600401602060405180830381865afa158015611da4573d5f5f3e3d5ffd5b505050506040513d601f19601f82011682018060405250810190611dc89190615390565b6001600160a01b0316141580611eae5750806001600160a01b031663c55dae636040518163ffffffff1660e01b8152600401602060405180830381865afa158015611e15573d5f5f3e3d5ffd5b505050506040513d601f19601f82011682018060405250810190611e399190615390565b6001600160a01b0316826001600160a01b031663c55dae636040518163ffffffff1660e01b8152600401602060405180830381865afa158015611e7e573d5f5f3e3d5ffd5b505050506040513d601f19601f82011682018060405250810190611ea29190615390565b6001600160a01b031614155b15611ecc576040516304e978c160e51b815260040160405180910390fd5b5f5f836001600160a01b031663c0b538f86040518163ffffffff1660e01b815260040160408051808303815f875af1158015611f0a573d5f5f3e3d5ffd5b505050506040513d601f19601f82011682018060405250810190611f2e919061598a565b91509150611fa9843084876001600160a01b031663c55dae636040518163ffffffff1660e01b8152600401602060405180830381865afa158015611f74573d5f5f3e3d5ffd5b505050506040513d601f19601f82011682018060405250810190611f989190615390565b6001600160a01b0316929190613de0565b5f5f846001600160a01b031663c0b538f86040518163ffffffff1660e01b815260040160408051808303815f875af1158015611fe7573d5f5f3e3d5ffd5b505050506040513d601f19601f8201168201806040525081019061200b919061598a565b91509150612051853084886001600160a01b031663c55dae636040518163ffffffff1660e01b8152600401602060405180830381865afa158015611f74573d5f5f3e3d5ffd5b5f61205c83866159ac565b90505f8161206a8486615407565b6120748789615407565b61207e91906159ac565b612088919061541e565b90505f6120958a8c6159bf565b60ff16838c60ff166120a79190615407565b6120b1919061541e565b90505f6120be82856159d8565b9050811561213b5761213b8a838c6001600160a01b031663c55dae636040518163ffffffff1660e01b8152600401602060405180830381865afa158015612107573d5f5f3e3d5ffd5b505050506040513d601f19601f8201168201806040525081019061212b9190615390565b6001600160a01b03169190613e47565b60405163d3a2750f60e01b815260048101839052602481018490526001600160a01b038b169063d3a2750f906044015f604051808303815f87803b158015612181575f5ffd5b505af1158015612193573d5f5f3e3d5ffd5b505050505f8111156121e0576121e089828b6001600160a01b031663c55dae636040518163ffffffff1660e01b8152600401602060405180830381865afa158015612107573d5f5f3e3d5ffd5b60405163d3a2750f60e01b815260048101829052602481018490526001600160a01b038a169063d3a2750f906044015f604051808303815f87803b158015612226575f5ffd5b505af1158015612238573d5f5f3e3d5ffd5b505050507f0b33d39bbef101ecc4f5ef04e6d3a125c9fb745a418dac380e2a9460f8200dc88e8e604051612276929190918252602082015260400190565b60405180910390a15050505050505050505050505050565b5f6113c882613a42565b600f5460405163342fdb6d60e11b8152600481018390525f9182918291829182918291829182918291829182916001600160a01b03169063685fb6da9060240161016060405180830381865afa1580156122f4573d5f5f3e3d5ffd5b505050506040513d601f19601f8201168201806040525081019061231891906159eb565b9a509a509a509a509a509a509a509a509a509a509a5091939597999b90929496989a50565b600f5460408051636c0360eb60e01b815290516060926001600160a01b031691636c0360eb916004808301925f9291908290030181865afa158015612384573d5f5f3e3d5ffd5b505050506040513d5f823e601f3d908101601f191682016040526123ab9190810190615a9a565b905090565b5f6001600160a01b0382166123da576040516322718ad960e21b81525f600482015260240161160f565b506001600160a01b03165f9081526003602052604090205490565b6123fd613a7a565b6001600160a01b039091165f908152601c6020526040902055565b5f6113c88233613334565b5f5f61242e83613da6565b5f838152601760205260408082205481516374fd6c7760e11b815282516001600160a01b0390921693849363e9fad8ee936004808501949293919283900301908290875af1158015612482573d5f5f3e3d5ffd5b505050506040513d601f19601f820116820180604052508101906124a6919061598a565b80935081945050505f816001600160a01b031663217a4b706040518163ffffffff1660e01b8152600401602060405180830381865afa1580156124eb573d5f5f3e3d5ffd5b505050506040513d601f19601f8201168201806040525081019061250f9190615390565b5f8681526019602090815260408083206001600160a01b038516845290915290205490915061253f908290613ed6565b5f8581526019602090815260408083206001600160a01b038516845282528083209290925581518781529081018690529081018490527f2517b7e41eaf162b9731c79972aca29f825cb18a4db86c56de7e89edb381d72b9060600160405180910390a15050915091565b5f816001600160a01b03166125bd8461228e565b6001600160a01b031614806119a257505f838152601f60205260408120906125e48561228e565b6001600160a01b03908116825260208083019390935260409182015f9081209186168152925290205460ff16905092915050565b612620613a7a565b6001600160a01b039091165f908152601b6020526040902055565b612643613a7a565b601180546001600160a01b0319166001600160a01b0383169081179091556040805163154982b960e21b815290513092916355260ae49160048083019260209291908290030181865afa158015611456573d5f5f3e3d5ffd5b6114af338383613f41565b6126af613a7a565b5f816001600160a01b031663492f4e186040518163ffffffff1660e01b8152600401602060405180830381865afa1580156126ec573d5f5f3e3d5ffd5b505050506040513d601f19601f820116820180604052508101906127109190615acb565b61ffff165f90815260126020908152604080832080546001600160a01b0319166001600160a01b0396909616959095179094556013905291909120805460ff1916905550565b600f5460405163a81b2f8d60e01b8152600481018390525f918291829182918291829182916001600160a01b03169063a81b2f8d9060240160e060405180830381865afa1580156127a9573d5f5f3e3d5ffd5b505050506040513d601f19601f820116820180604052508101906127cd9190615ae6565b959e949d50929b5090995097509550909350915050565b60408051600480825260a0820190925260609182919060208201608080368337505060408051600480825260a082019092529294509050602082016080803683370190505090506128348461228e565b825f81518110612846576128466153ab565b60200260200101906001600160a01b031690816001600160a01b03168152505061286f84611be2565b82600181518110612882576128826153ab565b6001600160a01b039283166020918202929092010152601054166128b157600d546001600160a01b03166128be565b6010546001600160a01b03165b826002815181106128d1576128d16153ab565b6001600160a01b039283166020918202929092010152600d54835191169083906003908110612902576129026153ab565b6001600160a01b0390921660209283029190910190910152600b5461271090819061293890600160a01b900461ffff1686615407565b612942919061541e565b825f81518110612954576129546153ab565b6020908102919091010152600b54819061297990600160b01b900461ffff1686615407565b612983919061541e565b82600181518110612996576129966153ab565b6020908102919091010152600b5481906129bb90600160c01b900461ffff1686615407565b6129c5919061541e565b826002815181106129d8576129d86153ab565b602002602001018181525050816002815181106129f7576129f76153ab565b602002602001015182600181518110612a1257612a126153ab565b6020026020010151835f81518110612a2c57612a2c6153ab565b6020026020010151612a3e91906159ac565b612a4891906159ac565b612a5290856159d8565b82600381518110612a6557612a656153ab565b602002602001018181525050509250929050565b6114af338383613fdf565b612a8c613a7a565b61271061ffff821610612ab25760405163c9732f9760e01b815260040160405180910390fd5b600b805461ffff191661ffff92909216919091179055565b5f5f5a5f858152601760205260409020549091506001600160a01b0316612af08161408c565b806001600160a01b0316633d1f89026040518163ffffffff1660e01b81526004016020604051808303815f875af1925050508015612b4b575060408051601f3d908101601f19168201909252612b4891810190615b48565b60015b612b57575f9250612b5a565b92505b8215612bd6575f3a5a612b6d90856159d8565b612b779190615407565b9050612b8486828761410b565b6040805187815260ff60208201526001600160a01b03871681830152851515606082015290517f728e60bec920c5a528246fdd7c4d3ec6f0ec45bca3edf44894b3dd71d5ce7d539181900360800190a1505b505092915050565b612be6613a7a565b5f836001600160a01b03168383604051612c009190615b63565b5f6040518083038185875af1925050503d805f8114612c3a576040519150601f19603f3d011682016040523d82523d5f602084013e612c3f565b606091505b50505050505050565b612c538484846115ea565b6116723385858585614197565b5f5f5a5f868152601760205260409020549091506001600160a01b0316612c868161408c565b60ff8516612cf857806001600160a01b0316636d145ec56040518163ffffffff1660e01b815260040160408051808303815f875af1925050508015612ce8575060408051601f3d908101601f19168201909252612ce59181019061598a565b60015b15612e3957505060019250612e39565b5f1960ff861601612d5a57806001600160a01b031663bd2ad6bf6040518163ffffffff1660e01b815260040160408051808303815f875af1925050508015612ce8575060408051601f3d908101601f19168201909252612ce59181019061598a565b60011960ff861601612dbd57806001600160a01b031663cdc6d97c6040518163ffffffff1660e01b815260040160408051808303815f875af1925050508015612ce8575060408051601f3d908101601f19168201909252612ce59181019061598a565b60021960ff861601612e2057806001600160a01b0316632b6010a76040518163ffffffff1660e01b815260040160408051808303815f875af1925050508015612ce8575060408051601f3d908101601f19168201909252612ce59181019061598a565b6040516393c19f6160e01b815260040160405180910390fd5b8215612eb7575f3a5a612e4c90856159d8565b612e569190615407565b9050612e6387828761410b565b6040805188815260ff881660208201526001600160a01b03871681830152851515606082015290517f728e60bec920c5a528246fdd7c4d3ec6f0ec45bca3edf44894b3dd71d5ce7d539181900360800190a1505b50509392505050565b612ec8613a7a565b61271061ffff851611612eee57604051635072aad360e11b815260040160405180910390fd5b600b805465ffffffff000019166201000061ffff9687160265ffff00000000191617640100000000948616949094029390931769ffffffff0000000000001916600160301b9285169290920269ffff0000000000000000191691909117600160401b9190931602919091179055565b6060612f6882613a42565b50600f5460405163c87b56dd60e01b8152600481018490526001600160a01b039091169063c87b56dd906024015f60405180830381865afa158015612faf573d5f5f3e3d5ffd5b505050506040513d5f823e601f3d908101601f191682016040526113c89190810190615a9a565b600f5460405163c8b7cdb560e01b8152600481018390525f91829182916001600160a01b03169063c8b7cdb590602401606060405180830381865afa158015613021573d5f5f3e3d5ffd5b505050506040513d601f19601f820116820180604052508101906130459190615b79565b9250925092509193909250565b61305a613a7a565b612710818361306986886153d3565b61307391906153d3565b61307d91906153d3565b61ffff161461309f576040516329a8e02f60e21b815260040160405180910390fd5b600b805463ffffffff60501b1916600160501b61ffff9687160261ffff60601b191617600160601b948616949094029390931763ffffffff60701b1916600160701b9285169290920261ffff60801b191691909117600160801b9190931602919091179055565b5f61311084613da6565b5f848152601760209081526040808320548151630217a4b760e41b815291516001600160a01b039091169392849263217a4b7092600480830193928290030181865afa158015613162573d5f5f3e3d5ffd5b505050506040513d601f19601f820116820180604052508101906131869190615390565b60405163f3fef3a360e01b81526001600160a01b038781166004830152602482018790529192509083169063f3fef3a3906044016020604051808303815f875af11580156131d6573d5f5f3e3d5ffd5b505050506040513d601f19601f820116820180604052508101906131fa9190615ba4565b5f8781526019602090815260408083206001600160a01b03861684529091528120805492955085929091906132309084906159d8565b9091555061324090508184613ed6565b604080518781526001600160a01b0387811660208301528316818301526060810186905290517ffeb2000dca3e617cd6f3a8bbb63014bb54a124aac6ccbf73ee7229b4cd01f1209181900360800190a150509392505050565b5f5f6132a4846123b0565b111561332d576011546001600160a01b03908116908316036132e257506001600160a01b0382165f908152601d602052604090205460ff16156113c8565b816001600160a01b0316836001600160a01b0316148061332657506001600160a01b038084165f908152601e602090815260408083209386168352929052205460ff165b90506113c8565b505f6113c8565b5f5f5f5f5f5f61334388613842565b5f8e8152601760209081526040808320548151634a64d67d60e01b81529151999e50979c50959a509398509096506001600160a01b03909416948593634a64d67d93600480830194509092918290030181865afa1580156133a6573d5f5f3e3d5ffd5b505050506040513d601f19601f820116820180604052508101906133ca9190615390565b90506133e16001600160a01b038216333086613de0565b5f6133eb8b611be2565b90508960145f8d81526020019081526020015f205f6101000a8154816001600160a01b0302191690836001600160a01b031602179055508360155f8d81526020019081526020015f20819055505f881115613461576134546001600160a01b038316828a6142b6565b61345e888a6159ac565b98505b8615613491576134846134738c61228e565b6001600160a01b03841690896142b6565b61348e878a6159ac565b98505b85156134be576010546134b1906001600160a01b038481169116886142b6565b6134bb868a6159ac565b98505b84156134eb57600d546134de906001600160a01b038481169116876142b6565b6134e8858a6159ac565b98505b604080518c81526001600160a01b038c1660208201529081018a90527f575a2f348e9def4ded8325aa42a4bf27e87e9856952e713a777c8adb7ee9d43c9060600160405180910390a1505050505050505092915050565b60408051600480825260a0820190925260609182919060208201608080368337505060408051600480825260a082019092529294509050602082016080803683370190505090506127106135958661228e565b835f815181106135a7576135a76153ab565b6001600160a01b039283166020918202929092010152601054166135d657600d546001600160a01b03166135e3565b6010546001600160a01b03165b836001815181106135f6576135f66153ab565b60200260200101906001600160a01b031690816001600160a01b03168152505061361f86611be2565b83600281518110613632576136326153ab565b60200260200101906001600160a01b031690816001600160a01b0316815250508383600381518110613666576136666153ab565b6001600160a01b0390921660209283029190910190910152600b5461ffff8083169161369b91600160701b9091041687615407565b6136a5919061541e565b825f815181106136b7576136b76153ab565b6020908102919091010152600b5461ffff808316916136df91600160601b9091041687615407565b6136e9919061541e565b826001815181106136fc576136fc6153ab565b6020908102919091010152600b5461ffff8083169161372491600160801b9091041687615407565b61372e919061541e565b82600281518110613741576137416153ab565b60200260200101818152505081600281518110613760576137606153ab565b60200260200101518260018151811061377b5761377b6153ab565b6020026020010151835f81518110613795576137956153ab565b60200260200101516137a791906159ac565b6137b191906159ac565b6137bb90866159d8565b826003815181106137ce576137ce6153ab565b60200260200101818152505050935093915050565b5f6137ee83336125a9565b61380b57604051633cc50b4560e01b815260040160405180910390fd5b6119a28383613be8565b6001600160a01b039182165f90815260056020908152604080832093909416825291909152205460ff1690565b5f81815260156020526040812054600b5482918291829182918291906127109081906138789062010000900461ffff1684615407565b613882919061541e565b600b54909850819061389f90600160301b900461ffff1684615407565b6138a9919061541e565b600b5490975081906138c790640100000000900461ffff1684615407565b6138d1919061541e565b600b5490965081906138ee90600160401b900461ffff1684615407565b6138f8919061541e565b94508193508486888a61390b91906159ac565b61391591906159ac565b61391f91906159ac565b9250505091939550919395565b5f6119a2838333612c60565b613940613a7a565b600f80546001600160a01b0319166001600160a01b0383169081179091556040805163154982b960e21b815290513092916355260ae49160048083019260209291908290030181865afa158015611456573d5f5f3e3d5ffd5b600d546001600160a01b031633036139cb57600c80546001600160a01b0383166001600160a01b031990911617905550565b600c546001600160a01b03163303613a0557600c8054600d80546001600160a01b03199081166001600160a01b0384161790915516905550565b604051632956fb3160e21b815260040160405180910390fd5b5f6001600160e01b0319821663780e9d6360e01b14806113c857506113c8826142e7565b5f818152600260205260408120546001600160a01b0316806113c857604051637e27328960e01b81526004810184905260240161160f565b600d546001600160a01b03163314613aa5576040516330cd747160e01b815260040160405180910390fd5b565b6119918383836001614336565b5f5f613ac185858561443a565b90506001600160a01b038116613b1d57613b1884600880545f838152600960205260408120829055600182018355919091527ff3f7a9fe364faab93b216da50a3214154f22a0a2b415b23a84c8169e8b636ee30155565b613b40565b846001600160a01b0316816001600160a01b031614613b4057613b40818561452c565b6001600160a01b038516613b5c57613b57846145a9565b613b7f565b846001600160a01b0316816001600160a01b031614613b7f57613b7f8585614650565b949350505050565b6001600160a01b038216613bb057604051633250574960e11b81525f600482015260240161160f565b5f613bbc83835f613ab4565b90506001600160a01b03811615611991576040516339e3563760e11b81525f600482015260240161160f565b5f828152601760209081526040808320548151630217a4b760e41b815291516001600160a01b03909116928492849263217a4b70926004808401939192918290030181865afa158015613c3d573d5f5f3e3d5ffd5b505050506040513d601f19601f82011682018060405250810190613c619190615390565b9050613c6d818561469e565b613c7781856146d6565b613c8c6001600160a01b038216333087613de0565b613ca06001600160a01b0382168386613e47565b60405163b6b55f2560e01b8152600481018590526001600160a01b0383169063b6b55f25906024016020604051808303815f875af1158015613ce4573d5f5f3e3d5ffd5b505050506040513d601f19601f82011682018060405250810190613d089190615ba4565b5f8681526019602090815260408083206001600160a01b0386168452909152812080549295508592909190613d3e9084906159ac565b90915550613d4e90508184614730565b604080518681526001600160a01b0384811660208301528316818301526060810185905290517f2c0f148b435140de488c1b34647f1511c646f7077e87007bacf22ef9977a16d89181900360800190a1505092915050565b613daf8161228e565b6001600160a01b0316336001600160a01b0316146114a157604051636a6bc9c560e11b815260040160405180910390fd5b6040516001600160a01b0384811660248301528381166044830152606482018390526116729186918216906323b872dd906084015b604051602081830303815290604052915060e01b6020820180516001600160e01b038381831617835250505050614760565b604080516001600160a01b038416602482015260448082018490528251808303909101815260649091019091526020810180516001600160e01b031663095ea7b360e01b179052613e9884826147cc565b611672576040516001600160a01b0384811660248301525f6044830152613ecc91869182169063095ea7b390606401613e15565b6116728482614760565b6001600160a01b0382165f908152601a6020526040902054811015613f27576001600160a01b0382165f908152601a602052604081208054839290613f1c9084906159d8565b909155506114af9050565b506001600160a01b03165f908152601a6020526040812055565b6001600160a01b038216613f7357604051630b61174360e31b81526001600160a01b038316600482015260240161160f565b6001600160a01b038381165f81815260056020908152604080832094871680845294825291829020805460ff191686151590811790915591519182527f17307eab39ab6107e8899845ad3d59bd9653f200f220920489ca2b5937696c31910160405180910390a3505050565b6001600160a01b03821661400857604051633250574960e11b81525f600482015260240161160f565b5f61401483835f613ab4565b90506001600160a01b03811661404057604051637e27328960e01b81526004810183905260240161160f565b836001600160a01b0316816001600160a01b031614611672576040516364283d7b60e01b81526001600160a01b038086166004830152602482018490528216604482015260640161160f565b806001600160a01b031663cfa48f3e6040518163ffffffff1660e01b8152600401602060405180830381865afa1580156140c8573d5f5f3e3d5ffd5b505050506040513d601f19601f820116820180604052508101906140ec9190615ba4565b5f036114a157604051632a81ca8560e11b815260040160405180910390fd5b5f5f614118858585613542565b6010546040516307233fbf60e51b81529294509092506001600160a01b03169063e467f7e09061414e908590859060040161514a565b6020604051808303815f875af1925050508015614188575060408051601f3d908101601f1916820190925261418591810190615ba4565b60015b15614190575b505b5050505050565b6001600160a01b0383163b1561419057604051630a85bd0160e11b81526001600160a01b0384169063150b7a02906141d9908890889087908790600401615bbb565b6020604051808303815f875af1925050508015614213575060408051601f3d908101601f1916820190925261421091810190615bed565b60015b61427a573d808015614240576040519150601f19603f3d011682016040523d82523d5f602084013e614245565b606091505b5080515f0361427257604051633250574960e11b81526001600160a01b038516600482015260240161160f565b805181602001fd5b6001600160e01b03198116630a85bd0160e11b1461418e57604051633250574960e11b81526001600160a01b038516600482015260240161160f565b6040516001600160a01b0383811660248301526044820183905261199191859182169063a9059cbb90606401613e15565b5f6001600160e01b031982166380ac58cd60e01b148061431757506001600160e01b03198216635b5e139f60e01b145b806113c857506301ffc9a760e01b6001600160e01b03198316146113c8565b808061434a57506001600160a01b03821615155b1561440b575f61435984613a42565b90506001600160a01b038316158015906143855750826001600160a01b0316816001600160a01b031614155b801561439857506143968184613815565b155b156143c15760405163a9fbf51f60e01b81526001600160a01b038416600482015260240161160f565b81156144095783856001600160a01b0316826001600160a01b03167f8c5be1e5ebec7d5bd14f71427d1e84f3dd0314c0f7b2291e5b200ac8c7c3b92560405160405180910390a45b505b50505f90815260046020526040902080546001600160a01b0319166001600160a01b0392909216919091179055565b5f828152600260205260408120546001600160a01b039081169083161561446657614466818486614815565b6001600160a01b038116156144a0576144815f855f5f614336565b6001600160a01b0381165f90815260036020526040902080545f190190555b6001600160a01b038516156144ce576001600160a01b0385165f908152600360205260409020805460010190555b5f8481526002602052604080822080546001600160a01b0319166001600160a01b0389811691821790925591518793918516917fddf252ad1be2c89b69c2b068fc378daa952ba7f163c4a11628f55a4df523b3ef91a4949350505050565b5f614536836123b0565b5f838152600760209081526040808320546001600160a01b038816845260069092529091209192509081831461458b575f83815260208281526040808320548584528184208190558352600790915290208290555b5f938452600760209081526040808620869055938552525081205550565b6008545f906145ba906001906159d8565b5f83815260096020526040812054600880549394509092849081106145e1576145e16153ab565b905f5260205f20015490508060088381548110614600576146006153ab565b5f91825260208083209091019290925582815260099091526040808220849055858252812055600880548061463757614637615c08565b600190038181905f5260205f20015f9055905550505050565b5f600161465c846123b0565b61466691906159d8565b6001600160a01b039093165f908152600660209081526040808320868452825280832085905593825260079052919091209190915550565b6001600160a01b0382165f908152601b60205260409020548110156114af5760405163fafe179b60e01b815260040160405180910390fd5b6001600160a01b0382165f908152601c60205260409020541580159061471257506001600160a01b0382165f908152601c602052604090205481115b156114af57604051633bc9ae0960e01b815260040160405180910390fd5b6001600160a01b0382165f908152601a6020526040812080548392906147579084906159ac565b90915550505050565b5f5f60205f8451602086015f885af18061477f576040513d5f823e3d81fd5b50505f513d915081156147965780600114156147a3565b6001600160a01b0384163b155b1561167257604051635274afe760e01b81526001600160a01b038516600482015260240161160f565b5f5f5f5f60205f8651602088015f8a5af192503d91505f51905082801561480b575081156147fd578060011461480b565b5f866001600160a01b03163b115b9695505050505050565b614820838383614879565b611991576001600160a01b03831661484e57604051637e27328960e01b81526004810182905260240161160f565b60405163177e802f60e01b81526001600160a01b03831660048201526024810182905260440161160f565b5f6001600160a01b03831615801590613b7f5750826001600160a01b0316846001600160a01b031614806148b257506148b28484613815565b80613b7f5750505f908152600460205260409020546001600160a01b03908116911614919050565b6001600160e01b0319811681146114a1575f5ffd5b5f602082840312156148ff575f5ffd5b81356119a2816148da565b5f81518084528060208401602086015e5f602082860101526020601f19601f83011685010191505092915050565b602081525f6119a2602083018461490a565b5f6020828403121561495a575f5ffd5b5035919050565b6001600160a01b03811681146114a1575f5ffd5b5f60208284031215614985575f5ffd5b81356119a281614961565b5f5f604083850312156149a1575f5ffd5b82356149ac81614961565b946020939093013593505050565b5f8151808452602084019350602083015f5b828110156149ea5781518652602095860195909101906001016149cc565b5093949350505050565b602081525f6119a260208301846149ba565b5f5f5f60608486031215614a18575f5ffd5b8335614a2381614961565b92506020840135614a3381614961565b91506040840135614a4381614961565b809150509250925092565b5f5f5f60608486031215614a60575f5ffd5b8335614a6b81614961565b92506020840135614a7b81614961565b929592945050506040919091013590565b61ffff811681146114a1575f5ffd5b5f5f5f5f60808587031215614aae575f5ffd5b8435614ab981614a8c565b93506020850135614ac981614a8c565b92506040850135614ad981614a8c565b91506060850135614ae981614a8c565b939692955090935050565b5f5f60408385031215614b05575f5ffd5b50508035926020909101359150565b60ff815116825260ff602082015116602083015260408101516040830152606081015160608301526080810151608083015260a081015160a083015260c081015160c083015260e081015160e08301525050565b6102008101614b778285614b14565b6119a2610100830184614b14565b634e487b7160e01b5f52604160045260245ffd5b60405161010081016001600160401b0381118282101715614bbc57614bbc614b85565b60405290565b60405160e081016001600160401b0381118282101715614bbc57614bbc614b85565b60405161032081016001600160401b0381118282101715614bbc57614bbc614b85565b604051601f8201601f191681016001600160401b0381118282101715614c2f57614c2f614b85565b604052919050565b5f6001600160401b03821115614c4f57614c4f614b85565b5060051b60200190565b5f60208284031215614c69575f5ffd5b81356001600160401b03811115614c7e575f5ffd5b8201601f81018413614c8e575f5ffd5b8035614ca1614c9c82614c37565b614c07565b8082825260208201915060208360051b850101925086831115614cc2575f5ffd5b6020840193505b8284101561480b578335825260209384019390910190614cc9565b5f602082016020835280845180835260408501915060408160051b8601019250602086015f5b82811015614f7457603f19878603018452815180518652602081015160208701526040810151614d4560408801826001600160a01b03169052565b506060810151614d9d606088018260ff815116825260ff602082015116602083015260408101516040830152606081015160608301526080810151608083015260a081015160a083015260c081015160c08301525050565b506080810151805161014088810191909152602082015161016089015260409091015161018088015260a08201516001600160a01b039081166101a089015260c083015181166101c089015260e083015181166101e08901526101008301518116610200890152610120830151166102208801528101516104e06102408801819052614e2b9088018261490a565b9050610160820151878203610260890152614e46828261490a565b915050610180820151878203610280890152614e62828261490a565b9150506101a0820151614e7b6102a089018260ff169052565b506101c082015160ff81166102c0890152506101e082015160ff81166102e08901525061020082015160ff8116610300890152506102208201516103208801526102408201516103408801526102608201516103608801526102808201516103808801526102a082015180516103a089015260208101516103c089015260408101516103e08901526060810151610400890152506102c0820151805161042089015260208101516104408901526040810151610460890152506102e0820151805161048089015260208101516104a08901525061030091909101516104c096909601959095526020938401939190910190600101614d0a565b50929695505050505050565b5f5f5f5f60808587031215614f93575f5ffd5b8435614f9e81614a8c565b93506020850135614fae81614961565b92506040850135614fbe81614961565b9396929550929360600135925050565b80151581146114a1575f5ffd5b5f5f60408385031215614fec575f5ffd5b8235614ff781614a8c565b9150602083013561500781614fce565b809150509250929050565b5f5f5f5f5f60a08688031215615026575f5ffd5b853561503181614961565b9450602086013561504181614a8c565b9350604086013561505181614961565b9250606086013561506181614961565b949793965091946080013592915050565b5f5f5f60608486031215615084575f5ffd5b83359250602084013561509681614961565b91506040840135614a4381614fce565b60ff811681146114a1575f5ffd5b5f5f5f5f608085870312156150c7575f5ffd5b843593506020850135925060408501356150e0816150a6565b91506060850135614ae9816150a6565b5f60208284031215615100575f5ffd5b81356119a281614a8c565b5f5f6040838503121561511c575f5ffd5b82359150602083013561500781614961565b5f5f6040838503121561513f575f5ffd5b8235614ff781614961565b604080825283519082018190525f9060208501906060840190835b8181101561518c5783516001600160a01b0316835260209384019390920191600101615165565b5050838103602085015261480b81866149ba565b5f6001600160401b038211156151b8576151b8614b85565b50601f01601f191660200190565b5f82601f8301126151d5575f5ffd5b81356151e3614c9c826151a0565b8181528460208386010111156151f7575f5ffd5b816020850160208301375f918101602001919091529392505050565b5f5f5f60608486031215615225575f5ffd5b833561523081614961565b92506020840135915060408401356001600160401b03811115615251575f5ffd5b61525d868287016151c6565b9150509250925092565b5f5f5f5f6080858703121561527a575f5ffd5b843561528581614961565b9350602085013561529581614961565b92506040850135915060608501356001600160401b038111156152b6575f5ffd5b6152c2878288016151c6565b91505092959194509250565b5f5f5f606084860312156152e0575f5ffd5b833592506020840135614a33816150a6565b5f5f5f60608486031215615304575f5ffd5b833592506020840135614a7b81614961565b5f5f60408385031215615327575f5ffd5b823561533281614961565b9150602083013561500781614961565b5f5f5f60608486031215615354575f5ffd5b83359250602084013591506040840135614a4381614961565b5f5f6040838503121561537e575f5ffd5b823591506020830135615007816150a6565b5f602082840312156153a0575f5ffd5b81516119a281614961565b634e487b7160e01b5f52603260045260245ffd5b634e487b7160e01b5f52601160045260245ffd5b61ffff81811683821601908111156113c8576113c86153bf565b61ffff82811682821603908111156113c8576113c86153bf565b80820281158282048414176113c8576113c86153bf565b5f8261543857634e487b7160e01b5f52601260045260245ffd5b500490565b8051611c07816150a6565b5f6101008284031215615459575f5ffd5b615461614b99565b9050815161546e816150a6565b815261547c6020830161543d565b602082015260408281015190820152606080830151908201526080808301519082015260a0808301519082015260c0808301519082015260e09182015191810191909152919050565b5f5f61020083850312156154d7575f5ffd5b6154e18484615448565b9150611781846101008501615448565b8051611c0781614961565b5f60e0828403121561550c575f5ffd5b615514614bc2565b90508151615521816150a6565b81526020820151615531816150a6565b602082015260408281015190820152606080830151908201526080808301519082015260a0808301519082015260c09182015191810191909152919050565b5f60608284031215615580575f5ffd5b604051606081016001600160401b03811182821017156155a2576155a2614b85565b60409081528351825260208085015190830152928301519281019290925250919050565b5f82601f8301126155d5575f5ffd5b81516155e3614c9c826151a0565b8181528460208386010111156155f7575f5ffd5b8160208501602083015e5f918101602001919091529392505050565b5f60808284031215615623575f5ffd5b604051608081016001600160401b038111828210171561564557615645614b85565b6040908152835182526020808501519083015283810151908201526060928301519281019290925250919050565b5f60408284031215615683575f5ffd5b604080519081016001600160401b03811182821017156156a5576156a5614b85565b604052825181526020928301519281019290925250919050565b5f602082840312156156cf575f5ffd5b81516001600160401b038111156156e4575f5ffd5b8201601f810184136156f4575f5ffd5b8051615702614c9c82614c37565b8082825260208201915060208360051b850101925086831115615723575f5ffd5b602084015b838110156159675780516001600160401b03811115615745575f5ffd5b85016104e0818a03601f1901121561575b575f5ffd5b615763614be4565b6020828101518252604083015190820152615780606083016154f1565b60408201526157928a608084016154fc565b60608201526157a58a6101608401615570565b60808201526157b76101c083016154f1565b60a08201526157c96101e083016154f1565b60c08201526157db61020083016154f1565b60e08201526157ed61022083016154f1565b61010082015261580061024083016154f1565b6101208201526102608201516001600160401b0381111561581f575f5ffd5b61582e8b6020838601016155c6565b610140830152506102808201516001600160401b0381111561584e575f5ffd5b61585d8b6020838601016155c6565b610160830152506102a08201516001600160401b0381111561587d575f5ffd5b61588c8b6020838601016155c6565b610180830152506158a06102c0830161543d565b6101a08201526158b36102e0830161543d565b6101c08201526158c6610300830161543d565b6101e08201526158d9610320830161543d565b6102008201526103408201516102208201526103608201516102408201526103808201516102608201526103a082015161028082015261591d8a6103c08401615613565b6102a08201526159318a6104408401615570565b6102c08201526159458a6104a08401615673565b6102e08201526104e09190910151610300820152835260209283019201615728565b509695505050505050565b5f60018201615983576159836153bf565b5060010190565b5f5f6040838503121561599b575f5ffd5b505080516020909101519092909150565b808201808211156113c8576113c86153bf565b60ff81811683821601908111156113c8576113c86153bf565b818103818111156113c8576113c86153bf565b5f5f5f5f5f5f5f5f5f5f5f6101608c8e031215615a06575f5ffd5b5f8c519050809b50505f60208d01519050809a50505f60408d01519050809950505f60608d01519050809850505f60808d01519050809750505f60a08d01519050809650505f60c08d01519050809550505f60e08d01519050809450505f6101008d01519050809350505f6101208d01519050809250505f6101408d01519050809150509295989b509295989b9093969950565b5f60208284031215615aaa575f5ffd5b81516001600160401b03811115615abf575f5ffd5b613b7f848285016155c6565b5f60208284031215615adb575f5ffd5b81516119a281614a8c565b5f5f5f5f5f5f5f60e0888a031215615afc575f5ffd5b8751615b07816150a6565b6020890151909750615b18816150a6565b604089015160608a015160808b015160a08c015160c0909c01519a9d939c50919a90999198509650945092505050565b5f60208284031215615b58575f5ffd5b81516119a281614fce565b5f82518060208501845e5f920191825250919050565b5f5f5f60608486031215615b8b575f5ffd5b5050815160208301516040909301519094929350919050565b5f60208284031215615bb4575f5ffd5b5051919050565b6001600160a01b03858116825284166020820152604081018390526080606082018190525f9061480b9083018461490a565b5f60208284031215615bfd575f5ffd5b81516119a2816148da565b634e487b7160e01b5f52603160045260245ffdfea26469706673582212206f0c69c8773dd4647743d178507ef1c8f85cf84490838900ad76496c947a6a5b64736f6c634300081c0033",
    "linkReferences": {}
  },
  "methodIdentifiers": {
    "DENOMINATOR()": "918f8674",
    "approve(address,uint256)": "095ea7b3",
    "balanceOf(address)": "70a08231",
    "baseURI()": "6c0360eb",
    "buyRoyalty(uint256)": "755b9162",
    "buyRoyaltyTo(uint256,address)": "dc49b190",
    "calcGRETHShares(uint256,uint256,address)": "dec39715",
    "calcRoyaltyPriceShares(uint256)": "ef38e4e3",
    "calcRoyaltyShares(uint256,uint256)": "a8c9d304",
    "deposit(uint256,uint256)": "e2bbb158",
    "deposited(uint256,address)": "a2383106",
    "execute(address,uint256,bytes)": "b61d27f6",
    "exit(uint256)": "7f8661a1",
    "getApproved(uint256)": "081812fc",
    "getConfig(uint256)": "a81b2f8d",
    "getFeeConfig(uint256)": "c8b7cdb5",
    "getPoolIdsOf(address)": "0cccd888",
    "getPoolNFTInfosBy(uint256[])": "36e68f54",
    "getPositions(uint256)": "30e00596",
    "getRoyaltyReceiver(uint256)": "5b71ecb5",
    "getThresholds(uint256)": "685fb6da",
    "grETH()": "a93d57a1",
    "grethGrinderShareNumerator()": "04f6430e",
    "grethPoolOwnerShareNumerator()": "1927c4ea",
    "grethReserveShareNumerator()": "ce339395",
    "grethRoyaltyReceiverShareNumerator()": "b3628932",
    "grind(uint256)": "09dbb6ea",
    "grindOp(uint256,uint8)": "f059deb2",
    "grindOpTo(uint256,uint8,address)": "c0b7b578",
    "grindTo(uint256,address)": "b2d5cca7",
    "grinderAI()": "2980b2ff",
    "init(address,address,address)": "184b9559",
    "isAgentOf(address,address)": "cdb0d023",
    "isApprovedForAll(address,address)": "e985e9c5",
    "isDepositorOf(uint256,address)": "849784d4",
    "isDisapprovedGrinderAI(address)": "ea85781d",
    "isStrategyStopped(uint16)": "6db47de9",
    "maxDeposit(address)": "402d267d",
    "minDeposit(address)": "3c29f839",
    "mint(uint16,address,address,uint256)": "37566d54",
    "mintTo(address,uint16,address,address,uint256)": "592ae17f",
    "minter(uint256)": "ac8d856c",
    "name()": "06fdde03",
    "owner()": "8da5cb5b",
    "ownerOf(uint256)": "6352211e",
    "pendingOwner()": "e30c3978",
    "poolIds(address)": "d4175be2",
    "poolOwnerShareNumerator()": "e60ed1f3",
    "pools(uint256)": "ac4afa38",
    "poolsNFTLens()": "8e22e7c3",
    "rebalance(uint256,uint256,uint8,uint8)": "5db44744",
    "royaltyInfo(uint256,uint256)": "2a55205a",
    "royaltyNumerator()": "2bb80474",
    "royaltyOwnerShareNumerator()": "bfe121e5",
    "royaltyPrice(uint256)": "26ca015a",
    "royaltyPriceCompensationShareNumerator()": "352333f2",
    "royaltyPriceInitNumerator()": "2a67fe0b",
    "royaltyPriceOwnerShareNumerator()": "36b02baf",
    "royaltyPricePoolOwnerShareNumerator()": "4f99f04a",
    "royaltyPriceReserveShareNumerator()": "f9298928",
    "royaltyReceiver(uint256)": "5cd2dd5e",
    "royaltyReceiverShareNumerator()": "053604ed",
    "royaltyReserveShareNumerator()": "6d3a87db",
    "safeTransferFrom(address,address,uint256)": "42842e0e",
    "safeTransferFrom(address,address,uint256,bytes)": "b88d4fde",
    "setAgent(address,bool)": "97d8c676",
    "setApprovalForAll(address,bool)": "a22cb465",
    "setDepositor(uint256,address,bool)": "5d2d1920",
    "setGRETH(address)": "0861751f",
    "setGRETHShares(uint16,uint16,uint16,uint16)": "ca05262b",
    "setGrinderAI(address)": "98ac3255",
    "setMaxDeposit(address,uint256)": "73f65f8a",
    "setMinDeposit(address,uint256)": "912d1a86",
    "setPoolsNFTLens(address)": "f2602720",
    "setRoyaltyPriceInitNumerator(uint16)": "ab6e9690",
    "setRoyaltyPriceShares(uint16,uint16,uint16,uint16)": "c0b929e6",
    "setRoyaltyShares(uint16,uint16,uint16,uint16)": "27f8cabb",
    "setStrategyFactory(address)": "a5352bfd",
    "setStrategyStopped(uint16,bool)": "55b2d01e",
    "strategyFactory(uint16)": "eb9b7986",
    "supportsInterface(bytes4)": "01ffc9a7",
    "symbol()": "95d89b41",
    "tokenByIndex(uint256)": "4f6ccce7",
    "tokenOfOwnerByIndex(address,uint256)": "2f745c59",
    "tokenURI(uint256)": "c87b56dd",
    "totalDeposited(address)": "53055481",
    "totalPools()": "ab3c7e52",
    "totalSupply()": "18160ddd",
    "transfer(address,uint256)": "a9059cbb",
    "transferFrom(address,address,uint256)": "23b872dd",
    "transferOwnership(address)": "f2fde38b",
    "withdraw(uint256,uint256)": "441a3e70",
    "withdrawTo(uint256,address,uint256)": "caa7262b"
  },
  "id": 67
}