{
  "abi": [
    {
      "type": "constructor",
      "inputs": [],
      "stateMutability": "nonpayable"
    },
    {
      "type": "receive",
      "stateMutability": "payable"
    },
    {
      "type": "function",
      "name": "DENOMINATOR",
      "inputs": [],
      "outputs": [
        {
          "name": "",
          "type": "uint16",
          "internalType": "uint16"
        }
      ],
      "stateMutability": "view"
    },
    {
      "type": "function",
      "name": "approve",
      "inputs": [
        {
          "name": "to",
          "type": "address",
          "internalType": "address"
        },
        {
          "name": "tokenId",
          "type": "uint256",
          "internalType": "uint256"
        }
      ],
      "outputs": [],
      "stateMutability": "nonpayable"
    },
    {
      "type": "function",
      "name": "balanceOf",
      "inputs": [
        {
          "name": "owner",
          "type": "address",
          "internalType": "address"
        }
      ],
      "outputs": [
        {
          "name": "",
          "type": "uint256",
          "internalType": "uint256"
        }
      ],
      "stateMutability": "view"
    },
    {
      "type": "function",
      "name": "baseURI",
      "inputs": [],
      "outputs": [
        {
          "name": "",
          "type": "string",
          "internalType": "string"
        }
      ],
      "stateMutability": "view"
    },
    {
      "type": "function",
      "name": "buyRoyalty",
      "inputs": [
        {
          "name": "poolId",
          "type": "uint256",
          "internalType": "uint256"
        }
      ],
      "outputs": [
        {
          "name": "",
          "type": "uint256",
          "internalType": "uint256"
        },
        {
          "name": "",
          "type": "uint256",
          "internalType": "uint256"
        }
      ],
      "stateMutability": "payable"
    },
    {
      "type": "function",
      "name": "buyRoyaltyTo",
      "inputs": [
        {
          "name": "poolId",
          "type": "uint256",
          "internalType": "uint256"
        },
        {
          "name": "to",
          "type": "address",
          "internalType": "address payable"
        }
      ],
      "outputs": [
        {
          "name": "royaltyPricePaid",
          "type": "uint256",
          "internalType": "uint256"
        },
        {
          "name": "refund",
          "type": "uint256",
          "internalType": "uint256"
        }
      ],
      "stateMutability": "payable"
    },
    {
      "type": "function",
      "name": "calcGRETHShares",
      "inputs": [
        {
          "name": "poolId",
          "type": "uint256",
          "internalType": "uint256"
        },
        {
          "name": "grethReward",
          "type": "uint256",
          "internalType": "uint256"
        },
        {
          "name": "grinder",
          "type": "address",
          "internalType": "address"
        }
      ],
      "outputs": [
        {
          "name": "actors",
          "type": "address[]",
          "internalType": "address[]"
        },
        {
          "name": "grethShares",
          "type": "uint256[]",
          "internalType": "uint256[]"
        }
      ],
      "stateMutability": "view"
    },
    {
      "type": "function",
      "name": "calcRoyaltyPriceShares",
      "inputs": [
        {
          "name": "poolId",
          "type": "uint256",
          "internalType": "uint256"
        }
      ],
      "outputs": [
        {
          "name": "compensationShare",
          "type": "uint256",
          "internalType": "uint256"
        },
        {
          "name": "poolOwnerShare",
          "type": "uint256",
          "internalType": "uint256"
        },
        {
          "name": "reserveShare",
          "type": "uint256",
          "internalType": "uint256"
        },
        {
          "name": "ownerShare",
          "type": "uint256",
          "internalType": "uint256"
        },
        {
          "name": "oldRoyaltyPrice",
          "type": "uint256",
          "internalType": "uint256"
        },
        {
          "name": "newRoyaltyPrice",
          "type": "uint256",
          "internalType": "uint256"
        }
      ],
      "stateMutability": "view"
    },
    {
      "type": "function",
      "name": "calcRoyaltyShares",
      "inputs": [
        {
          "name": "poolId",
          "type": "uint256",
          "internalType": "uint256"
        },
        {
          "name": "profit",
          "type": "uint256",
          "internalType": "uint256"
        }
      ],
      "outputs": [
        {
          "name": "receivers",
          "type": "address[]",
          "internalType": "address[]"
        },
        {
          "name": "amounts",
          "type": "uint256[]",
          "internalType": "uint256[]"
        }
      ],
      "stateMutability": "view"
    },
    {
      "type": "function",
      "name": "deposit",
      "inputs": [
        {
          "name": "poolId",
          "type": "uint256",
          "internalType": "uint256"
        },
        {
          "name": "quoteTokenAmount",
          "type": "uint256",
          "internalType": "uint256"
        }
      ],
      "outputs": [
        {
          "name": "",
          "type": "uint256",
          "internalType": "uint256"
        }
      ],
      "stateMutability": "nonpayable"
    },
    {
      "type": "function",
      "name": "deposited",
      "inputs": [
        {
          "name": "poolId",
          "type": "uint256",
          "internalType": "uint256"
        },
        {
          "name": "token",
          "type": "address",
          "internalType": "address"
        }
      ],
      "outputs": [
        {
          "name": "",
          "type": "uint256",
          "internalType": "uint256"
        }
      ],
      "stateMutability": "view"
    },
    {
      "type": "function",
      "name": "execute",
      "inputs": [
        {
          "name": "target",
          "type": "address",
          "internalType": "address"
        },
        {
          "name": "value",
          "type": "uint256",
          "internalType": "uint256"
        },
        {
          "name": "data",
          "type": "bytes",
          "internalType": "bytes"
        }
      ],
      "outputs": [],
      "stateMutability": "nonpayable"
    },
    {
      "type": "function",
      "name": "exit",
      "inputs": [
        {
          "name": "poolId",
          "type": "uint256",
          "internalType": "uint256"
        }
      ],
      "outputs": [
        {
          "name": "quoteTokenAmount",
          "type": "uint256",
          "internalType": "uint256"
        },
        {
          "name": "baseTokenAmount",
          "type": "uint256",
          "internalType": "uint256"
        }
      ],
      "stateMutability": "nonpayable"
    },
    {
      "type": "function",
      "name": "getApproved",
      "inputs": [
        {
          "name": "tokenId",
          "type": "uint256",
          "internalType": "uint256"
        }
      ],
      "outputs": [
        {
          "name": "",
          "type": "address",
          "internalType": "address"
        }
      ],
      "stateMutability": "view"
    },
    {
      "type": "function",
      "name": "getConfig",
      "inputs": [
        {
          "name": "poolId",
          "type": "uint256",
          "internalType": "uint256"
        }
      ],
      "outputs": [
        {
          "name": "longNumberMax",
          "type": "uint8",
          "internalType": "uint8"
        },
        {
          "name": "hedgeNumberMax",
          "type": "uint8",
          "internalType": "uint8"
        },
        {
          "name": "extraCoef",
          "type": "uint256",
          "internalType": "uint256"
        },
        {
          "name": "priceVolatility",
          "type": "uint256",
          "internalType": "uint256"
        },
        {
          "name": "returnPercentLongSell",
          "type": "uint256",
          "internalType": "uint256"
        },
        {
          "name": "returnPercentHedgeSell",
          "type": "uint256",
          "internalType": "uint256"
        },
        {
          "name": "returnPercentHedgeRebuy",
          "type": "uint256",
          "internalType": "uint256"
        }
      ],
      "stateMutability": "view"
    },
    {
      "type": "function",
      "name": "getFeeConfig",
      "inputs": [
        {
          "name": "poolId",
          "type": "uint256",
          "internalType": "uint256"
        }
      ],
      "outputs": [
        {
          "name": "longSellFeeCoef",
          "type": "uint256",
          "internalType": "uint256"
        },
        {
          "name": "hedgeSellFeeCoef",
          "type": "uint256",
          "internalType": "uint256"
        },
        {
          "name": "hedgeRebuyFeeCoef",
          "type": "uint256",
          "internalType": "uint256"
        }
      ],
      "stateMutability": "view"
    },
    {
      "type": "function",
      "name": "getPoolIdsOf",
      "inputs": [
        {
          "name": "poolOwner",
          "type": "address",
          "internalType": "address"
        }
      ],
      "outputs": [
        {
          "name": "totalPoolIds",
          "type": "uint256",
          "internalType": "uint256"
        },
        {
          "name": "poolIdsOwnedByPoolOwner",
          "type": "uint256[]",
          "internalType": "uint256[]"
        }
      ],
      "stateMutability": "view"
    },
    {
      "type": "function",
      "name": "getPoolNFTInfosBy",
      "inputs": [
        {
          "name": "_poolIds",
          "type": "uint256[]",
          "internalType": "uint256[]"
        }
      ],
      "outputs": [
        {
          "name": "poolNFTInfos",
          "type": "tuple[]",
          "internalType": "struct IPoolsNFTLens.PoolNFTInfo[]",
          "components": [
            {
              "name": "poolId",
              "type": "uint256",
              "internalType": "uint256"
            },
            {
              "name": "strategyId",
              "type": "uint256",
              "internalType": "uint256"
            },
            {
              "name": "pool",
              "type": "address",
              "internalType": "address"
            },
            {
              "name": "config",
              "type": "tuple",
              "internalType": "struct IURUS.Config",
              "components": [
                {
                  "name": "longNumberMax",
                  "type": "uint8",
                  "internalType": "uint8"
                },
                {
                  "name": "hedgeNumberMax",
                  "type": "uint8",
                  "internalType": "uint8"
                },
                {
                  "name": "extraCoef",
                  "type": "uint256",
                  "internalType": "uint256"
                },
                {
                  "name": "priceVolatilityPercent",
                  "type": "uint256",
                  "internalType": "uint256"
                },
                {
                  "name": "returnPercentLongSell",
                  "type": "uint256",
                  "internalType": "uint256"
                },
                {
                  "name": "returnPercentHedgeSell",
                  "type": "uint256",
                  "internalType": "uint256"
                },
                {
                  "name": "returnPercentHedgeRebuy",
                  "type": "uint256",
                  "internalType": "uint256"
                }
              ]
            },
            {
              "name": "feeConfig",
              "type": "tuple",
              "internalType": "struct IURUS.FeeConfig",
              "components": [
                {
                  "name": "longSellFeeCoef",
                  "type": "uint256",
                  "internalType": "uint256"
                },
                {
                  "name": "hedgeSellFeeCoef",
                  "type": "uint256",
                  "internalType": "uint256"
                },
                {
                  "name": "hedgeRebuyFeeCoef",
                  "type": "uint256",
                  "internalType": "uint256"
                }
              ]
            },
            {
              "name": "oracleQuoteTokenPerBaseToken",
              "type": "address",
              "internalType": "address"
            },
            {
              "name": "oracleQuoteTokenPerFeeToken",
              "type": "address",
              "internalType": "address"
            },
            {
              "name": "feeToken",
              "type": "address",
              "internalType": "address"
            },
            {
              "name": "quoteToken",
              "type": "address",
              "internalType": "address"
            },
            {
              "name": "baseToken",
              "type": "address",
              "internalType": "address"
            },
            {
              "name": "feeTokenSymbol",
              "type": "string",
              "internalType": "string"
            },
            {
              "name": "quoteTokenSymbol",
              "type": "string",
              "internalType": "string"
            },
            {
              "name": "baseTokenSymbol",
              "type": "string",
              "internalType": "string"
            },
            {
              "name": "oracleQuoteTokenPerBaseTokenDecimals",
              "type": "uint8",
              "internalType": "uint8"
            },
            {
              "name": "oracleQuoteTokenPerFeeTokenDecimals",
              "type": "uint8",
              "internalType": "uint8"
            },
            {
              "name": "quoteTokenDecimals",
              "type": "uint8",
              "internalType": "uint8"
            },
            {
              "name": "baseTokenDecimals",
              "type": "uint8",
              "internalType": "uint8"
            },
            {
              "name": "quoteTokenAmount",
              "type": "uint256",
              "internalType": "uint256"
            },
            {
              "name": "baseTokenAmount",
              "type": "uint256",
              "internalType": "uint256"
            },
            {
              "name": "activeCapital",
              "type": "uint256",
              "internalType": "uint256"
            },
            {
              "name": "startTimestamp",
              "type": "uint256",
              "internalType": "uint256"
            },
            {
              "name": "totalProfits",
              "type": "tuple",
              "internalType": "struct IURUS.TotalProfits",
              "components": [
                {
                  "name": "quoteTokenYieldProfit",
                  "type": "uint256",
                  "internalType": "uint256"
                },
                {
                  "name": "baseTokenYieldProfit",
                  "type": "uint256",
                  "internalType": "uint256"
                },
                {
                  "name": "quoteTokenTradeProfit",
                  "type": "uint256",
                  "internalType": "uint256"
                },
                {
                  "name": "baseTokenTradeProfit",
                  "type": "uint256",
                  "internalType": "uint256"
                }
              ]
            },
            {
              "name": "roi",
              "type": "tuple",
              "internalType": "struct IPoolsNFTLens.ROI",
              "components": [
                {
                  "name": "ROINumerator",
                  "type": "uint256",
                  "internalType": "uint256"
                },
                {
                  "name": "ROIDeniminator",
                  "type": "uint256",
                  "internalType": "uint256"
                },
                {
                  "name": "ROIPeriod",
                  "type": "uint256",
                  "internalType": "uint256"
                }
              ]
            },
            {
              "name": "apr",
              "type": "tuple",
              "internalType": "struct IPoolsNFTLens.APR",
              "components": [
                {
                  "name": "APRNumerator",
                  "type": "uint256",
                  "internalType": "uint256"
                },
                {
                  "name": "APRDenominator",
                  "type": "uint256",
                  "internalType": "uint256"
                }
              ]
            },
            {
              "name": "royaltyPrice",
              "type": "uint256",
              "internalType": "uint256"
            }
          ]
        }
      ],
      "stateMutability": "view"
    },
    {
      "type": "function",
      "name": "getPositions",
      "inputs": [
        {
          "name": "poolId",
          "type": "uint256",
          "internalType": "uint256"
        }
      ],
      "outputs": [
        {
          "name": "long",
          "type": "tuple",
          "internalType": "struct IURUS.Position",
          "components": [
            {
              "name": "number",
              "type": "uint8",
              "internalType": "uint8"
            },
            {
              "name": "numberMax",
              "type": "uint8",
              "internalType": "uint8"
            },
            {
              "name": "priceMin",
              "type": "uint256",
              "internalType": "uint256"
            },
            {
              "name": "liquidity",
              "type": "uint256",
              "internalType": "uint256"
            },
            {
              "name": "qty",
              "type": "uint256",
              "internalType": "uint256"
            },
            {
              "name": "price",
              "type": "uint256",
              "internalType": "uint256"
            },
            {
              "name": "feeQty",
              "type": "uint256",
              "internalType": "uint256"
            },
            {
              "name": "feePrice",
              "type": "uint256",
              "internalType": "uint256"
            }
          ]
        },
        {
          "name": "hedge",
          "type": "tuple",
          "internalType": "struct IURUS.Position",
          "components": [
            {
              "name": "number",
              "type": "uint8",
              "internalType": "uint8"
            },
            {
              "name": "numberMax",
              "type": "uint8",
              "internalType": "uint8"
            },
            {
              "name": "priceMin",
              "type": "uint256",
              "internalType": "uint256"
            },
            {
              "name": "liquidity",
              "type": "uint256",
              "internalType": "uint256"
            },
            {
              "name": "qty",
              "type": "uint256",
              "internalType": "uint256"
            },
            {
              "name": "price",
              "type": "uint256",
              "internalType": "uint256"
            },
            {
              "name": "feeQty",
              "type": "uint256",
              "internalType": "uint256"
            },
            {
              "name": "feePrice",
              "type": "uint256",
              "internalType": "uint256"
            }
          ]
        }
      ],
      "stateMutability": "view"
    },
    {
      "type": "function",
      "name": "getRoyaltyReceiver",
      "inputs": [
        {
          "name": "poolId",
          "type": "uint256",
          "internalType": "uint256"
        }
      ],
      "outputs": [
        {
          "name": "receiver",
          "type": "address",
          "internalType": "address"
        }
      ],
      "stateMutability": "view"
    },
    {
      "type": "function",
      "name": "getThresholds",
      "inputs": [
        {
          "name": "poolId",
          "type": "uint256",
          "internalType": "uint256"
        }
      ],
      "outputs": [
        {
          "name": "longBuyPriceMin",
          "type": "uint256",
          "internalType": "uint256"
        },
        {
          "name": "longSellQuoteTokenAmountThreshold",
          "type": "uint256",
          "internalType": "uint256"
        },
        {
          "name": "longSellSwapPriceThreshold",
          "type": "uint256",
          "internalType": "uint256"
        },
        {
          "name": "hedgeSellInitPriceThresholdHigh",
          "type": "uint256",
          "internalType": "uint256"
        },
        {
          "name": "hedgeSellInitPriceThresholdLow",
          "type": "uint256",
          "internalType": "uint256"
        },
        {
          "name": "hedgeSellLiquidity",
          "type": "uint256",
          "internalType": "uint256"
        },
        {
          "name": "hedgeSellQuoteTokenAmountThreshold",
          "type": "uint256",
          "internalType": "uint256"
        },
        {
          "name": "hedgeSellTargetPrice",
          "type": "uint256",
          "internalType": "uint256"
        },
        {
          "name": "hedgeSellSwapPriceThreshold",
          "type": "uint256",
          "internalType": "uint256"
        },
        {
          "name": "hedgeRebuyBaseTokenAmountThreshold",
          "type": "uint256",
          "internalType": "uint256"
        },
        {
          "name": "hedgeRebuySwapPriceThreshold",
          "type": "uint256",
          "internalType": "uint256"
        }
      ],
      "stateMutability": "view"
    },
    {
      "type": "function",
      "name": "grETH",
      "inputs": [],
      "outputs": [
        {
          "name": "",
          "type": "address",
          "internalType": "contract IGRETH"
        }
      ],
      "stateMutability": "view"
    },
    {
      "type": "function",
      "name": "grethGrinderShareNumerator",
      "inputs": [],
      "outputs": [
        {
          "name": "",
          "type": "uint16",
          "internalType": "uint16"
        }
      ],
      "stateMutability": "view"
    },
    {
      "type": "function",
      "name": "grethPoolOwnerShareNumerator",
      "inputs": [],
      "outputs": [
        {
          "name": "",
          "type": "uint16",
          "internalType": "uint16"
        }
      ],
      "stateMutability": "view"
    },
    {
      "type": "function",
      "name": "grethReserveShareNumerator",
      "inputs": [],
      "outputs": [
        {
          "name": "",
          "type": "uint16",
          "internalType": "uint16"
        }
      ],
      "stateMutability": "view"
    },
    {
      "type": "function",
      "name": "grethRoyaltyReceiverShareNumerator",
      "inputs": [],
      "outputs": [
        {
          "name": "",
          "type": "uint16",
          "internalType": "uint16"
        }
      ],
      "stateMutability": "view"
    },
    {
      "type": "function",
      "name": "grind",
      "inputs": [
        {
          "name": "poolId",
          "type": "uint256",
          "internalType": "uint256"
        }
      ],
      "outputs": [
        {
          "name": "",
          "type": "bool",
          "internalType": "bool"
        }
      ],
      "stateMutability": "nonpayable"
    },
    {
      "type": "function",
      "name": "grindOp",
      "inputs": [
        {
          "name": "poolId",
          "type": "uint256",
          "internalType": "uint256"
        },
        {
          "name": "op",
          "type": "uint8",
          "internalType": "uint8"
        }
      ],
      "outputs": [
        {
          "name": "",
          "type": "bool",
          "internalType": "bool"
        }
      ],
      "stateMutability": "nonpayable"
    },
    {
      "type": "function",
      "name": "grindOpTo",
      "inputs": [
        {
          "name": "poolId",
          "type": "uint256",
          "internalType": "uint256"
        },
        {
          "name": "op",
          "type": "uint8",
          "internalType": "uint8"
        },
        {
          "name": "grinder",
          "type": "address",
          "internalType": "address"
        }
      ],
      "outputs": [
        {
          "name": "isGrinded",
          "type": "bool",
          "internalType": "bool"
        }
      ],
      "stateMutability": "nonpayable"
    },
    {
      "type": "function",
      "name": "grindTo",
      "inputs": [
        {
          "name": "poolId",
          "type": "uint256",
          "internalType": "uint256"
        },
        {
          "name": "grinder",
          "type": "address",
          "internalType": "address"
        }
      ],
      "outputs": [
        {
          "name": "isGrinded",
          "type": "bool",
          "internalType": "bool"
        }
      ],
      "stateMutability": "nonpayable"
    },
    {
      "type": "function",
      "name": "grinderAI",
      "inputs": [],
      "outputs": [
        {
          "name": "",
          "type": "address",
          "internalType": "contract IGrinderAI"
        }
      ],
      "stateMutability": "view"
    },
    {
      "type": "function",
      "name": "init",
      "inputs": [
        {
          "name": "_poolsNFTLens",
          "type": "address",
          "internalType": "address"
        },
        {
          "name": "_grETH",
          "type": "address",
          "internalType": "address"
        },
        {
          "name": "_grinderAI",
          "type": "address",
          "internalType": "address"
        }
      ],
      "outputs": [],
      "stateMutability": "nonpayable"
    },
    {
      "type": "function",
      "name": "isAgentOf",
      "inputs": [
        {
          "name": "_ownerOf",
          "type": "address",
          "internalType": "address"
        },
        {
          "name": "_agent",
          "type": "address",
          "internalType": "address"
        }
      ],
      "outputs": [
        {
          "name": "",
          "type": "bool",
          "internalType": "bool"
        }
      ],
      "stateMutability": "view"
    },
    {
      "type": "function",
      "name": "isApprovedForAll",
      "inputs": [
        {
          "name": "owner",
          "type": "address",
          "internalType": "address"
        },
        {
          "name": "operator",
          "type": "address",
          "internalType": "address"
        }
      ],
      "outputs": [
        {
          "name": "",
          "type": "bool",
          "internalType": "bool"
        }
      ],
      "stateMutability": "view"
    },
    {
      "type": "function",
      "name": "isDepositorOf",
      "inputs": [
        {
          "name": "poolId",
          "type": "uint256",
          "internalType": "uint256"
        },
        {
          "name": "_depositor",
          "type": "address",
          "internalType": "address"
        }
      ],
      "outputs": [
        {
          "name": "",
          "type": "bool",
          "internalType": "bool"
        }
      ],
      "stateMutability": "view"
    },
    {
      "type": "function",
      "name": "isDisapprovedGrinderAI",
      "inputs": [
        {
          "name": "_ownerOf",
          "type": "address",
          "internalType": "address"
        }
      ],
      "outputs": [
        {
          "name": "",
          "type": "bool",
          "internalType": "bool"
        }
      ],
      "stateMutability": "view"
    },
    {
      "type": "function",
      "name": "isStrategyStopped",
      "inputs": [
        {
          "name": "strategyId",
          "type": "uint16",
          "internalType": "uint16"
        }
      ],
      "outputs": [
        {
          "name": "",
          "type": "bool",
          "internalType": "bool"
        }
      ],
      "stateMutability": "view"
    },
    {
      "type": "function",
      "name": "minDeposit",
      "inputs": [
        {
          "name": "token",
          "type": "address",
          "internalType": "address"
        }
      ],
      "outputs": [
        {
          "name": "",
          "type": "uint256",
          "internalType": "uint256"
        }
      ],
      "stateMutability": "view"
    },
    {
      "type": "function",
      "name": "mint",
      "inputs": [
        {
          "name": "strategyId",
          "type": "uint16",
          "internalType": "uint16"
        },
        {
          "name": "quoteToken",
          "type": "address",
          "internalType": "address"
        },
        {
          "name": "baseToken",
          "type": "address",
          "internalType": "address"
        },
        {
          "name": "quoteTokenAmount",
          "type": "uint256",
          "internalType": "uint256"
        }
      ],
      "outputs": [
        {
          "name": "",
          "type": "uint256",
          "internalType": "uint256"
        }
      ],
      "stateMutability": "nonpayable"
    },
    {
      "type": "function",
      "name": "mintTo",
      "inputs": [
        {
          "name": "to",
          "type": "address",
          "internalType": "address"
        },
        {
          "name": "strategyId",
          "type": "uint16",
          "internalType": "uint16"
        },
        {
          "name": "quoteToken",
          "type": "address",
          "internalType": "address"
        },
        {
          "name": "baseToken",
          "type": "address",
          "internalType": "address"
        },
        {
          "name": "quoteTokenAmount",
          "type": "uint256",
          "internalType": "uint256"
        }
      ],
      "outputs": [
        {
          "name": "poolId",
          "type": "uint256",
          "internalType": "uint256"
        }
      ],
      "stateMutability": "nonpayable"
    },
    {
      "type": "function",
      "name": "minter",
      "inputs": [
        {
          "name": "poolId",
          "type": "uint256",
          "internalType": "uint256"
        }
      ],
      "outputs": [
        {
          "name": "",
          "type": "address",
          "internalType": "address"
        }
      ],
      "stateMutability": "view"
    },
    {
      "type": "function",
      "name": "name",
      "inputs": [],
      "outputs": [
        {
          "name": "",
          "type": "string",
          "internalType": "string"
        }
      ],
      "stateMutability": "pure"
    },
    {
      "type": "function",
      "name": "owner",
      "inputs": [],
      "outputs": [
        {
          "name": "",
          "type": "address",
          "internalType": "address payable"
        }
      ],
      "stateMutability": "view"
    },
    {
      "type": "function",
      "name": "ownerOf",
      "inputs": [
        {
          "name": "tokenId",
          "type": "uint256",
          "internalType": "uint256"
        }
      ],
      "outputs": [
        {
          "name": "",
          "type": "address",
          "internalType": "address"
        }
      ],
      "stateMutability": "view"
    },
    {
      "type": "function",
      "name": "pendingOwner",
      "inputs": [],
      "outputs": [
        {
          "name": "",
          "type": "address",
          "internalType": "address payable"
        }
      ],
      "stateMutability": "view"
    },
    {
      "type": "function",
      "name": "poolIds",
      "inputs": [
        {
          "name": "pool",
          "type": "address",
          "internalType": "address"
        }
      ],
      "outputs": [
        {
          "name": "",
          "type": "uint256",
          "internalType": "uint256"
        }
      ],
      "stateMutability": "view"
    },
    {
      "type": "function",
      "name": "poolOwnerShareNumerator",
      "inputs": [],
      "outputs": [
        {
          "name": "",
          "type": "uint16",
          "internalType": "uint16"
        }
      ],
      "stateMutability": "view"
    },
    {
      "type": "function",
      "name": "pools",
      "inputs": [
        {
          "name": "poolId",
          "type": "uint256",
          "internalType": "uint256"
        }
      ],
      "outputs": [
        {
          "name": "",
          "type": "address",
          "internalType": "address"
        }
      ],
      "stateMutability": "view"
    },
    {
      "type": "function",
      "name": "poolsNFTLens",
      "inputs": [],
      "outputs": [
        {
          "name": "",
          "type": "address",
          "internalType": "contract IPoolsNFTLens"
        }
      ],
      "stateMutability": "view"
    },
    {
      "type": "function",
      "name": "rebalance",
      "inputs": [
        {
          "name": "poolId0",
          "type": "uint256",
          "internalType": "uint256"
        },
        {
          "name": "poolId1",
          "type": "uint256",
          "internalType": "uint256"
        },
        {
          "name": "rebalance0",
          "type": "uint8",
          "internalType": "uint8"
        },
        {
          "name": "rebalance1",
          "type": "uint8",
          "internalType": "uint8"
        }
      ],
      "outputs": [],
      "stateMutability": "nonpayable"
    },
    {
      "type": "function",
      "name": "royaltyInfo",
      "inputs": [
        {
          "name": "tokenId",
          "type": "uint256",
          "internalType": "uint256"
        },
        {
          "name": "salePrice",
          "type": "uint256",
          "internalType": "uint256"
        }
      ],
      "outputs": [
        {
          "name": "receiver",
          "type": "address",
          "internalType": "address"
        },
        {
          "name": "royaltyAmount",
          "type": "uint256",
          "internalType": "uint256"
        }
      ],
      "stateMutability": "view"
    },
    {
      "type": "function",
      "name": "royaltyNumerator",
      "inputs": [],
      "outputs": [
        {
          "name": "",
          "type": "uint16",
          "internalType": "uint16"
        }
      ],
      "stateMutability": "view"
    },
    {
      "type": "function",
      "name": "royaltyOwnerShareNumerator",
      "inputs": [],
      "outputs": [
        {
          "name": "",
          "type": "uint16",
          "internalType": "uint16"
        }
      ],
      "stateMutability": "view"
    },
    {
      "type": "function",
      "name": "royaltyPrice",
      "inputs": [
        {
          "name": "poolId",
          "type": "uint256",
          "internalType": "uint256"
        }
      ],
      "outputs": [
        {
          "name": "",
          "type": "uint256",
          "internalType": "uint256"
        }
      ],
      "stateMutability": "view"
    },
    {
      "type": "function",
      "name": "royaltyPriceCompensationShareNumerator",
      "inputs": [],
      "outputs": [
        {
          "name": "",
          "type": "uint16",
          "internalType": "uint16"
        }
      ],
      "stateMutability": "view"
    },
    {
      "type": "function",
      "name": "royaltyPriceOwnerShareNumerator",
      "inputs": [],
      "outputs": [
        {
          "name": "",
          "type": "uint16",
          "internalType": "uint16"
        }
      ],
      "stateMutability": "view"
    },
    {
      "type": "function",
      "name": "royaltyPricePoolOwnerShareNumerator",
      "inputs": [],
      "outputs": [
        {
          "name": "",
          "type": "uint16",
          "internalType": "uint16"
        }
      ],
      "stateMutability": "view"
    },
    {
      "type": "function",
      "name": "royaltyPriceReserveShareNumerator",
      "inputs": [],
      "outputs": [
        {
          "name": "",
          "type": "uint16",
          "internalType": "uint16"
        }
      ],
      "stateMutability": "view"
    },
    {
      "type": "function",
      "name": "royaltyReceiver",
      "inputs": [
        {
          "name": "poolId",
          "type": "uint256",
          "internalType": "uint256"
        }
      ],
      "outputs": [
        {
          "name": "",
          "type": "address",
          "internalType": "address"
        }
      ],
      "stateMutability": "view"
    },
    {
      "type": "function",
      "name": "royaltyReceiverShareNumerator",
      "inputs": [],
      "outputs": [
        {
          "name": "",
          "type": "uint16",
          "internalType": "uint16"
        }
      ],
      "stateMutability": "view"
    },
    {
      "type": "function",
      "name": "royaltyReserveShareNumerator",
      "inputs": [],
      "outputs": [
        {
          "name": "",
          "type": "uint16",
          "internalType": "uint16"
        }
      ],
      "stateMutability": "view"
    },
    {
      "type": "function",
      "name": "safeTransferFrom",
      "inputs": [
        {
          "name": "from",
          "type": "address",
          "internalType": "address"
        },
        {
          "name": "to",
          "type": "address",
          "internalType": "address"
        },
        {
          "name": "tokenId",
          "type": "uint256",
          "internalType": "uint256"
        }
      ],
      "outputs": [],
      "stateMutability": "nonpayable"
    },
    {
      "type": "function",
      "name": "safeTransferFrom",
      "inputs": [
        {
          "name": "from",
          "type": "address",
          "internalType": "address"
        },
        {
          "name": "to",
          "type": "address",
          "internalType": "address"
        },
        {
          "name": "tokenId",
          "type": "uint256",
          "internalType": "uint256"
        },
        {
          "name": "data",
          "type": "bytes",
          "internalType": "bytes"
        }
      ],
      "outputs": [],
      "stateMutability": "nonpayable"
    },
    {
      "type": "function",
      "name": "setAgent",
      "inputs": [
        {
          "name": "_agent",
          "type": "address",
          "internalType": "address"
        },
        {
          "name": "_agentApproval",
          "type": "bool",
          "internalType": "bool"
        }
      ],
      "outputs": [],
      "stateMutability": "nonpayable"
    },
    {
      "type": "function",
      "name": "setApprovalForAll",
      "inputs": [
        {
          "name": "operator",
          "type": "address",
          "internalType": "address"
        },
        {
          "name": "approved",
          "type": "bool",
          "internalType": "bool"
        }
      ],
      "outputs": [],
      "stateMutability": "nonpayable"
    },
    {
      "type": "function",
      "name": "setDepositor",
      "inputs": [
        {
          "name": "poolId",
          "type": "uint256",
          "internalType": "uint256"
        },
        {
          "name": "depositor",
          "type": "address",
          "internalType": "address"
        },
        {
          "name": "_depositorApproval",
          "type": "bool",
          "internalType": "bool"
        }
      ],
      "outputs": [],
      "stateMutability": "nonpayable"
    },
    {
      "type": "function",
      "name": "setGRETH",
      "inputs": [
        {
          "name": "_grETH",
          "type": "address",
          "internalType": "address"
        }
      ],
      "outputs": [],
      "stateMutability": "nonpayable"
    },
    {
      "type": "function",
      "name": "setGRETHShares",
      "inputs": [
        {
          "name": "_grethGrinderShareNumerator",
          "type": "uint16",
          "internalType": "uint16"
        },
        {
          "name": "_grethReserveShareNumerator",
          "type": "uint16",
          "internalType": "uint16"
        },
        {
          "name": "_grethPoolOwnerShareNumerator",
          "type": "uint16",
          "internalType": "uint16"
        },
        {
          "name": "_grethRoyaltyReceiverShareNumerator",
          "type": "uint16",
          "internalType": "uint16"
        }
      ],
      "outputs": [],
      "stateMutability": "nonpayable"
    },
    {
      "type": "function",
      "name": "setGrinderAI",
      "inputs": [
        {
          "name": "_grinderAI",
          "type": "address",
          "internalType": "address"
        }
      ],
      "outputs": [],
      "stateMutability": "nonpayable"
    },
    {
      "type": "function",
      "name": "setMinDeposit",
      "inputs": [
        {
          "name": "token",
          "type": "address",
          "internalType": "address"
        },
        {
          "name": "_minDeposit",
          "type": "uint256",
          "internalType": "uint256"
        }
      ],
      "outputs": [],
      "stateMutability": "nonpayable"
    },
    {
      "type": "function",
      "name": "setPoolsNFTLens",
      "inputs": [
        {
          "name": "_poolsNFTLens",
          "type": "address",
          "internalType": "address"
        }
      ],
      "outputs": [],
      "stateMutability": "nonpayable"
    },
    {
      "type": "function",
      "name": "setRoyaltyPrice",
      "inputs": [
        {
          "name": "poolId",
          "type": "uint256",
          "internalType": "uint256"
        },
        {
          "name": "_royaltyPrice",
          "type": "uint256",
          "internalType": "uint256"
        }
      ],
      "outputs": [],
      "stateMutability": "nonpayable"
    },
    {
      "type": "function",
      "name": "setRoyaltyPriceShares",
      "inputs": [
        {
          "name": "_royaltyPriceCompensationShareNumerator",
          "type": "uint16",
          "internalType": "uint16"
        },
        {
          "name": "_royaltyPriceReserveShareNumerator",
          "type": "uint16",
          "internalType": "uint16"
        },
        {
          "name": "_royaltyPricePoolOwnerShareNumerator",
          "type": "uint16",
          "internalType": "uint16"
        },
        {
          "name": "_royaltyPriceOwnerShareNumerator",
          "type": "uint16",
          "internalType": "uint16"
        }
      ],
      "outputs": [],
      "stateMutability": "nonpayable"
    },
    {
      "type": "function",
      "name": "setRoyaltyShares",
      "inputs": [
        {
          "name": "_poolOwnerRoyaltyShareNumerator",
          "type": "uint16",
          "internalType": "uint16"
        },
        {
          "name": "_royaltyReceiverShareNumerator",
          "type": "uint16",
          "internalType": "uint16"
        },
        {
          "name": "_royaltyReserveShareNumerator",
          "type": "uint16",
          "internalType": "uint16"
        },
        {
          "name": "_royaltyOwnerShareNumerator",
          "type": "uint16",
          "internalType": "uint16"
        }
      ],
      "outputs": [],
      "stateMutability": "nonpayable"
    },
    {
      "type": "function",
      "name": "setStrategyFactory",
      "inputs": [
        {
          "name": "_strategyFactory",
          "type": "address",
          "internalType": "address"
        }
      ],
      "outputs": [],
      "stateMutability": "nonpayable"
    },
    {
      "type": "function",
      "name": "setStrategyStopped",
      "inputs": [
        {
          "name": "strategyId",
          "type": "uint16",
          "internalType": "uint16"
        },
        {
          "name": "_isStrategyStopped",
          "type": "bool",
          "internalType": "bool"
        }
      ],
      "outputs": [],
      "stateMutability": "nonpayable"
    },
    {
      "type": "function",
      "name": "setTokenCap",
      "inputs": [
        {
          "name": "token",
          "type": "address",
          "internalType": "address"
        },
        {
          "name": "_tokenCap",
          "type": "uint256",
          "internalType": "uint256"
        }
      ],
      "outputs": [],
      "stateMutability": "nonpayable"
    },
    {
      "type": "function",
      "name": "strategyFactory",
      "inputs": [
        {
          "name": "strategyId",
          "type": "uint16",
          "internalType": "uint16"
        }
      ],
      "outputs": [
        {
          "name": "",
          "type": "address",
          "internalType": "address"
        }
      ],
      "stateMutability": "view"
    },
    {
      "type": "function",
      "name": "supportsInterface",
      "inputs": [
        {
          "name": "interfaceId",
          "type": "bytes4",
          "internalType": "bytes4"
        }
      ],
      "outputs": [
        {
          "name": "",
          "type": "bool",
          "internalType": "bool"
        }
      ],
      "stateMutability": "view"
    },
    {
      "type": "function",
      "name": "symbol",
      "inputs": [],
      "outputs": [
        {
          "name": "",
          "type": "string",
          "internalType": "string"
        }
      ],
      "stateMutability": "pure"
    },
    {
      "type": "function",
      "name": "tokenByIndex",
      "inputs": [
        {
          "name": "index",
          "type": "uint256",
          "internalType": "uint256"
        }
      ],
      "outputs": [
        {
          "name": "",
          "type": "uint256",
          "internalType": "uint256"
        }
      ],
      "stateMutability": "view"
    },
    {
      "type": "function",
      "name": "tokenCap",
      "inputs": [
        {
          "name": "token",
          "type": "address",
          "internalType": "address"
        }
      ],
      "outputs": [
        {
          "name": "",
          "type": "uint256",
          "internalType": "uint256"
        }
      ],
      "stateMutability": "view"
    },
    {
      "type": "function",
      "name": "tokenOfOwnerByIndex",
      "inputs": [
        {
          "name": "owner",
          "type": "address",
          "internalType": "address"
        },
        {
          "name": "index",
          "type": "uint256",
          "internalType": "uint256"
        }
      ],
      "outputs": [
        {
          "name": "",
          "type": "uint256",
          "internalType": "uint256"
        }
      ],
      "stateMutability": "view"
    },
    {
      "type": "function",
      "name": "tokenURI",
      "inputs": [
        {
          "name": "poolId",
          "type": "uint256",
          "internalType": "uint256"
        }
      ],
      "outputs": [
        {
          "name": "uri",
          "type": "string",
          "internalType": "string"
        }
      ],
      "stateMutability": "view"
    },
    {
      "type": "function",
      "name": "totalDeposited",
      "inputs": [
        {
          "name": "token",
          "type": "address",
          "internalType": "address"
        }
      ],
      "outputs": [
        {
          "name": "",
          "type": "uint256",
          "internalType": "uint256"
        }
      ],
      "stateMutability": "view"
    },
    {
      "type": "function",
      "name": "totalPools",
      "inputs": [],
      "outputs": [
        {
          "name": "",
          "type": "uint256",
          "internalType": "uint256"
        }
      ],
      "stateMutability": "view"
    },
    {
      "type": "function",
      "name": "totalSupply",
      "inputs": [],
      "outputs": [
        {
          "name": "",
          "type": "uint256",
          "internalType": "uint256"
        }
      ],
      "stateMutability": "view"
    },
    {
      "type": "function",
      "name": "transfer",
      "inputs": [
        {
          "name": "to",
          "type": "address",
          "internalType": "address"
        },
        {
          "name": "poolId",
          "type": "uint256",
          "internalType": "uint256"
        }
      ],
      "outputs": [],
      "stateMutability": "nonpayable"
    },
    {
      "type": "function",
      "name": "transferFrom",
      "inputs": [
        {
          "name": "from",
          "type": "address",
          "internalType": "address"
        },
        {
          "name": "to",
          "type": "address",
          "internalType": "address"
        },
        {
          "name": "tokenId",
          "type": "uint256",
          "internalType": "uint256"
        }
      ],
      "outputs": [],
      "stateMutability": "nonpayable"
    },
    {
      "type": "function",
      "name": "transferOwnership",
      "inputs": [
        {
          "name": "newOwner",
          "type": "address",
          "internalType": "address payable"
        }
      ],
      "outputs": [],
      "stateMutability": "nonpayable"
    },
    {
      "type": "function",
      "name": "withdraw",
      "inputs": [
        {
          "name": "poolId",
          "type": "uint256",
          "internalType": "uint256"
        },
        {
          "name": "quoteTokenAmount",
          "type": "uint256",
          "internalType": "uint256"
        }
      ],
      "outputs": [
        {
          "name": "",
          "type": "uint256",
          "internalType": "uint256"
        }
      ],
      "stateMutability": "nonpayable"
    },
    {
      "type": "function",
      "name": "withdrawTo",
      "inputs": [
        {
          "name": "poolId",
          "type": "uint256",
          "internalType": "uint256"
        },
        {
          "name": "to",
          "type": "address",
          "internalType": "address"
        },
        {
          "name": "quoteTokenAmount",
          "type": "uint256",
          "internalType": "uint256"
        }
      ],
      "outputs": [
        {
          "name": "withdrawn",
          "type": "uint256",
          "internalType": "uint256"
        }
      ],
      "stateMutability": "nonpayable"
    },
    {
      "type": "event",
      "name": "Approval",
      "inputs": [
        {
          "name": "owner",
          "type": "address",
          "indexed": true,
          "internalType": "address"
        },
        {
          "name": "approved",
          "type": "address",
          "indexed": true,
          "internalType": "address"
        },
        {
          "name": "tokenId",
          "type": "uint256",
          "indexed": true,
          "internalType": "uint256"
        }
      ],
      "anonymous": false
    },
    {
      "type": "event",
      "name": "ApprovalForAll",
      "inputs": [
        {
          "name": "owner",
          "type": "address",
          "indexed": true,
          "internalType": "address"
        },
        {
          "name": "operator",
          "type": "address",
          "indexed": true,
          "internalType": "address"
        },
        {
          "name": "approved",
          "type": "bool",
          "indexed": false,
          "internalType": "bool"
        }
      ],
      "anonymous": false
    },
    {
      "type": "event",
      "name": "BuyRoyalty",
      "inputs": [
        {
          "name": "poolId",
          "type": "uint256",
          "indexed": false,
          "internalType": "uint256"
        },
        {
          "name": "buyer",
          "type": "address",
          "indexed": false,
          "internalType": "address"
        },
        {
          "name": "paidPrice",
          "type": "uint256",
          "indexed": false,
          "internalType": "uint256"
        }
      ],
      "anonymous": false
    },
    {
      "type": "event",
      "name": "Deposit",
      "inputs": [
        {
          "name": "poolId",
          "type": "uint256",
          "indexed": false,
          "internalType": "uint256"
        },
        {
          "name": "pool",
          "type": "address",
          "indexed": false,
          "internalType": "address"
        },
        {
          "name": "quoteToken",
          "type": "address",
          "indexed": false,
          "internalType": "address"
        },
        {
          "name": "quoteTokenAmount",
          "type": "uint256",
          "indexed": false,
          "internalType": "uint256"
        }
      ],
      "anonymous": false
    },
    {
      "type": "event",
      "name": "Exit",
      "inputs": [
        {
          "name": "poolId",
          "type": "uint256",
          "indexed": false,
          "internalType": "uint256"
        },
        {
          "name": "quoteTokenAmount",
          "type": "uint256",
          "indexed": false,
          "internalType": "uint256"
        },
        {
          "name": "baseTokenAmount",
          "type": "uint256",
          "indexed": false,
          "internalType": "uint256"
        }
      ],
      "anonymous": false
    },
    {
      "type": "event",
      "name": "Grind",
      "inputs": [
        {
          "name": "poolId",
          "type": "uint256",
          "indexed": false,
          "internalType": "uint256"
        },
        {
          "name": "op",
          "type": "uint8",
          "indexed": false,
          "internalType": "uint8"
        },
        {
          "name": "grinder",
          "type": "address",
          "indexed": false,
          "internalType": "address"
        },
        {
          "name": "isGrinded",
          "type": "bool",
          "indexed": false,
          "internalType": "bool"
        }
      ],
      "anonymous": false
    },
    {
      "type": "event",
      "name": "Mint",
      "inputs": [
        {
          "name": "poolId",
          "type": "uint256",
          "indexed": false,
          "internalType": "uint256"
        },
        {
          "name": "baseToken",
          "type": "address",
          "indexed": false,
          "internalType": "address"
        },
        {
          "name": "quoteToken",
          "type": "address",
          "indexed": false,
          "internalType": "address"
        }
      ],
      "anonymous": false
    },
    {
      "type": "event",
      "name": "Rebalance",
      "inputs": [
        {
          "name": "poolId0",
          "type": "uint256",
          "indexed": false,
          "internalType": "uint256"
        },
        {
          "name": "poolId1",
          "type": "uint256",
          "indexed": false,
          "internalType": "uint256"
        }
      ],
      "anonymous": false
    },
    {
      "type": "event",
      "name": "Transfer",
      "inputs": [
        {
          "name": "from",
          "type": "address",
          "indexed": true,
          "internalType": "address"
        },
        {
          "name": "to",
          "type": "address",
          "indexed": true,
          "internalType": "address"
        },
        {
          "name": "tokenId",
          "type": "uint256",
          "indexed": true,
          "internalType": "uint256"
        }
      ],
      "anonymous": false
    },
    {
      "type": "event",
      "name": "Withdraw",
      "inputs": [
        {
          "name": "poolId",
          "type": "uint256",
          "indexed": false,
          "internalType": "uint256"
        },
        {
          "name": "to",
          "type": "address",
          "indexed": false,
          "internalType": "address"
        },
        {
          "name": "quoteToken",
          "type": "address",
          "indexed": false,
          "internalType": "address"
        },
        {
          "name": "quoteTokenAmount",
          "type": "uint256",
          "indexed": false,
          "internalType": "uint256"
        }
      ],
      "anonymous": false
    },
    {
      "type": "error",
      "name": "DifferentBaseTokens",
      "inputs": []
    },
    {
      "type": "error",
      "name": "DifferentOwnersOfPools",
      "inputs": []
    },
    {
      "type": "error",
      "name": "DifferentQuoteTokens",
      "inputs": []
    },
    {
      "type": "error",
      "name": "ERC721EnumerableForbiddenBatchMint",
      "inputs": []
    },
    {
      "type": "error",
      "name": "ERC721IncorrectOwner",
      "inputs": [
        {
          "name": "sender",
          "type": "address",
          "internalType": "address"
        },
        {
          "name": "tokenId",
          "type": "uint256",
          "internalType": "uint256"
        },
        {
          "name": "owner",
          "type": "address",
          "internalType": "address"
        }
      ]
    },
    {
      "type": "error",
      "name": "ERC721InsufficientApproval",
      "inputs": [
        {
          "name": "operator",
          "type": "address",
          "internalType": "address"
        },
        {
          "name": "tokenId",
          "type": "uint256",
          "internalType": "uint256"
        }
      ]
    },
    {
      "type": "error",
      "name": "ERC721InvalidApprover",
      "inputs": [
        {
          "name": "approver",
          "type": "address",
          "internalType": "address"
        }
      ]
    },
    {
      "type": "error",
      "name": "ERC721InvalidOperator",
      "inputs": [
        {
          "name": "operator",
          "type": "address",
          "internalType": "address"
        }
      ]
    },
    {
      "type": "error",
      "name": "ERC721InvalidOwner",
      "inputs": [
        {
          "name": "owner",
          "type": "address",
          "internalType": "address"
        }
      ]
    },
    {
      "type": "error",
      "name": "ERC721InvalidReceiver",
      "inputs": [
        {
          "name": "receiver",
          "type": "address",
          "internalType": "address"
        }
      ]
    },
    {
      "type": "error",
      "name": "ERC721InvalidSender",
      "inputs": [
        {
          "name": "sender",
          "type": "address",
          "internalType": "address"
        }
      ]
    },
    {
      "type": "error",
      "name": "ERC721NonexistentToken",
      "inputs": [
        {
          "name": "tokenId",
          "type": "uint256",
          "internalType": "uint256"
        }
      ]
    },
    {
      "type": "error",
      "name": "ERC721OutOfBoundsIndex",
      "inputs": [
        {
          "name": "owner",
          "type": "address",
          "internalType": "address"
        },
        {
          "name": "index",
          "type": "uint256",
          "internalType": "uint256"
        }
      ]
    },
    {
      "type": "error",
      "name": "ExceededDepositCap",
      "inputs": []
    },
    {
      "type": "error",
      "name": "InsufficientDeposit",
      "inputs": []
    },
    {
      "type": "error",
      "name": "InsufficientRoyaltyPrice",
      "inputs": []
    },
    {
      "type": "error",
      "name": "InvalidGRETHShares",
      "inputs": []
    },
    {
      "type": "error",
      "name": "InvalidOp",
      "inputs": []
    },
    {
      "type": "error",
      "name": "InvalidRoyaltyNumerator",
      "inputs": []
    },
    {
      "type": "error",
      "name": "InvalidRoyaltyPriceShare",
      "inputs": []
    },
    {
      "type": "error",
      "name": "InvalidRoyaltyShares",
      "inputs": []
    },
    {
      "type": "error",
      "name": "NoCapital",
      "inputs": []
    },
    {
      "type": "error",
      "name": "NotAgent",
      "inputs": []
    },
    {
      "type": "error",
      "name": "NotDepositor",
      "inputs": []
    },
    {
      "type": "error",
      "name": "NotMatchPoolsNFT",
      "inputs": []
    },
    {
      "type": "error",
      "name": "NotOwner",
      "inputs": []
    },
    {
      "type": "error",
      "name": "NotOwnerOf",
      "inputs": []
    },
    {
      "type": "error",
      "name": "NotOwnerOrPending",
      "inputs": []
    },
    {
      "type": "error",
      "name": "NotStrategiest",
      "inputs": []
    },
    {
      "type": "error",
      "name": "ReentrancyGuardReentrantCall",
      "inputs": []
    },
    {
      "type": "error",
      "name": "SafeERC20FailedOperation",
      "inputs": [
        {
          "name": "token",
          "type": "address",
          "internalType": "address"
        }
      ]
    },
    {
      "type": "error",
      "name": "StrategyStopped",
      "inputs": []
    },
    {
      "type": "error",
      "name": "ZeroNewRoyaltyPrice",
      "inputs": []
    }
  ],
  "bytecode": {
    "object": "0x608060405234801561000f575f5ffd5b5060408051602080820183525f8083528351918201909352828152909161003683826102bb565b50600161004382826102bb565b50506001600a55505f600e55600c80546001600160a01b0319908116909155600d8054339216919091179055600b80546001600160401b031916666401f40064277417908190556127109061ffff6601000000000000820481169164010000000081048216916100bc9162010000900416612774610375565b6100c69190610375565b6100d09190610375565b61ffff16116100dd575f5ffd5b600b8054600160401b600160801b0319166f012c00c805dc1f40000000000000000017908190556127109061ffff600160701b82048116916c010000000000000000000000008104821691610150916a010000000000000000000081048216916801000000000000000090910416610375565b61015a9190610375565b6101649190610375565b61ffff1614610171575f5ffd5b600b8054600160801b600160d01b031916681f401f403e81f4007d60841b1790819055612710906101b69061ffff600160901b8204811691600160801b900416610375565b61ffff16146101c3575f5ffd5b600b546127109061ffff600160c01b8204811691600160b01b81048216916101fd91600160a01b8104821691600160901b90910416610375565b6102079190610375565b6102119190610375565b61ffff161461021e575f5ffd5b6103a1565b634e487b7160e01b5f52604160045260245ffd5b600181811c9082168061024b57607f821691505b60208210810361026957634e487b7160e01b5f52602260045260245ffd5b50919050565b601f8211156102b657805f5260205f20601f840160051c810160208510156102945750805b601f840160051c820191505b818110156102b3575f81556001016102a0565b50505b505050565b81516001600160401b038111156102d4576102d4610223565b6102e8816102e28454610237565b8461026f565b6020601f82116001811461031a575f83156103035750848201515b5f19600385901b1c1916600184901b1784556102b3565b5f84815260208120601f198516915b828110156103495787850151825560209485019460019092019101610329565b508482101561036657868401515f19600387901b60f8161c191681555b50505050600190811b01905550565b61ffff818116838216019081111561039b57634e487b7160e01b5f52601160045260245ffd5b92915050565b615c5e806103ae5f395ff3fe6080604052600436106104ea575f3560e01c8063849784d411610283578063c0b7b57811610155578063e2bbb158116100c9578063ef38e4e311610083578063ef38e4e314611293578063f059deb2146112df578063f2602720146112fe578063f2fde38b1461131d578063f788a7fb1461133c578063f92989281461135b575f5ffd5b8063e2bbb158146111b3578063e30c3978146111d2578063e60ed1f3146111f1578063e985e9c514611212578063ea85781d14611231578063eb9b79861461125f575f5ffd5b8063caa7262b1161011a578063caa7262b146110f7578063cdb0d02314611116578063ce33939514611135578063d4175be214611156578063dc49b19014611181578063dec3971514611194575f5ffd5b8063c0b7b57814611041578063c0b929e614611060578063c87b56dd1461107f578063c8b7cdb51461109e578063ca05262b146110d8575f5ffd5b8063a81b2f8d116101f7578063ac8d856c116101b1578063ac8d856c14610f6e578063b2d5cca714610fa2578063b362893214610fc1578063b61d27f614610fe2578063b88d4fde14611001578063bfe121e514611020575f5ffd5b8063a81b2f8d14610e61578063a8c9d30414610eba578063a9059cbb14610ee7578063a93d57a114610f06578063ab3c7e5214610f25578063ac4afa3814610f3a575f5ffd5b806395d89b411161024857806395d89b4114610d4657806397d8c67614610d7d57806398ac325514610dce578063a22cb46514610ded578063a238310614610e0c578063a5352bfd14610e42575f5ffd5b8063849784d414610cb55780638da5cb5b14610cd45780638e22e7c314610cf3578063912d1a8614610d12578063918f867414610d31575f5ffd5b806336e68f54116103bc5780635cd2dd5e116103305780636d3a87db116102ea5780636d3a87db14610bd55780636db47de914610bf657806370a0823114610c24578063755b916214610c435780637bcd4ff014610c6b5780637f8661a114610c96575f5ffd5b80635cd2dd5e14610abe5780635d2d192014610af25780635db4474414610b115780636352211e14610b30578063685fb6da14610b4f5780636c0360eb14610bc1575f5ffd5b80634f6ccce7116103815780634f6ccce7146109f55780634f99f04a14610a145780635305548114610a3657806355b2d01e14610a61578063592ae17f14610a805780635b71ecb514610a9f575f5ffd5b806336e68f541461094157806337566d541461096d5780633c29f8391461098c57806342842e0e146109b7578063441a3e70146109d6575f5ffd5b80631927c4ea1161045e5780632a55205a116104185780632a55205a1461085b5780632bb80474146108995780632f745c59146108ba57806330e00596146108d9578063352333f21461090657806336b02baf14610920575f5ffd5b80631927c4ea146107935780631d47e4a3146107b457806323b872dd146107d357806326ca015a146107f257806327f8cabb1461081d5780632980b2ff1461083c575f5ffd5b80630861751f116104af5780630861751f146106cc578063095ea7b3146106eb57806309dbb6ea1461070a5780630cccd8881461072957806318160ddd14610756578063184b955914610774575f5ffd5b806301ffc9a7146105be57806304f6430e146105f2578063053604ed1461062657806306fdde0314610647578063081812fc14610695575f5ffd5b366105ba5734156105b8576010545f906001600160a01b031661056157600d546040516001600160a01b039091169034905f81818185875af1925050503d805f8114610551576040519150601f19603f3d011682016040523d82523d5f602084013e610556565b606091505b5050809150506105b6565b6010546040516001600160a01b039091169034905f81818185875af1925050503d805f81146105ab576040519150601f19603f3d011682016040523d82523d5f602084013e6105b0565b606091505b50909150505b505b005b5f5ffd5b3480156105c9575f5ffd5b506105dd6105d83660046148da565b61137b565b60405190151581526020015b60405180910390f35b3480156105fd575f5ffd5b50600b5461061390600160401b900461ffff1681565b60405161ffff90911681526020016105e9565b348015610631575f5ffd5b50600b5461061390600160a01b900461ffff1681565b348015610652575f5ffd5b5060408051808201909152601a81527f4772696e645552555320506f6f6c7320436f6c6c656374696f6e00000000000060208201525b6040516105e99190614923565b3480156106a0575f5ffd5b506106b46106af366004614935565b61138b565b6040516001600160a01b0390911681526020016105e9565b3480156106d7575f5ffd5b506105b86106e6366004614960565b6113b2565b3480156106f6575f5ffd5b506105b861070536600461497b565b611461565b348015610715575f5ffd5b506105dd610724366004614935565b611470565b348015610734575f5ffd5b50610748610743366004614960565b61147b565b6040516105e99291906149df565b348015610761575f5ffd5b506008545b6040519081526020016105e9565b34801561077f575f5ffd5b506105b861078e3660046149f7565b61153b565b34801561079e575f5ffd5b50600b5461061390600160601b900461ffff1681565b3480156107bf575f5ffd5b506105b86107ce36600461497b565b6115b9565b3480156107de575f5ffd5b506105b86107ed366004614a3f565b6115dc565b3480156107fd575f5ffd5b5061076661080c366004614935565b60156020525f908152604090205481565b348015610828575f5ffd5b506105b8610837366004614a8c565b61166a565b348015610847575f5ffd5b506011546106b4906001600160a01b031681565b348015610866575f5ffd5b5061087a610875366004614ae5565b61173f565b604080516001600160a01b0390931683526020830191909152016105e9565b3480156108a4575f5ffd5b50600b5461061390600160801b900461ffff1681565b3480156108c5575f5ffd5b506107666108d436600461497b565b61177e565b3480156108e4575f5ffd5b506108f86108f3366004614935565b6117e1565b6040516105e9929190614b59565b348015610911575f5ffd5b50600b546106139061ffff1681565b34801561092b575f5ffd5b50600b5461061390600160301b900461ffff1681565b34801561094c575f5ffd5b5061096061095b366004614c4a565b6118e2565b6040516105e99190614cd5565b348015610978575f5ffd5b50610766610987366004614f71565b611954565b348015610997575f5ffd5b506107666109a6366004614960565b601b6020525f908152604090205481565b3480156109c2575f5ffd5b506105b86109d1366004614a3f565b61196b565b3480156109e1575f5ffd5b506107666109f0366004614ae5565b61198a565b348015610a00575f5ffd5b50610766610a0f366004614935565b61199d565b348015610a1f575f5ffd5b50600b5461061390640100000000900461ffff1681565b348015610a41575f5ffd5b50610766610a50366004614960565b601a6020525f908152604090205481565b348015610a6c575f5ffd5b506105b8610a7b366004614fcc565b6119f2565b348015610a8b575f5ffd5b50610766610a9a366004615003565b611a1f565b348015610aaa575f5ffd5b506106b4610ab9366004614935565b611ba9565b348015610ac9575f5ffd5b506106b4610ad8366004614935565b60146020525f90815260409020546001600160a01b031681565b348015610afd575f5ffd5b506105b8610b0c366004615063565b611bd3565b348015610b1c575f5ffd5b506105b8610b2b3660046150a5565b611c34565b348015610b3b575f5ffd5b506106b4610b4a366004614935565b612268565b348015610b5a575f5ffd5b50610b6e610b69366004614935565b612272565b604080519b8c5260208c019a909a52988a01979097526060890195909552608088019390935260a087019190915260c086015260e0850152610100840152610120830152610140820152610160016105e9565b348015610bcc575f5ffd5b50610688612317565b348015610be0575f5ffd5b50600b5461061390600160b01b900461ffff1681565b348015610c01575f5ffd5b506105dd610c103660046150e1565b60136020525f908152604090205460ff1681565b348015610c2f575f5ffd5b50610766610c3e366004614960565b61238a565b610c56610c51366004614935565b6123cf565b604080519283526020830191909152016105e9565b348015610c76575f5ffd5b50610766610c85366004614960565b601c6020525f908152604090205481565b348015610ca1575f5ffd5b50610c56610cb0366004614935565b6123db565b348015610cc0575f5ffd5b506105dd610ccf3660046150fc565b612561565b348015610cdf575f5ffd5b50600d546106b4906001600160a01b031681565b348015610cfe575f5ffd5b50600f546106b4906001600160a01b031681565b348015610d1d575f5ffd5b506105b8610d2c36600461497b565b6125d0565b348015610d3c575f5ffd5b5061061361271081565b348015610d51575f5ffd5b5060408051808201909152600f81526e4752494e44555255535f504f4f4c5360881b6020820152610688565b348015610d88575f5ffd5b506105b8610d9736600461511f565b335f908152601e602090815260408083206001600160a01b0395909516835293905291909120805460ff1916911515919091179055565b348015610dd9575f5ffd5b506105b8610de8366004614960565b6125f3565b348015610df8575f5ffd5b506105b8610e0736600461511f565b612654565b348015610e17575f5ffd5b50610766610e263660046150fc565b601960209081525f928352604080842090915290825290205481565b348015610e4d575f5ffd5b506105b8610e5c366004614960565b61265f565b348015610e6c575f5ffd5b50610e80610e7b366004614935565b61270e565b6040805160ff9889168152979096166020880152948601939093526060850191909152608084015260a083015260c082015260e0016105e9565b348015610ec5575f5ffd5b50610ed9610ed4366004614ae5565b61279c565b6040516105e992919061513b565b348015610ef2575f5ffd5b506105b8610f0136600461497b565b612a31565b348015610f11575f5ffd5b506010546106b4906001600160a01b031681565b348015610f30575f5ffd5b50610766600e5481565b348015610f45575f5ffd5b506106b4610f54366004614935565b60176020525f90815260409020546001600160a01b031681565b348015610f79575f5ffd5b506106b4610f88366004614935565b60166020525f90815260409020546001600160a01b031681565b348015610fad575f5ffd5b506105dd610fbc3660046150fc565b612a3c565b348015610fcc575f5ffd5b50600b5461061390600160701b900461ffff1681565b348015610fed575f5ffd5b506105b8610ffc366004615204565b612b55565b34801561100c575f5ffd5b506105b861101b366004615258565b612bbf565b34801561102b575f5ffd5b50600b5461061390600160c01b900461ffff1681565b34801561104c575f5ffd5b506105dd61105b3660046152bf565b612bd7565b34801561106b575f5ffd5b506105b861107a366004614a8c565b612e3c565b34801561108a575f5ffd5b50610688611099366004614935565b612ec6565b3480156110a9575f5ffd5b506110bd6110b8366004614935565b612f3f565b604080519384526020840192909252908201526060016105e9565b3480156110e3575f5ffd5b506105b86110f2366004614a8c565b612fbb565b348015611102575f5ffd5b506107666111113660046152e3565b613074565b348015611121575f5ffd5b506105dd611130366004615307565b6131ff565b348015611140575f5ffd5b50600b5461061390600160501b900461ffff1681565b348015611161575f5ffd5b50610766611170366004614960565b60186020525f908152604090205481565b610c5661118f3660046150fc565b61329a565b34801561119f575f5ffd5b50610ed96111ae366004615333565b61344d565b3480156111be575f5ffd5b506107666111cd366004614ae5565b6136ee565b3480156111dd575f5ffd5b50600c546106b4906001600160a01b031681565b3480156111fc575f5ffd5b50600b5461061390600160901b900461ffff1681565b34801561121d575f5ffd5b506105dd61122c366004615307565b613720565b34801561123c575f5ffd5b506105dd61124b366004614960565b601d6020525f908152604090205460ff1681565b34801561126a575f5ffd5b506106b46112793660046150e1565b60126020525f90815260409020546001600160a01b031681565b34801561129e575f5ffd5b506112b26112ad366004614935565b61374d565b604080519687526020870195909552938501929092526060840152608083015260a082015260c0016105e9565b3480156112ea575f5ffd5b506105dd6112f936600461535e565b613830565b348015611309575f5ffd5b506105b8611318366004614960565b61383c565b348015611328575f5ffd5b506105b8611337366004614960565b61389d565b348015611347575f5ffd5b506105b8611356366004614ae5565b613922565b348015611366575f5ffd5b50600b546106139062010000900461ffff1681565b5f6113858261395e565b92915050565b5f61139582613982565b505f828152600460205260409020546001600160a01b0316611385565b6113ba6139ba565b601080546001600160a01b0319166001600160a01b0383169081179091556040805163154982b960e21b815290513092916355260ae49160048083019260209291908290030181865afa158015611413573d5f5f3e3d5ffd5b505050506040513d601f19601f820116820180604052508101906114379190615381565b6001600160a01b03161461145e57604051630efe13f560e21b815260040160405180910390fd5b50565b61146c8282336139e7565b5050565b5f6113858233612a3c565b5f60606114878361238a565b9150815f036114b8576040805160018082528183019092525f91602080830190803683370190505091509150915091565b5f826001600160401b038111156114d1576114d1614b76565b6040519080825280602002602001820160405280156114fa578160200160208202803683370190505b5091505b8281101561153557611510848261177e565b8282815181106115225761152261539c565b60209081029190910101526001016114fe565b50915091565b600f546001600160a01b031615801561155d57506010546001600160a01b0316155b801561157257506011546001600160a01b0316155b61157a575f5ffd5b600f80546001600160a01b039485166001600160a01b031991821617909155601080549385169382169390931790925560118054919093169116179055565b6115c16139ba565b6001600160a01b039091165f908152601c6020526040902055565b6001600160a01b03821661160a57604051633250574960e11b81525f60048201526024015b60405180910390fd5b5f6116168383336139f4565b9050836001600160a01b0316816001600160a01b031614611664576040516364283d7b60e01b81526001600160a01b0380861660048301526024820184905282166044820152606401611601565b50505050565b6116726139ba565b612710818361168186886153c4565b61168b91906153c4565b61169591906153c4565b61ffff16146116b757604051631be3f71160e01b815260040160405180910390fd5b6116c3846127106153de565b600b805463ffffffff60801b1916600160801b61ffff9384160261ffff60901b191617600160901b968316969096029590951763ffffffff60a01b1916600160a01b9482169490940261ffff60b01b191693909317600160b01b928416929092029190911761ffff60c01b1916600160c01b9190921602179055565b5f808361174b81611ba9565b600b549093506127109061176a90600160801b900461ffff16866153f8565b611774919061540f565b9150509250929050565b5f6117888361238a565b82106117b95760405163295f44f760e21b81526001600160a01b038416600482015260248101839052604401611601565b506001600160a01b03919091165f908152600660209081526040808320938352929052205490565b6118276040518061010001604052805f60ff1681526020015f60ff1681526020015f81526020015f81526020015f81526020015f81526020015f81526020015f81525090565b61186d6040518061010001604052805f60ff1681526020015f60ff1681526020015f81526020015f81526020015f81526020015f81526020015f81526020015f81525090565b600f5460405163187002cb60e11b8152600481018590526001600160a01b03909116906330e005969060240161020060405180830381865afa1580156118b5573d5f5f3e3d5ffd5b505050506040513d601f19601f820116820180604052508101906118d991906154b6565b91509150915091565b600f54604051630db9a3d560e21b81526060916001600160a01b0316906336e68f54906119139085906004016154eb565b5f60405180830381865afa15801561192d573d5f5f3e3d5ffd5b505050506040513d5f823e601f3d908101601f1916820160405261138591908101906156cb565b5f6119623386868686611a1f565b95945050505050565b61198583838360405180602001604052805f815250612bbf565b505050565b5f611996833384613074565b9392505050565b5f6119a760085490565b82106119cf5760405163295f44f760e21b81525f600482015260248101839052604401611601565b600882815481106119e2576119e261539c565b905f5260205f2001549050919050565b6119fa6139ba565b61ffff919091165f908152601360205260409020805460ff1916911515919091179055565b61ffff84165f9081526013602052604081205460ff1615611a53576040516326d25d2560e21b815260040160405180910390fd5b50600e5461ffff85165f90815260126020526040808220549051634a217eb160e11b8152600481018490526001600160a01b038781166024830152868116604483015290911690639442fd62906064016020604051808303815f875af1158015611abf573d5f5f3e3d5ffd5b505050506040513d601f19601f82011682018060405250810190611ae39190615381565b5f83815260166020908152604080832080546001600160a01b031990811633179091556017835281842080546001600160a01b0387169216821790558352601890915290208390559050611b378783613ac7565b600e8054905f611b468361597e565b9091555050604080518381526001600160a01b03868116602083015287168183015290517f3794f7f7a2011a8e813b6d89dbacb3d42f6810b632e735dc2eab8628afdb77d99181900360600190a1611b9e8284613b28565b505095945050505050565b5f818152601460205260409020546001600160a01b031680611bce5761138582612268565b919050565b611bdc83613cdf565b5f838152601f602052604081208291611bf486612268565b6001600160a01b03908116825260208083019390935260409182015f90812096909116815294909152909220805460ff1916921515929092179091555050565b611c3d83612268565b6001600160a01b0316611c4f85612268565b6001600160a01b031614611c765760405163df870c7560e01b815260040160405180910390fd5b611c88611c8285612268565b336131ff565b611ca557604051630d9ab13f60e01b815260040160405180910390fd5b5f8481526017602090815260408083205486845292819020548151630217a4b760e41b815291516001600160a01b039485169490911692839263217a4b7092600480830193928290030181865afa158015611d02573d5f5f3e3d5ffd5b505050506040513d601f19601f82011682018060405250810190611d269190615381565b6001600160a01b0316826001600160a01b031663217a4b706040518163ffffffff1660e01b8152600401602060405180830381865afa158015611d6b573d5f5f3e3d5ffd5b505050506040513d601f19601f82011682018060405250810190611d8f9190615381565b6001600160a01b031614611db657604051637e8e016160e01b815260040160405180910390fd5b806001600160a01b031663c55dae636040518163ffffffff1660e01b8152600401602060405180830381865afa158015611df2573d5f5f3e3d5ffd5b505050506040513d601f19601f82011682018060405250810190611e169190615381565b6001600160a01b0316826001600160a01b031663c55dae636040518163ffffffff1660e01b8152600401602060405180830381865afa158015611e5b573d5f5f3e3d5ffd5b505050506040513d601f19601f82011682018060405250810190611e7f9190615381565b6001600160a01b031614611ea6576040516310ce201360e31b815260040160405180910390fd5b5f5f836001600160a01b031663c0b538f86040518163ffffffff1660e01b815260040160408051808303815f875af1158015611ee4573d5f5f3e3d5ffd5b505050506040513d601f19601f82011682018060405250810190611f089190615996565b91509150611f83843084876001600160a01b031663c55dae636040518163ffffffff1660e01b8152600401602060405180830381865afa158015611f4e573d5f5f3e3d5ffd5b505050506040513d601f19601f82011682018060405250810190611f729190615381565b6001600160a01b0316929190613d19565b5f5f846001600160a01b031663c0b538f86040518163ffffffff1660e01b815260040160408051808303815f875af1158015611fc1573d5f5f3e3d5ffd5b505050506040513d601f19601f82011682018060405250810190611fe59190615996565b9150915061202b853084886001600160a01b031663c55dae636040518163ffffffff1660e01b8152600401602060405180830381865afa158015611f4e573d5f5f3e3d5ffd5b5f61203683866159b8565b90505f8161204484866153f8565b61204e87896153f8565b61205891906159b8565b612062919061540f565b90505f61206f8a8c6159cb565b60ff16838c60ff1661208191906153f8565b61208b919061540f565b90505f61209882856159e4565b90508115612115576121158a838c6001600160a01b031663c55dae636040518163ffffffff1660e01b8152600401602060405180830381865afa1580156120e1573d5f5f3e3d5ffd5b505050506040513d601f19601f820116820180604052508101906121059190615381565b6001600160a01b03169190613d80565b60405163d3a2750f60e01b815260048101839052602481018490526001600160a01b038b169063d3a2750f906044015f604051808303815f87803b15801561215b575f5ffd5b505af115801561216d573d5f5f3e3d5ffd5b505050505f8111156121ba576121ba89828b6001600160a01b031663c55dae636040518163ffffffff1660e01b8152600401602060405180830381865afa1580156120e1573d5f5f3e3d5ffd5b60405163d3a2750f60e01b815260048101829052602481018490526001600160a01b038a169063d3a2750f906044015f604051808303815f87803b158015612200575f5ffd5b505af1158015612212573d5f5f3e3d5ffd5b505050507f0b33d39bbef101ecc4f5ef04e6d3a125c9fb745a418dac380e2a9460f8200dc88e8e604051612250929190918252602082015260400190565b60405180910390a15050505050505050505050505050565b5f61138582613982565b600f5460405163342fdb6d60e11b8152600481018390525f9182918291829182918291829182918291829182916001600160a01b03169063685fb6da9060240161016060405180830381865afa1580156122ce573d5f5f3e3d5ffd5b505050506040513d601f19601f820116820180604052508101906122f291906159f7565b9a509a509a509a509a509a509a509a509a509a509a5091939597999b90929496989a50565b600f5460408051636c0360eb60e01b815290516060926001600160a01b031691636c0360eb916004808301925f9291908290030181865afa15801561235e573d5f5f3e3d5ffd5b505050506040513d5f823e601f3d908101601f191682016040526123859190810190615aa6565b905090565b5f6001600160a01b0382166123b4576040516322718ad960e21b81525f6004820152602401611601565b506001600160a01b03165f9081526003602052604090205490565b5f5f6118d9833361329a565b5f5f6123e683613cdf565b5f838152601760205260408082205481516374fd6c7760e11b815282516001600160a01b0390921693849363e9fad8ee936004808501949293919283900301908290875af115801561243a573d5f5f3e3d5ffd5b505050506040513d601f19601f8201168201806040525081019061245e9190615996565b80935081945050505f816001600160a01b031663217a4b706040518163ffffffff1660e01b8152600401602060405180830381865afa1580156124a3573d5f5f3e3d5ffd5b505050506040513d601f19601f820116820180604052508101906124c79190615381565b5f8681526019602090815260408083206001600160a01b03851684529091529020549091506124f7908290613e0f565b5f8581526019602090815260408083206001600160a01b038516845282528083209290925581518781529081018690529081018490527f2517b7e41eaf162b9731c79972aca29f825cb18a4db86c56de7e89edb381d72b9060600160405180910390a15050915091565b5f816001600160a01b031661257584612268565b6001600160a01b0316148061199657505f838152601f602052604081209061259c85612268565b6001600160a01b03908116825260208083019390935260409182015f9081209186168152925290205460ff16905092915050565b6125d86139ba565b6001600160a01b039091165f908152601b6020526040902055565b6125fb6139ba565b601180546001600160a01b0319166001600160a01b0383169081179091556040805163154982b960e21b815290513092916355260ae49160048083019260209291908290030181865afa158015611413573d5f5f3e3d5ffd5b61146c338383613e7a565b6126676139ba565b5f816001600160a01b031663492f4e186040518163ffffffff1660e01b8152600401602060405180830381865afa1580156126a4573d5f5f3e3d5ffd5b505050506040513d601f19601f820116820180604052508101906126c89190615ad7565b61ffff165f90815260126020908152604080832080546001600160a01b0319166001600160a01b0396909616959095179094556013905291909120805460ff1916905550565b600f5460405163a81b2f8d60e01b8152600481018390525f918291829182918291829182916001600160a01b03169063a81b2f8d9060240160e060405180830381865afa158015612761573d5f5f3e3d5ffd5b505050506040513d601f19601f820116820180604052508101906127859190615af2565b959e949d50929b5090995097509550909350915050565b60408051600480825260a0820190925260609182919060208201608080368337505060408051600480825260a082019092529294509050602082016080803683370190505090506127ec84612268565b825f815181106127fe576127fe61539c565b60200260200101906001600160a01b031690816001600160a01b03168152505061282784611ba9565b8260018151811061283a5761283a61539c565b6001600160a01b0392831660209182029290920101526010541661286957600d546001600160a01b0316612876565b6010546001600160a01b03165b826002815181106128895761288961539c565b6001600160a01b039283166020918202929092010152600d548351911690839060039081106128ba576128ba61539c565b6001600160a01b0390921660209283029190910190910152600b546127109081906128f090600160901b900461ffff16866153f8565b6128fa919061540f565b825f8151811061290c5761290c61539c565b6020908102919091010152600b54819061293190600160a01b900461ffff16866153f8565b61293b919061540f565b8260018151811061294e5761294e61539c565b6020908102919091010152600b54819061297390600160b01b900461ffff16866153f8565b61297d919061540f565b826002815181106129905761299061539c565b602002602001018181525050816002815181106129af576129af61539c565b6020026020010151826001815181106129ca576129ca61539c565b6020026020010151835f815181106129e4576129e461539c565b60200260200101516129f691906159b8565b612a0091906159b8565b612a0a90856159e4565b82600381518110612a1d57612a1d61539c565b602002602001018181525050509250929050565b61146c338383613f18565b5f5f5a5f858152601760205260409020549091506001600160a01b0316612a6281613fc5565b806001600160a01b0316633d1f89026040518163ffffffff1660e01b81526004016020604051808303815f875af1925050508015612abd575060408051601f3d908101601f19168201909252612aba91810190615b54565b60015b612ac9575f9250612acc565b92505b8215612af8575f3a5a612adf90856159e4565b612ae991906153f8565b9050612af6868287614044565b505b6040805186815260ff60208201526001600160a01b0386169181019190915283151560608201527f728e60bec920c5a528246fdd7c4d3ec6f0ec45bca3edf44894b3dd71d5ce7d53906080015b60405180910390a1505092915050565b612b5d6139ba565b5f836001600160a01b03168383604051612b779190615b6f565b5f6040518083038185875af1925050503d805f8114612bb1576040519150601f19603f3d011682016040523d82523d5f602084013e612bb6565b606091505b50505050505050565b612bca8484846115dc565b61166433858585856140d0565b5f5f5a5f868152601760205260409020549091506001600160a01b0316612bfd81613fc5565b60ff8516612c6f57806001600160a01b0316636d145ec56040518163ffffffff1660e01b815260040160408051808303815f875af1925050508015612c5f575060408051601f3d908101601f19168201909252612c5c91810190615996565b60015b15612db057505060019250612db0565b5f1960ff861601612cd157806001600160a01b031663bd2ad6bf6040518163ffffffff1660e01b815260040160408051808303815f875af1925050508015612c5f575060408051601f3d908101601f19168201909252612c5c91810190615996565b60011960ff861601612d3457806001600160a01b031663cdc6d97c6040518163ffffffff1660e01b815260040160408051808303815f875af1925050508015612c5f575060408051601f3d908101601f19168201909252612c5c91810190615996565b60021960ff861601612d9757806001600160a01b0316632b6010a76040518163ffffffff1660e01b815260040160408051808303815f875af1925050508015612c5f575060408051601f3d908101601f19168201909252612c5c91810190615996565b6040516393c19f6160e01b815260040160405180910390fd5b8215612ddc575f3a5a612dc390856159e4565b612dcd91906153f8565b9050612dda878287614044565b505b6040805187815260ff871660208201526001600160a01b0386169181019190915283151560608201527f728e60bec920c5a528246fdd7c4d3ec6f0ec45bca3edf44894b3dd71d5ce7d53906080015b60405180910390a150509392505050565b612e446139ba565b61271061ffff851611612e6a57604051635072aad360e11b815260040160405180910390fd5b600b805461ffff95861663ffffffff199091161762010000948616949094029390931767ffffffff0000000019166401000000009285169290920267ffff000000000000191691909117600160301b9190931602919091179055565b6060612ed182613982565b50600f5460405163c87b56dd60e01b8152600481018490526001600160a01b039091169063c87b56dd906024015f60405180830381865afa158015612f18573d5f5f3e3d5ffd5b505050506040513d5f823e601f3d908101601f191682016040526113859190810190615aa6565b600f5460405163c8b7cdb560e01b8152600481018390525f91829182916001600160a01b03169063c8b7cdb590602401606060405180830381865afa158015612f8a573d5f5f3e3d5ffd5b505050506040513d601f19601f82011682018060405250810190612fae9190615b85565b9250925092509193909250565b612fc36139ba565b6127108183612fd286886153c4565b612fdc91906153c4565b612fe691906153c4565b61ffff1614613008576040516329a8e02f60e21b815260040160405180910390fd5b600b80546bffffffff00000000000000001916600160401b61ffff9687160261ffff60501b191617600160501b948616949094029390931763ffffffff60601b1916600160601b9285169290920261ffff60701b191691909117600160701b9190931602919091179055565b5f61307e84613cdf565b5f848152601760209081526040808320548151630217a4b760e41b815291516001600160a01b039091169392849263217a4b7092600480830193928290030181865afa1580156130d0573d5f5f3e3d5ffd5b505050506040513d601f19601f820116820180604052508101906130f49190615381565b60405163f3fef3a360e01b81526001600160a01b038781166004830152602482018790529192509083169063f3fef3a3906044016020604051808303815f875af1158015613144573d5f5f3e3d5ffd5b505050506040513d601f19601f820116820180604052508101906131689190615bb0565b5f8781526019602090815260408083206001600160a01b038616845290915281208054929550859290919061319e9084906159e4565b909155506131ae90508184613e0f565b604080518781526001600160a01b038088166020830152831691810191909152606081018590527ffeb2000dca3e617cd6f3a8bbb63014bb54a124aac6ccbf73ee7229b4cd01f12090608001612e2b565b5f5f61320a8461238a565b1115613293576011546001600160a01b039081169083160361324857506001600160a01b0382165f908152601d602052604090205460ff1615611385565b816001600160a01b0316836001600160a01b0316148061328c57506001600160a01b038084165f908152601e602090815260408083209386168352929052205460ff165b9050611385565b505f611385565b5f5f6132a46141ef565b5f5f5f5f5f6132b28961374d565b9550509450945094509450805f036132dd57604051634a27723560e01b815260040160405180910390fd5b803410156132fe5760405163f00cef2b60e01b815260040160405180910390fd5b5f6133088a611ba9565b5f8b815260146020908152604080832080546001600160a01b0319166001600160a01b038f16179055601590915290208390559050851561335a5761334d8187614219565b61335786896159b8565b97505b841561337f5761337261336c8b612268565b86614219565b61337c85896159b8565b97505b83156133a85760105461339b906001600160a01b031685614219565b6133a584896159b8565b97505b82156133d157600d546133c4906001600160a01b031684614219565b6133ce83896159b8565b97505b6133db88346159e4565b965086156133ed576133ed3388614219565b604080518b81526001600160a01b038b1660208201529081018990527f575a2f348e9def4ded8325aa42a4bf27e87e9856952e713a777c8adb7ee9d43c9060600160405180910390a15050505050506134466001600a55565b9250929050565b60408051600480825260a0820190925260609182919060208201608080368337505060408051600480825260a082019092529294509050602082016080803683370190505090506127106134a086612268565b835f815181106134b2576134b261539c565b6001600160a01b039283166020918202929092010152601054166134e157600d546001600160a01b03166134ee565b6010546001600160a01b03165b836001815181106135015761350161539c565b60200260200101906001600160a01b031690816001600160a01b03168152505061352a86611ba9565b8360028151811061353d5761353d61539c565b60200260200101906001600160a01b031690816001600160a01b03168152505083836003815181106135715761357161539c565b6001600160a01b0390921660209283029190910190910152600b5461ffff808316916135a691600160601b90910416876153f8565b6135b0919061540f565b825f815181106135c2576135c261539c565b6020908102919091010152600b5461ffff808316916135ea91600160501b90910416876153f8565b6135f4919061540f565b826001815181106136075761360761539c565b6020908102919091010152600b5461ffff8083169161362f91600160701b90910416876153f8565b613639919061540f565b8260028151811061364c5761364c61539c565b6020026020010181815250508160028151811061366b5761366b61539c565b6020026020010151826001815181106136865761368661539c565b6020026020010151835f815181106136a0576136a061539c565b60200260200101516136b291906159b8565b6136bc91906159b8565b6136c690866159e4565b826003815181106136d9576136d961539c565b60200260200101818152505050935093915050565b5f6136f98333612561565b61371657604051633cc50b4560e01b815260040160405180910390fd5b6119968383613b28565b6001600160a01b039182165f90815260056020908152604080832093909416825291909152205460ff1690565b5f81815260156020526040812054600b54829182918291829182919061271090819061377d9061ffff16846153f8565b613787919061540f565b600b5490985081906137a590640100000000900461ffff16846153f8565b6137af919061540f565b600b5490975081906137cb9062010000900461ffff16846153f8565b6137d5919061540f565b600b5490965081906137f290600160301b900461ffff16846153f8565b6137fc919061540f565b94508193508486888a61380f91906159b8565b61381991906159b8565b61382391906159b8565b9250505091939550919395565b5f611996838333612bd7565b6138446139ba565b600f80546001600160a01b0319166001600160a01b0383169081179091556040805163154982b960e21b815290513092916355260ae49160048083019260209291908290030181865afa158015611413573d5f5f3e3d5ffd5b600d546001600160a01b031633036138cf57600c80546001600160a01b0383166001600160a01b031990911617905550565b600c546001600160a01b0316330361390957600c8054600d80546001600160a01b03199081166001600160a01b0384161790915516905550565b604051632956fb3160e21b815260040160405180910390fd5b61392b82613cdf565b5f8281526015602052604090205415801561394557505f81115b61394d575f5ffd5b5f9182526015602052604090912055565b5f6001600160e01b0319821663780e9d6360e01b14806113855750611385826142bc565b5f818152600260205260408120546001600160a01b03168061138557604051637e27328960e01b815260048101849052602401611601565b600d546001600160a01b031633146139e5576040516330cd747160e01b815260040160405180910390fd5b565b611985838383600161430b565b5f5f613a0185858561440f565b90506001600160a01b038116613a5d57613a5884600880545f838152600960205260408120829055600182018355919091527ff3f7a9fe364faab93b216da50a3214154f22a0a2b415b23a84c8169e8b636ee30155565b613a80565b846001600160a01b0316816001600160a01b031614613a8057613a808185614501565b6001600160a01b038516613a9c57613a978461457e565b613abf565b846001600160a01b0316816001600160a01b031614613abf57613abf8585614625565b949350505050565b6001600160a01b038216613af057604051633250574960e11b81525f6004820152602401611601565b5f613afc83835f6139f4565b90506001600160a01b03811615611985576040516339e3563760e11b81525f6004820152602401611601565b5f828152601760209081526040808320548151630217a4b760e41b815291516001600160a01b03909116928492849263217a4b70926004808401939192918290030181865afa158015613b7d573d5f5f3e3d5ffd5b505050506040513d601f19601f82011682018060405250810190613ba19190615381565b9050613bad8185614673565b613bb781856146ab565b613bcc6001600160a01b038216333087613d19565b613be06001600160a01b0382168386613d80565b60405163b6b55f2560e01b8152600481018590526001600160a01b0383169063b6b55f25906024016020604051808303815f875af1158015613c24573d5f5f3e3d5ffd5b505050506040513d601f19601f82011682018060405250810190613c489190615bb0565b5f8681526019602090815260408083206001600160a01b0386168452909152812080549295508592909190613c7e9084906159b8565b90915550613c8e9050818461471b565b604080518681526001600160a01b038085166020830152831691810191909152606081018490527f2c0f148b435140de488c1b34647f1511c646f7077e87007bacf22ef9977a16d890608001612b45565b613ce881612268565b6001600160a01b0316336001600160a01b03161461145e57604051636a6bc9c560e11b815260040160405180910390fd5b6040516001600160a01b0384811660248301528381166044830152606482018390526116649186918216906323b872dd906084015b604051602081830303815290604052915060e01b6020820180516001600160e01b03838183161783525050505061474b565b604080516001600160a01b038416602482015260448082018490528251808303909101815260649091019091526020810180516001600160e01b031663095ea7b360e01b179052613dd184826147b7565b611664576040516001600160a01b0384811660248301525f6044830152613e0591869182169063095ea7b390606401613d4e565b611664848261474b565b6001600160a01b0382165f908152601a6020526040902054811015613e60576001600160a01b0382165f908152601a602052604081208054839290613e559084906159e4565b9091555061146c9050565b506001600160a01b03165f908152601a6020526040812055565b6001600160a01b038216613eac57604051630b61174360e31b81526001600160a01b0383166004820152602401611601565b6001600160a01b038381165f81815260056020908152604080832094871680845294825291829020805460ff191686151590811790915591519182527f17307eab39ab6107e8899845ad3d59bd9653f200f220920489ca2b5937696c31910160405180910390a3505050565b6001600160a01b038216613f4157604051633250574960e11b81525f6004820152602401611601565b5f613f4d83835f6139f4565b90506001600160a01b038116613f7957604051637e27328960e01b815260048101839052602401611601565b836001600160a01b0316816001600160a01b031614611664576040516364283d7b60e01b81526001600160a01b0380861660048301526024820184905282166044820152606401611601565b806001600160a01b031663cfa48f3e6040518163ffffffff1660e01b8152600401602060405180830381865afa158015614001573d5f5f3e3d5ffd5b505050506040513d601f19601f820116820180604052508101906140259190615bb0565b5f0361145e57604051632a81ca8560e11b815260040160405180910390fd5b5f5f61405185858561344d565b6010546040516307233fbf60e51b81529294509092506001600160a01b03169063e467f7e090614087908590859060040161513b565b6020604051808303815f875af19250505080156140c1575060408051601f3d908101601f191682019092526140be91810190615bb0565b60015b156140c9575b505b5050505050565b6001600160a01b0383163b156140c957604051630a85bd0160e11b81526001600160a01b0384169063150b7a0290614112908890889087908790600401615bc7565b6020604051808303815f875af192505050801561414c575060408051601f3d908101601f1916820190925261414991810190615bf9565b60015b6141b3573d808015614179576040519150601f19603f3d011682016040523d82523d5f602084013e61417e565b606091505b5080515f036141ab57604051633250574960e11b81526001600160a01b0385166004820152602401611601565b805181602001fd5b6001600160e01b03198116630a85bd0160e11b146140c757604051633250574960e11b81526001600160a01b0385166004820152602401611601565b6002600a540361421257604051633ee5aeb560e01b815260040160405180910390fd5b6002600a55565b5f826001600160a01b0316826040515f6040518083038185875af1925050503d805f8114614262576040519150601f19603f3d011682016040523d82523d5f602084013e614267565b606091505b5050809150508061198557600d546040516001600160a01b039091169083905f81818185875af1925050503d805f81146140c7576040519150601f19603f3d011682016040523d82523d5f602084013e6140c7565b5f6001600160e01b031982166380ac58cd60e01b14806142ec57506001600160e01b03198216635b5e139f60e01b145b8061138557506301ffc9a760e01b6001600160e01b0319831614611385565b808061431f57506001600160a01b03821615155b156143e0575f61432e84613982565b90506001600160a01b0383161580159061435a5750826001600160a01b0316816001600160a01b031614155b801561436d575061436b8184613720565b155b156143965760405163a9fbf51f60e01b81526001600160a01b0384166004820152602401611601565b81156143de5783856001600160a01b0316826001600160a01b03167f8c5be1e5ebec7d5bd14f71427d1e84f3dd0314c0f7b2291e5b200ac8c7c3b92560405160405180910390a45b505b50505f90815260046020526040902080546001600160a01b0319166001600160a01b0392909216919091179055565b5f828152600260205260408120546001600160a01b039081169083161561443b5761443b818486614800565b6001600160a01b03811615614475576144565f855f5f61430b565b6001600160a01b0381165f90815260036020526040902080545f190190555b6001600160a01b038516156144a3576001600160a01b0385165f908152600360205260409020805460010190555b5f8481526002602052604080822080546001600160a01b0319166001600160a01b0389811691821790925591518793918516917fddf252ad1be2c89b69c2b068fc378daa952ba7f163c4a11628f55a4df523b3ef91a4949350505050565b5f61450b8361238a565b5f838152600760209081526040808320546001600160a01b0388168452600690925290912091925090818314614560575f83815260208281526040808320548584528184208190558352600790915290208290555b5f938452600760209081526040808620869055938552525081205550565b6008545f9061458f906001906159e4565b5f83815260096020526040812054600880549394509092849081106145b6576145b661539c565b905f5260205f200154905080600883815481106145d5576145d561539c565b5f91825260208083209091019290925582815260099091526040808220849055858252812055600880548061460c5761460c615c14565b600190038181905f5260205f20015f9055905550505050565b5f60016146318461238a565b61463b91906159e4565b6001600160a01b039093165f908152600660209081526040808320868452825280832085905593825260079052919091209190915550565b6001600160a01b0382165f908152601b602052604090205481101561146c5760405163070f6eed60e11b815260040160405180910390fd5b6001600160a01b0382165f908152601c6020526040902054158015906146fd57506001600160a01b0382165f908152601c6020908152604080832054601a909252909120546146fb9083906159b8565b115b1561146c57604051638193382b60e01b815260040160405180910390fd5b6001600160a01b0382165f908152601a6020526040812080548392906147429084906159b8565b90915550505050565b5f5f60205f8451602086015f885af18061476a576040513d5f823e3d81fd5b50505f513d9150811561478157806001141561478e565b6001600160a01b0384163b155b1561166457604051635274afe760e01b81526001600160a01b0385166004820152602401611601565b5f5f5f5f60205f8651602088015f8a5af192503d91505f5190508280156147f6575081156147e857806001146147f6565b5f866001600160a01b03163b115b9695505050505050565b61480b838383614864565b611985576001600160a01b03831661483957604051637e27328960e01b815260048101829052602401611601565b60405163177e802f60e01b81526001600160a01b038316600482015260248101829052604401611601565b5f6001600160a01b03831615801590613abf5750826001600160a01b0316846001600160a01b0316148061489d575061489d8484613720565b80613abf5750505f908152600460205260409020546001600160a01b03908116911614919050565b6001600160e01b03198116811461145e575f5ffd5b5f602082840312156148ea575f5ffd5b8135611996816148c5565b5f81518084528060208401602086015e5f602082860101526020601f19601f83011685010191505092915050565b602081525f61199660208301846148f5565b5f60208284031215614945575f5ffd5b5035919050565b6001600160a01b038116811461145e575f5ffd5b5f60208284031215614970575f5ffd5b81356119968161494c565b5f5f6040838503121561498c575f5ffd5b82356149978161494c565b946020939093013593505050565b5f8151808452602084019350602083015f5b828110156149d55781518652602095860195909101906001016149b7565b5093949350505050565b828152604060208201525f613abf60408301846149a5565b5f5f5f60608486031215614a09575f5ffd5b8335614a148161494c565b92506020840135614a248161494c565b91506040840135614a348161494c565b809150509250925092565b5f5f5f60608486031215614a51575f5ffd5b8335614a5c8161494c565b92506020840135614a6c8161494c565b929592945050506040919091013590565b61ffff8116811461145e575f5ffd5b5f5f5f5f60808587031215614a9f575f5ffd5b8435614aaa81614a7d565b93506020850135614aba81614a7d565b92506040850135614aca81614a7d565b91506060850135614ada81614a7d565b939692955090935050565b5f5f60408385031215614af6575f5ffd5b50508035926020909101359150565b60ff815116825260ff602082015116602083015260408101516040830152606081015160608301526080810151608083015260a081015160a083015260c081015160c083015260e081015160e08301525050565b6102008101614b688285614b05565b611996610100830184614b05565b634e487b7160e01b5f52604160045260245ffd5b60405161010081016001600160401b0381118282101715614bad57614bad614b76565b60405290565b60405160e081016001600160401b0381118282101715614bad57614bad614b76565b60405161032081016001600160401b0381118282101715614bad57614bad614b76565b604051601f8201601f191681016001600160401b0381118282101715614c2057614c20614b76565b604052919050565b5f6001600160401b03821115614c4057614c40614b76565b5060051b60200190565b5f60208284031215614c5a575f5ffd5b81356001600160401b03811115614c6f575f5ffd5b8201601f81018413614c7f575f5ffd5b8035614c92614c8d82614c28565b614bf8565b8082825260208201915060208360051b850101925086831115614cb3575f5ffd5b6020840193505b828410156147f6578335825260209384019390910190614cba565b5f602082016020835280845180835260408501915060408160051b8601019250602086015f5b82811015614f6557603f19878603018452815180518652602081015160208701526040810151614d3660408801826001600160a01b03169052565b506060810151614d8e606088018260ff815116825260ff602082015116602083015260408101516040830152606081015160608301526080810151608083015260a081015160a083015260c081015160c08301525050565b506080810151805161014088810191909152602082015161016089015260409091015161018088015260a08201516001600160a01b039081166101a089015260c083015181166101c089015260e083015181166101e08901526101008301518116610200890152610120830151166102208801528101516104e06102408801819052614e1c908801826148f5565b9050610160820151878203610260890152614e3782826148f5565b915050610180820151878203610280890152614e5382826148f5565b9150506101a0820151614e6c6102a089018260ff169052565b506101c082015160ff81166102c0890152506101e082015160ff81166102e08901525061020082015160ff8116610300890152506102208201516103208801526102408201516103408801526102608201516103608801526102808201516103808801526102a082015180516103a089015260208101516103c089015260408101516103e08901526060810151610400890152506102c0820151805161042089015260208101516104408901526040810151610460890152506102e0820151805161048089015260208101516104a08901525061030091909101516104c096909601959095526020938401939190910190600101614cfb565b50929695505050505050565b5f5f5f5f60808587031215614f84575f5ffd5b8435614f8f81614a7d565b93506020850135614f9f8161494c565b92506040850135614faf8161494c565b9396929550929360600135925050565b801515811461145e575f5ffd5b5f5f60408385031215614fdd575f5ffd5b8235614fe881614a7d565b91506020830135614ff881614fbf565b809150509250929050565b5f5f5f5f5f60a08688031215615017575f5ffd5b85356150228161494c565b9450602086013561503281614a7d565b935060408601356150428161494c565b925060608601356150528161494c565b949793965091946080013592915050565b5f5f5f60608486031215615075575f5ffd5b8335925060208401356150878161494c565b91506040840135614a3481614fbf565b60ff8116811461145e575f5ffd5b5f5f5f5f608085870312156150b8575f5ffd5b843593506020850135925060408501356150d181615097565b91506060850135614ada81615097565b5f602082840312156150f1575f5ffd5b813561199681614a7d565b5f5f6040838503121561510d575f5ffd5b823591506020830135614ff88161494c565b5f5f60408385031215615130575f5ffd5b8235614fe88161494c565b604080825283519082018190525f9060208501906060840190835b8181101561517d5783516001600160a01b0316835260209384019390920191600101615156565b505083810360208501526147f681866149a5565b5f6001600160401b038211156151a9576151a9614b76565b50601f01601f191660200190565b5f82601f8301126151c6575f5ffd5b81356151d4614c8d82615191565b8181528460208386010111156151e8575f5ffd5b816020850160208301375f918101602001919091529392505050565b5f5f5f60608486031215615216575f5ffd5b83356152218161494c565b92506020840135915060408401356001600160401b03811115615242575f5ffd5b61524e868287016151b7565b9150509250925092565b5f5f5f5f6080858703121561526b575f5ffd5b84356152768161494c565b935060208501356152868161494c565b92506040850135915060608501356001600160401b038111156152a7575f5ffd5b6152b3878288016151b7565b91505092959194509250565b5f5f5f606084860312156152d1575f5ffd5b833592506020840135614a2481615097565b5f5f5f606084860312156152f5575f5ffd5b833592506020840135614a6c8161494c565b5f5f60408385031215615318575f5ffd5b82356153238161494c565b91506020830135614ff88161494c565b5f5f5f60608486031215615345575f5ffd5b83359250602084013591506040840135614a348161494c565b5f5f6040838503121561536f575f5ffd5b823591506020830135614ff881615097565b5f60208284031215615391575f5ffd5b81516119968161494c565b634e487b7160e01b5f52603260045260245ffd5b634e487b7160e01b5f52601160045260245ffd5b61ffff8181168382160190811115611385576113856153b0565b61ffff8281168282160390811115611385576113856153b0565b8082028115828204841417611385576113856153b0565b5f8261542957634e487b7160e01b5f52601260045260245ffd5b500490565b8051611bce81615097565b5f610100828403121561544a575f5ffd5b615452614b8a565b9050815161545f81615097565b815261546d6020830161542e565b602082015260408281015190820152606080830151908201526080808301519082015260a0808301519082015260c0808301519082015260e09182015191810191909152919050565b5f5f61020083850312156154c8575f5ffd5b6154d28484615439565b91506154e2846101008501615439565b90509250929050565b602081525f61199660208301846149a5565b8051611bce8161494c565b5f60e08284031215615518575f5ffd5b615520614bb3565b9050815161552d81615097565b8152602082015161553d81615097565b602082015260408281015190820152606080830151908201526080808301519082015260a0808301519082015260c09182015191810191909152919050565b5f6060828403121561558c575f5ffd5b604051606081016001600160401b03811182821017156155ae576155ae614b76565b60409081528351825260208085015190830152928301519281019290925250919050565b5f82601f8301126155e1575f5ffd5b81516155ef614c8d82615191565b818152846020838601011115615603575f5ffd5b8160208501602083015e5f918101602001919091529392505050565b5f6080828403121561562f575f5ffd5b604051608081016001600160401b038111828210171561565157615651614b76565b6040908152835182526020808501519083015283810151908201526060928301519281019290925250919050565b5f6040828403121561568f575f5ffd5b604080519081016001600160401b03811182821017156156b1576156b1614b76565b604052825181526020928301519281019290925250919050565b5f602082840312156156db575f5ffd5b81516001600160401b038111156156f0575f5ffd5b8201601f81018413615700575f5ffd5b805161570e614c8d82614c28565b8082825260208201915060208360051b85010192508683111561572f575f5ffd5b602084015b838110156159735780516001600160401b03811115615751575f5ffd5b85016104e0818a03601f19011215615767575f5ffd5b61576f614bd5565b602082810151825260408301519082015261578c606083016154fd565b604082015261579e8a60808401615508565b60608201526157b18a610160840161557c565b60808201526157c36101c083016154fd565b60a08201526157d56101e083016154fd565b60c08201526157e761020083016154fd565b60e08201526157f961022083016154fd565b61010082015261580c61024083016154fd565b6101208201526102608201516001600160401b0381111561582b575f5ffd5b61583a8b6020838601016155d2565b610140830152506102808201516001600160401b0381111561585a575f5ffd5b6158698b6020838601016155d2565b610160830152506102a08201516001600160401b03811115615889575f5ffd5b6158988b6020838601016155d2565b610180830152506158ac6102c0830161542e565b6101a08201526158bf6102e0830161542e565b6101c08201526158d2610300830161542e565b6101e08201526158e5610320830161542e565b6102008201526103408201516102208201526103608201516102408201526103808201516102608201526103a08201516102808201526159298a6103c0840161561f565b6102a082015261593d8a610440840161557c565b6102c08201526159518a6104a0840161567f565b6102e08201526104e09190910151610300820152835260209283019201615734565b509695505050505050565b5f6001820161598f5761598f6153b0565b5060010190565b5f5f604083850312156159a7575f5ffd5b505080516020909101519092909150565b80820180821115611385576113856153b0565b60ff8181168382160190811115611385576113856153b0565b81810381811115611385576113856153b0565b5f5f5f5f5f5f5f5f5f5f5f6101608c8e031215615a12575f5ffd5b5f8c519050809b50505f60208d01519050809a50505f60408d01519050809950505f60608d01519050809850505f60808d01519050809750505f60a08d01519050809650505f60c08d01519050809550505f60e08d01519050809450505f6101008d01519050809350505f6101208d01519050809250505f6101408d01519050809150509295989b509295989b9093969950565b5f60208284031215615ab6575f5ffd5b81516001600160401b03811115615acb575f5ffd5b613abf848285016155d2565b5f60208284031215615ae7575f5ffd5b815161199681614a7d565b5f5f5f5f5f5f5f60e0888a031215615b08575f5ffd5b8751615b1381615097565b6020890151909750615b2481615097565b604089015160608a015160808b015160a08c015160c0909c01519a9d939c50919a90999198509650945092505050565b5f60208284031215615b64575f5ffd5b815161199681614fbf565b5f82518060208501845e5f920191825250919050565b5f5f5f60608486031215615b97575f5ffd5b5050815160208301516040909301519094929350919050565b5f60208284031215615bc0575f5ffd5b5051919050565b6001600160a01b03858116825284166020820152604081018390526080606082018190525f906147f6908301846148f5565b5f60208284031215615c09575f5ffd5b8151611996816148c5565b634e487b7160e01b5f52603160045260245ffdfea26469706673582212201abefab197e180949403538ee29fcede384116b21926f4defd59fac444ba30d064736f6c634300081c0033",
    "linkReferences": {}
  },
  "methodIdentifiers": {
    "DENOMINATOR()": "918f8674",
    "approve(address,uint256)": "095ea7b3",
    "balanceOf(address)": "70a08231",
    "baseURI()": "6c0360eb",
    "buyRoyalty(uint256)": "755b9162",
    "buyRoyaltyTo(uint256,address)": "dc49b190",
    "calcGRETHShares(uint256,uint256,address)": "dec39715",
    "calcRoyaltyPriceShares(uint256)": "ef38e4e3",
    "calcRoyaltyShares(uint256,uint256)": "a8c9d304",
    "deposit(uint256,uint256)": "e2bbb158",
    "deposited(uint256,address)": "a2383106",
    "execute(address,uint256,bytes)": "b61d27f6",
    "exit(uint256)": "7f8661a1",
    "getApproved(uint256)": "081812fc",
    "getConfig(uint256)": "a81b2f8d",
    "getFeeConfig(uint256)": "c8b7cdb5",
    "getPoolIdsOf(address)": "0cccd888",
    "getPoolNFTInfosBy(uint256[])": "36e68f54",
    "getPositions(uint256)": "30e00596",
    "getRoyaltyReceiver(uint256)": "5b71ecb5",
    "getThresholds(uint256)": "685fb6da",
    "grETH()": "a93d57a1",
    "grethGrinderShareNumerator()": "04f6430e",
    "grethPoolOwnerShareNumerator()": "1927c4ea",
    "grethReserveShareNumerator()": "ce339395",
    "grethRoyaltyReceiverShareNumerator()": "b3628932",
    "grind(uint256)": "09dbb6ea",
    "grindOp(uint256,uint8)": "f059deb2",
    "grindOpTo(uint256,uint8,address)": "c0b7b578",
    "grindTo(uint256,address)": "b2d5cca7",
    "grinderAI()": "2980b2ff",
    "init(address,address,address)": "184b9559",
    "isAgentOf(address,address)": "cdb0d023",
    "isApprovedForAll(address,address)": "e985e9c5",
    "isDepositorOf(uint256,address)": "849784d4",
    "isDisapprovedGrinderAI(address)": "ea85781d",
    "isStrategyStopped(uint16)": "6db47de9",
    "minDeposit(address)": "3c29f839",
    "mint(uint16,address,address,uint256)": "37566d54",
    "mintTo(address,uint16,address,address,uint256)": "592ae17f",
    "minter(uint256)": "ac8d856c",
    "name()": "06fdde03",
    "owner()": "8da5cb5b",
    "ownerOf(uint256)": "6352211e",
    "pendingOwner()": "e30c3978",
    "poolIds(address)": "d4175be2",
    "poolOwnerShareNumerator()": "e60ed1f3",
    "pools(uint256)": "ac4afa38",
    "poolsNFTLens()": "8e22e7c3",
    "rebalance(uint256,uint256,uint8,uint8)": "5db44744",
    "royaltyInfo(uint256,uint256)": "2a55205a",
    "royaltyNumerator()": "2bb80474",
    "royaltyOwnerShareNumerator()": "bfe121e5",
    "royaltyPrice(uint256)": "26ca015a",
    "royaltyPriceCompensationShareNumerator()": "352333f2",
    "royaltyPriceOwnerShareNumerator()": "36b02baf",
    "royaltyPricePoolOwnerShareNumerator()": "4f99f04a",
    "royaltyPriceReserveShareNumerator()": "f9298928",
    "royaltyReceiver(uint256)": "5cd2dd5e",
    "royaltyReceiverShareNumerator()": "053604ed",
    "royaltyReserveShareNumerator()": "6d3a87db",
    "safeTransferFrom(address,address,uint256)": "42842e0e",
    "safeTransferFrom(address,address,uint256,bytes)": "b88d4fde",
    "setAgent(address,bool)": "97d8c676",
    "setApprovalForAll(address,bool)": "a22cb465",
    "setDepositor(uint256,address,bool)": "5d2d1920",
    "setGRETH(address)": "0861751f",
    "setGRETHShares(uint16,uint16,uint16,uint16)": "ca05262b",
    "setGrinderAI(address)": "98ac3255",
    "setMinDeposit(address,uint256)": "912d1a86",
    "setPoolsNFTLens(address)": "f2602720",
    "setRoyaltyPrice(uint256,uint256)": "f788a7fb",
    "setRoyaltyPriceShares(uint16,uint16,uint16,uint16)": "c0b929e6",
    "setRoyaltyShares(uint16,uint16,uint16,uint16)": "27f8cabb",
    "setStrategyFactory(address)": "a5352bfd",
    "setStrategyStopped(uint16,bool)": "55b2d01e",
    "setTokenCap(address,uint256)": "1d47e4a3",
    "strategyFactory(uint16)": "eb9b7986",
    "supportsInterface(bytes4)": "01ffc9a7",
    "symbol()": "95d89b41",
    "tokenByIndex(uint256)": "4f6ccce7",
    "tokenCap(address)": "7bcd4ff0",
    "tokenOfOwnerByIndex(address,uint256)": "2f745c59",
    "tokenURI(uint256)": "c87b56dd",
    "totalDeposited(address)": "53055481",
    "totalPools()": "ab3c7e52",
    "totalSupply()": "18160ddd",
    "transfer(address,uint256)": "a9059cbb",
    "transferFrom(address,address,uint256)": "23b872dd",
    "transferOwnership(address)": "f2fde38b",
    "withdraw(uint256,uint256)": "441a3e70",
    "withdrawTo(uint256,address,uint256)": "caa7262b"
  },
  "id": 70
}