{
  "abi": [
    {
      "type": "constructor",
      "inputs": [],
      "stateMutability": "nonpayable"
    },
    {
      "type": "receive",
      "stateMutability": "payable"
    },
    {
      "type": "function",
      "name": "DENOMINATOR",
      "inputs": [],
      "outputs": [
        {
          "name": "",
          "type": "uint16",
          "internalType": "uint16"
        }
      ],
      "stateMutability": "view"
    },
    {
      "type": "function",
      "name": "approve",
      "inputs": [
        {
          "name": "to",
          "type": "address",
          "internalType": "address"
        },
        {
          "name": "tokenId",
          "type": "uint256",
          "internalType": "uint256"
        }
      ],
      "outputs": [],
      "stateMutability": "nonpayable"
    },
    {
      "type": "function",
      "name": "balanceOf",
      "inputs": [
        {
          "name": "owner",
          "type": "address",
          "internalType": "address"
        }
      ],
      "outputs": [
        {
          "name": "",
          "type": "uint256",
          "internalType": "uint256"
        }
      ],
      "stateMutability": "view"
    },
    {
      "type": "function",
      "name": "baseURI",
      "inputs": [],
      "outputs": [
        {
          "name": "",
          "type": "string",
          "internalType": "string"
        }
      ],
      "stateMutability": "view"
    },
    {
      "type": "function",
      "name": "buyRoyalty",
      "inputs": [
        {
          "name": "poolId",
          "type": "uint256",
          "internalType": "uint256"
        }
      ],
      "outputs": [
        {
          "name": "",
          "type": "uint256",
          "internalType": "uint256"
        }
      ],
      "stateMutability": "nonpayable"
    },
    {
      "type": "function",
      "name": "buyRoyaltyTo",
      "inputs": [
        {
          "name": "poolId",
          "type": "uint256",
          "internalType": "uint256"
        },
        {
          "name": "to",
          "type": "address",
          "internalType": "address"
        }
      ],
      "outputs": [
        {
          "name": "royaltyPricePaid",
          "type": "uint256",
          "internalType": "uint256"
        }
      ],
      "stateMutability": "nonpayable"
    },
    {
      "type": "function",
      "name": "calcGRETHShares",
      "inputs": [
        {
          "name": "poolId",
          "type": "uint256",
          "internalType": "uint256"
        },
        {
          "name": "grethReward",
          "type": "uint256",
          "internalType": "uint256"
        },
        {
          "name": "grinder",
          "type": "address",
          "internalType": "address"
        }
      ],
      "outputs": [
        {
          "name": "actors",
          "type": "address[]",
          "internalType": "address[]"
        },
        {
          "name": "grethShares",
          "type": "uint256[]",
          "internalType": "uint256[]"
        }
      ],
      "stateMutability": "view"
    },
    {
      "type": "function",
      "name": "calcRoyaltyPriceShares",
      "inputs": [
        {
          "name": "poolId",
          "type": "uint256",
          "internalType": "uint256"
        }
      ],
      "outputs": [
        {
          "name": "compensationShare",
          "type": "uint256",
          "internalType": "uint256"
        },
        {
          "name": "poolOwnerShare",
          "type": "uint256",
          "internalType": "uint256"
        },
        {
          "name": "reserveShare",
          "type": "uint256",
          "internalType": "uint256"
        },
        {
          "name": "ownerShare",
          "type": "uint256",
          "internalType": "uint256"
        },
        {
          "name": "oldRoyaltyPrice",
          "type": "uint256",
          "internalType": "uint256"
        },
        {
          "name": "newRoyaltyPrice",
          "type": "uint256",
          "internalType": "uint256"
        }
      ],
      "stateMutability": "view"
    },
    {
      "type": "function",
      "name": "calcRoyaltyShares",
      "inputs": [
        {
          "name": "poolId",
          "type": "uint256",
          "internalType": "uint256"
        },
        {
          "name": "profit",
          "type": "uint256",
          "internalType": "uint256"
        }
      ],
      "outputs": [
        {
          "name": "receivers",
          "type": "address[]",
          "internalType": "address[]"
        },
        {
          "name": "amounts",
          "type": "uint256[]",
          "internalType": "uint256[]"
        }
      ],
      "stateMutability": "view"
    },
    {
      "type": "function",
      "name": "deposit",
      "inputs": [
        {
          "name": "poolId",
          "type": "uint256",
          "internalType": "uint256"
        },
        {
          "name": "quoteTokenAmount",
          "type": "uint256",
          "internalType": "uint256"
        }
      ],
      "outputs": [
        {
          "name": "",
          "type": "uint256",
          "internalType": "uint256"
        }
      ],
      "stateMutability": "nonpayable"
    },
    {
      "type": "function",
      "name": "deposited",
      "inputs": [
        {
          "name": "poolId",
          "type": "uint256",
          "internalType": "uint256"
        },
        {
          "name": "token",
          "type": "address",
          "internalType": "address"
        }
      ],
      "outputs": [
        {
          "name": "",
          "type": "uint256",
          "internalType": "uint256"
        }
      ],
      "stateMutability": "view"
    },
    {
      "type": "function",
      "name": "execute",
      "inputs": [
        {
          "name": "target",
          "type": "address",
          "internalType": "address"
        },
        {
          "name": "value",
          "type": "uint256",
          "internalType": "uint256"
        },
        {
          "name": "data",
          "type": "bytes",
          "internalType": "bytes"
        }
      ],
      "outputs": [],
      "stateMutability": "nonpayable"
    },
    {
      "type": "function",
      "name": "exit",
      "inputs": [
        {
          "name": "poolId",
          "type": "uint256",
          "internalType": "uint256"
        }
      ],
      "outputs": [
        {
          "name": "quoteTokenAmount",
          "type": "uint256",
          "internalType": "uint256"
        },
        {
          "name": "baseTokenAmount",
          "type": "uint256",
          "internalType": "uint256"
        }
      ],
      "stateMutability": "nonpayable"
    },
    {
      "type": "function",
      "name": "getApproved",
      "inputs": [
        {
          "name": "tokenId",
          "type": "uint256",
          "internalType": "uint256"
        }
      ],
      "outputs": [
        {
          "name": "",
          "type": "address",
          "internalType": "address"
        }
      ],
      "stateMutability": "view"
    },
    {
      "type": "function",
      "name": "getConfig",
      "inputs": [
        {
          "name": "poolId",
          "type": "uint256",
          "internalType": "uint256"
        }
      ],
      "outputs": [
        {
          "name": "longNumberMax",
          "type": "uint8",
          "internalType": "uint8"
        },
        {
          "name": "hedgeNumberMax",
          "type": "uint8",
          "internalType": "uint8"
        },
        {
          "name": "extraCoef",
          "type": "uint256",
          "internalType": "uint256"
        },
        {
          "name": "priceVolatility",
          "type": "uint256",
          "internalType": "uint256"
        },
        {
          "name": "returnPercentLongSell",
          "type": "uint256",
          "internalType": "uint256"
        },
        {
          "name": "returnPercentHedgeSell",
          "type": "uint256",
          "internalType": "uint256"
        },
        {
          "name": "returnPercentHedgeRebuy",
          "type": "uint256",
          "internalType": "uint256"
        }
      ],
      "stateMutability": "view"
    },
    {
      "type": "function",
      "name": "getFeeConfig",
      "inputs": [
        {
          "name": "poolId",
          "type": "uint256",
          "internalType": "uint256"
        }
      ],
      "outputs": [
        {
          "name": "longSellFeeCoef",
          "type": "uint256",
          "internalType": "uint256"
        },
        {
          "name": "hedgeSellFeeCoef",
          "type": "uint256",
          "internalType": "uint256"
        },
        {
          "name": "hedgeRebuyFeeCoef",
          "type": "uint256",
          "internalType": "uint256"
        }
      ],
      "stateMutability": "view"
    },
    {
      "type": "function",
      "name": "getPoolIdsOf",
      "inputs": [
        {
          "name": "poolOwner",
          "type": "address",
          "internalType": "address"
        }
      ],
      "outputs": [
        {
          "name": "poolIdsOwnedByPoolOwner",
          "type": "uint256[]",
          "internalType": "uint256[]"
        }
      ],
      "stateMutability": "view"
    },
    {
      "type": "function",
      "name": "getPoolNFTInfosBy",
      "inputs": [
        {
          "name": "_poolIds",
          "type": "uint256[]",
          "internalType": "uint256[]"
        }
      ],
      "outputs": [
        {
          "name": "poolNFTInfos",
          "type": "tuple[]",
          "internalType": "struct IPoolsNFTLens.PoolNFTInfo[]",
          "components": [
            {
              "name": "poolId",
              "type": "uint256",
              "internalType": "uint256"
            },
            {
              "name": "strategyId",
              "type": "uint256",
              "internalType": "uint256"
            },
            {
              "name": "pool",
              "type": "address",
              "internalType": "address"
            },
            {
              "name": "config",
              "type": "tuple",
              "internalType": "struct IURUS.Config",
              "components": [
                {
                  "name": "longNumberMax",
                  "type": "uint8",
                  "internalType": "uint8"
                },
                {
                  "name": "hedgeNumberMax",
                  "type": "uint8",
                  "internalType": "uint8"
                },
                {
                  "name": "extraCoef",
                  "type": "uint256",
                  "internalType": "uint256"
                },
                {
                  "name": "priceVolatilityPercent",
                  "type": "uint256",
                  "internalType": "uint256"
                },
                {
                  "name": "returnPercentLongSell",
                  "type": "uint256",
                  "internalType": "uint256"
                },
                {
                  "name": "returnPercentHedgeSell",
                  "type": "uint256",
                  "internalType": "uint256"
                },
                {
                  "name": "returnPercentHedgeRebuy",
                  "type": "uint256",
                  "internalType": "uint256"
                }
              ]
            },
            {
              "name": "feeConfig",
              "type": "tuple",
              "internalType": "struct IURUS.FeeConfig",
              "components": [
                {
                  "name": "longSellFeeCoef",
                  "type": "uint256",
                  "internalType": "uint256"
                },
                {
                  "name": "hedgeSellFeeCoef",
                  "type": "uint256",
                  "internalType": "uint256"
                },
                {
                  "name": "hedgeRebuyFeeCoef",
                  "type": "uint256",
                  "internalType": "uint256"
                }
              ]
            },
            {
              "name": "oracleQuoteTokenPerBaseToken",
              "type": "address",
              "internalType": "address"
            },
            {
              "name": "oracleQuoteTokenPerFeeToken",
              "type": "address",
              "internalType": "address"
            },
            {
              "name": "feeToken",
              "type": "address",
              "internalType": "address"
            },
            {
              "name": "quoteToken",
              "type": "address",
              "internalType": "address"
            },
            {
              "name": "baseToken",
              "type": "address",
              "internalType": "address"
            },
            {
              "name": "feeTokenSymbol",
              "type": "string",
              "internalType": "string"
            },
            {
              "name": "quoteTokenSymbol",
              "type": "string",
              "internalType": "string"
            },
            {
              "name": "baseTokenSymbol",
              "type": "string",
              "internalType": "string"
            },
            {
              "name": "oracleQuoteTokenPerBaseTokenDecimals",
              "type": "uint8",
              "internalType": "uint8"
            },
            {
              "name": "oracleQuoteTokenPerFeeTokenDecimals",
              "type": "uint8",
              "internalType": "uint8"
            },
            {
              "name": "quoteTokenDecimals",
              "type": "uint8",
              "internalType": "uint8"
            },
            {
              "name": "baseTokenDecimals",
              "type": "uint8",
              "internalType": "uint8"
            },
            {
              "name": "quoteTokenAmount",
              "type": "uint256",
              "internalType": "uint256"
            },
            {
              "name": "baseTokenAmount",
              "type": "uint256",
              "internalType": "uint256"
            },
            {
              "name": "activeCapital",
              "type": "uint256",
              "internalType": "uint256"
            },
            {
              "name": "startTimestamp",
              "type": "uint256",
              "internalType": "uint256"
            },
            {
              "name": "totalProfits",
              "type": "tuple",
              "internalType": "struct IURUS.TotalProfits",
              "components": [
                {
                  "name": "quoteTokenYieldProfit",
                  "type": "uint256",
                  "internalType": "uint256"
                },
                {
                  "name": "baseTokenYieldProfit",
                  "type": "uint256",
                  "internalType": "uint256"
                },
                {
                  "name": "quoteTokenTradeProfit",
                  "type": "uint256",
                  "internalType": "uint256"
                },
                {
                  "name": "baseTokenTradeProfit",
                  "type": "uint256",
                  "internalType": "uint256"
                }
              ]
            },
            {
              "name": "roi",
              "type": "tuple",
              "internalType": "struct IPoolsNFTLens.ROI",
              "components": [
                {
                  "name": "ROINumerator",
                  "type": "uint256",
                  "internalType": "uint256"
                },
                {
                  "name": "ROIDeniminator",
                  "type": "uint256",
                  "internalType": "uint256"
                },
                {
                  "name": "ROIPeriod",
                  "type": "uint256",
                  "internalType": "uint256"
                }
              ]
            },
            {
              "name": "apr",
              "type": "tuple",
              "internalType": "struct IPoolsNFTLens.APR",
              "components": [
                {
                  "name": "APRNumerator",
                  "type": "uint256",
                  "internalType": "uint256"
                },
                {
                  "name": "APRDenominator",
                  "type": "uint256",
                  "internalType": "uint256"
                }
              ]
            },
            {
              "name": "royaltyPrice",
              "type": "uint256",
              "internalType": "uint256"
            }
          ]
        }
      ],
      "stateMutability": "view"
    },
    {
      "type": "function",
      "name": "getPositions",
      "inputs": [
        {
          "name": "poolId",
          "type": "uint256",
          "internalType": "uint256"
        }
      ],
      "outputs": [
        {
          "name": "",
          "type": "tuple",
          "internalType": "struct IPoolsNFTLens.Positions",
          "components": [
            {
              "name": "long",
              "type": "tuple",
              "internalType": "struct IURUS.Position",
              "components": [
                {
                  "name": "number",
                  "type": "uint8",
                  "internalType": "uint8"
                },
                {
                  "name": "numberMax",
                  "type": "uint8",
                  "internalType": "uint8"
                },
                {
                  "name": "priceMin",
                  "type": "uint256",
                  "internalType": "uint256"
                },
                {
                  "name": "liquidity",
                  "type": "uint256",
                  "internalType": "uint256"
                },
                {
                  "name": "qty",
                  "type": "uint256",
                  "internalType": "uint256"
                },
                {
                  "name": "price",
                  "type": "uint256",
                  "internalType": "uint256"
                },
                {
                  "name": "feeQty",
                  "type": "uint256",
                  "internalType": "uint256"
                },
                {
                  "name": "feePrice",
                  "type": "uint256",
                  "internalType": "uint256"
                }
              ]
            },
            {
              "name": "hedge",
              "type": "tuple",
              "internalType": "struct IURUS.Position",
              "components": [
                {
                  "name": "number",
                  "type": "uint8",
                  "internalType": "uint8"
                },
                {
                  "name": "numberMax",
                  "type": "uint8",
                  "internalType": "uint8"
                },
                {
                  "name": "priceMin",
                  "type": "uint256",
                  "internalType": "uint256"
                },
                {
                  "name": "liquidity",
                  "type": "uint256",
                  "internalType": "uint256"
                },
                {
                  "name": "qty",
                  "type": "uint256",
                  "internalType": "uint256"
                },
                {
                  "name": "price",
                  "type": "uint256",
                  "internalType": "uint256"
                },
                {
                  "name": "feeQty",
                  "type": "uint256",
                  "internalType": "uint256"
                },
                {
                  "name": "feePrice",
                  "type": "uint256",
                  "internalType": "uint256"
                }
              ]
            }
          ]
        }
      ],
      "stateMutability": "view"
    },
    {
      "type": "function",
      "name": "getPositionsBy",
      "inputs": [
        {
          "name": "_poolIds",
          "type": "uint256[]",
          "internalType": "uint256[]"
        }
      ],
      "outputs": [
        {
          "name": "",
          "type": "tuple[]",
          "internalType": "struct IPoolsNFTLens.Positions[]",
          "components": [
            {
              "name": "long",
              "type": "tuple",
              "internalType": "struct IURUS.Position",
              "components": [
                {
                  "name": "number",
                  "type": "uint8",
                  "internalType": "uint8"
                },
                {
                  "name": "numberMax",
                  "type": "uint8",
                  "internalType": "uint8"
                },
                {
                  "name": "priceMin",
                  "type": "uint256",
                  "internalType": "uint256"
                },
                {
                  "name": "liquidity",
                  "type": "uint256",
                  "internalType": "uint256"
                },
                {
                  "name": "qty",
                  "type": "uint256",
                  "internalType": "uint256"
                },
                {
                  "name": "price",
                  "type": "uint256",
                  "internalType": "uint256"
                },
                {
                  "name": "feeQty",
                  "type": "uint256",
                  "internalType": "uint256"
                },
                {
                  "name": "feePrice",
                  "type": "uint256",
                  "internalType": "uint256"
                }
              ]
            },
            {
              "name": "hedge",
              "type": "tuple",
              "internalType": "struct IURUS.Position",
              "components": [
                {
                  "name": "number",
                  "type": "uint8",
                  "internalType": "uint8"
                },
                {
                  "name": "numberMax",
                  "type": "uint8",
                  "internalType": "uint8"
                },
                {
                  "name": "priceMin",
                  "type": "uint256",
                  "internalType": "uint256"
                },
                {
                  "name": "liquidity",
                  "type": "uint256",
                  "internalType": "uint256"
                },
                {
                  "name": "qty",
                  "type": "uint256",
                  "internalType": "uint256"
                },
                {
                  "name": "price",
                  "type": "uint256",
                  "internalType": "uint256"
                },
                {
                  "name": "feeQty",
                  "type": "uint256",
                  "internalType": "uint256"
                },
                {
                  "name": "feePrice",
                  "type": "uint256",
                  "internalType": "uint256"
                }
              ]
            }
          ]
        }
      ],
      "stateMutability": "view"
    },
    {
      "type": "function",
      "name": "getRoyaltyReceiver",
      "inputs": [
        {
          "name": "poolId",
          "type": "uint256",
          "internalType": "uint256"
        }
      ],
      "outputs": [
        {
          "name": "receiver",
          "type": "address",
          "internalType": "address"
        }
      ],
      "stateMutability": "view"
    },
    {
      "type": "function",
      "name": "getThresholds",
      "inputs": [
        {
          "name": "poolId",
          "type": "uint256",
          "internalType": "uint256"
        }
      ],
      "outputs": [
        {
          "name": "longBuyPriceMin",
          "type": "uint256",
          "internalType": "uint256"
        },
        {
          "name": "longSellQuoteTokenAmountThreshold",
          "type": "uint256",
          "internalType": "uint256"
        },
        {
          "name": "longSellSwapPriceThreshold",
          "type": "uint256",
          "internalType": "uint256"
        },
        {
          "name": "hedgeSellInitPriceThresholdHigh",
          "type": "uint256",
          "internalType": "uint256"
        },
        {
          "name": "hedgeSellInitPriceThresholdLow",
          "type": "uint256",
          "internalType": "uint256"
        },
        {
          "name": "hedgeSellLiquidity",
          "type": "uint256",
          "internalType": "uint256"
        },
        {
          "name": "hedgeSellQuoteTokenAmountThreshold",
          "type": "uint256",
          "internalType": "uint256"
        },
        {
          "name": "hedgeSellTargetPrice",
          "type": "uint256",
          "internalType": "uint256"
        },
        {
          "name": "hedgeSellSwapPriceThreshold",
          "type": "uint256",
          "internalType": "uint256"
        },
        {
          "name": "hedgeRebuyBaseTokenAmountThreshold",
          "type": "uint256",
          "internalType": "uint256"
        },
        {
          "name": "hedgeRebuySwapPriceThreshold",
          "type": "uint256",
          "internalType": "uint256"
        }
      ],
      "stateMutability": "view"
    },
    {
      "type": "function",
      "name": "grETH",
      "inputs": [],
      "outputs": [
        {
          "name": "",
          "type": "address",
          "internalType": "contract IGRETH"
        }
      ],
      "stateMutability": "view"
    },
    {
      "type": "function",
      "name": "grethGrinderShareNumerator",
      "inputs": [],
      "outputs": [
        {
          "name": "",
          "type": "uint16",
          "internalType": "uint16"
        }
      ],
      "stateMutability": "view"
    },
    {
      "type": "function",
      "name": "grethPoolOwnerShareNumerator",
      "inputs": [],
      "outputs": [
        {
          "name": "",
          "type": "uint16",
          "internalType": "uint16"
        }
      ],
      "stateMutability": "view"
    },
    {
      "type": "function",
      "name": "grethReserveShareNumerator",
      "inputs": [],
      "outputs": [
        {
          "name": "",
          "type": "uint16",
          "internalType": "uint16"
        }
      ],
      "stateMutability": "view"
    },
    {
      "type": "function",
      "name": "grethRoyaltyReceiverShareNumerator",
      "inputs": [],
      "outputs": [
        {
          "name": "",
          "type": "uint16",
          "internalType": "uint16"
        }
      ],
      "stateMutability": "view"
    },
    {
      "type": "function",
      "name": "grind",
      "inputs": [
        {
          "name": "poolId",
          "type": "uint256",
          "internalType": "uint256"
        }
      ],
      "outputs": [
        {
          "name": "",
          "type": "bool",
          "internalType": "bool"
        }
      ],
      "stateMutability": "nonpayable"
    },
    {
      "type": "function",
      "name": "grindOp",
      "inputs": [
        {
          "name": "poolId",
          "type": "uint256",
          "internalType": "uint256"
        },
        {
          "name": "op",
          "type": "uint8",
          "internalType": "uint8"
        }
      ],
      "outputs": [
        {
          "name": "",
          "type": "bool",
          "internalType": "bool"
        }
      ],
      "stateMutability": "nonpayable"
    },
    {
      "type": "function",
      "name": "grindOpTo",
      "inputs": [
        {
          "name": "poolId",
          "type": "uint256",
          "internalType": "uint256"
        },
        {
          "name": "op",
          "type": "uint8",
          "internalType": "uint8"
        },
        {
          "name": "grinder",
          "type": "address",
          "internalType": "address"
        }
      ],
      "outputs": [
        {
          "name": "isGrinded",
          "type": "bool",
          "internalType": "bool"
        }
      ],
      "stateMutability": "nonpayable"
    },
    {
      "type": "function",
      "name": "grindTo",
      "inputs": [
        {
          "name": "poolId",
          "type": "uint256",
          "internalType": "uint256"
        },
        {
          "name": "grinder",
          "type": "address",
          "internalType": "address"
        }
      ],
      "outputs": [
        {
          "name": "isGrinded",
          "type": "bool",
          "internalType": "bool"
        }
      ],
      "stateMutability": "nonpayable"
    },
    {
      "type": "function",
      "name": "grinderAI",
      "inputs": [],
      "outputs": [
        {
          "name": "",
          "type": "address",
          "internalType": "contract IGrinderAI"
        }
      ],
      "stateMutability": "view"
    },
    {
      "type": "function",
      "name": "init",
      "inputs": [
        {
          "name": "_poolsNFTLens",
          "type": "address",
          "internalType": "address"
        },
        {
          "name": "_grETH",
          "type": "address",
          "internalType": "address"
        },
        {
          "name": "_grinderAI",
          "type": "address",
          "internalType": "address"
        }
      ],
      "outputs": [],
      "stateMutability": "nonpayable"
    },
    {
      "type": "function",
      "name": "isAgentOf",
      "inputs": [
        {
          "name": "_ownerOf",
          "type": "address",
          "internalType": "address"
        },
        {
          "name": "_agent",
          "type": "address",
          "internalType": "address"
        }
      ],
      "outputs": [
        {
          "name": "",
          "type": "bool",
          "internalType": "bool"
        }
      ],
      "stateMutability": "view"
    },
    {
      "type": "function",
      "name": "isApprovedForAll",
      "inputs": [
        {
          "name": "owner",
          "type": "address",
          "internalType": "address"
        },
        {
          "name": "operator",
          "type": "address",
          "internalType": "address"
        }
      ],
      "outputs": [
        {
          "name": "",
          "type": "bool",
          "internalType": "bool"
        }
      ],
      "stateMutability": "view"
    },
    {
      "type": "function",
      "name": "isDepositorOf",
      "inputs": [
        {
          "name": "poolId",
          "type": "uint256",
          "internalType": "uint256"
        },
        {
          "name": "_depositor",
          "type": "address",
          "internalType": "address"
        }
      ],
      "outputs": [
        {
          "name": "",
          "type": "bool",
          "internalType": "bool"
        }
      ],
      "stateMutability": "view"
    },
    {
      "type": "function",
      "name": "isDisapprovedGrinderAI",
      "inputs": [
        {
          "name": "_ownerOf",
          "type": "address",
          "internalType": "address"
        }
      ],
      "outputs": [
        {
          "name": "",
          "type": "bool",
          "internalType": "bool"
        }
      ],
      "stateMutability": "view"
    },
    {
      "type": "function",
      "name": "isStrategyStopped",
      "inputs": [
        {
          "name": "strategyId",
          "type": "uint16",
          "internalType": "uint16"
        }
      ],
      "outputs": [
        {
          "name": "",
          "type": "bool",
          "internalType": "bool"
        }
      ],
      "stateMutability": "view"
    },
    {
      "type": "function",
      "name": "maxDeposit",
      "inputs": [
        {
          "name": "token",
          "type": "address",
          "internalType": "address"
        }
      ],
      "outputs": [
        {
          "name": "",
          "type": "uint256",
          "internalType": "uint256"
        }
      ],
      "stateMutability": "view"
    },
    {
      "type": "function",
      "name": "minDeposit",
      "inputs": [
        {
          "name": "token",
          "type": "address",
          "internalType": "address"
        }
      ],
      "outputs": [
        {
          "name": "",
          "type": "uint256",
          "internalType": "uint256"
        }
      ],
      "stateMutability": "view"
    },
    {
      "type": "function",
      "name": "mint",
      "inputs": [
        {
          "name": "strategyId",
          "type": "uint16",
          "internalType": "uint16"
        },
        {
          "name": "quoteToken",
          "type": "address",
          "internalType": "address"
        },
        {
          "name": "baseToken",
          "type": "address",
          "internalType": "address"
        },
        {
          "name": "quoteTokenAmount",
          "type": "uint256",
          "internalType": "uint256"
        }
      ],
      "outputs": [
        {
          "name": "",
          "type": "uint256",
          "internalType": "uint256"
        }
      ],
      "stateMutability": "nonpayable"
    },
    {
      "type": "function",
      "name": "mintTo",
      "inputs": [
        {
          "name": "to",
          "type": "address",
          "internalType": "address"
        },
        {
          "name": "strategyId",
          "type": "uint16",
          "internalType": "uint16"
        },
        {
          "name": "quoteToken",
          "type": "address",
          "internalType": "address"
        },
        {
          "name": "baseToken",
          "type": "address",
          "internalType": "address"
        },
        {
          "name": "quoteTokenAmount",
          "type": "uint256",
          "internalType": "uint256"
        }
      ],
      "outputs": [
        {
          "name": "poolId",
          "type": "uint256",
          "internalType": "uint256"
        }
      ],
      "stateMutability": "nonpayable"
    },
    {
      "type": "function",
      "name": "minter",
      "inputs": [
        {
          "name": "poolId",
          "type": "uint256",
          "internalType": "uint256"
        }
      ],
      "outputs": [
        {
          "name": "",
          "type": "address",
          "internalType": "address"
        }
      ],
      "stateMutability": "view"
    },
    {
      "type": "function",
      "name": "name",
      "inputs": [],
      "outputs": [
        {
          "name": "",
          "type": "string",
          "internalType": "string"
        }
      ],
      "stateMutability": "pure"
    },
    {
      "type": "function",
      "name": "owner",
      "inputs": [],
      "outputs": [
        {
          "name": "",
          "type": "address",
          "internalType": "address payable"
        }
      ],
      "stateMutability": "view"
    },
    {
      "type": "function",
      "name": "ownerOf",
      "inputs": [
        {
          "name": "tokenId",
          "type": "uint256",
          "internalType": "uint256"
        }
      ],
      "outputs": [
        {
          "name": "",
          "type": "address",
          "internalType": "address"
        }
      ],
      "stateMutability": "view"
    },
    {
      "type": "function",
      "name": "pendingOwner",
      "inputs": [],
      "outputs": [
        {
          "name": "",
          "type": "address",
          "internalType": "address payable"
        }
      ],
      "stateMutability": "view"
    },
    {
      "type": "function",
      "name": "poolIds",
      "inputs": [
        {
          "name": "pool",
          "type": "address",
          "internalType": "address"
        }
      ],
      "outputs": [
        {
          "name": "",
          "type": "uint256",
          "internalType": "uint256"
        }
      ],
      "stateMutability": "view"
    },
    {
      "type": "function",
      "name": "poolOwnerShareNumerator",
      "inputs": [],
      "outputs": [
        {
          "name": "",
          "type": "uint16",
          "internalType": "uint16"
        }
      ],
      "stateMutability": "view"
    },
    {
      "type": "function",
      "name": "pools",
      "inputs": [
        {
          "name": "poolId",
          "type": "uint256",
          "internalType": "uint256"
        }
      ],
      "outputs": [
        {
          "name": "",
          "type": "address",
          "internalType": "address"
        }
      ],
      "stateMutability": "view"
    },
    {
      "type": "function",
      "name": "poolsNFTLens",
      "inputs": [],
      "outputs": [
        {
          "name": "",
          "type": "address",
          "internalType": "contract IPoolsNFTLens"
        }
      ],
      "stateMutability": "view"
    },
    {
      "type": "function",
      "name": "rebalance",
      "inputs": [
        {
          "name": "poolId0",
          "type": "uint256",
          "internalType": "uint256"
        },
        {
          "name": "poolId1",
          "type": "uint256",
          "internalType": "uint256"
        },
        {
          "name": "rebalance0",
          "type": "uint8",
          "internalType": "uint8"
        },
        {
          "name": "rebalance1",
          "type": "uint8",
          "internalType": "uint8"
        }
      ],
      "outputs": [],
      "stateMutability": "nonpayable"
    },
    {
      "type": "function",
      "name": "royaltyInfo",
      "inputs": [
        {
          "name": "tokenId",
          "type": "uint256",
          "internalType": "uint256"
        },
        {
          "name": "salePrice",
          "type": "uint256",
          "internalType": "uint256"
        }
      ],
      "outputs": [
        {
          "name": "receiver",
          "type": "address",
          "internalType": "address"
        },
        {
          "name": "royaltyAmount",
          "type": "uint256",
          "internalType": "uint256"
        }
      ],
      "stateMutability": "view"
    },
    {
      "type": "function",
      "name": "royaltyNumerator",
      "inputs": [],
      "outputs": [
        {
          "name": "",
          "type": "uint16",
          "internalType": "uint16"
        }
      ],
      "stateMutability": "view"
    },
    {
      "type": "function",
      "name": "royaltyOwnerShareNumerator",
      "inputs": [],
      "outputs": [
        {
          "name": "",
          "type": "uint16",
          "internalType": "uint16"
        }
      ],
      "stateMutability": "view"
    },
    {
      "type": "function",
      "name": "royaltyPrice",
      "inputs": [
        {
          "name": "poolId",
          "type": "uint256",
          "internalType": "uint256"
        }
      ],
      "outputs": [
        {
          "name": "",
          "type": "uint256",
          "internalType": "uint256"
        }
      ],
      "stateMutability": "view"
    },
    {
      "type": "function",
      "name": "royaltyPriceCompensationShareNumerator",
      "inputs": [],
      "outputs": [
        {
          "name": "",
          "type": "uint16",
          "internalType": "uint16"
        }
      ],
      "stateMutability": "view"
    },
    {
      "type": "function",
      "name": "royaltyPriceInitNumerator",
      "inputs": [],
      "outputs": [
        {
          "name": "",
          "type": "uint16",
          "internalType": "uint16"
        }
      ],
      "stateMutability": "view"
    },
    {
      "type": "function",
      "name": "royaltyPriceOwnerShareNumerator",
      "inputs": [],
      "outputs": [
        {
          "name": "",
          "type": "uint16",
          "internalType": "uint16"
        }
      ],
      "stateMutability": "view"
    },
    {
      "type": "function",
      "name": "royaltyPricePoolOwnerShareNumerator",
      "inputs": [],
      "outputs": [
        {
          "name": "",
          "type": "uint16",
          "internalType": "uint16"
        }
      ],
      "stateMutability": "view"
    },
    {
      "type": "function",
      "name": "royaltyPriceReserveShareNumerator",
      "inputs": [],
      "outputs": [
        {
          "name": "",
          "type": "uint16",
          "internalType": "uint16"
        }
      ],
      "stateMutability": "view"
    },
    {
      "type": "function",
      "name": "royaltyReceiver",
      "inputs": [
        {
          "name": "poolId",
          "type": "uint256",
          "internalType": "uint256"
        }
      ],
      "outputs": [
        {
          "name": "",
          "type": "address",
          "internalType": "address"
        }
      ],
      "stateMutability": "view"
    },
    {
      "type": "function",
      "name": "royaltyReceiverShareNumerator",
      "inputs": [],
      "outputs": [
        {
          "name": "",
          "type": "uint16",
          "internalType": "uint16"
        }
      ],
      "stateMutability": "view"
    },
    {
      "type": "function",
      "name": "royaltyReserveShareNumerator",
      "inputs": [],
      "outputs": [
        {
          "name": "",
          "type": "uint16",
          "internalType": "uint16"
        }
      ],
      "stateMutability": "view"
    },
    {
      "type": "function",
      "name": "safeTransferFrom",
      "inputs": [
        {
          "name": "from",
          "type": "address",
          "internalType": "address"
        },
        {
          "name": "to",
          "type": "address",
          "internalType": "address"
        },
        {
          "name": "tokenId",
          "type": "uint256",
          "internalType": "uint256"
        }
      ],
      "outputs": [],
      "stateMutability": "nonpayable"
    },
    {
      "type": "function",
      "name": "safeTransferFrom",
      "inputs": [
        {
          "name": "from",
          "type": "address",
          "internalType": "address"
        },
        {
          "name": "to",
          "type": "address",
          "internalType": "address"
        },
        {
          "name": "tokenId",
          "type": "uint256",
          "internalType": "uint256"
        },
        {
          "name": "data",
          "type": "bytes",
          "internalType": "bytes"
        }
      ],
      "outputs": [],
      "stateMutability": "nonpayable"
    },
    {
      "type": "function",
      "name": "setAgent",
      "inputs": [
        {
          "name": "_agent",
          "type": "address",
          "internalType": "address"
        },
        {
          "name": "_agentApproval",
          "type": "bool",
          "internalType": "bool"
        }
      ],
      "outputs": [],
      "stateMutability": "nonpayable"
    },
    {
      "type": "function",
      "name": "setApprovalForAll",
      "inputs": [
        {
          "name": "operator",
          "type": "address",
          "internalType": "address"
        },
        {
          "name": "approved",
          "type": "bool",
          "internalType": "bool"
        }
      ],
      "outputs": [],
      "stateMutability": "nonpayable"
    },
    {
      "type": "function",
      "name": "setDepositor",
      "inputs": [
        {
          "name": "poolId",
          "type": "uint256",
          "internalType": "uint256"
        },
        {
          "name": "depositor",
          "type": "address",
          "internalType": "address"
        },
        {
          "name": "_depositorApproval",
          "type": "bool",
          "internalType": "bool"
        }
      ],
      "outputs": [],
      "stateMutability": "nonpayable"
    },
    {
      "type": "function",
      "name": "setGRETH",
      "inputs": [
        {
          "name": "_grETH",
          "type": "address",
          "internalType": "address"
        }
      ],
      "outputs": [],
      "stateMutability": "nonpayable"
    },
    {
      "type": "function",
      "name": "setGRETHShares",
      "inputs": [
        {
          "name": "_grethGrinderShareNumerator",
          "type": "uint16",
          "internalType": "uint16"
        },
        {
          "name": "_grethReserveShareNumerator",
          "type": "uint16",
          "internalType": "uint16"
        },
        {
          "name": "_grethPoolOwnerShareNumerator",
          "type": "uint16",
          "internalType": "uint16"
        },
        {
          "name": "_grethRoyaltyReceiverShareNumerator",
          "type": "uint16",
          "internalType": "uint16"
        }
      ],
      "outputs": [],
      "stateMutability": "nonpayable"
    },
    {
      "type": "function",
      "name": "setGrinderAI",
      "inputs": [
        {
          "name": "_grinderAI",
          "type": "address",
          "internalType": "address"
        }
      ],
      "outputs": [],
      "stateMutability": "nonpayable"
    },
    {
      "type": "function",
      "name": "setMaxDeposit",
      "inputs": [
        {
          "name": "token",
          "type": "address",
          "internalType": "address"
        },
        {
          "name": "_maxDeposit",
          "type": "uint256",
          "internalType": "uint256"
        }
      ],
      "outputs": [],
      "stateMutability": "nonpayable"
    },
    {
      "type": "function",
      "name": "setMinDeposit",
      "inputs": [
        {
          "name": "token",
          "type": "address",
          "internalType": "address"
        },
        {
          "name": "_minDeposit",
          "type": "uint256",
          "internalType": "uint256"
        }
      ],
      "outputs": [],
      "stateMutability": "nonpayable"
    },
    {
      "type": "function",
      "name": "setPoolsNFTLens",
      "inputs": [
        {
          "name": "_poolsNFTLens",
          "type": "address",
          "internalType": "address"
        }
      ],
      "outputs": [],
      "stateMutability": "nonpayable"
    },
    {
      "type": "function",
      "name": "setRoyaltyPriceInitNumerator",
      "inputs": [
        {
          "name": "_royaltyPriceInitNumerator",
          "type": "uint16",
          "internalType": "uint16"
        }
      ],
      "outputs": [],
      "stateMutability": "nonpayable"
    },
    {
      "type": "function",
      "name": "setRoyaltyPriceShares",
      "inputs": [
        {
          "name": "_royaltyPriceCompensationShareNumerator",
          "type": "uint16",
          "internalType": "uint16"
        },
        {
          "name": "_royaltyPriceReserveShareNumerator",
          "type": "uint16",
          "internalType": "uint16"
        },
        {
          "name": "_royaltyPricePoolOwnerShareNumerator",
          "type": "uint16",
          "internalType": "uint16"
        },
        {
          "name": "_royaltyPriceOwnerShareNumerator",
          "type": "uint16",
          "internalType": "uint16"
        }
      ],
      "outputs": [],
      "stateMutability": "nonpayable"
    },
    {
      "type": "function",
      "name": "setRoyaltyShares",
      "inputs": [
        {
          "name": "_poolOwnerRoyaltyShareNumerator",
          "type": "uint16",
          "internalType": "uint16"
        },
        {
          "name": "_royaltyReceiverShareNumerator",
          "type": "uint16",
          "internalType": "uint16"
        },
        {
          "name": "_royaltyReserveShareNumerator",
          "type": "uint16",
          "internalType": "uint16"
        },
        {
          "name": "_royaltyOwnerShareNumerator",
          "type": "uint16",
          "internalType": "uint16"
        }
      ],
      "outputs": [],
      "stateMutability": "nonpayable"
    },
    {
      "type": "function",
      "name": "setStrategyFactory",
      "inputs": [
        {
          "name": "_strategyFactory",
          "type": "address",
          "internalType": "address"
        }
      ],
      "outputs": [],
      "stateMutability": "nonpayable"
    },
    {
      "type": "function",
      "name": "setStrategyStopped",
      "inputs": [
        {
          "name": "strategyId",
          "type": "uint16",
          "internalType": "uint16"
        },
        {
          "name": "_isStrategyStopped",
          "type": "bool",
          "internalType": "bool"
        }
      ],
      "outputs": [],
      "stateMutability": "nonpayable"
    },
    {
      "type": "function",
      "name": "strategyFactory",
      "inputs": [
        {
          "name": "strategyId",
          "type": "uint16",
          "internalType": "uint16"
        }
      ],
      "outputs": [
        {
          "name": "",
          "type": "address",
          "internalType": "address"
        }
      ],
      "stateMutability": "view"
    },
    {
      "type": "function",
      "name": "supportsInterface",
      "inputs": [
        {
          "name": "interfaceId",
          "type": "bytes4",
          "internalType": "bytes4"
        }
      ],
      "outputs": [
        {
          "name": "",
          "type": "bool",
          "internalType": "bool"
        }
      ],
      "stateMutability": "view"
    },
    {
      "type": "function",
      "name": "symbol",
      "inputs": [],
      "outputs": [
        {
          "name": "",
          "type": "string",
          "internalType": "string"
        }
      ],
      "stateMutability": "pure"
    },
    {
      "type": "function",
      "name": "tokenByIndex",
      "inputs": [
        {
          "name": "index",
          "type": "uint256",
          "internalType": "uint256"
        }
      ],
      "outputs": [
        {
          "name": "",
          "type": "uint256",
          "internalType": "uint256"
        }
      ],
      "stateMutability": "view"
    },
    {
      "type": "function",
      "name": "tokenOfOwnerByIndex",
      "inputs": [
        {
          "name": "owner",
          "type": "address",
          "internalType": "address"
        },
        {
          "name": "index",
          "type": "uint256",
          "internalType": "uint256"
        }
      ],
      "outputs": [
        {
          "name": "",
          "type": "uint256",
          "internalType": "uint256"
        }
      ],
      "stateMutability": "view"
    },
    {
      "type": "function",
      "name": "tokenURI",
      "inputs": [
        {
          "name": "poolId",
          "type": "uint256",
          "internalType": "uint256"
        }
      ],
      "outputs": [
        {
          "name": "uri",
          "type": "string",
          "internalType": "string"
        }
      ],
      "stateMutability": "view"
    },
    {
      "type": "function",
      "name": "totalDeposited",
      "inputs": [
        {
          "name": "token",
          "type": "address",
          "internalType": "address"
        }
      ],
      "outputs": [
        {
          "name": "",
          "type": "uint256",
          "internalType": "uint256"
        }
      ],
      "stateMutability": "view"
    },
    {
      "type": "function",
      "name": "totalPools",
      "inputs": [],
      "outputs": [
        {
          "name": "",
          "type": "uint256",
          "internalType": "uint256"
        }
      ],
      "stateMutability": "view"
    },
    {
      "type": "function",
      "name": "totalSupply",
      "inputs": [],
      "outputs": [
        {
          "name": "",
          "type": "uint256",
          "internalType": "uint256"
        }
      ],
      "stateMutability": "view"
    },
    {
      "type": "function",
      "name": "transfer",
      "inputs": [
        {
          "name": "to",
          "type": "address",
          "internalType": "address"
        },
        {
          "name": "poolId",
          "type": "uint256",
          "internalType": "uint256"
        }
      ],
      "outputs": [],
      "stateMutability": "nonpayable"
    },
    {
      "type": "function",
      "name": "transferFrom",
      "inputs": [
        {
          "name": "from",
          "type": "address",
          "internalType": "address"
        },
        {
          "name": "to",
          "type": "address",
          "internalType": "address"
        },
        {
          "name": "tokenId",
          "type": "uint256",
          "internalType": "uint256"
        }
      ],
      "outputs": [],
      "stateMutability": "nonpayable"
    },
    {
      "type": "function",
      "name": "transferOwnership",
      "inputs": [
        {
          "name": "newOwner",
          "type": "address",
          "internalType": "address payable"
        }
      ],
      "outputs": [],
      "stateMutability": "nonpayable"
    },
    {
      "type": "function",
      "name": "withdraw",
      "inputs": [
        {
          "name": "poolId",
          "type": "uint256",
          "internalType": "uint256"
        },
        {
          "name": "quoteTokenAmount",
          "type": "uint256",
          "internalType": "uint256"
        }
      ],
      "outputs": [
        {
          "name": "",
          "type": "uint256",
          "internalType": "uint256"
        }
      ],
      "stateMutability": "nonpayable"
    },
    {
      "type": "function",
      "name": "withdrawTo",
      "inputs": [
        {
          "name": "poolId",
          "type": "uint256",
          "internalType": "uint256"
        },
        {
          "name": "to",
          "type": "address",
          "internalType": "address"
        },
        {
          "name": "quoteTokenAmount",
          "type": "uint256",
          "internalType": "uint256"
        }
      ],
      "outputs": [
        {
          "name": "withdrawn",
          "type": "uint256",
          "internalType": "uint256"
        }
      ],
      "stateMutability": "nonpayable"
    },
    {
      "type": "event",
      "name": "Approval",
      "inputs": [
        {
          "name": "owner",
          "type": "address",
          "indexed": true,
          "internalType": "address"
        },
        {
          "name": "approved",
          "type": "address",
          "indexed": true,
          "internalType": "address"
        },
        {
          "name": "tokenId",
          "type": "uint256",
          "indexed": true,
          "internalType": "uint256"
        }
      ],
      "anonymous": false
    },
    {
      "type": "event",
      "name": "ApprovalForAll",
      "inputs": [
        {
          "name": "owner",
          "type": "address",
          "indexed": true,
          "internalType": "address"
        },
        {
          "name": "operator",
          "type": "address",
          "indexed": true,
          "internalType": "address"
        },
        {
          "name": "approved",
          "type": "bool",
          "indexed": false,
          "internalType": "bool"
        }
      ],
      "anonymous": false
    },
    {
      "type": "event",
      "name": "BuyRoyalty",
      "inputs": [
        {
          "name": "poolId",
          "type": "uint256",
          "indexed": false,
          "internalType": "uint256"
        },
        {
          "name": "buyer",
          "type": "address",
          "indexed": false,
          "internalType": "address"
        },
        {
          "name": "paidPrice",
          "type": "uint256",
          "indexed": false,
          "internalType": "uint256"
        }
      ],
      "anonymous": false
    },
    {
      "type": "event",
      "name": "Deposit",
      "inputs": [
        {
          "name": "poolId",
          "type": "uint256",
          "indexed": false,
          "internalType": "uint256"
        },
        {
          "name": "pool",
          "type": "address",
          "indexed": false,
          "internalType": "address"
        },
        {
          "name": "quoteToken",
          "type": "address",
          "indexed": false,
          "internalType": "address"
        },
        {
          "name": "quoteTokenAmount",
          "type": "uint256",
          "indexed": false,
          "internalType": "uint256"
        }
      ],
      "anonymous": false
    },
    {
      "type": "event",
      "name": "Exit",
      "inputs": [
        {
          "name": "poolId",
          "type": "uint256",
          "indexed": false,
          "internalType": "uint256"
        },
        {
          "name": "quoteTokenAmount",
          "type": "uint256",
          "indexed": false,
          "internalType": "uint256"
        },
        {
          "name": "baseTokenAmount",
          "type": "uint256",
          "indexed": false,
          "internalType": "uint256"
        }
      ],
      "anonymous": false
    },
    {
      "type": "event",
      "name": "Grind",
      "inputs": [
        {
          "name": "poolId",
          "type": "uint256",
          "indexed": false,
          "internalType": "uint256"
        },
        {
          "name": "op",
          "type": "uint8",
          "indexed": false,
          "internalType": "uint8"
        },
        {
          "name": "grinder",
          "type": "address",
          "indexed": false,
          "internalType": "address"
        },
        {
          "name": "isGrinded",
          "type": "bool",
          "indexed": false,
          "internalType": "bool"
        }
      ],
      "anonymous": false
    },
    {
      "type": "event",
      "name": "Mint",
      "inputs": [
        {
          "name": "poolId",
          "type": "uint256",
          "indexed": false,
          "internalType": "uint256"
        },
        {
          "name": "baseToken",
          "type": "address",
          "indexed": false,
          "internalType": "address"
        },
        {
          "name": "quoteToken",
          "type": "address",
          "indexed": false,
          "internalType": "address"
        }
      ],
      "anonymous": false
    },
    {
      "type": "event",
      "name": "Rebalance",
      "inputs": [
        {
          "name": "poolId0",
          "type": "uint256",
          "indexed": false,
          "internalType": "uint256"
        },
        {
          "name": "poolId1",
          "type": "uint256",
          "indexed": false,
          "internalType": "uint256"
        }
      ],
      "anonymous": false
    },
    {
      "type": "event",
      "name": "Transfer",
      "inputs": [
        {
          "name": "from",
          "type": "address",
          "indexed": true,
          "internalType": "address"
        },
        {
          "name": "to",
          "type": "address",
          "indexed": true,
          "internalType": "address"
        },
        {
          "name": "tokenId",
          "type": "uint256",
          "indexed": true,
          "internalType": "uint256"
        }
      ],
      "anonymous": false
    },
    {
      "type": "event",
      "name": "Withdraw",
      "inputs": [
        {
          "name": "poolId",
          "type": "uint256",
          "indexed": false,
          "internalType": "uint256"
        },
        {
          "name": "to",
          "type": "address",
          "indexed": false,
          "internalType": "address"
        },
        {
          "name": "quoteToken",
          "type": "address",
          "indexed": false,
          "internalType": "address"
        },
        {
          "name": "quoteTokenAmount",
          "type": "uint256",
          "indexed": false,
          "internalType": "uint256"
        }
      ],
      "anonymous": false
    },
    {
      "type": "error",
      "name": "DifferentOwnersOfPools",
      "inputs": []
    },
    {
      "type": "error",
      "name": "DifferentTokens",
      "inputs": []
    },
    {
      "type": "error",
      "name": "ERC721EnumerableForbiddenBatchMint",
      "inputs": []
    },
    {
      "type": "error",
      "name": "ERC721IncorrectOwner",
      "inputs": [
        {
          "name": "sender",
          "type": "address",
          "internalType": "address"
        },
        {
          "name": "tokenId",
          "type": "uint256",
          "internalType": "uint256"
        },
        {
          "name": "owner",
          "type": "address",
          "internalType": "address"
        }
      ]
    },
    {
      "type": "error",
      "name": "ERC721InsufficientApproval",
      "inputs": [
        {
          "name": "operator",
          "type": "address",
          "internalType": "address"
        },
        {
          "name": "tokenId",
          "type": "uint256",
          "internalType": "uint256"
        }
      ]
    },
    {
      "type": "error",
      "name": "ERC721InvalidApprover",
      "inputs": [
        {
          "name": "approver",
          "type": "address",
          "internalType": "address"
        }
      ]
    },
    {
      "type": "error",
      "name": "ERC721InvalidOperator",
      "inputs": [
        {
          "name": "operator",
          "type": "address",
          "internalType": "address"
        }
      ]
    },
    {
      "type": "error",
      "name": "ERC721InvalidOwner",
      "inputs": [
        {
          "name": "owner",
          "type": "address",
          "internalType": "address"
        }
      ]
    },
    {
      "type": "error",
      "name": "ERC721InvalidReceiver",
      "inputs": [
        {
          "name": "receiver",
          "type": "address",
          "internalType": "address"
        }
      ]
    },
    {
      "type": "error",
      "name": "ERC721InvalidSender",
      "inputs": [
        {
          "name": "sender",
          "type": "address",
          "internalType": "address"
        }
      ]
    },
    {
      "type": "error",
      "name": "ERC721NonexistentToken",
      "inputs": [
        {
          "name": "tokenId",
          "type": "uint256",
          "internalType": "uint256"
        }
      ]
    },
    {
      "type": "error",
      "name": "ERC721OutOfBoundsIndex",
      "inputs": [
        {
          "name": "owner",
          "type": "address",
          "internalType": "address"
        },
        {
          "name": "index",
          "type": "uint256",
          "internalType": "uint256"
        }
      ]
    },
    {
      "type": "error",
      "name": "ExceededMaxDeposit",
      "inputs": []
    },
    {
      "type": "error",
      "name": "InsufficientMinDeposit",
      "inputs": []
    },
    {
      "type": "error",
      "name": "InvalidGRETHShares",
      "inputs": []
    },
    {
      "type": "error",
      "name": "InvalidOp",
      "inputs": []
    },
    {
      "type": "error",
      "name": "InvalidRoyaltyPriceInit",
      "inputs": []
    },
    {
      "type": "error",
      "name": "InvalidRoyaltyPriceShare",
      "inputs": []
    },
    {
      "type": "error",
      "name": "InvalidRoyaltyShares",
      "inputs": []
    },
    {
      "type": "error",
      "name": "NoCapital",
      "inputs": []
    },
    {
      "type": "error",
      "name": "NotAgent",
      "inputs": []
    },
    {
      "type": "error",
      "name": "NotDepositor",
      "inputs": []
    },
    {
      "type": "error",
      "name": "NotMatchPoolsNFT",
      "inputs": []
    },
    {
      "type": "error",
      "name": "NotOwner",
      "inputs": []
    },
    {
      "type": "error",
      "name": "NotOwnerOf",
      "inputs": []
    },
    {
      "type": "error",
      "name": "NotOwnerOrPending",
      "inputs": []
    },
    {
      "type": "error",
      "name": "ReentrancyGuardReentrantCall",
      "inputs": []
    },
    {
      "type": "error",
      "name": "SafeERC20FailedOperation",
      "inputs": [
        {
          "name": "token",
          "type": "address",
          "internalType": "address"
        }
      ]
    },
    {
      "type": "error",
      "name": "StrategyStopped",
      "inputs": []
    }
  ],
  "bytecode": {
    "object": "0x608060405234801561000f575f5ffd5b5060408051602080820183525f8083528351918201909352828152909161003683826102c7565b50600161004382826102c7565b50506001600a55505f600e55600c80546001600160a01b0319908116909155600d8054339216919091179055600b80546001600160501b031916686401f400642774006417908190556127109061ffff680100000000000000008204811691660100000000000081048216916100cb9164010000000081048216916201000090910416610381565b6100d59190610381565b6100df9190610381565b61ffff16116100ec575f5ffd5b600b8054600160501b600160901b03191671012c00c805dc1f400000000000000000000017908190556127109061ffff600160801b8204811691600160701b810482169161015c916c0100000000000000000000000081048216916a010000000000000000000090910416610381565b6101669190610381565b6101709190610381565b61ffff161461017d575f5ffd5b600b8054600160901b600160e01b031916681f401f403e81f4007d60941b1790819055612710906101c29061ffff600160a01b8204811691600160901b900416610381565b61ffff16146101cf575f5ffd5b600b546127109061ffff600160d01b8204811691600160c01b810482169161020991600160b01b8104821691600160a01b90910416610381565b6102139190610381565b61021d9190610381565b61ffff161461022a575f5ffd5b6103ad565b634e487b7160e01b5f52604160045260245ffd5b600181811c9082168061025757607f821691505b60208210810361027557634e487b7160e01b5f52602260045260245ffd5b50919050565b601f8211156102c257805f5260205f20601f840160051c810160208510156102a05750805b601f840160051c820191505b818110156102bf575f81556001016102ac565b50505b505050565b81516001600160401b038111156102e0576102e061022f565b6102f4816102ee8454610243565b8461027b565b6020601f821160018114610326575f831561030f5750848201515b5f19600385901b1c1916600184901b1784556102bf565b5f84815260208120601f198516915b828110156103555787850151825560209485019460019092019101610335565b508482101561037257868401515f19600387901b60f8161c191681555b50505050600190811b01905550565b61ffff81811683821601908111156103a757634e487b7160e01b5f52601160045260245ffd5b92915050565b615e31806103ba5f395ff3fe608060405260043610610500575f3560e01c8063849784d41161028e578063bde855e511610160578063dec39715116100c9578063eb9b798611610083578063eb9b7986146112f5578063ef38e4e314611329578063f059deb214611375578063f260272014611394578063f2fde38b146113b3578063f9298928146113d2575f5ffd5b8063dec397151461122a578063e2bbb15814611249578063e30c397814611268578063e60ed1f314611287578063e985e9c5146112a8578063ea85781d146112c7575f5ffd5b8063ca05262b1161011a578063ca05262b14611162578063caa7262b14611181578063cdb0d023146111a0578063ce339395146111bf578063d4175be2146111e0578063dc49b1901461120b575f5ffd5b8063bde855e51461107e578063bfe121e5146110aa578063c0b7b578146110cb578063c0b929e6146110ea578063c87b56dd14611109578063c8b7cdb514611128575f5ffd5b8063a81b2f8d11610202578063ac4afa38116101bc578063ac4afa3814610f98578063ac8d856c14610fcc578063b2d5cca714611000578063b36289321461101f578063b61d27f614611040578063b88d4fde1461105f575f5ffd5b8063a81b2f8d14610ea0578063a8c9d30414610ef9578063a9059cbb14610f26578063a93d57a114610f45578063ab3c7e5214610f64578063ab6e969014610f79575f5ffd5b806395d89b411161025357806395d89b4114610d8557806397d8c67614610dbc57806398ac325514610e0d578063a22cb46514610e2c578063a238310614610e4b578063a5352bfd14610e81575f5ffd5b8063849784d414610cf45780638da5cb5b14610d135780638e22e7c314610d32578063912d1a8614610d51578063918f867414610d70575f5ffd5b806336e68f54116103d25780635cd2dd5e1161033b5780636d3a87db116102f55780636d3a87db14610c145780636db47de914610c3557806370a0823114610c6357806373f65f8a14610c82578063755b916214610ca15780637f8661a114610cc0575f5ffd5b80635cd2dd5e14610afd5780635d2d192014610b315780635db4474414610b505780636352211e14610b6f578063685fb6da14610b8e5780636c0360eb14610c00575f5ffd5b80634f6ccce71161038c5780634f6ccce714610a355780634f99f04a14610a545780635305548114610a7557806355b2d01e14610aa0578063592ae17f14610abf5780635b71ecb514610ade575f5ffd5b806336e68f541461095657806337566d54146109825780633c29f839146109a1578063402d267d146109cc57806342842e0e146109f7578063441a3e7014610a16575f5ffd5b80631927c4ea116104745780632a67fe0b1161042e5780632a67fe0b1461088f5780632bb80474146108a95780632f745c59146108ca57806330e00596146108e9578063352333f21461091557806336b02baf14610935575f5ffd5b80631927c4ea146107a857806323b872dd146107c957806326ca015a146107e857806327f8cabb146108135780632980b2ff146108325780632a55205a14610851575f5ffd5b80630861751f116104c55780630861751f146106e2578063095ea7b31461070157806309dbb6ea146107205780630cccd8881461073f57806318160ddd1461076b578063184b955914610789575f5ffd5b806301ffc9a7146105d457806304f6430e14610608578063053604ed1461063c57806306fdde031461065d578063081812fc146106ab575f5ffd5b366105d05734156105ce576010545f906001600160a01b031661057757600d546040516001600160a01b039091169034905f81818185875af1925050503d805f8114610567576040519150601f19603f3d011682016040523d82523d5f602084013e61056c565b606091505b5050809150506105cc565b6010546040516001600160a01b039091169034905f81818185875af1925050503d805f81146105c1576040519150601f19603f3d011682016040523d82523d5f602084013e6105c6565b606091505b50909150505b505b005b5f5ffd5b3480156105df575f5ffd5b506105f36105ee3660046149ab565b6113f4565b60405190151581526020015b60405180910390f35b348015610613575f5ffd5b50600b5461062990600160501b900461ffff1681565b60405161ffff90911681526020016105ff565b348015610647575f5ffd5b50600b5461062990600160b01b900461ffff1681565b348015610668575f5ffd5b5060408051808201909152601a81527f4772696e645552555320506f6f6c7320436f6c6c656374696f6e00000000000060208201525b6040516105ff91906149f4565b3480156106b6575f5ffd5b506106ca6106c5366004614a06565b611404565b6040516001600160a01b0390911681526020016105ff565b3480156106ed575f5ffd5b506105ce6106fc366004614a31565b61142b565b34801561070c575f5ffd5b506105ce61071b366004614a4c565b6114da565b34801561072b575f5ffd5b506105f361073a366004614a06565b6114e9565b34801561074a575f5ffd5b5061075e610759366004614a31565b6114f4565b6040516105ff9190614ab0565b348015610776575f5ffd5b506008545b6040519081526020016105ff565b348015610794575f5ffd5b506105ce6107a3366004614ac2565b6115a2565b3480156107b3575f5ffd5b50600b5461062990600160701b900461ffff1681565b3480156107d4575f5ffd5b506105ce6107e3366004614b0a565b611620565b3480156107f3575f5ffd5b5061077b610802366004614a06565b60156020525f908152604090205481565b34801561081e575f5ffd5b506105ce61082d366004614b57565b6116ae565b34801561083d575f5ffd5b506011546106ca906001600160a01b031681565b34801561085c575f5ffd5b5061087061086b366004614bb0565b611783565b604080516001600160a01b0390931683526020830191909152016105ff565b34801561089a575f5ffd5b50600b546106299061ffff1681565b3480156108b4575f5ffd5b50600b5461062990600160901b900461ffff1681565b3480156108d5575f5ffd5b5061077b6108e4366004614a4c565b6117c0565b3480156108f4575f5ffd5b50610908610903366004614a06565b611823565b6040516105ff9190614c42565b348015610920575f5ffd5b50600b546106299062010000900461ffff1681565b348015610940575f5ffd5b50600b5461062990600160401b900461ffff1681565b348015610961575f5ffd5b50610975610970366004614d47565b611897565b6040516105ff9190614dd2565b34801561098d575f5ffd5b5061077b61099c36600461506e565b611909565b3480156109ac575f5ffd5b5061077b6109bb366004614a31565b601b6020525f908152604090205481565b3480156109d7575f5ffd5b5061077b6109e6366004614a31565b601c6020525f908152604090205481565b348015610a02575f5ffd5b506105ce610a11366004614b0a565b611920565b348015610a21575f5ffd5b5061077b610a30366004614bb0565b61193f565b348015610a40575f5ffd5b5061077b610a4f366004614a06565b611952565b348015610a5f575f5ffd5b50600b5461062990600160301b900461ffff1681565b348015610a80575f5ffd5b5061077b610a8f366004614a31565b601a6020525f908152604090205481565b348015610aab575f5ffd5b506105ce610aba3660046150c9565b6119a7565b348015610aca575f5ffd5b5061077b610ad9366004615100565b6119d4565b348015610ae9575f5ffd5b506106ca610af8366004614a06565b611b8b565b348015610b08575f5ffd5b506106ca610b17366004614a06565b60146020525f90815260409020546001600160a01b031681565b348015610b3c575f5ffd5b506105ce610b4b366004615160565b611bb5565b348015610b5b575f5ffd5b506105ce610b6a3660046151a2565b611c16565b348015610b7a575f5ffd5b506106ca610b89366004614a06565b612237565b348015610b99575f5ffd5b50610bad610ba8366004614a06565b612241565b604080519b8c5260208c019a909a52988a01979097526060890195909552608088019390935260a087019190915260c086015260e0850152610100840152610120830152610140820152610160016105ff565b348015610c0b575f5ffd5b5061069e6122e6565b348015610c1f575f5ffd5b50600b5461062990600160c01b900461ffff1681565b348015610c40575f5ffd5b506105f3610c4f3660046151de565b60136020525f908152604090205460ff1681565b348015610c6e575f5ffd5b5061077b610c7d366004614a31565b612359565b348015610c8d575f5ffd5b506105ce610c9c366004614a4c565b61239e565b348015610cac575f5ffd5b5061077b610cbb366004614a06565b6123c1565b348015610ccb575f5ffd5b50610cdf610cda366004614a06565b6123cc565b604080519283526020830191909152016105ff565b348015610cff575f5ffd5b506105f3610d0e3660046151f9565b612552565b348015610d1e575f5ffd5b50600d546106ca906001600160a01b031681565b348015610d3d575f5ffd5b50600f546106ca906001600160a01b031681565b348015610d5c575f5ffd5b506105ce610d6b366004614a4c565b6125c1565b348015610d7b575f5ffd5b5061062961271081565b348015610d90575f5ffd5b5060408051808201909152600f81526e4752494e44555255535f504f4f4c5360881b602082015261069e565b348015610dc7575f5ffd5b506105ce610dd636600461521c565b335f908152601e602090815260408083206001600160a01b0395909516835293905291909120805460ff1916911515919091179055565b348015610e18575f5ffd5b506105ce610e27366004614a31565b6125e4565b348015610e37575f5ffd5b506105ce610e4636600461521c565b612645565b348015610e56575f5ffd5b5061077b610e653660046151f9565b601960209081525f928352604080842090915290825290205481565b348015610e8c575f5ffd5b506105ce610e9b366004614a31565b612650565b348015610eab575f5ffd5b50610ebf610eba366004614a06565b6126ff565b6040805160ff9889168152979096166020880152948601939093526060850191909152608084015260a083015260c082015260e0016105ff565b348015610f04575f5ffd5b50610f18610f13366004614bb0565b61278d565b6040516105ff929190615238565b348015610f31575f5ffd5b506105ce610f40366004614a4c565b612a22565b348015610f50575f5ffd5b506010546106ca906001600160a01b031681565b348015610f6f575f5ffd5b5061077b600e5481565b348015610f84575f5ffd5b506105ce610f933660046151de565b612a2d565b348015610fa3575f5ffd5b506106ca610fb2366004614a06565b60176020525f90815260409020546001600160a01b031681565b348015610fd7575f5ffd5b506106ca610fe6366004614a06565b60166020525f90815260409020546001600160a01b031681565b34801561100b575f5ffd5b506105f361101a3660046151f9565b612a73565b34801561102a575f5ffd5b50600b5461062990600160801b900461ffff1681565b34801561104b575f5ffd5b506105ce61105a366004615301565b612b87565b34801561106a575f5ffd5b506105ce611079366004615355565b612bf1565b348015611089575f5ffd5b5061109d611098366004614d47565b612c09565b6040516105ff91906153bc565b3480156110b5575f5ffd5b50600b5461062990600160d01b900461ffff1681565b3480156110d6575f5ffd5b506105f36110e536600461540a565b612c7b565b3480156110f5575f5ffd5b506105ce611104366004614b57565b612edb565b348015611114575f5ffd5b5061069e611123366004614a06565b612f78565b348015611133575f5ffd5b50611147611142366004614a06565b612ff1565b604080519384526020840192909252908201526060016105ff565b34801561116d575f5ffd5b506105ce61117c366004614b57565b61306d565b34801561118c575f5ffd5b5061077b61119b36600461542e565b613121565b3480156111ab575f5ffd5b506105f36111ba366004615452565b6132b4565b3480156111ca575f5ffd5b50600b5461062990600160601b900461ffff1681565b3480156111eb575f5ffd5b5061077b6111fa366004614a31565b60186020525f908152604090205481565b348015611216575f5ffd5b5061077b6112253660046151f9565b61334f565b348015611235575f5ffd5b50610f1861124436600461547e565b61355d565b348015611254575f5ffd5b5061077b611263366004614bb0565b6137fe565b348015611273575f5ffd5b50600c546106ca906001600160a01b031681565b348015611292575f5ffd5b50600b5461062990600160a01b900461ffff1681565b3480156112b3575f5ffd5b506105f36112c2366004615452565b613830565b3480156112d2575f5ffd5b506105f36112e1366004614a31565b601d6020525f908152604090205460ff1681565b348015611300575f5ffd5b506106ca61130f3660046151de565b60126020525f90815260409020546001600160a01b031681565b348015611334575f5ffd5b50611348611343366004614a06565b61385d565b604080519687526020870195909552938501929092526060840152608083015260a082015260c0016105ff565b348015611380575f5ffd5b506105f361138f3660046154a9565b613947565b34801561139f575f5ffd5b506105ce6113ae366004614a31565b613953565b3480156113be575f5ffd5b506105ce6113cd366004614a31565b6139b4565b3480156113dd575f5ffd5b50600b5461062990640100000000900461ffff1681565b5f6113fe82613a39565b92915050565b5f61140e82613a5d565b505f828152600460205260409020546001600160a01b03166113fe565b611433613a95565b601080546001600160a01b0319166001600160a01b0383169081179091556040805163154982b960e21b815290513092916355260ae49160048083019260209291908290030181865afa15801561148c573d5f5f3e3d5ffd5b505050506040513d601f19601f820116820180604052508101906114b091906154cc565b6001600160a01b0316146114d757604051630efe13f560e21b815260040160405180910390fd5b50565b6114e5828233613ac2565b5050565b5f6113fe8233612a73565b60605f61150083612359565b9050805f0361151e575050604080515f815260208101909152919050565b5f816001600160401b0381111561153757611537614c51565b604051908082528060200260200182016040528015611560578160200160208202803683370190505b5092505b8181101561159b5761157684826117c0565b838281518110611588576115886154e7565b6020908102919091010152600101611564565b5050919050565b600f546001600160a01b03161580156115c457506010546001600160a01b0316155b80156115d957506011546001600160a01b0316155b6115e1575f5ffd5b600f80546001600160a01b039485166001600160a01b031991821617909155601080549385169382169390931790925560118054919093169116179055565b6001600160a01b03821661164e57604051633250574960e11b81525f60048201526024015b60405180910390fd5b5f61165a838333613acf565b9050836001600160a01b0316816001600160a01b0316146116a8576040516364283d7b60e01b81526001600160a01b0380861660048301526024820184905282166044820152606401611645565b50505050565b6116b6613a95565b61271081836116c5868861550f565b6116cf919061550f565b6116d9919061550f565b61ffff16146116fb57604051631be3f71160e01b815260040160405180910390fd5b61170784612710615529565b600b805463ffffffff60901b1916600160901b61ffff9384160261ffff60a01b191617600160a01b968316969096029590951763ffffffff60b01b1916600160b01b9482169490940261ffff60c01b191693909317600160c01b928416929092029190911761ffff60d01b1916600160d01b9190921602179055565b5f5f61178e84611b8b565b600b54909250612710906117ad90600160901b900461ffff1685615543565b6117b7919061555a565b90509250929050565b5f6117ca83612359565b82106117fb5760405163295f44f760e21b81526001600160a01b038416600482015260248101839052604401611645565b506001600160a01b03919091165f908152600660209081526040808320938352929052205490565b61182b6148f5565b600f5460405163187002cb60e11b8152600481018490526001600160a01b03909116906330e005969060240161020060405180830381865afa158015611873573d5f5f3e3d5ffd5b505050506040513d601f19601f820116820180604052508101906113fe9190615641565b600f54604051630db9a3d560e21b81526060916001600160a01b0316906336e68f54906118c8908590600401614ab0565b5f60405180830381865afa1580156118e2573d5f5f3e3d5ffd5b505050506040513d5f823e601f3d908101601f191682016040526113fe919081019061580d565b5f61191733868686866119d4565b95945050505050565b61193a83838360405180602001604052805f815250612bf1565b505050565b5f61194b833384613121565b9392505050565b5f61195c60085490565b82106119845760405163295f44f760e21b81525f600482015260248101839052604401611645565b60088281548110611997576119976154e7565b905f5260205f2001549050919050565b6119af613a95565b61ffff919091165f908152601360205260409020805460ff1916911515919091179055565b61ffff84165f9081526013602052604081205460ff1615611a08576040516326d25d2560e21b815260040160405180910390fd5b50600e5461ffff85165f90815260126020526040808220549051634a217eb160e11b8152600481018490526001600160a01b038781166024830152868116604483015290911690639442fd62906064016020604051808303815f875af1158015611a74573d5f5f3e3d5ffd5b505050506040513d601f19601f82011682018060405250810190611a9891906154cc565b5f83815260166020908152604080832080546001600160a01b031990811633179091556017835281842080546001600160a01b0387169216821790558352601890915290208390559050611aec8783613ba2565b600e8054905f611afb83615ac0565b9091555050604080518381526001600160a01b03868116602083015287168183015290517f3794f7f7a2011a8e813b6d89dbacb3d42f6810b632e735dc2eab8628afdb77d99181900360600190a1611b538284613c03565b50600b5461271090611b699061ffff1685615543565b611b73919061555a565b5f838152601560205260409020555095945050505050565b5f818152601460205260409020546001600160a01b031680611bb0576113fe82612237565b919050565b611bbe83613dc1565b5f838152601f602052604081208291611bd686612237565b6001600160a01b03908116825260208083019390935260409182015f90812096909116815294909152909220805460ff1916921515929092179091555050565b611c1f83612237565b6001600160a01b0316611c3185612237565b6001600160a01b031614611c585760405163df870c7560e01b815260040160405180910390fd5b611c6a611c6485612237565b336132b4565b611c8757604051630d9ab13f60e01b815260040160405180910390fd5b5f8481526017602090815260408083205486845292819020548151630217a4b760e41b815291516001600160a01b039485169490911692839263217a4b7092600480830193928290030181865afa158015611ce4573d5f5f3e3d5ffd5b505050506040513d601f19601f82011682018060405250810190611d0891906154cc565b6001600160a01b0316826001600160a01b031663217a4b706040518163ffffffff1660e01b8152600401602060405180830381865afa158015611d4d573d5f5f3e3d5ffd5b505050506040513d601f19601f82011682018060405250810190611d7191906154cc565b6001600160a01b0316141580611e575750806001600160a01b031663c55dae636040518163ffffffff1660e01b8152600401602060405180830381865afa158015611dbe573d5f5f3e3d5ffd5b505050506040513d601f19601f82011682018060405250810190611de291906154cc565b6001600160a01b0316826001600160a01b031663c55dae636040518163ffffffff1660e01b8152600401602060405180830381865afa158015611e27573d5f5f3e3d5ffd5b505050506040513d601f19601f82011682018060405250810190611e4b91906154cc565b6001600160a01b031614155b15611e75576040516304e978c160e51b815260040160405180910390fd5b5f5f836001600160a01b031663c0b538f86040518163ffffffff1660e01b815260040160408051808303815f875af1158015611eb3573d5f5f3e3d5ffd5b505050506040513d601f19601f82011682018060405250810190611ed79190615ad8565b91509150611f52843084876001600160a01b031663c55dae636040518163ffffffff1660e01b8152600401602060405180830381865afa158015611f1d573d5f5f3e3d5ffd5b505050506040513d601f19601f82011682018060405250810190611f4191906154cc565b6001600160a01b0316929190613dfb565b5f5f846001600160a01b031663c0b538f86040518163ffffffff1660e01b815260040160408051808303815f875af1158015611f90573d5f5f3e3d5ffd5b505050506040513d601f19601f82011682018060405250810190611fb49190615ad8565b91509150611ffa853084886001600160a01b031663c55dae636040518163ffffffff1660e01b8152600401602060405180830381865afa158015611f1d573d5f5f3e3d5ffd5b5f6120058386615afa565b90505f816120138486615543565b61201d8789615543565b6120279190615afa565b612031919061555a565b90505f61203e8a8c615b0d565b60ff16838c60ff166120509190615543565b61205a919061555a565b90505f6120678285615b26565b905081156120e4576120e48a838c6001600160a01b031663c55dae636040518163ffffffff1660e01b8152600401602060405180830381865afa1580156120b0573d5f5f3e3d5ffd5b505050506040513d601f19601f820116820180604052508101906120d491906154cc565b6001600160a01b03169190613e62565b60405163d3a2750f60e01b815260048101839052602481018490526001600160a01b038b169063d3a2750f906044015f604051808303815f87803b15801561212a575f5ffd5b505af115801561213c573d5f5f3e3d5ffd5b505050505f8111156121895761218989828b6001600160a01b031663c55dae636040518163ffffffff1660e01b8152600401602060405180830381865afa1580156120b0573d5f5f3e3d5ffd5b60405163d3a2750f60e01b815260048101829052602481018490526001600160a01b038a169063d3a2750f906044015f604051808303815f87803b1580156121cf575f5ffd5b505af11580156121e1573d5f5f3e3d5ffd5b505050507f0b33d39bbef101ecc4f5ef04e6d3a125c9fb745a418dac380e2a9460f8200dc88e8e60405161221f929190918252602082015260400190565b60405180910390a15050505050505050505050505050565b5f6113fe82613a5d565b600f5460405163342fdb6d60e11b8152600481018390525f9182918291829182918291829182918291829182916001600160a01b03169063685fb6da9060240161016060405180830381865afa15801561229d573d5f5f3e3d5ffd5b505050506040513d601f19601f820116820180604052508101906122c19190615b39565b9a509a509a509a509a509a509a509a509a509a509a5091939597999b90929496989a50565b600f5460408051636c0360eb60e01b815290516060926001600160a01b031691636c0360eb916004808301925f9291908290030181865afa15801561232d573d5f5f3e3d5ffd5b505050506040513d5f823e601f3d908101601f191682016040526123549190810190615be8565b905090565b5f6001600160a01b038216612383576040516322718ad960e21b81525f6004820152602401611645565b506001600160a01b03165f9081526003602052604090205490565b6123a6613a95565b6001600160a01b039091165f908152601c6020526040902055565b5f6113fe823361334f565b5f5f6123d783613dc1565b5f838152601760205260408082205481516374fd6c7760e11b815282516001600160a01b0390921693849363e9fad8ee936004808501949293919283900301908290875af115801561242b573d5f5f3e3d5ffd5b505050506040513d601f19601f8201168201806040525081019061244f9190615ad8565b80935081945050505f816001600160a01b031663217a4b706040518163ffffffff1660e01b8152600401602060405180830381865afa158015612494573d5f5f3e3d5ffd5b505050506040513d601f19601f820116820180604052508101906124b891906154cc565b5f8681526019602090815260408083206001600160a01b03851684529091529020549091506124e8908290613ef1565b5f8581526019602090815260408083206001600160a01b038516845282528083209290925581518781529081018690529081018490527f2517b7e41eaf162b9731c79972aca29f825cb18a4db86c56de7e89edb381d72b9060600160405180910390a15050915091565b5f816001600160a01b031661256684612237565b6001600160a01b0316148061194b57505f838152601f602052604081209061258d85612237565b6001600160a01b03908116825260208083019390935260409182015f9081209186168152925290205460ff16905092915050565b6125c9613a95565b6001600160a01b039091165f908152601b6020526040902055565b6125ec613a95565b601180546001600160a01b0319166001600160a01b0383169081179091556040805163154982b960e21b815290513092916355260ae49160048083019260209291908290030181865afa15801561148c573d5f5f3e3d5ffd5b6114e5338383613f5c565b612658613a95565b5f816001600160a01b031663492f4e186040518163ffffffff1660e01b8152600401602060405180830381865afa158015612695573d5f5f3e3d5ffd5b505050506040513d601f19601f820116820180604052508101906126b99190615c19565b61ffff165f90815260126020908152604080832080546001600160a01b0319166001600160a01b0396909616959095179094556013905291909120805460ff1916905550565b600f5460405163a81b2f8d60e01b8152600481018390525f918291829182918291829182916001600160a01b03169063a81b2f8d9060240160e060405180830381865afa158015612752573d5f5f3e3d5ffd5b505050506040513d601f19601f820116820180604052508101906127769190615c34565b959e949d50929b5090995097509550909350915050565b60408051600480825260a0820190925260609182919060208201608080368337505060408051600480825260a082019092529294509050602082016080803683370190505090506127dd84612237565b825f815181106127ef576127ef6154e7565b60200260200101906001600160a01b031690816001600160a01b03168152505061281884611b8b565b8260018151811061282b5761282b6154e7565b6001600160a01b0392831660209182029290920101526010541661285a57600d546001600160a01b0316612867565b6010546001600160a01b03165b8260028151811061287a5761287a6154e7565b6001600160a01b039283166020918202929092010152600d548351911690839060039081106128ab576128ab6154e7565b6001600160a01b0390921660209283029190910190910152600b546127109081906128e190600160a01b900461ffff1686615543565b6128eb919061555a565b825f815181106128fd576128fd6154e7565b6020908102919091010152600b54819061292290600160b01b900461ffff1686615543565b61292c919061555a565b8260018151811061293f5761293f6154e7565b6020908102919091010152600b54819061296490600160c01b900461ffff1686615543565b61296e919061555a565b82600281518110612981576129816154e7565b602002602001018181525050816002815181106129a0576129a06154e7565b6020026020010151826001815181106129bb576129bb6154e7565b6020026020010151835f815181106129d5576129d56154e7565b60200260200101516129e79190615afa565b6129f19190615afa565b6129fb9085615b26565b82600381518110612a0e57612a0e6154e7565b602002602001018181525050509250929050565b6114e5338383613ffa565b612a35613a95565b61271061ffff821610612a5b5760405163c9732f9760e01b815260040160405180910390fd5b600b805461ffff191661ffff92909216919091179055565b5f5f5a5f858152601760205260409020549091506001600160a01b0316612a99816140a7565b806001600160a01b0316633d1f89026040518163ffffffff1660e01b81526004016020604051808303815f875af1925050508015612af4575060408051601f3d908101601f19168201909252612af191810190615c96565b60015b612b00575f9250612b03565b92505b8215612b7f575f3a5a612b169085615b26565b612b209190615543565b9050612b2d868287614126565b6040805187815260ff60208201526001600160a01b03871681830152851515606082015290517f728e60bec920c5a528246fdd7c4d3ec6f0ec45bca3edf44894b3dd71d5ce7d539181900360800190a1505b505092915050565b612b8f613a95565b5f836001600160a01b03168383604051612ba99190615cb1565b5f6040518083038185875af1925050503d805f8114612be3576040519150601f19603f3d011682016040523d82523d5f602084013e612be8565b606091505b50505050505050565b612bfc848484611620565b6116a833858585856141b2565b600f5460405163bde855e560e01b81526060916001600160a01b03169063bde855e590612c3a908590600401614ab0565b5f60405180830381865afa158015612c54573d5f5f3e3d5ffd5b505050506040513d5f823e601f3d908101601f191682016040526113fe9190810190615cc7565b5f5f5a5f868152601760205260409020549091506001600160a01b0316612ca1816140a7565b60ff8516612d1357806001600160a01b0316636d145ec56040518163ffffffff1660e01b815260040160408051808303815f875af1925050508015612d03575060408051601f3d908101601f19168201909252612d0091810190615ad8565b60015b15612e5457505060019250612e54565b5f1960ff861601612d7557806001600160a01b031663bd2ad6bf6040518163ffffffff1660e01b815260040160408051808303815f875af1925050508015612d03575060408051601f3d908101601f19168201909252612d0091810190615ad8565b60011960ff861601612dd857806001600160a01b031663cdc6d97c6040518163ffffffff1660e01b815260040160408051808303815f875af1925050508015612d03575060408051601f3d908101601f19168201909252612d0091810190615ad8565b60021960ff861601612e3b57806001600160a01b0316632b6010a76040518163ffffffff1660e01b815260040160408051808303815f875af1925050508015612d03575060408051601f3d908101601f19168201909252612d0091810190615ad8565b6040516393c19f6160e01b815260040160405180910390fd5b8215612ed2575f3a5a612e679085615b26565b612e719190615543565b9050612e7e878287614126565b6040805188815260ff881660208201526001600160a01b03871681830152851515606082015290517f728e60bec920c5a528246fdd7c4d3ec6f0ec45bca3edf44894b3dd71d5ce7d539181900360800190a1505b50509392505050565b612ee3613a95565b61271061ffff851611612f0957604051635072aad360e11b815260040160405180910390fd5b600b805465ffffffff000019166201000061ffff9687160265ffff00000000191617640100000000948616949094029390931769ffffffff0000000000001916600160301b9285169290920269ffff0000000000000000191691909117600160401b9190931602919091179055565b6060612f8382613a5d565b50600f5460405163c87b56dd60e01b8152600481018490526001600160a01b039091169063c87b56dd906024015f60405180830381865afa158015612fca573d5f5f3e3d5ffd5b505050506040513d5f823e601f3d908101601f191682016040526113fe9190810190615be8565b600f5460405163c8b7cdb560e01b8152600481018390525f91829182916001600160a01b03169063c8b7cdb590602401606060405180830381865afa15801561303c573d5f5f3e3d5ffd5b505050506040513d601f19601f820116820180604052508101906130609190615d58565b9250925092509193909250565b613075613a95565b6127108183613084868861550f565b61308e919061550f565b613098919061550f565b61ffff16146130ba576040516329a8e02f60e21b815260040160405180910390fd5b600b805463ffffffff60501b1916600160501b61ffff9687160261ffff60601b191617600160601b948616949094029390931763ffffffff60701b1916600160701b9285169290920261ffff60801b191691909117600160801b9190931602919091179055565b5f61312b84613dc1565b5f848152601760209081526040808320548151630217a4b760e41b815291516001600160a01b039091169392849263217a4b7092600480830193928290030181865afa15801561317d573d5f5f3e3d5ffd5b505050506040513d601f19601f820116820180604052508101906131a191906154cc565b60405163f3fef3a360e01b81526001600160a01b038781166004830152602482018790529192509083169063f3fef3a3906044016020604051808303815f875af11580156131f1573d5f5f3e3d5ffd5b505050506040513d601f19601f820116820180604052508101906132159190615d83565b5f8781526019602090815260408083206001600160a01b038616845290915281208054929550859290919061324b908490615b26565b9091555061325b90508184613ef1565b604080518781526001600160a01b0387811660208301528316818301526060810186905290517ffeb2000dca3e617cd6f3a8bbb63014bb54a124aac6ccbf73ee7229b4cd01f1209181900360800190a150509392505050565b5f5f6132bf84612359565b1115613348576011546001600160a01b03908116908316036132fd57506001600160a01b0382165f908152601d602052604090205460ff16156113fe565b816001600160a01b0316836001600160a01b0316148061334157506001600160a01b038084165f908152601e602090815260408083209386168352929052205460ff165b90506113fe565b505f6113fe565b5f5f5f5f5f5f61335e8861385d565b5f8e8152601760209081526040808320548151634a64d67d60e01b81529151999e50979c50959a509398509096506001600160a01b03909416948593634a64d67d93600480830194509092918290030181865afa1580156133c1573d5f5f3e3d5ffd5b505050506040513d601f19601f820116820180604052508101906133e591906154cc565b90506133fc6001600160a01b038216333086613dfb565b5f6134068b611b8b565b90508960145f8d81526020019081526020015f205f6101000a8154816001600160a01b0302191690836001600160a01b031602179055508360155f8d81526020019081526020015f20819055505f88111561347c5761346f6001600160a01b038316828a6142d1565b613479888a615afa565b98505b86156134ac5761349f61348e8c612237565b6001600160a01b03841690896142d1565b6134a9878a615afa565b98505b85156134d9576010546134cc906001600160a01b038481169116886142d1565b6134d6868a615afa565b98505b841561350657600d546134f9906001600160a01b038481169116876142d1565b613503858a615afa565b98505b604080518c81526001600160a01b038c1660208201529081018a90527f575a2f348e9def4ded8325aa42a4bf27e87e9856952e713a777c8adb7ee9d43c9060600160405180910390a1505050505050505092915050565b60408051600480825260a0820190925260609182919060208201608080368337505060408051600480825260a082019092529294509050602082016080803683370190505090506127106135b086612237565b835f815181106135c2576135c26154e7565b6001600160a01b039283166020918202929092010152601054166135f157600d546001600160a01b03166135fe565b6010546001600160a01b03165b83600181518110613611576136116154e7565b60200260200101906001600160a01b031690816001600160a01b03168152505061363a86611b8b565b8360028151811061364d5761364d6154e7565b60200260200101906001600160a01b031690816001600160a01b0316815250508383600381518110613681576136816154e7565b6001600160a01b0390921660209283029190910190910152600b5461ffff808316916136b691600160701b9091041687615543565b6136c0919061555a565b825f815181106136d2576136d26154e7565b6020908102919091010152600b5461ffff808316916136fa91600160601b9091041687615543565b613704919061555a565b82600181518110613717576137176154e7565b6020908102919091010152600b5461ffff8083169161373f91600160801b9091041687615543565b613749919061555a565b8260028151811061375c5761375c6154e7565b6020026020010181815250508160028151811061377b5761377b6154e7565b602002602001015182600181518110613796576137966154e7565b6020026020010151835f815181106137b0576137b06154e7565b60200260200101516137c29190615afa565b6137cc9190615afa565b6137d69086615b26565b826003815181106137e9576137e96154e7565b60200260200101818152505050935093915050565b5f6138098333612552565b61382657604051633cc50b4560e01b815260040160405180910390fd5b61194b8383613c03565b6001600160a01b039182165f90815260056020908152604080832093909416825291909152205460ff1690565b5f81815260156020526040812054600b5482918291829182918291906127109081906138939062010000900461ffff1684615543565b61389d919061555a565b600b5490985081906138ba90600160301b900461ffff1684615543565b6138c4919061555a565b600b5490975081906138e290640100000000900461ffff1684615543565b6138ec919061555a565b600b54909650819061390990600160401b900461ffff1684615543565b613913919061555a565b94508193508486888a6139269190615afa565b6139309190615afa565b61393a9190615afa565b9250505091939550919395565b5f61194b838333612c7b565b61395b613a95565b600f80546001600160a01b0319166001600160a01b0383169081179091556040805163154982b960e21b815290513092916355260ae49160048083019260209291908290030181865afa15801561148c573d5f5f3e3d5ffd5b600d546001600160a01b031633036139e657600c80546001600160a01b0383166001600160a01b031990911617905550565b600c546001600160a01b03163303613a2057600c8054600d80546001600160a01b03199081166001600160a01b0384161790915516905550565b604051632956fb3160e21b815260040160405180910390fd5b5f6001600160e01b0319821663780e9d6360e01b14806113fe57506113fe82614302565b5f818152600260205260408120546001600160a01b0316806113fe57604051637e27328960e01b815260048101849052602401611645565b600d546001600160a01b03163314613ac0576040516330cd747160e01b815260040160405180910390fd5b565b61193a8383836001614351565b5f5f613adc858585614455565b90506001600160a01b038116613b3857613b3384600880545f838152600960205260408120829055600182018355919091527ff3f7a9fe364faab93b216da50a3214154f22a0a2b415b23a84c8169e8b636ee30155565b613b5b565b846001600160a01b0316816001600160a01b031614613b5b57613b5b8185614547565b6001600160a01b038516613b7757613b72846145c4565b613b9a565b846001600160a01b0316816001600160a01b031614613b9a57613b9a858561466b565b949350505050565b6001600160a01b038216613bcb57604051633250574960e11b81525f6004820152602401611645565b5f613bd783835f613acf565b90506001600160a01b0381161561193a576040516339e3563760e11b81525f6004820152602401611645565b5f828152601760209081526040808320548151630217a4b760e41b815291516001600160a01b03909116928492849263217a4b70926004808401939192918290030181865afa158015613c58573d5f5f3e3d5ffd5b505050506040513d601f19601f82011682018060405250810190613c7c91906154cc565b9050613c8881856146b9565b613c9281856146f1565b613ca76001600160a01b038216333087613dfb565b613cbb6001600160a01b0382168386613e62565b60405163b6b55f2560e01b8152600481018590526001600160a01b0383169063b6b55f25906024016020604051808303815f875af1158015613cff573d5f5f3e3d5ffd5b505050506040513d601f19601f82011682018060405250810190613d239190615d83565b5f8681526019602090815260408083206001600160a01b0386168452909152812080549295508592909190613d59908490615afa565b90915550613d699050818461474b565b604080518681526001600160a01b0384811660208301528316818301526060810185905290517f2c0f148b435140de488c1b34647f1511c646f7077e87007bacf22ef9977a16d89181900360800190a1505092915050565b613dca81612237565b6001600160a01b0316336001600160a01b0316146114d757604051636a6bc9c560e11b815260040160405180910390fd5b6040516001600160a01b0384811660248301528381166044830152606482018390526116a89186918216906323b872dd906084015b604051602081830303815290604052915060e01b6020820180516001600160e01b03838183161783525050505061477b565b604080516001600160a01b038416602482015260448082018490528251808303909101815260649091019091526020810180516001600160e01b031663095ea7b360e01b179052613eb384826147e7565b6116a8576040516001600160a01b0384811660248301525f6044830152613ee791869182169063095ea7b390606401613e30565b6116a8848261477b565b6001600160a01b0382165f908152601a6020526040902054811015613f42576001600160a01b0382165f908152601a602052604081208054839290613f37908490615b26565b909155506114e59050565b506001600160a01b03165f908152601a6020526040812055565b6001600160a01b038216613f8e57604051630b61174360e31b81526001600160a01b0383166004820152602401611645565b6001600160a01b038381165f81815260056020908152604080832094871680845294825291829020805460ff191686151590811790915591519182527f17307eab39ab6107e8899845ad3d59bd9653f200f220920489ca2b5937696c31910160405180910390a3505050565b6001600160a01b03821661402357604051633250574960e11b81525f6004820152602401611645565b5f61402f83835f613acf565b90506001600160a01b03811661405b57604051637e27328960e01b815260048101839052602401611645565b836001600160a01b0316816001600160a01b0316146116a8576040516364283d7b60e01b81526001600160a01b0380861660048301526024820184905282166044820152606401611645565b806001600160a01b031663cfa48f3e6040518163ffffffff1660e01b8152600401602060405180830381865afa1580156140e3573d5f5f3e3d5ffd5b505050506040513d601f19601f820116820180604052508101906141079190615d83565b5f036114d757604051632a81ca8560e11b815260040160405180910390fd5b5f5f61413385858561355d565b6010546040516307233fbf60e51b81529294509092506001600160a01b03169063e467f7e0906141699085908590600401615238565b6020604051808303815f875af19250505080156141a3575060408051601f3d908101601f191682019092526141a091810190615d83565b60015b156141ab575b505b5050505050565b6001600160a01b0383163b156141ab57604051630a85bd0160e11b81526001600160a01b0384169063150b7a02906141f4908890889087908790600401615d9a565b6020604051808303815f875af192505050801561422e575060408051601f3d908101601f1916820190925261422b91810190615dcc565b60015b614295573d80801561425b576040519150601f19603f3d011682016040523d82523d5f602084013e614260565b606091505b5080515f0361428d57604051633250574960e11b81526001600160a01b0385166004820152602401611645565b805181602001fd5b6001600160e01b03198116630a85bd0160e11b146141a957604051633250574960e11b81526001600160a01b0385166004820152602401611645565b6040516001600160a01b0383811660248301526044820183905261193a91859182169063a9059cbb90606401613e30565b5f6001600160e01b031982166380ac58cd60e01b148061433257506001600160e01b03198216635b5e139f60e01b145b806113fe57506301ffc9a760e01b6001600160e01b03198316146113fe565b808061436557506001600160a01b03821615155b15614426575f61437484613a5d565b90506001600160a01b038316158015906143a05750826001600160a01b0316816001600160a01b031614155b80156143b357506143b18184613830565b155b156143dc5760405163a9fbf51f60e01b81526001600160a01b0384166004820152602401611645565b81156144245783856001600160a01b0316826001600160a01b03167f8c5be1e5ebec7d5bd14f71427d1e84f3dd0314c0f7b2291e5b200ac8c7c3b92560405160405180910390a45b505b50505f90815260046020526040902080546001600160a01b0319166001600160a01b0392909216919091179055565b5f828152600260205260408120546001600160a01b039081169083161561448157614481818486614830565b6001600160a01b038116156144bb5761449c5f855f5f614351565b6001600160a01b0381165f90815260036020526040902080545f190190555b6001600160a01b038516156144e9576001600160a01b0385165f908152600360205260409020805460010190555b5f8481526002602052604080822080546001600160a01b0319166001600160a01b0389811691821790925591518793918516917fddf252ad1be2c89b69c2b068fc378daa952ba7f163c4a11628f55a4df523b3ef91a4949350505050565b5f61455183612359565b5f838152600760209081526040808320546001600160a01b03881684526006909252909120919250908183146145a6575f83815260208281526040808320548584528184208190558352600790915290208290555b5f938452600760209081526040808620869055938552525081205550565b6008545f906145d590600190615b26565b5f83815260096020526040812054600880549394509092849081106145fc576145fc6154e7565b905f5260205f2001549050806008838154811061461b5761461b6154e7565b5f91825260208083209091019290925582815260099091526040808220849055858252812055600880548061465257614652615de7565b600190038181905f5260205f20015f9055905550505050565b5f600161467784612359565b6146819190615b26565b6001600160a01b039093165f908152600660209081526040808320868452825280832085905593825260079052919091209190915550565b6001600160a01b0382165f908152601b60205260409020548110156114e55760405163fafe179b60e01b815260040160405180910390fd5b6001600160a01b0382165f908152601c60205260409020541580159061472d57506001600160a01b0382165f908152601c602052604090205481115b156114e557604051633bc9ae0960e01b815260040160405180910390fd5b6001600160a01b0382165f908152601a602052604081208054839290614772908490615afa565b90915550505050565b5f5f60205f8451602086015f885af18061479a576040513d5f823e3d81fd5b50505f513d915081156147b15780600114156147be565b6001600160a01b0384163b155b156116a857604051635274afe760e01b81526001600160a01b0385166004820152602401611645565b5f5f5f5f60205f8651602088015f8a5af192503d91505f519050828015614826575081156148185780600114614826565b5f866001600160a01b03163b115b9695505050505050565b61483b838383614894565b61193a576001600160a01b03831661486957604051637e27328960e01b815260048101829052602401611645565b60405163177e802f60e01b81526001600160a01b038316600482015260248101829052604401611645565b5f6001600160a01b03831615801590613b9a5750826001600160a01b0316846001600160a01b031614806148cd57506148cd8484613830565b80613b9a5750505f908152600460205260409020546001600160a01b03908116911614919050565b60405180604001604052806149466040518061010001604052805f60ff1681526020015f60ff1681526020015f81526020015f81526020015f81526020015f81526020015f81526020015f81525090565b81526020016149916040518061010001604052805f60ff1681526020015f60ff1681526020015f81526020015f81526020015f81526020015f81526020015f81526020015f81525090565b905290565b6001600160e01b0319811681146114d7575f5ffd5b5f602082840312156149bb575f5ffd5b813561194b81614996565b5f81518084528060208401602086015e5f602082860101526020601f19601f83011685010191505092915050565b602081525f61194b60208301846149c6565b5f60208284031215614a16575f5ffd5b5035919050565b6001600160a01b03811681146114d7575f5ffd5b5f60208284031215614a41575f5ffd5b813561194b81614a1d565b5f5f60408385031215614a5d575f5ffd5b8235614a6881614a1d565b946020939093013593505050565b5f8151808452602084019350602083015f5b82811015614aa6578151865260209586019590910190600101614a88565b5093949350505050565b602081525f61194b6020830184614a76565b5f5f5f60608486031215614ad4575f5ffd5b8335614adf81614a1d565b92506020840135614aef81614a1d565b91506040840135614aff81614a1d565b809150509250925092565b5f5f5f60608486031215614b1c575f5ffd5b8335614b2781614a1d565b92506020840135614b3781614a1d565b929592945050506040919091013590565b61ffff811681146114d7575f5ffd5b5f5f5f5f60808587031215614b6a575f5ffd5b8435614b7581614b48565b93506020850135614b8581614b48565b92506040850135614b9581614b48565b91506060850135614ba581614b48565b939692955090935050565b5f5f60408385031215614bc1575f5ffd5b50508035926020909101359150565b60ff815116825260ff602082015116602083015260408101516040830152606081015160608301526080810151608083015260a081015160a083015260c081015160c083015260e081015160e08301525050565b614c2f828251614bd0565b602081015161193a610100840182614bd0565b61020081016113fe8284614c24565b634e487b7160e01b5f52604160045260245ffd5b60405161010081016001600160401b0381118282101715614c8857614c88614c51565b60405290565b604080519081016001600160401b0381118282101715614c8857614c88614c51565b60405160e081016001600160401b0381118282101715614c8857614c88614c51565b60405161032081016001600160401b0381118282101715614c8857614c88614c51565b604051601f8201601f191681016001600160401b0381118282101715614d1d57614d1d614c51565b604052919050565b5f6001600160401b03821115614d3d57614d3d614c51565b5060051b60200190565b5f60208284031215614d57575f5ffd5b81356001600160401b03811115614d6c575f5ffd5b8201601f81018413614d7c575f5ffd5b8035614d8f614d8a82614d25565b614cf5565b8082825260208201915060208360051b850101925086831115614db0575f5ffd5b6020840193505b82841015614826578335825260209384019390910190614db7565b5f602082016020835280845180835260408501915060408160051b8601019250602086015f5b8281101561506257603f19878603018452815180518652602081015160208701526040810151614e3360408801826001600160a01b03169052565b506060810151614e8b606088018260ff815116825260ff602082015116602083015260408101516040830152606081015160608301526080810151608083015260a081015160a083015260c081015160c08301525050565b506080810151805161014088810191909152602082015161016089015260409091015161018088015260a08201516001600160a01b039081166101a089015260c083015181166101c089015260e083015181166101e08901526101008301518116610200890152610120830151166102208801528101516104e06102408801819052614f19908801826149c6565b9050610160820151878203610260890152614f3482826149c6565b915050610180820151878203610280890152614f5082826149c6565b9150506101a0820151614f696102a089018260ff169052565b506101c082015160ff81166102c0890152506101e082015160ff81166102e08901525061020082015160ff8116610300890152506102208201516103208801526102408201516103408801526102608201516103608801526102808201516103808801526102a082015180516103a089015260208101516103c089015260408101516103e08901526060810151610400890152506102c0820151805161042089015260208101516104408901526040810151610460890152506102e0820151805161048089015260208101516104a08901525061030091909101516104c096909601959095526020938401939190910190600101614df8565b50929695505050505050565b5f5f5f5f60808587031215615081575f5ffd5b843561508c81614b48565b9350602085013561509c81614a1d565b925060408501356150ac81614a1d565b9396929550929360600135925050565b80151581146114d7575f5ffd5b5f5f604083850312156150da575f5ffd5b82356150e581614b48565b915060208301356150f5816150bc565b809150509250929050565b5f5f5f5f5f60a08688031215615114575f5ffd5b853561511f81614a1d565b9450602086013561512f81614b48565b9350604086013561513f81614a1d565b9250606086013561514f81614a1d565b949793965091946080013592915050565b5f5f5f60608486031215615172575f5ffd5b83359250602084013561518481614a1d565b91506040840135614aff816150bc565b60ff811681146114d7575f5ffd5b5f5f5f5f608085870312156151b5575f5ffd5b843593506020850135925060408501356151ce81615194565b91506060850135614ba581615194565b5f602082840312156151ee575f5ffd5b813561194b81614b48565b5f5f6040838503121561520a575f5ffd5b8235915060208301356150f581614a1d565b5f5f6040838503121561522d575f5ffd5b82356150e581614a1d565b604080825283519082018190525f9060208501906060840190835b8181101561527a5783516001600160a01b0316835260209384019390920191600101615253565b505083810360208501526148268186614a76565b5f6001600160401b038211156152a6576152a6614c51565b50601f01601f191660200190565b5f82601f8301126152c3575f5ffd5b81356152d1614d8a8261528e565b8181528460208386010111156152e5575f5ffd5b816020850160208301375f918101602001919091529392505050565b5f5f5f60608486031215615313575f5ffd5b833561531e81614a1d565b92506020840135915060408401356001600160401b0381111561533f575f5ffd5b61534b868287016152b4565b9150509250925092565b5f5f5f5f60808587031215615368575f5ffd5b843561537381614a1d565b9350602085013561538381614a1d565b92506040850135915060608501356001600160401b038111156153a4575f5ffd5b6153b0878288016152b4565b91505092959194509250565b602080825282518282018190525f918401906040840190835b818110156153ff576153e8838551614c24565b6020939093019261020092909201916001016153d5565b509095945050505050565b5f5f5f6060848603121561541c575f5ffd5b833592506020840135614aef81615194565b5f5f5f60608486031215615440575f5ffd5b833592506020840135614b3781614a1d565b5f5f60408385031215615463575f5ffd5b823561546e81614a1d565b915060208301356150f581614a1d565b5f5f5f60608486031215615490575f5ffd5b83359250602084013591506040840135614aff81614a1d565b5f5f604083850312156154ba575f5ffd5b8235915060208301356150f581615194565b5f602082840312156154dc575f5ffd5b815161194b81614a1d565b634e487b7160e01b5f52603260045260245ffd5b634e487b7160e01b5f52601160045260245ffd5b61ffff81811683821601908111156113fe576113fe6154fb565b61ffff82811682821603908111156113fe576113fe6154fb565b80820281158282048414176113fe576113fe6154fb565b5f8261557457634e487b7160e01b5f52601260045260245ffd5b500490565b8051611bb081615194565b5f6101008284031215615595575f5ffd5b61559d614c65565b905081516155aa81615194565b81526155b860208301615579565b602082015260408281015190820152606080830151908201526080808301519082015260a0808301519082015260c0808301519082015260e09182015191810191909152919050565b5f6102008284031215615612575f5ffd5b61561a614c8e565b90506156268383615584565b8152615636836101008401615584565b602082015292915050565b5f6102008284031215615652575f5ffd5b61194b8383615601565b8051611bb081614a1d565b5f60e08284031215615677575f5ffd5b61567f614cb0565b9050815161568c81615194565b8152602082015161569c81615194565b602082015260408281015190820152606080830151908201526080808301519082015260a0808301519082015260c09182015191810191909152919050565b5f606082840312156156eb575f5ffd5b604051606081016001600160401b038111828210171561570d5761570d614c51565b60409081528351825260208085015190830152928301519281019290925250919050565b5f82601f830112615740575f5ffd5b815161574e614d8a8261528e565b818152846020838601011115615762575f5ffd5b8160208501602083015e5f918101602001919091529392505050565b5f6080828403121561578e575f5ffd5b604051608081016001600160401b03811182821017156157b0576157b0614c51565b6040908152835182526020808501519083015283810151908201526060928301519281019290925250919050565b5f604082840312156157ee575f5ffd5b6157f6614c8e565b825181526020928301519281019290925250919050565b5f6020828403121561581d575f5ffd5b81516001600160401b03811115615832575f5ffd5b8201601f81018413615842575f5ffd5b8051615850614d8a82614d25565b8082825260208201915060208360051b850101925086831115615871575f5ffd5b602084015b83811015615ab55780516001600160401b03811115615893575f5ffd5b85016104e0818a03601f190112156158a9575f5ffd5b6158b1614cd2565b60208281015182526040830151908201526158ce6060830161565c565b60408201526158e08a60808401615667565b60608201526158f38a61016084016156db565b60808201526159056101c0830161565c565b60a08201526159176101e0830161565c565b60c0820152615929610200830161565c565b60e082015261593b610220830161565c565b61010082015261594e610240830161565c565b6101208201526102608201516001600160401b0381111561596d575f5ffd5b61597c8b602083860101615731565b610140830152506102808201516001600160401b0381111561599c575f5ffd5b6159ab8b602083860101615731565b610160830152506102a08201516001600160401b038111156159cb575f5ffd5b6159da8b602083860101615731565b610180830152506159ee6102c08301615579565b6101a0820152615a016102e08301615579565b6101c0820152615a146103008301615579565b6101e0820152615a276103208301615579565b6102008201526103408201516102208201526103608201516102408201526103808201516102608201526103a0820151610280820152615a6b8a6103c0840161577e565b6102a0820152615a7f8a61044084016156db565b6102c0820152615a938a6104a084016157de565b6102e08201526104e09190910151610300820152835260209283019201615876565b509695505050505050565b5f60018201615ad157615ad16154fb565b5060010190565b5f5f60408385031215615ae9575f5ffd5b505080516020909101519092909150565b808201808211156113fe576113fe6154fb565b60ff81811683821601908111156113fe576113fe6154fb565b818103818111156113fe576113fe6154fb565b5f5f5f5f5f5f5f5f5f5f5f6101608c8e031215615b54575f5ffd5b5f8c519050809b50505f60208d01519050809a50505f60408d01519050809950505f60608d01519050809850505f60808d01519050809750505f60a08d01519050809650505f60c08d01519050809550505f60e08d01519050809450505f6101008d01519050809350505f6101208d01519050809250505f6101408d01519050809150509295989b509295989b9093969950565b5f60208284031215615bf8575f5ffd5b81516001600160401b03811115615c0d575f5ffd5b613b9a84828501615731565b5f60208284031215615c29575f5ffd5b815161194b81614b48565b5f5f5f5f5f5f5f60e0888a031215615c4a575f5ffd5b8751615c5581615194565b6020890151909750615c6681615194565b604089015160608a015160808b015160a08c015160c0909c01519a9d939c50919a90999198509650945092505050565b5f60208284031215615ca6575f5ffd5b815161194b816150bc565b5f82518060208501845e5f920191825250919050565b5f60208284031215615cd7575f5ffd5b81516001600160401b03811115615cec575f5ffd5b8201601f81018413615cfc575f5ffd5b8051615d0a614d8a82614d25565b8082825260208201915060208360091b850101925086831115615d2b575f5ffd5b6020840193505b8284101561482657615d448785615601565b825260208201915061020084019350615d32565b5f5f5f60608486031215615d6a575f5ffd5b5050815160208301516040909301519094929350919050565b5f60208284031215615d93575f5ffd5b5051919050565b6001600160a01b03858116825284166020820152604081018390526080606082018190525f90614826908301846149c6565b5f60208284031215615ddc575f5ffd5b815161194b81614996565b634e487b7160e01b5f52603160045260245ffdfea2646970667358221220e39a874bc8647c01ecfb5eddf4eacaee5e1dc06d7f3a59276d0b35ac14a7591964736f6c634300081c0033",
    "linkReferences": {}
  },
  "methodIdentifiers": {
    "DENOMINATOR()": "918f8674",
    "approve(address,uint256)": "095ea7b3",
    "balanceOf(address)": "70a08231",
    "baseURI()": "6c0360eb",
    "buyRoyalty(uint256)": "755b9162",
    "buyRoyaltyTo(uint256,address)": "dc49b190",
    "calcGRETHShares(uint256,uint256,address)": "dec39715",
    "calcRoyaltyPriceShares(uint256)": "ef38e4e3",
    "calcRoyaltyShares(uint256,uint256)": "a8c9d304",
    "deposit(uint256,uint256)": "e2bbb158",
    "deposited(uint256,address)": "a2383106",
    "execute(address,uint256,bytes)": "b61d27f6",
    "exit(uint256)": "7f8661a1",
    "getApproved(uint256)": "081812fc",
    "getConfig(uint256)": "a81b2f8d",
    "getFeeConfig(uint256)": "c8b7cdb5",
    "getPoolIdsOf(address)": "0cccd888",
    "getPoolNFTInfosBy(uint256[])": "36e68f54",
    "getPositions(uint256)": "30e00596",
    "getPositionsBy(uint256[])": "bde855e5",
    "getRoyaltyReceiver(uint256)": "5b71ecb5",
    "getThresholds(uint256)": "685fb6da",
    "grETH()": "a93d57a1",
    "grethGrinderShareNumerator()": "04f6430e",
    "grethPoolOwnerShareNumerator()": "1927c4ea",
    "grethReserveShareNumerator()": "ce339395",
    "grethRoyaltyReceiverShareNumerator()": "b3628932",
    "grind(uint256)": "09dbb6ea",
    "grindOp(uint256,uint8)": "f059deb2",
    "grindOpTo(uint256,uint8,address)": "c0b7b578",
    "grindTo(uint256,address)": "b2d5cca7",
    "grinderAI()": "2980b2ff",
    "init(address,address,address)": "184b9559",
    "isAgentOf(address,address)": "cdb0d023",
    "isApprovedForAll(address,address)": "e985e9c5",
    "isDepositorOf(uint256,address)": "849784d4",
    "isDisapprovedGrinderAI(address)": "ea85781d",
    "isStrategyStopped(uint16)": "6db47de9",
    "maxDeposit(address)": "402d267d",
    "minDeposit(address)": "3c29f839",
    "mint(uint16,address,address,uint256)": "37566d54",
    "mintTo(address,uint16,address,address,uint256)": "592ae17f",
    "minter(uint256)": "ac8d856c",
    "name()": "06fdde03",
    "owner()": "8da5cb5b",
    "ownerOf(uint256)": "6352211e",
    "pendingOwner()": "e30c3978",
    "poolIds(address)": "d4175be2",
    "poolOwnerShareNumerator()": "e60ed1f3",
    "pools(uint256)": "ac4afa38",
    "poolsNFTLens()": "8e22e7c3",
    "rebalance(uint256,uint256,uint8,uint8)": "5db44744",
    "royaltyInfo(uint256,uint256)": "2a55205a",
    "royaltyNumerator()": "2bb80474",
    "royaltyOwnerShareNumerator()": "bfe121e5",
    "royaltyPrice(uint256)": "26ca015a",
    "royaltyPriceCompensationShareNumerator()": "352333f2",
    "royaltyPriceInitNumerator()": "2a67fe0b",
    "royaltyPriceOwnerShareNumerator()": "36b02baf",
    "royaltyPricePoolOwnerShareNumerator()": "4f99f04a",
    "royaltyPriceReserveShareNumerator()": "f9298928",
    "royaltyReceiver(uint256)": "5cd2dd5e",
    "royaltyReceiverShareNumerator()": "053604ed",
    "royaltyReserveShareNumerator()": "6d3a87db",
    "safeTransferFrom(address,address,uint256)": "42842e0e",
    "safeTransferFrom(address,address,uint256,bytes)": "b88d4fde",
    "setAgent(address,bool)": "97d8c676",
    "setApprovalForAll(address,bool)": "a22cb465",
    "setDepositor(uint256,address,bool)": "5d2d1920",
    "setGRETH(address)": "0861751f",
    "setGRETHShares(uint16,uint16,uint16,uint16)": "ca05262b",
    "setGrinderAI(address)": "98ac3255",
    "setMaxDeposit(address,uint256)": "73f65f8a",
    "setMinDeposit(address,uint256)": "912d1a86",
    "setPoolsNFTLens(address)": "f2602720",
    "setRoyaltyPriceInitNumerator(uint16)": "ab6e9690",
    "setRoyaltyPriceShares(uint16,uint16,uint16,uint16)": "c0b929e6",
    "setRoyaltyShares(uint16,uint16,uint16,uint16)": "27f8cabb",
    "setStrategyFactory(address)": "a5352bfd",
    "setStrategyStopped(uint16,bool)": "55b2d01e",
    "strategyFactory(uint16)": "eb9b7986",
    "supportsInterface(bytes4)": "01ffc9a7",
    "symbol()": "95d89b41",
    "tokenByIndex(uint256)": "4f6ccce7",
    "tokenOfOwnerByIndex(address,uint256)": "2f745c59",
    "tokenURI(uint256)": "c87b56dd",
    "totalDeposited(address)": "53055481",
    "totalPools()": "ab3c7e52",
    "totalSupply()": "18160ddd",
    "transfer(address,uint256)": "a9059cbb",
    "transferFrom(address,address,uint256)": "23b872dd",
    "transferOwnership(address)": "f2fde38b",
    "withdraw(uint256,uint256)": "441a3e70",
    "withdrawTo(uint256,address,uint256)": "caa7262b"
  },
  "id": 70
}