{
  "abi": [
    {
      "type": "constructor",
      "inputs": [],
      "stateMutability": "nonpayable"
    },
    {
      "type": "receive",
      "stateMutability": "payable"
    },
    {
      "type": "function",
      "name": "DENOMINATOR",
      "inputs": [],
      "outputs": [
        {
          "name": "",
          "type": "uint16",
          "internalType": "uint16"
        }
      ],
      "stateMutability": "view"
    },
    {
      "type": "function",
      "name": "approve",
      "inputs": [
        {
          "name": "to",
          "type": "address",
          "internalType": "address"
        },
        {
          "name": "tokenId",
          "type": "uint256",
          "internalType": "uint256"
        }
      ],
      "outputs": [],
      "stateMutability": "nonpayable"
    },
    {
      "type": "function",
      "name": "balanceOf",
      "inputs": [
        {
          "name": "owner",
          "type": "address",
          "internalType": "address"
        }
      ],
      "outputs": [
        {
          "name": "",
          "type": "uint256",
          "internalType": "uint256"
        }
      ],
      "stateMutability": "view"
    },
    {
      "type": "function",
      "name": "baseURI",
      "inputs": [],
      "outputs": [
        {
          "name": "",
          "type": "string",
          "internalType": "string"
        }
      ],
      "stateMutability": "view"
    },
    {
      "type": "function",
      "name": "buyRoyalty",
      "inputs": [
        {
          "name": "poolId",
          "type": "uint256",
          "internalType": "uint256"
        }
      ],
      "outputs": [
        {
          "name": "",
          "type": "uint256",
          "internalType": "uint256"
        }
      ],
      "stateMutability": "nonpayable"
    },
    {
      "type": "function",
      "name": "buyRoyaltyTo",
      "inputs": [
        {
          "name": "poolId",
          "type": "uint256",
          "internalType": "uint256"
        },
        {
          "name": "to",
          "type": "address",
          "internalType": "address"
        }
      ],
      "outputs": [
        {
          "name": "royaltyPricePaid",
          "type": "uint256",
          "internalType": "uint256"
        }
      ],
      "stateMutability": "nonpayable"
    },
    {
      "type": "function",
      "name": "calcGRETHShares",
      "inputs": [
        {
          "name": "poolId",
          "type": "uint256",
          "internalType": "uint256"
        },
        {
          "name": "nativeFeeSpent",
          "type": "uint256",
          "internalType": "uint256"
        },
        {
          "name": "grinder",
          "type": "address",
          "internalType": "address"
        }
      ],
      "outputs": [
        {
          "name": "actors",
          "type": "address[]",
          "internalType": "address[]"
        },
        {
          "name": "grethShares",
          "type": "uint256[]",
          "internalType": "uint256[]"
        }
      ],
      "stateMutability": "view"
    },
    {
      "type": "function",
      "name": "calcRoyaltyPriceShares",
      "inputs": [
        {
          "name": "poolId",
          "type": "uint256",
          "internalType": "uint256"
        }
      ],
      "outputs": [
        {
          "name": "compensationShare",
          "type": "uint256",
          "internalType": "uint256"
        },
        {
          "name": "poolOwnerShare",
          "type": "uint256",
          "internalType": "uint256"
        },
        {
          "name": "reserveShare",
          "type": "uint256",
          "internalType": "uint256"
        },
        {
          "name": "ownerShare",
          "type": "uint256",
          "internalType": "uint256"
        },
        {
          "name": "oldRoyaltyPrice",
          "type": "uint256",
          "internalType": "uint256"
        },
        {
          "name": "newRoyaltyPrice",
          "type": "uint256",
          "internalType": "uint256"
        }
      ],
      "stateMutability": "view"
    },
    {
      "type": "function",
      "name": "calcRoyaltyShares",
      "inputs": [
        {
          "name": "poolId",
          "type": "uint256",
          "internalType": "uint256"
        },
        {
          "name": "profit",
          "type": "uint256",
          "internalType": "uint256"
        }
      ],
      "outputs": [
        {
          "name": "receivers",
          "type": "address[]",
          "internalType": "address[]"
        },
        {
          "name": "amounts",
          "type": "uint256[]",
          "internalType": "uint256[]"
        }
      ],
      "stateMutability": "view"
    },
    {
      "type": "function",
      "name": "deposit",
      "inputs": [
        {
          "name": "poolId",
          "type": "uint256",
          "internalType": "uint256"
        },
        {
          "name": "quoteTokenAmount",
          "type": "uint256",
          "internalType": "uint256"
        }
      ],
      "outputs": [
        {
          "name": "",
          "type": "uint256",
          "internalType": "uint256"
        }
      ],
      "stateMutability": "nonpayable"
    },
    {
      "type": "function",
      "name": "deposit2",
      "inputs": [
        {
          "name": "poolId",
          "type": "uint256",
          "internalType": "uint256"
        },
        {
          "name": "baseTokenAmount",
          "type": "uint256",
          "internalType": "uint256"
        },
        {
          "name": "baseTokenPrice",
          "type": "uint256",
          "internalType": "uint256"
        }
      ],
      "outputs": [
        {
          "name": "depositedBaseTokenAmount",
          "type": "uint256",
          "internalType": "uint256"
        }
      ],
      "stateMutability": "nonpayable"
    },
    {
      "type": "function",
      "name": "deposit3",
      "inputs": [
        {
          "name": "poolId",
          "type": "uint256",
          "internalType": "uint256"
        },
        {
          "name": "quoteTokenAmount",
          "type": "uint256",
          "internalType": "uint256"
        }
      ],
      "outputs": [],
      "stateMutability": "nonpayable"
    },
    {
      "type": "function",
      "name": "execute",
      "inputs": [
        {
          "name": "target",
          "type": "address",
          "internalType": "address"
        },
        {
          "name": "value",
          "type": "uint256",
          "internalType": "uint256"
        },
        {
          "name": "data",
          "type": "bytes",
          "internalType": "bytes"
        }
      ],
      "outputs": [
        {
          "name": "success",
          "type": "bool",
          "internalType": "bool"
        },
        {
          "name": "result",
          "type": "bytes",
          "internalType": "bytes"
        }
      ],
      "stateMutability": "payable"
    },
    {
      "type": "function",
      "name": "exit",
      "inputs": [
        {
          "name": "poolId",
          "type": "uint256",
          "internalType": "uint256"
        }
      ],
      "outputs": [
        {
          "name": "quoteTokenAmount",
          "type": "uint256",
          "internalType": "uint256"
        },
        {
          "name": "baseTokenAmount",
          "type": "uint256",
          "internalType": "uint256"
        }
      ],
      "stateMutability": "nonpayable"
    },
    {
      "type": "function",
      "name": "getApproved",
      "inputs": [
        {
          "name": "tokenId",
          "type": "uint256",
          "internalType": "uint256"
        }
      ],
      "outputs": [
        {
          "name": "",
          "type": "address",
          "internalType": "address"
        }
      ],
      "stateMutability": "view"
    },
    {
      "type": "function",
      "name": "getPoolIdsOf",
      "inputs": [
        {
          "name": "poolOwner",
          "type": "address",
          "internalType": "address"
        }
      ],
      "outputs": [
        {
          "name": "poolIdsOwnedByPoolOwner",
          "type": "uint256[]",
          "internalType": "uint256[]"
        }
      ],
      "stateMutability": "view"
    },
    {
      "type": "function",
      "name": "getPoolNFTInfosBy",
      "inputs": [
        {
          "name": "_poolIds",
          "type": "uint256[]",
          "internalType": "uint256[]"
        }
      ],
      "outputs": [
        {
          "name": "poolNFTInfos",
          "type": "tuple[]",
          "internalType": "struct IPoolsNFTLens.PoolNFTInfo[]",
          "components": [
            {
              "name": "poolId",
              "type": "uint256",
              "internalType": "uint256"
            },
            {
              "name": "strategyId",
              "type": "uint256",
              "internalType": "uint256"
            },
            {
              "name": "pool",
              "type": "address",
              "internalType": "address"
            },
            {
              "name": "positions",
              "type": "tuple",
              "internalType": "struct IPoolsNFTLens.Positions",
              "components": [
                {
                  "name": "long",
                  "type": "tuple",
                  "internalType": "struct IURUS.Position",
                  "components": [
                    {
                      "name": "number",
                      "type": "uint8",
                      "internalType": "uint8"
                    },
                    {
                      "name": "numberMax",
                      "type": "uint8",
                      "internalType": "uint8"
                    },
                    {
                      "name": "priceMin",
                      "type": "uint256",
                      "internalType": "uint256"
                    },
                    {
                      "name": "liquidity",
                      "type": "uint256",
                      "internalType": "uint256"
                    },
                    {
                      "name": "qty",
                      "type": "uint256",
                      "internalType": "uint256"
                    },
                    {
                      "name": "price",
                      "type": "uint256",
                      "internalType": "uint256"
                    },
                    {
                      "name": "feeQty",
                      "type": "uint256",
                      "internalType": "uint256"
                    },
                    {
                      "name": "feePrice",
                      "type": "uint256",
                      "internalType": "uint256"
                    }
                  ]
                },
                {
                  "name": "hedge",
                  "type": "tuple",
                  "internalType": "struct IURUS.Position",
                  "components": [
                    {
                      "name": "number",
                      "type": "uint8",
                      "internalType": "uint8"
                    },
                    {
                      "name": "numberMax",
                      "type": "uint8",
                      "internalType": "uint8"
                    },
                    {
                      "name": "priceMin",
                      "type": "uint256",
                      "internalType": "uint256"
                    },
                    {
                      "name": "liquidity",
                      "type": "uint256",
                      "internalType": "uint256"
                    },
                    {
                      "name": "qty",
                      "type": "uint256",
                      "internalType": "uint256"
                    },
                    {
                      "name": "price",
                      "type": "uint256",
                      "internalType": "uint256"
                    },
                    {
                      "name": "feeQty",
                      "type": "uint256",
                      "internalType": "uint256"
                    },
                    {
                      "name": "feePrice",
                      "type": "uint256",
                      "internalType": "uint256"
                    }
                  ]
                }
              ]
            },
            {
              "name": "config",
              "type": "tuple",
              "internalType": "struct IURUS.Config",
              "components": [
                {
                  "name": "longNumberMax",
                  "type": "uint8",
                  "internalType": "uint8"
                },
                {
                  "name": "hedgeNumberMax",
                  "type": "uint8",
                  "internalType": "uint8"
                },
                {
                  "name": "extraCoef",
                  "type": "uint256",
                  "internalType": "uint256"
                },
                {
                  "name": "priceVolatilityPercent",
                  "type": "uint256",
                  "internalType": "uint256"
                },
                {
                  "name": "returnPercentLongSell",
                  "type": "uint256",
                  "internalType": "uint256"
                },
                {
                  "name": "returnPercentHedgeSell",
                  "type": "uint256",
                  "internalType": "uint256"
                },
                {
                  "name": "returnPercentHedgeRebuy",
                  "type": "uint256",
                  "internalType": "uint256"
                }
              ]
            },
            {
              "name": "feeConfig",
              "type": "tuple",
              "internalType": "struct IURUS.FeeConfig",
              "components": [
                {
                  "name": "longSellFeeCoef",
                  "type": "uint256",
                  "internalType": "uint256"
                },
                {
                  "name": "hedgeSellFeeCoef",
                  "type": "uint256",
                  "internalType": "uint256"
                },
                {
                  "name": "hedgeRebuyFeeCoef",
                  "type": "uint256",
                  "internalType": "uint256"
                }
              ]
            },
            {
              "name": "oracleQuoteTokenPerBaseToken",
              "type": "address",
              "internalType": "address"
            },
            {
              "name": "oracleQuoteTokenPerFeeToken",
              "type": "address",
              "internalType": "address"
            },
            {
              "name": "feeToken",
              "type": "address",
              "internalType": "address"
            },
            {
              "name": "quoteToken",
              "type": "address",
              "internalType": "address"
            },
            {
              "name": "baseToken",
              "type": "address",
              "internalType": "address"
            },
            {
              "name": "feeTokenSymbol",
              "type": "string",
              "internalType": "string"
            },
            {
              "name": "quoteTokenSymbol",
              "type": "string",
              "internalType": "string"
            },
            {
              "name": "baseTokenSymbol",
              "type": "string",
              "internalType": "string"
            },
            {
              "name": "oracleQuoteTokenPerBaseTokenDecimals",
              "type": "uint8",
              "internalType": "uint8"
            },
            {
              "name": "oracleQuoteTokenPerFeeTokenDecimals",
              "type": "uint8",
              "internalType": "uint8"
            },
            {
              "name": "quoteTokenDecimals",
              "type": "uint8",
              "internalType": "uint8"
            },
            {
              "name": "baseTokenDecimals",
              "type": "uint8",
              "internalType": "uint8"
            },
            {
              "name": "quoteTokenAmount",
              "type": "uint256",
              "internalType": "uint256"
            },
            {
              "name": "baseTokenAmount",
              "type": "uint256",
              "internalType": "uint256"
            },
            {
              "name": "activeCapital",
              "type": "uint256",
              "internalType": "uint256"
            },
            {
              "name": "startTimestamp",
              "type": "uint256",
              "internalType": "uint256"
            },
            {
              "name": "profits",
              "type": "tuple",
              "internalType": "struct IURUS.Profits",
              "components": [
                {
                  "name": "quoteTokenYieldProfit",
                  "type": "uint256",
                  "internalType": "uint256"
                },
                {
                  "name": "baseTokenYieldProfit",
                  "type": "uint256",
                  "internalType": "uint256"
                },
                {
                  "name": "quoteTokenTradeProfit",
                  "type": "uint256",
                  "internalType": "uint256"
                },
                {
                  "name": "baseTokenTradeProfit",
                  "type": "uint256",
                  "internalType": "uint256"
                }
              ]
            },
            {
              "name": "totalProfits",
              "type": "tuple",
              "internalType": "struct IURUS.Profits",
              "components": [
                {
                  "name": "quoteTokenYieldProfit",
                  "type": "uint256",
                  "internalType": "uint256"
                },
                {
                  "name": "baseTokenYieldProfit",
                  "type": "uint256",
                  "internalType": "uint256"
                },
                {
                  "name": "quoteTokenTradeProfit",
                  "type": "uint256",
                  "internalType": "uint256"
                },
                {
                  "name": "baseTokenTradeProfit",
                  "type": "uint256",
                  "internalType": "uint256"
                }
              ]
            },
            {
              "name": "roi",
              "type": "tuple",
              "internalType": "struct IPoolsNFTLens.ROI",
              "components": [
                {
                  "name": "ROINumerator",
                  "type": "uint256",
                  "internalType": "uint256"
                },
                {
                  "name": "ROIDeniminator",
                  "type": "uint256",
                  "internalType": "uint256"
                },
                {
                  "name": "ROIPeriod",
                  "type": "uint256",
                  "internalType": "uint256"
                }
              ]
            },
            {
              "name": "thresholds",
              "type": "tuple",
              "internalType": "struct IPoolsNFTLens.Thresholds",
              "components": [
                {
                  "name": "longBuyPriceMin",
                  "type": "uint256",
                  "internalType": "uint256"
                },
                {
                  "name": "longSellQuoteTokenAmountThreshold",
                  "type": "uint256",
                  "internalType": "uint256"
                },
                {
                  "name": "longSellSwapPriceThreshold",
                  "type": "uint256",
                  "internalType": "uint256"
                },
                {
                  "name": "hedgeSellInitPriceThresholdHigh",
                  "type": "uint256",
                  "internalType": "uint256"
                },
                {
                  "name": "hedgeSellInitPriceThresholdLow",
                  "type": "uint256",
                  "internalType": "uint256"
                },
                {
                  "name": "hedgeSellLiquidity",
                  "type": "uint256",
                  "internalType": "uint256"
                },
                {
                  "name": "hedgeSellQuoteTokenAmountThreshold",
                  "type": "uint256",
                  "internalType": "uint256"
                },
                {
                  "name": "hedgeSellTargetPrice",
                  "type": "uint256",
                  "internalType": "uint256"
                },
                {
                  "name": "hedgeSellSwapPriceThreshold",
                  "type": "uint256",
                  "internalType": "uint256"
                },
                {
                  "name": "hedgeRebuyBaseTokenAmountThreshold",
                  "type": "uint256",
                  "internalType": "uint256"
                },
                {
                  "name": "hedgeRebuySwapPriceThreshold",
                  "type": "uint256",
                  "internalType": "uint256"
                }
              ]
            },
            {
              "name": "royaltyParams",
              "type": "tuple",
              "internalType": "struct IPoolsNFTLens.RoyaltyParams",
              "components": [
                {
                  "name": "compensationShare",
                  "type": "uint256",
                  "internalType": "uint256"
                },
                {
                  "name": "poolOwnerShare",
                  "type": "uint256",
                  "internalType": "uint256"
                },
                {
                  "name": "reserveShare",
                  "type": "uint256",
                  "internalType": "uint256"
                },
                {
                  "name": "ownerShare",
                  "type": "uint256",
                  "internalType": "uint256"
                },
                {
                  "name": "oldRoyaltyPrice",
                  "type": "uint256",
                  "internalType": "uint256"
                },
                {
                  "name": "newRoyaltyPrice",
                  "type": "uint256",
                  "internalType": "uint256"
                }
              ]
            }
          ]
        }
      ],
      "stateMutability": "view"
    },
    {
      "type": "function",
      "name": "getPositionsBy",
      "inputs": [
        {
          "name": "_poolIds",
          "type": "uint256[]",
          "internalType": "uint256[]"
        }
      ],
      "outputs": [
        {
          "name": "",
          "type": "tuple[]",
          "internalType": "struct IPoolsNFTLens.Positions[]",
          "components": [
            {
              "name": "long",
              "type": "tuple",
              "internalType": "struct IURUS.Position",
              "components": [
                {
                  "name": "number",
                  "type": "uint8",
                  "internalType": "uint8"
                },
                {
                  "name": "numberMax",
                  "type": "uint8",
                  "internalType": "uint8"
                },
                {
                  "name": "priceMin",
                  "type": "uint256",
                  "internalType": "uint256"
                },
                {
                  "name": "liquidity",
                  "type": "uint256",
                  "internalType": "uint256"
                },
                {
                  "name": "qty",
                  "type": "uint256",
                  "internalType": "uint256"
                },
                {
                  "name": "price",
                  "type": "uint256",
                  "internalType": "uint256"
                },
                {
                  "name": "feeQty",
                  "type": "uint256",
                  "internalType": "uint256"
                },
                {
                  "name": "feePrice",
                  "type": "uint256",
                  "internalType": "uint256"
                }
              ]
            },
            {
              "name": "hedge",
              "type": "tuple",
              "internalType": "struct IURUS.Position",
              "components": [
                {
                  "name": "number",
                  "type": "uint8",
                  "internalType": "uint8"
                },
                {
                  "name": "numberMax",
                  "type": "uint8",
                  "internalType": "uint8"
                },
                {
                  "name": "priceMin",
                  "type": "uint256",
                  "internalType": "uint256"
                },
                {
                  "name": "liquidity",
                  "type": "uint256",
                  "internalType": "uint256"
                },
                {
                  "name": "qty",
                  "type": "uint256",
                  "internalType": "uint256"
                },
                {
                  "name": "price",
                  "type": "uint256",
                  "internalType": "uint256"
                },
                {
                  "name": "feeQty",
                  "type": "uint256",
                  "internalType": "uint256"
                },
                {
                  "name": "feePrice",
                  "type": "uint256",
                  "internalType": "uint256"
                }
              ]
            }
          ]
        }
      ],
      "stateMutability": "view"
    },
    {
      "type": "function",
      "name": "getRoyaltyReceiver",
      "inputs": [
        {
          "name": "poolId",
          "type": "uint256",
          "internalType": "uint256"
        }
      ],
      "outputs": [
        {
          "name": "receiver",
          "type": "address",
          "internalType": "address"
        }
      ],
      "stateMutability": "view"
    },
    {
      "type": "function",
      "name": "grETH",
      "inputs": [],
      "outputs": [
        {
          "name": "",
          "type": "address",
          "internalType": "contract IGRETH"
        }
      ],
      "stateMutability": "view"
    },
    {
      "type": "function",
      "name": "grethGrinderShareNumerator",
      "inputs": [],
      "outputs": [
        {
          "name": "",
          "type": "uint16",
          "internalType": "uint16"
        }
      ],
      "stateMutability": "view"
    },
    {
      "type": "function",
      "name": "grethPoolOwnerShareNumerator",
      "inputs": [],
      "outputs": [
        {
          "name": "",
          "type": "uint16",
          "internalType": "uint16"
        }
      ],
      "stateMutability": "view"
    },
    {
      "type": "function",
      "name": "grethReserveShareNumerator",
      "inputs": [],
      "outputs": [
        {
          "name": "",
          "type": "uint16",
          "internalType": "uint16"
        }
      ],
      "stateMutability": "view"
    },
    {
      "type": "function",
      "name": "grethRoyaltyReceiverShareNumerator",
      "inputs": [],
      "outputs": [
        {
          "name": "",
          "type": "uint16",
          "internalType": "uint16"
        }
      ],
      "stateMutability": "view"
    },
    {
      "type": "function",
      "name": "grind",
      "inputs": [
        {
          "name": "poolId",
          "type": "uint256",
          "internalType": "uint256"
        }
      ],
      "outputs": [
        {
          "name": "",
          "type": "bool",
          "internalType": "bool"
        }
      ],
      "stateMutability": "nonpayable"
    },
    {
      "type": "function",
      "name": "grindOp",
      "inputs": [
        {
          "name": "poolId",
          "type": "uint256",
          "internalType": "uint256"
        },
        {
          "name": "op",
          "type": "uint8",
          "internalType": "uint8"
        }
      ],
      "outputs": [
        {
          "name": "",
          "type": "bool",
          "internalType": "bool"
        }
      ],
      "stateMutability": "nonpayable"
    },
    {
      "type": "function",
      "name": "grindOpTo",
      "inputs": [
        {
          "name": "poolId",
          "type": "uint256",
          "internalType": "uint256"
        },
        {
          "name": "op",
          "type": "uint8",
          "internalType": "uint8"
        },
        {
          "name": "grinder",
          "type": "address",
          "internalType": "address"
        }
      ],
      "outputs": [
        {
          "name": "isGrinded",
          "type": "bool",
          "internalType": "bool"
        }
      ],
      "stateMutability": "nonpayable"
    },
    {
      "type": "function",
      "name": "grindTo",
      "inputs": [
        {
          "name": "poolId",
          "type": "uint256",
          "internalType": "uint256"
        },
        {
          "name": "grinder",
          "type": "address",
          "internalType": "address"
        }
      ],
      "outputs": [
        {
          "name": "isGrinded",
          "type": "bool",
          "internalType": "bool"
        }
      ],
      "stateMutability": "nonpayable"
    },
    {
      "type": "function",
      "name": "grinderAI",
      "inputs": [],
      "outputs": [
        {
          "name": "",
          "type": "address",
          "internalType": "contract IGrinderAI"
        }
      ],
      "stateMutability": "view"
    },
    {
      "type": "function",
      "name": "init",
      "inputs": [
        {
          "name": "_poolsNFTLens",
          "type": "address",
          "internalType": "address"
        },
        {
          "name": "_grETH",
          "type": "address",
          "internalType": "address"
        },
        {
          "name": "_grinderAI",
          "type": "address",
          "internalType": "address"
        }
      ],
      "outputs": [],
      "stateMutability": "nonpayable"
    },
    {
      "type": "function",
      "name": "isAgentOf",
      "inputs": [
        {
          "name": "_ownerOf",
          "type": "address",
          "internalType": "address"
        },
        {
          "name": "_agent",
          "type": "address",
          "internalType": "address"
        }
      ],
      "outputs": [
        {
          "name": "",
          "type": "bool",
          "internalType": "bool"
        }
      ],
      "stateMutability": "view"
    },
    {
      "type": "function",
      "name": "isApprovedForAll",
      "inputs": [
        {
          "name": "owner",
          "type": "address",
          "internalType": "address"
        },
        {
          "name": "operator",
          "type": "address",
          "internalType": "address"
        }
      ],
      "outputs": [
        {
          "name": "",
          "type": "bool",
          "internalType": "bool"
        }
      ],
      "stateMutability": "view"
    },
    {
      "type": "function",
      "name": "isDepositorOf",
      "inputs": [
        {
          "name": "poolId",
          "type": "uint256",
          "internalType": "uint256"
        },
        {
          "name": "_depositor",
          "type": "address",
          "internalType": "address"
        }
      ],
      "outputs": [
        {
          "name": "",
          "type": "bool",
          "internalType": "bool"
        }
      ],
      "stateMutability": "view"
    },
    {
      "type": "function",
      "name": "isStrategyStopped",
      "inputs": [
        {
          "name": "strategyId",
          "type": "uint16",
          "internalType": "uint16"
        }
      ],
      "outputs": [
        {
          "name": "",
          "type": "bool",
          "internalType": "bool"
        }
      ],
      "stateMutability": "view"
    },
    {
      "type": "function",
      "name": "maxDeposit",
      "inputs": [
        {
          "name": "token",
          "type": "address",
          "internalType": "address"
        }
      ],
      "outputs": [
        {
          "name": "",
          "type": "uint256",
          "internalType": "uint256"
        }
      ],
      "stateMutability": "view"
    },
    {
      "type": "function",
      "name": "minDeposit",
      "inputs": [
        {
          "name": "token",
          "type": "address",
          "internalType": "address"
        }
      ],
      "outputs": [
        {
          "name": "",
          "type": "uint256",
          "internalType": "uint256"
        }
      ],
      "stateMutability": "view"
    },
    {
      "type": "function",
      "name": "mint",
      "inputs": [
        {
          "name": "strategyId",
          "type": "uint16",
          "internalType": "uint16"
        },
        {
          "name": "baseToken",
          "type": "address",
          "internalType": "address"
        },
        {
          "name": "quoteToken",
          "type": "address",
          "internalType": "address"
        },
        {
          "name": "quoteTokenAmount",
          "type": "uint256",
          "internalType": "uint256"
        }
      ],
      "outputs": [
        {
          "name": "",
          "type": "uint256",
          "internalType": "uint256"
        }
      ],
      "stateMutability": "nonpayable"
    },
    {
      "type": "function",
      "name": "mintTo",
      "inputs": [
        {
          "name": "to",
          "type": "address",
          "internalType": "address"
        },
        {
          "name": "strategyId",
          "type": "uint16",
          "internalType": "uint16"
        },
        {
          "name": "baseToken",
          "type": "address",
          "internalType": "address"
        },
        {
          "name": "quoteToken",
          "type": "address",
          "internalType": "address"
        },
        {
          "name": "quoteTokenAmount",
          "type": "uint256",
          "internalType": "uint256"
        }
      ],
      "outputs": [
        {
          "name": "poolId",
          "type": "uint256",
          "internalType": "uint256"
        }
      ],
      "stateMutability": "nonpayable"
    },
    {
      "type": "function",
      "name": "minter",
      "inputs": [
        {
          "name": "poolId",
          "type": "uint256",
          "internalType": "uint256"
        }
      ],
      "outputs": [
        {
          "name": "",
          "type": "address",
          "internalType": "address"
        }
      ],
      "stateMutability": "view"
    },
    {
      "type": "function",
      "name": "name",
      "inputs": [],
      "outputs": [
        {
          "name": "",
          "type": "string",
          "internalType": "string"
        }
      ],
      "stateMutability": "pure"
    },
    {
      "type": "function",
      "name": "owner",
      "inputs": [],
      "outputs": [
        {
          "name": "",
          "type": "address",
          "internalType": "address payable"
        }
      ],
      "stateMutability": "view"
    },
    {
      "type": "function",
      "name": "ownerOf",
      "inputs": [
        {
          "name": "tokenId",
          "type": "uint256",
          "internalType": "uint256"
        }
      ],
      "outputs": [
        {
          "name": "",
          "type": "address",
          "internalType": "address"
        }
      ],
      "stateMutability": "view"
    },
    {
      "type": "function",
      "name": "pendingOwner",
      "inputs": [],
      "outputs": [
        {
          "name": "",
          "type": "address",
          "internalType": "address payable"
        }
      ],
      "stateMutability": "view"
    },
    {
      "type": "function",
      "name": "poolIds",
      "inputs": [
        {
          "name": "pool",
          "type": "address",
          "internalType": "address"
        }
      ],
      "outputs": [
        {
          "name": "",
          "type": "uint256",
          "internalType": "uint256"
        }
      ],
      "stateMutability": "view"
    },
    {
      "type": "function",
      "name": "poolOwnerShareNumerator",
      "inputs": [],
      "outputs": [
        {
          "name": "",
          "type": "uint16",
          "internalType": "uint16"
        }
      ],
      "stateMutability": "view"
    },
    {
      "type": "function",
      "name": "pools",
      "inputs": [
        {
          "name": "poolId",
          "type": "uint256",
          "internalType": "uint256"
        }
      ],
      "outputs": [
        {
          "name": "",
          "type": "address",
          "internalType": "address"
        }
      ],
      "stateMutability": "view"
    },
    {
      "type": "function",
      "name": "poolsNFTLens",
      "inputs": [],
      "outputs": [
        {
          "name": "",
          "type": "address",
          "internalType": "contract IPoolsNFTLens"
        }
      ],
      "stateMutability": "view"
    },
    {
      "type": "function",
      "name": "rebalance",
      "inputs": [
        {
          "name": "poolId0",
          "type": "uint256",
          "internalType": "uint256"
        },
        {
          "name": "poolId1",
          "type": "uint256",
          "internalType": "uint256"
        },
        {
          "name": "rebalance0",
          "type": "uint8",
          "internalType": "uint8"
        },
        {
          "name": "rebalance1",
          "type": "uint8",
          "internalType": "uint8"
        }
      ],
      "outputs": [],
      "stateMutability": "nonpayable"
    },
    {
      "type": "function",
      "name": "royaltyInfo",
      "inputs": [
        {
          "name": "tokenId",
          "type": "uint256",
          "internalType": "uint256"
        },
        {
          "name": "salePrice",
          "type": "uint256",
          "internalType": "uint256"
        }
      ],
      "outputs": [
        {
          "name": "receiver",
          "type": "address",
          "internalType": "address"
        },
        {
          "name": "royaltyAmount",
          "type": "uint256",
          "internalType": "uint256"
        }
      ],
      "stateMutability": "view"
    },
    {
      "type": "function",
      "name": "royaltyNumerator",
      "inputs": [],
      "outputs": [
        {
          "name": "",
          "type": "uint16",
          "internalType": "uint16"
        }
      ],
      "stateMutability": "view"
    },
    {
      "type": "function",
      "name": "royaltyOwnerShareNumerator",
      "inputs": [],
      "outputs": [
        {
          "name": "",
          "type": "uint16",
          "internalType": "uint16"
        }
      ],
      "stateMutability": "view"
    },
    {
      "type": "function",
      "name": "royaltyPrice",
      "inputs": [
        {
          "name": "poolId",
          "type": "uint256",
          "internalType": "uint256"
        }
      ],
      "outputs": [
        {
          "name": "",
          "type": "uint256",
          "internalType": "uint256"
        }
      ],
      "stateMutability": "view"
    },
    {
      "type": "function",
      "name": "royaltyPriceCompensationShareNumerator",
      "inputs": [],
      "outputs": [
        {
          "name": "",
          "type": "uint16",
          "internalType": "uint16"
        }
      ],
      "stateMutability": "view"
    },
    {
      "type": "function",
      "name": "royaltyPriceInitNumerator",
      "inputs": [],
      "outputs": [
        {
          "name": "",
          "type": "uint16",
          "internalType": "uint16"
        }
      ],
      "stateMutability": "view"
    },
    {
      "type": "function",
      "name": "royaltyPriceOwnerShareNumerator",
      "inputs": [],
      "outputs": [
        {
          "name": "",
          "type": "uint16",
          "internalType": "uint16"
        }
      ],
      "stateMutability": "view"
    },
    {
      "type": "function",
      "name": "royaltyPricePoolOwnerShareNumerator",
      "inputs": [],
      "outputs": [
        {
          "name": "",
          "type": "uint16",
          "internalType": "uint16"
        }
      ],
      "stateMutability": "view"
    },
    {
      "type": "function",
      "name": "royaltyPriceReserveShareNumerator",
      "inputs": [],
      "outputs": [
        {
          "name": "",
          "type": "uint16",
          "internalType": "uint16"
        }
      ],
      "stateMutability": "view"
    },
    {
      "type": "function",
      "name": "royaltyReceiver",
      "inputs": [
        {
          "name": "poolId",
          "type": "uint256",
          "internalType": "uint256"
        }
      ],
      "outputs": [
        {
          "name": "",
          "type": "address",
          "internalType": "address"
        }
      ],
      "stateMutability": "view"
    },
    {
      "type": "function",
      "name": "royaltyReceiverShareNumerator",
      "inputs": [],
      "outputs": [
        {
          "name": "",
          "type": "uint16",
          "internalType": "uint16"
        }
      ],
      "stateMutability": "view"
    },
    {
      "type": "function",
      "name": "royaltyReserveShareNumerator",
      "inputs": [],
      "outputs": [
        {
          "name": "",
          "type": "uint16",
          "internalType": "uint16"
        }
      ],
      "stateMutability": "view"
    },
    {
      "type": "function",
      "name": "safeTransferFrom",
      "inputs": [
        {
          "name": "from",
          "type": "address",
          "internalType": "address"
        },
        {
          "name": "to",
          "type": "address",
          "internalType": "address"
        },
        {
          "name": "tokenId",
          "type": "uint256",
          "internalType": "uint256"
        }
      ],
      "outputs": [],
      "stateMutability": "nonpayable"
    },
    {
      "type": "function",
      "name": "safeTransferFrom",
      "inputs": [
        {
          "name": "from",
          "type": "address",
          "internalType": "address"
        },
        {
          "name": "to",
          "type": "address",
          "internalType": "address"
        },
        {
          "name": "tokenId",
          "type": "uint256",
          "internalType": "uint256"
        },
        {
          "name": "data",
          "type": "bytes",
          "internalType": "bytes"
        }
      ],
      "outputs": [],
      "stateMutability": "nonpayable"
    },
    {
      "type": "function",
      "name": "setAgent",
      "inputs": [
        {
          "name": "_agent",
          "type": "address",
          "internalType": "address"
        },
        {
          "name": "_agentApproval",
          "type": "bool",
          "internalType": "bool"
        }
      ],
      "outputs": [],
      "stateMutability": "nonpayable"
    },
    {
      "type": "function",
      "name": "setApprovalForAll",
      "inputs": [
        {
          "name": "operator",
          "type": "address",
          "internalType": "address"
        },
        {
          "name": "approved",
          "type": "bool",
          "internalType": "bool"
        }
      ],
      "outputs": [],
      "stateMutability": "nonpayable"
    },
    {
      "type": "function",
      "name": "setDepositor",
      "inputs": [
        {
          "name": "poolId",
          "type": "uint256",
          "internalType": "uint256"
        },
        {
          "name": "depositor",
          "type": "address",
          "internalType": "address"
        },
        {
          "name": "_depositorApproval",
          "type": "bool",
          "internalType": "bool"
        }
      ],
      "outputs": [],
      "stateMutability": "nonpayable"
    },
    {
      "type": "function",
      "name": "setGRETHShares",
      "inputs": [
        {
          "name": "_grethGrinderShareNumerator",
          "type": "uint16",
          "internalType": "uint16"
        },
        {
          "name": "_grethReserveShareNumerator",
          "type": "uint16",
          "internalType": "uint16"
        },
        {
          "name": "_grethPoolOwnerShareNumerator",
          "type": "uint16",
          "internalType": "uint16"
        },
        {
          "name": "_grethRoyaltyReceiverShareNumerator",
          "type": "uint16",
          "internalType": "uint16"
        }
      ],
      "outputs": [],
      "stateMutability": "nonpayable"
    },
    {
      "type": "function",
      "name": "setMaxDeposit",
      "inputs": [
        {
          "name": "token",
          "type": "address",
          "internalType": "address"
        },
        {
          "name": "_maxDeposit",
          "type": "uint256",
          "internalType": "uint256"
        }
      ],
      "outputs": [],
      "stateMutability": "nonpayable"
    },
    {
      "type": "function",
      "name": "setMinDeposit",
      "inputs": [
        {
          "name": "token",
          "type": "address",
          "internalType": "address"
        },
        {
          "name": "_minDeposit",
          "type": "uint256",
          "internalType": "uint256"
        }
      ],
      "outputs": [],
      "stateMutability": "nonpayable"
    },
    {
      "type": "function",
      "name": "setPoolsNFTLens",
      "inputs": [
        {
          "name": "_poolsNFTLens",
          "type": "address",
          "internalType": "address"
        }
      ],
      "outputs": [],
      "stateMutability": "nonpayable"
    },
    {
      "type": "function",
      "name": "setRoyaltyPriceInitNumerator",
      "inputs": [
        {
          "name": "_royaltyPriceInitNumerator",
          "type": "uint16",
          "internalType": "uint16"
        }
      ],
      "outputs": [],
      "stateMutability": "nonpayable"
    },
    {
      "type": "function",
      "name": "setRoyaltyPriceShares",
      "inputs": [
        {
          "name": "_royaltyPriceCompensationShareNumerator",
          "type": "uint16",
          "internalType": "uint16"
        },
        {
          "name": "_royaltyPriceReserveShareNumerator",
          "type": "uint16",
          "internalType": "uint16"
        },
        {
          "name": "_royaltyPricePoolOwnerShareNumerator",
          "type": "uint16",
          "internalType": "uint16"
        },
        {
          "name": "_royaltyPriceOwnerShareNumerator",
          "type": "uint16",
          "internalType": "uint16"
        }
      ],
      "outputs": [],
      "stateMutability": "nonpayable"
    },
    {
      "type": "function",
      "name": "setRoyaltyShares",
      "inputs": [
        {
          "name": "_poolOwnerRoyaltyShareNumerator",
          "type": "uint16",
          "internalType": "uint16"
        },
        {
          "name": "_royaltyReceiverShareNumerator",
          "type": "uint16",
          "internalType": "uint16"
        },
        {
          "name": "_royaltyReserveShareNumerator",
          "type": "uint16",
          "internalType": "uint16"
        },
        {
          "name": "_royaltyOwnerShareNumerator",
          "type": "uint16",
          "internalType": "uint16"
        }
      ],
      "outputs": [],
      "stateMutability": "nonpayable"
    },
    {
      "type": "function",
      "name": "setStrategyFactory",
      "inputs": [
        {
          "name": "_strategyFactory",
          "type": "address",
          "internalType": "address"
        }
      ],
      "outputs": [],
      "stateMutability": "nonpayable"
    },
    {
      "type": "function",
      "name": "setStrategyStopped",
      "inputs": [
        {
          "name": "strategyId",
          "type": "uint16",
          "internalType": "uint16"
        },
        {
          "name": "_isStrategyStopped",
          "type": "bool",
          "internalType": "bool"
        }
      ],
      "outputs": [],
      "stateMutability": "nonpayable"
    },
    {
      "type": "function",
      "name": "spentGrinds",
      "inputs": [
        {
          "name": "_ownerOf",
          "type": "address",
          "internalType": "address"
        }
      ],
      "outputs": [
        {
          "name": "",
          "type": "uint256",
          "internalType": "uint256"
        }
      ],
      "stateMutability": "view"
    },
    {
      "type": "function",
      "name": "strategyFactory",
      "inputs": [
        {
          "name": "strategyId",
          "type": "uint16",
          "internalType": "uint16"
        }
      ],
      "outputs": [
        {
          "name": "",
          "type": "address",
          "internalType": "address"
        }
      ],
      "stateMutability": "view"
    },
    {
      "type": "function",
      "name": "supportsInterface",
      "inputs": [
        {
          "name": "interfaceId",
          "type": "bytes4",
          "internalType": "bytes4"
        }
      ],
      "outputs": [
        {
          "name": "",
          "type": "bool",
          "internalType": "bool"
        }
      ],
      "stateMutability": "view"
    },
    {
      "type": "function",
      "name": "symbol",
      "inputs": [],
      "outputs": [
        {
          "name": "",
          "type": "string",
          "internalType": "string"
        }
      ],
      "stateMutability": "pure"
    },
    {
      "type": "function",
      "name": "tokenByIndex",
      "inputs": [
        {
          "name": "index",
          "type": "uint256",
          "internalType": "uint256"
        }
      ],
      "outputs": [
        {
          "name": "",
          "type": "uint256",
          "internalType": "uint256"
        }
      ],
      "stateMutability": "view"
    },
    {
      "type": "function",
      "name": "tokenOfOwnerByIndex",
      "inputs": [
        {
          "name": "owner",
          "type": "address",
          "internalType": "address"
        },
        {
          "name": "index",
          "type": "uint256",
          "internalType": "uint256"
        }
      ],
      "outputs": [
        {
          "name": "",
          "type": "uint256",
          "internalType": "uint256"
        }
      ],
      "stateMutability": "view"
    },
    {
      "type": "function",
      "name": "tokenURI",
      "inputs": [
        {
          "name": "poolId",
          "type": "uint256",
          "internalType": "uint256"
        }
      ],
      "outputs": [
        {
          "name": "uri",
          "type": "string",
          "internalType": "string"
        }
      ],
      "stateMutability": "view"
    },
    {
      "type": "function",
      "name": "totalPools",
      "inputs": [],
      "outputs": [
        {
          "name": "",
          "type": "uint256",
          "internalType": "uint256"
        }
      ],
      "stateMutability": "view"
    },
    {
      "type": "function",
      "name": "totalSupply",
      "inputs": [],
      "outputs": [
        {
          "name": "",
          "type": "uint256",
          "internalType": "uint256"
        }
      ],
      "stateMutability": "view"
    },
    {
      "type": "function",
      "name": "transfer",
      "inputs": [
        {
          "name": "to",
          "type": "address",
          "internalType": "address"
        },
        {
          "name": "poolId",
          "type": "uint256",
          "internalType": "uint256"
        }
      ],
      "outputs": [],
      "stateMutability": "nonpayable"
    },
    {
      "type": "function",
      "name": "transferFrom",
      "inputs": [
        {
          "name": "from",
          "type": "address",
          "internalType": "address"
        },
        {
          "name": "to",
          "type": "address",
          "internalType": "address"
        },
        {
          "name": "tokenId",
          "type": "uint256",
          "internalType": "uint256"
        }
      ],
      "outputs": [],
      "stateMutability": "nonpayable"
    },
    {
      "type": "function",
      "name": "transferOwnership",
      "inputs": [
        {
          "name": "newOwner",
          "type": "address",
          "internalType": "address payable"
        }
      ],
      "outputs": [],
      "stateMutability": "nonpayable"
    },
    {
      "type": "function",
      "name": "withdraw",
      "inputs": [
        {
          "name": "poolId",
          "type": "uint256",
          "internalType": "uint256"
        },
        {
          "name": "to",
          "type": "address",
          "internalType": "address"
        },
        {
          "name": "quoteTokenAmount",
          "type": "uint256",
          "internalType": "uint256"
        }
      ],
      "outputs": [
        {
          "name": "withdrawn",
          "type": "uint256",
          "internalType": "uint256"
        }
      ],
      "stateMutability": "nonpayable"
    },
    {
      "type": "function",
      "name": "withdraw2",
      "inputs": [
        {
          "name": "poolId",
          "type": "uint256",
          "internalType": "uint256"
        },
        {
          "name": "to",
          "type": "address",
          "internalType": "address"
        },
        {
          "name": "baseTokenAmount",
          "type": "uint256",
          "internalType": "uint256"
        }
      ],
      "outputs": [
        {
          "name": "withdrawn",
          "type": "uint256",
          "internalType": "uint256"
        }
      ],
      "stateMutability": "nonpayable"
    },
    {
      "type": "event",
      "name": "Approval",
      "inputs": [
        {
          "name": "owner",
          "type": "address",
          "indexed": true,
          "internalType": "address"
        },
        {
          "name": "approved",
          "type": "address",
          "indexed": true,
          "internalType": "address"
        },
        {
          "name": "tokenId",
          "type": "uint256",
          "indexed": true,
          "internalType": "uint256"
        }
      ],
      "anonymous": false
    },
    {
      "type": "event",
      "name": "ApprovalForAll",
      "inputs": [
        {
          "name": "owner",
          "type": "address",
          "indexed": true,
          "internalType": "address"
        },
        {
          "name": "operator",
          "type": "address",
          "indexed": true,
          "internalType": "address"
        },
        {
          "name": "approved",
          "type": "bool",
          "indexed": false,
          "internalType": "bool"
        }
      ],
      "anonymous": false
    },
    {
      "type": "event",
      "name": "BuyRoyalty",
      "inputs": [
        {
          "name": "poolId",
          "type": "uint256",
          "indexed": false,
          "internalType": "uint256"
        },
        {
          "name": "buyer",
          "type": "address",
          "indexed": false,
          "internalType": "address"
        },
        {
          "name": "paidPrice",
          "type": "uint256",
          "indexed": false,
          "internalType": "uint256"
        }
      ],
      "anonymous": false
    },
    {
      "type": "event",
      "name": "Deposit",
      "inputs": [
        {
          "name": "poolId",
          "type": "uint256",
          "indexed": false,
          "internalType": "uint256"
        },
        {
          "name": "pool",
          "type": "address",
          "indexed": false,
          "internalType": "address"
        },
        {
          "name": "quoteToken",
          "type": "address",
          "indexed": false,
          "internalType": "address"
        },
        {
          "name": "quoteTokenAmount",
          "type": "uint256",
          "indexed": false,
          "internalType": "uint256"
        }
      ],
      "anonymous": false
    },
    {
      "type": "event",
      "name": "Deposit2",
      "inputs": [
        {
          "name": "poolId",
          "type": "uint256",
          "indexed": false,
          "internalType": "uint256"
        },
        {
          "name": "pool",
          "type": "address",
          "indexed": false,
          "internalType": "address"
        },
        {
          "name": "baseToken",
          "type": "address",
          "indexed": false,
          "internalType": "address"
        },
        {
          "name": "baseTokenAmount",
          "type": "uint256",
          "indexed": false,
          "internalType": "uint256"
        },
        {
          "name": "baseTokenPrice",
          "type": "uint256",
          "indexed": false,
          "internalType": "uint256"
        }
      ],
      "anonymous": false
    },
    {
      "type": "event",
      "name": "Deposit3",
      "inputs": [
        {
          "name": "poolId",
          "type": "uint256",
          "indexed": false,
          "internalType": "uint256"
        },
        {
          "name": "pool",
          "type": "address",
          "indexed": false,
          "internalType": "address"
        },
        {
          "name": "quoteToken",
          "type": "address",
          "indexed": false,
          "internalType": "address"
        },
        {
          "name": "quoteTokenAmount",
          "type": "uint256",
          "indexed": false,
          "internalType": "uint256"
        }
      ],
      "anonymous": false
    },
    {
      "type": "event",
      "name": "Exit",
      "inputs": [
        {
          "name": "poolId",
          "type": "uint256",
          "indexed": false,
          "internalType": "uint256"
        },
        {
          "name": "quoteTokenAmount",
          "type": "uint256",
          "indexed": false,
          "internalType": "uint256"
        },
        {
          "name": "baseTokenAmount",
          "type": "uint256",
          "indexed": false,
          "internalType": "uint256"
        }
      ],
      "anonymous": false
    },
    {
      "type": "event",
      "name": "Grind",
      "inputs": [
        {
          "name": "poolId",
          "type": "uint256",
          "indexed": false,
          "internalType": "uint256"
        },
        {
          "name": "op",
          "type": "uint8",
          "indexed": false,
          "internalType": "uint8"
        },
        {
          "name": "grinder",
          "type": "address",
          "indexed": false,
          "internalType": "address"
        },
        {
          "name": "isGrinded",
          "type": "bool",
          "indexed": false,
          "internalType": "bool"
        }
      ],
      "anonymous": false
    },
    {
      "type": "event",
      "name": "Mint",
      "inputs": [
        {
          "name": "poolId",
          "type": "uint256",
          "indexed": false,
          "internalType": "uint256"
        },
        {
          "name": "baseToken",
          "type": "address",
          "indexed": false,
          "internalType": "address"
        },
        {
          "name": "quoteToken",
          "type": "address",
          "indexed": false,
          "internalType": "address"
        }
      ],
      "anonymous": false
    },
    {
      "type": "event",
      "name": "Rebalance",
      "inputs": [
        {
          "name": "poolId0",
          "type": "uint256",
          "indexed": false,
          "internalType": "uint256"
        },
        {
          "name": "poolId1",
          "type": "uint256",
          "indexed": false,
          "internalType": "uint256"
        },
        {
          "name": "rebalancedPrice",
          "type": "uint256",
          "indexed": false,
          "internalType": "uint256"
        },
        {
          "name": "newBaseTokenAmount0",
          "type": "uint256",
          "indexed": false,
          "internalType": "uint256"
        },
        {
          "name": "newBaseTokenAmount1",
          "type": "uint256",
          "indexed": false,
          "internalType": "uint256"
        }
      ],
      "anonymous": false
    },
    {
      "type": "event",
      "name": "Transfer",
      "inputs": [
        {
          "name": "from",
          "type": "address",
          "indexed": true,
          "internalType": "address"
        },
        {
          "name": "to",
          "type": "address",
          "indexed": true,
          "internalType": "address"
        },
        {
          "name": "tokenId",
          "type": "uint256",
          "indexed": true,
          "internalType": "uint256"
        }
      ],
      "anonymous": false
    },
    {
      "type": "event",
      "name": "Withdraw",
      "inputs": [
        {
          "name": "poolId",
          "type": "uint256",
          "indexed": false,
          "internalType": "uint256"
        },
        {
          "name": "to",
          "type": "address",
          "indexed": false,
          "internalType": "address"
        },
        {
          "name": "quoteToken",
          "type": "address",
          "indexed": false,
          "internalType": "address"
        },
        {
          "name": "quoteTokenAmount",
          "type": "uint256",
          "indexed": false,
          "internalType": "uint256"
        }
      ],
      "anonymous": false
    },
    {
      "type": "event",
      "name": "Withdraw2",
      "inputs": [
        {
          "name": "poolId",
          "type": "uint256",
          "indexed": false,
          "internalType": "uint256"
        },
        {
          "name": "to",
          "type": "address",
          "indexed": false,
          "internalType": "address"
        },
        {
          "name": "baseToken",
          "type": "address",
          "indexed": false,
          "internalType": "address"
        },
        {
          "name": "baseTokenAmount",
          "type": "uint256",
          "indexed": false,
          "internalType": "uint256"
        }
      ],
      "anonymous": false
    },
    {
      "type": "error",
      "name": "DifferentOwnersOfPools",
      "inputs": []
    },
    {
      "type": "error",
      "name": "DifferentTokens",
      "inputs": []
    },
    {
      "type": "error",
      "name": "ERC721EnumerableForbiddenBatchMint",
      "inputs": []
    },
    {
      "type": "error",
      "name": "ERC721IncorrectOwner",
      "inputs": [
        {
          "name": "sender",
          "type": "address",
          "internalType": "address"
        },
        {
          "name": "tokenId",
          "type": "uint256",
          "internalType": "uint256"
        },
        {
          "name": "owner",
          "type": "address",
          "internalType": "address"
        }
      ]
    },
    {
      "type": "error",
      "name": "ERC721InsufficientApproval",
      "inputs": [
        {
          "name": "operator",
          "type": "address",
          "internalType": "address"
        },
        {
          "name": "tokenId",
          "type": "uint256",
          "internalType": "uint256"
        }
      ]
    },
    {
      "type": "error",
      "name": "ERC721InvalidApprover",
      "inputs": [
        {
          "name": "approver",
          "type": "address",
          "internalType": "address"
        }
      ]
    },
    {
      "type": "error",
      "name": "ERC721InvalidOperator",
      "inputs": [
        {
          "name": "operator",
          "type": "address",
          "internalType": "address"
        }
      ]
    },
    {
      "type": "error",
      "name": "ERC721InvalidOwner",
      "inputs": [
        {
          "name": "owner",
          "type": "address",
          "internalType": "address"
        }
      ]
    },
    {
      "type": "error",
      "name": "ERC721InvalidReceiver",
      "inputs": [
        {
          "name": "receiver",
          "type": "address",
          "internalType": "address"
        }
      ]
    },
    {
      "type": "error",
      "name": "ERC721InvalidSender",
      "inputs": [
        {
          "name": "sender",
          "type": "address",
          "internalType": "address"
        }
      ]
    },
    {
      "type": "error",
      "name": "ERC721NonexistentToken",
      "inputs": [
        {
          "name": "tokenId",
          "type": "uint256",
          "internalType": "uint256"
        }
      ]
    },
    {
      "type": "error",
      "name": "ERC721OutOfBoundsIndex",
      "inputs": [
        {
          "name": "owner",
          "type": "address",
          "internalType": "address"
        },
        {
          "name": "index",
          "type": "uint256",
          "internalType": "uint256"
        }
      ]
    },
    {
      "type": "error",
      "name": "ExceededMaxDeposit",
      "inputs": []
    },
    {
      "type": "error",
      "name": "InsufficientMinDeposit",
      "inputs": []
    },
    {
      "type": "error",
      "name": "InvalidOp",
      "inputs": []
    },
    {
      "type": "error",
      "name": "InvalidRoyaltyPriceInit",
      "inputs": []
    },
    {
      "type": "error",
      "name": "InvalidShares",
      "inputs": []
    },
    {
      "type": "error",
      "name": "NoCapital",
      "inputs": []
    },
    {
      "type": "error",
      "name": "NotAgent",
      "inputs": []
    },
    {
      "type": "error",
      "name": "NotDepositor",
      "inputs": []
    },
    {
      "type": "error",
      "name": "NotGrinderAI",
      "inputs": []
    },
    {
      "type": "error",
      "name": "NotOwner",
      "inputs": []
    },
    {
      "type": "error",
      "name": "NotOwnerOf",
      "inputs": []
    },
    {
      "type": "error",
      "name": "SafeERC20FailedOperation",
      "inputs": [
        {
          "name": "token",
          "type": "address",
          "internalType": "address"
        }
      ]
    },
    {
      "type": "error",
      "name": "StrategyStopped",
      "inputs": []
    }
  ],
  "bytecode": {
    "object": "0x608060405234801561000f575f5ffd5b5060408051602080820183525f8083528351918201909352828152909161003683826102c2565b50600161004382826102c2565b50505f60105550600b80546001600160a01b0319908116909155600c8054339216919091179055600a80546001600160501b031916686401f400642774006417908190556127109061ffff680100000000000000008204811691660100000000000081048216916100c6916401000000008104821691620100009091041661037c565b6100d0919061037c565b6100da919061037c565b61ffff16116100e7575f5ffd5b600a8054600160501b600160901b03191671012c00c805dc1f400000000000000000000017908190556127109061ffff600160801b8204811691600160701b8104821691610157916c0100000000000000000000000081048216916a01000000000000000000009091041661037c565b610161919061037c565b61016b919061037c565b61ffff1614610178575f5ffd5b600a8054600160901b600160e01b031916681f401f403e81f4007d60941b1790819055612710906101bd9061ffff600160a01b8204811691600160901b90041661037c565b61ffff16146101ca575f5ffd5b600a546127109061ffff600160d01b8204811691600160c01b810482169161020491600160b01b8104821691600160a01b9091041661037c565b61020e919061037c565b610218919061037c565b61ffff1614610225575f5ffd5b6103a8565b634e487b7160e01b5f52604160045260245ffd5b600181811c9082168061025257607f821691505b60208210810361027057634e487b7160e01b5f52602260045260245ffd5b50919050565b601f8211156102bd57805f5260205f20601f840160051c8101602085101561029b5750805b601f840160051c820191505b818110156102ba575f81556001016102a7565b50505b505050565b81516001600160401b038111156102db576102db61022a565b6102ef816102e9845461023e565b84610276565b6020601f821160018114610321575f831561030a5750848201515b5f19600385901b1c1916600184901b1784556102ba565b5f84815260208120601f198516915b828110156103505787850151825560209485019460019092019101610330565b508482101561036d57868401515f19600387901b60f8161c191681555b50505050600190811b01905550565b61ffff81811683821601908111156103a257634e487b7160e01b5f52601160045260245ffd5b92915050565b615dc2806103b55f395ff3fe6080604052600436106104be575f3560e01c80637f8661a11161026d578063bde855e51161014a578063e2bbb158116100be578063eb9b798611610083578063eb9b7986146110ee578063ef38e4e314611122578063f059deb21461116e578063f26027201461118d578063f2fde38b146111ac578063f9298928146111cb575f5ffd5b8063e2bbb15814611051578063e30c397814611070578063e60ed1f31461108f578063e63697c8146110b0578063e985e9c5146110cf575f5ffd5b8063ca05262b1161010f578063ca05262b14610f89578063cdb0d02314610fa8578063ce33939514610fc7578063d4175be214610fe8578063dc49b19014611013578063dec3971514611032575f5ffd5b8063bde855e514610edf578063bfe121e514610f0b578063c0b7b57814610f2c578063c0b929e614610f4b578063c87b56dd14610f6a575f5ffd5b8063a9059cbb116101e1578063ac8d856c116101a6578063ac8d856c14610e00578063b2d5cca714610e34578063b362893214610e53578063b61d27f614610e74578063b88d4fde14610e95578063b9f86ad114610eb4575f5ffd5b8063a9059cbb14610d5a578063a93d57a114610d79578063ab3c7e5214610d98578063ab6e969014610dad578063ac4afa3814610dcc575f5ffd5b8063918f867411610232578063918f867414610c8457806395d89b4114610c9957806397d8c67614610cd0578063a22cb46514610cef578063a5352bfd14610d0e578063a8c9d30414610d2d575f5ffd5b80637f8661a114610bd4578063849784d414610c085780638da5cb5b14610c275780638e22e7c314610c46578063912d1a8614610c65575f5ffd5b806336b02baf1161039b5780635b71ecb51161030f5780636c0360eb116102d45780636c0360eb14610b145780636d3a87db14610b285780636db47de914610b4957806370a0823114610b7757806373f65f8a14610b96578063755b916214610bb5575f5ffd5b80635b71ecb514610a645780635cd2dd5e14610a835780635d2d192014610ab75780635db4474414610ad65780636352211e14610af5575f5ffd5b8063402d267d11610360578063402d267d1461099c57806342842e0e146109c75780634f6ccce7146109e65780634f99f04a14610a0557806355b2d01e14610a26578063592ae17f14610a45575f5ffd5b806336b02baf146108e657806336e68f541461090757806337477bce1461093357806337566d54146109525780633c29f83914610971575f5ffd5b806319fc5fec116104325780632980b2ff116103f75780632980b2ff1461080f5780632a55205a1461082e5780632a67fe0b1461086c5780632bb80474146108865780632f745c59146108a7578063352333f2146108c6575f5ffd5b806319fc5fec1461076857806323b872dd1461078757806326ca015a146107a657806327f8cabb146107d15780632809e226146107f0575f5ffd5b8063095ea7b311610483578063095ea7b3146106a057806309dbb6ea146106bf5780630cccd888146106de57806318160ddd1461070a578063184b9559146107285780631927c4ea14610747575f5ffd5b806301ffc9a71461059257806304f6430e146105c6578063053604ed146105fa57806306fdde031461061b578063081812fc14610669575f5ffd5b3661058e57341561058c57600e545f906001600160a01b031661053557600c546040516001600160a01b039091169034905f81818185875af1925050503d805f8114610525576040519150601f19603f3d011682016040523d82523d5f602084013e61052a565b606091505b50508091505061058a565b600e546040516001600160a01b039091169034905f81818185875af1925050503d805f811461057f576040519150601f19603f3d011682016040523d82523d5f602084013e610584565b606091505b50909150505b505b005b5f5ffd5b34801561059d575f5ffd5b506105b16105ac366004614854565b6111ed565b60405190151581526020015b60405180910390f35b3480156105d1575f5ffd5b50600a546105e790600160501b900461ffff1681565b60405161ffff90911681526020016105bd565b348015610605575f5ffd5b50600a546105e790600160b01b900461ffff1681565b348015610626575f5ffd5b5060408051808201909152601a81527f4772696e645552555320506f6f6c7320436f6c6c656374696f6e00000000000060208201525b6040516105bd919061489d565b348015610674575f5ffd5b506106886106833660046148af565b6111fd565b6040516001600160a01b0390911681526020016105bd565b3480156106ab575f5ffd5b5061058c6106ba3660046148da565b611224565b3480156106ca575f5ffd5b506105b16106d93660046148af565b611233565b3480156106e9575f5ffd5b506106fd6106f8366004614904565b61123e565b6040516105bd9190614959565b348015610715575f5ffd5b506008545b6040519081526020016105bd565b348015610733575f5ffd5b5061058c61074236600461496b565b6112ec565b348015610752575f5ffd5b50600a546105e790600160701b900461ffff1681565b348015610773575f5ffd5b5061071a6107823660046149b3565b611372565b348015610792575f5ffd5b5061058c6107a13660046149e8565b6114ae565b3480156107b1575f5ffd5b5061071a6107c03660046148af565b60146020525f908152604090205481565b3480156107dc575f5ffd5b5061058c6107eb366004614a24565b61153c565b3480156107fb575f5ffd5b5061071a61080a366004614a7d565b611611565b34801561081a575f5ffd5b50600f54610688906001600160a01b031681565b348015610839575f5ffd5b5061084d610848366004614aa6565b6117a4565b604080516001600160a01b0390931683526020830191909152016105bd565b348015610877575f5ffd5b50600a546105e79061ffff1681565b348015610891575f5ffd5b50600a546105e790600160901b900461ffff1681565b3480156108b2575f5ffd5b5061071a6108c13660046148da565b6117e1565b3480156108d1575f5ffd5b50600a546105e79062010000900461ffff1681565b3480156108f1575f5ffd5b50600a546105e790600160401b900461ffff1681565b348015610912575f5ffd5b50610926610921366004614bbd565b611844565b6040516105bd9190614cba565b34801561093e575f5ffd5b5061058c61094d366004614aa6565b6118b6565b34801561095d575f5ffd5b5061071a61096c36600461501b565b611a2a565b34801561097c575f5ffd5b5061071a61098b366004614904565b60186020525f908152604090205481565b3480156109a7575f5ffd5b5061071a6109b6366004614904565b60196020525f908152604090205481565b3480156109d2575f5ffd5b5061058c6109e13660046149e8565b611a41565b3480156109f1575f5ffd5b5061071a610a003660046148af565b611a60565b348015610a10575f5ffd5b50600a546105e790600160301b900461ffff1681565b348015610a31575f5ffd5b5061058c610a40366004615076565b611ab5565b348015610a50575f5ffd5b5061071a610a5f3660046150ad565b611ae2565b348015610a6f575f5ffd5b50610688610a7e3660046148af565b611b9c565b348015610a8e575f5ffd5b50610688610a9d3660046148af565b60136020525f90815260409020546001600160a01b031681565b348015610ac2575f5ffd5b5061058c610ad136600461510d565b611bc6565b348015610ae1575f5ffd5b5061058c610af036600461514f565b611c27565b348015610b00575f5ffd5b50610688610b0f3660046148af565b61223d565b348015610b1f575f5ffd5b5061065c612247565b348015610b33575f5ffd5b50600a546105e790600160c01b900461ffff1681565b348015610b54575f5ffd5b506105b1610b6336600461518b565b60126020525f908152604090205460ff1681565b348015610b82575f5ffd5b5061071a610b91366004614904565b6122ba565b348015610ba1575f5ffd5b5061058c610bb03660046148da565b6122ff565b348015610bc0575f5ffd5b5061071a610bcf3660046148af565b612322565b348015610bdf575f5ffd5b50610bf3610bee3660046148af565b61232d565b604080519283526020830191909152016105bd565b348015610c13575f5ffd5b506105b1610c223660046151a6565b6123fc565b348015610c32575f5ffd5b50600c54610688906001600160a01b031681565b348015610c51575f5ffd5b50600d54610688906001600160a01b031681565b348015610c70575f5ffd5b5061058c610c7f3660046148da565b61246b565b348015610c8f575f5ffd5b506105e761271081565b348015610ca4575f5ffd5b5060408051808201909152600f81526e4752494e44555255535f504f4f4c5360881b602082015261065c565b348015610cdb575f5ffd5b5061058c610cea3660046151c9565b61248e565b348015610cfa575f5ffd5b5061058c610d093660046151c9565b612509565b348015610d19575f5ffd5b5061058c610d28366004614904565b612514565b348015610d38575f5ffd5b50610d4c610d47366004614aa6565b6125c3565b6040516105bd9291906151e5565b348015610d65575f5ffd5b5061058c610d743660046148da565b612858565b348015610d84575f5ffd5b50600e54610688906001600160a01b031681565b348015610da3575f5ffd5b5061071a60105481565b348015610db8575f5ffd5b5061058c610dc736600461518b565b612863565b348015610dd7575f5ffd5b50610688610de63660046148af565b60166020525f90815260409020546001600160a01b031681565b348015610e0b575f5ffd5b50610688610e1a3660046148af565b60156020525f90815260409020546001600160a01b031681565b348015610e3f575f5ffd5b506105b1610e4e3660046151a6565b6128a9565b348015610e5e575f5ffd5b50600a546105e790600160801b900461ffff1681565b610e87610e823660046152ae565b6129c6565b6040516105bd929190615302565b348015610ea0575f5ffd5b5061058c610eaf36600461531c565b612a36565b348015610ebf575f5ffd5b5061071a610ece366004614904565b601a6020525f908152604090205481565b348015610eea575f5ffd5b50610efe610ef9366004614bbd565b612a4e565b6040516105bd9190615383565b348015610f16575f5ffd5b50600a546105e790600160d01b900461ffff1681565b348015610f37575f5ffd5b506105b1610f463660046153d1565b612ac0565b348015610f56575f5ffd5b5061058c610f65366004614a24565b612d29565b348015610f75575f5ffd5b5061065c610f843660046148af565b612dc6565b348015610f94575f5ffd5b5061058c610fa3366004614a24565b612e3f565b348015610fb3575f5ffd5b506105b1610fc23660046153f5565b612ef3565b348015610fd2575f5ffd5b50600a546105e790600160601b900461ffff1681565b348015610ff3575f5ffd5b5061071a611002366004614904565b60176020525f908152604090205481565b34801561101e575f5ffd5b5061071a61102d3660046151a6565b612fb6565b34801561103d575f5ffd5b50610d4c61104c366004615421565b6131c4565b34801561105c575f5ffd5b5061071a61106b366004614aa6565b613465565b34801561107b575f5ffd5b50600b54610688906001600160a01b031681565b34801561109a575f5ffd5b50600a546105e790600160a01b900461ffff1681565b3480156110bb575f5ffd5b5061071a6110ca3660046149b3565b613497565b3480156110da575f5ffd5b506105b16110e93660046153f5565b6135c2565b3480156110f9575f5ffd5b5061068861110836600461518b565b60116020525f90815260409020546001600160a01b031681565b34801561112d575f5ffd5b5061114161113c3660046148af565b6135ef565b604080519687526020870195909552938501929092526060840152608083015260a082015260c0016105bd565b348015611179575f5ffd5b506105b161118836600461544c565b613777565b348015611198575f5ffd5b5061058c6111a7366004614904565b613783565b3480156111b7575f5ffd5b5061058c6111c6366004614904565b61381d565b3480156111d6575f5ffd5b50600a546105e790640100000000900461ffff1681565b5f6111f7826138a2565b92915050565b5f611207826138c6565b505f828152600460205260409020546001600160a01b03166111f7565b61122f8282336138fe565b5050565b5f6111f782336128a9565b60605f61124a836122ba565b9050805f03611268575050604080515f815260208101909152919050565b5f816001600160401b0381111561128157611281614ac6565b6040519080825280602002602001820160405280156112aa578160200160208202803683370190505b5092505b818110156112e5576112c084826117e1565b8382815181106112d2576112d261546f565b60209081029190910101526001016112ae565b5050919050565b6112f461390b565b600d546001600160a01b03161580156113165750600e546001600160a01b0316155b801561132b5750600f546001600160a01b0316155b611333575f5ffd5b600d80546001600160a01b039485166001600160a01b031991821617909155600e805493851693821693909317909255600f8054919093169116179055565b5f61137c84613938565b5f84815260166020908152604080832054815163c55dae6360e01b815291516001600160a01b039091169392849263c55dae6392600480830193928290030181865afa1580156113ce573d5f5f3e3d5ffd5b505050506040513d601f19601f820116820180604052508101906113f29190615483565b60405163db13b24f60e01b81526001600160a01b038781166004830152602482018790529192509083169063db13b24f906044016020604051808303815f875af1158015611442573d5f5f3e3d5ffd5b505050506040513d601f19601f82011682018060405250810190611466919061549e565b92507fdce4d75a71c669c03f9635d0337797537bf2196ce50b07aa4f84a6fe13adf5ba8686838760405161149d94939291906154b5565b60405180910390a150509392505050565b6001600160a01b0382166114dc57604051633250574960e11b81525f60048201526024015b60405180910390fd5b5f6114e8838333613972565b9050836001600160a01b0316816001600160a01b031614611536576040516364283d7b60e01b81526001600160a01b03808616600483015260248201849052821660448201526064016114d3565b50505050565b61154461390b565b612710818361155386886154ee565b61155d91906154ee565b61156791906154ee565b61ffff161461158957604051636edcc52360e01b815260040160405180910390fd5b61159584612710615508565b600a805463ffffffff60901b1916600160901b61ffff9384160261ffff60a01b191617600160a01b968316969096029590951763ffffffff60b01b1916600160b01b9482169490940261ffff60c01b191693909317600160c01b928416929092029190911761ffff60d01b1916600160d01b9190921602179055565b5f61161c84336123fc565b61163957604051633cc50b4560e01b815260040160405180910390fd5b5f84815260166020908152604080832054815163c55dae6360e01b815291516001600160a01b039091169392849263c55dae6392600480830193928290030181865afa15801561168b573d5f5f3e3d5ffd5b505050506040513d601f19601f820116820180604052508101906116af9190615483565b90506116c66001600160a01b038216333088613a45565b6116da6001600160a01b0382168387613aac565b60405163cf622e3360e01b815260048101869052602481018590526001600160a01b0383169063cf622e33906044016020604051808303815f875af1158015611725573d5f5f3e3d5ffd5b505050506040513d601f19601f82011682018060405250810190611749919061549e565b604080518881526001600160a01b03808616602083015284169181019190915260608101879052608081018690529093507fb4343517742e7ffb2cfd208dc026eb798cabe235db96926a5362d3d4d0f1ef6d9060a00161149d565b5f5f6117af84611b9c565b600a54909250612710906117ce90600160901b900461ffff1685615522565b6117d89190615539565b90509250929050565b5f6117eb836122ba565b821061181c5760405163295f44f760e21b81526001600160a01b0384166004820152602481018390526044016114d3565b506001600160a01b03919091165f908152600660209081526040808320938352929052205490565b600d54604051630db9a3d560e21b81526060916001600160a01b0316906336e68f5490611875908590600401614959565b5f60405180830381865afa15801561188f573d5f5f3e3d5ffd5b505050506040513d5f823e601f3d908101601f191682016040526111f791908101906158c2565b6118c082336123fc565b6118dd57604051633cc50b4560e01b815260040160405180910390fd5b5f828152601660209081526040808320548151630217a4b760e41b815291516001600160a01b039091169392849263217a4b7092600480830193928290030181865afa15801561192f573d5f5f3e3d5ffd5b505050506040513d601f19601f820116820180604052508101906119539190615483565b905061196a6001600160a01b038216333086613a45565b61197e6001600160a01b0382168385613aac565b6040516384960cad60e01b8152600481018490526001600160a01b038316906384960cad906024016020604051808303815f875af11580156119c2573d5f5f3e3d5ffd5b505050506040513d601f19601f820116820180604052508101906119e6919061549e565b507f51a35d68f9c6f1f1338b429b98a7056b8f71359cf95de0b2f8f048dc0158790484838386604051611a1c94939291906154b5565b60405180910390a150505050565b5f611a383386868686611ae2565b95945050505050565b611a5b83838360405180602001604052805f815250612a36565b505050565b5f611a6a60085490565b8210611a925760405163295f44f760e21b81525f6004820152602481018390526044016114d3565b60088281548110611aa557611aa561546f565b905f5260205f2001549050919050565b611abd61390b565b61ffff919091165f908152601260205260409020805460ff1916911515919091179055565b61ffff84165f9081526012602052604081205460ff1615611b16576040516326d25d2560e21b815260040160405180910390fd5b611b2286868686613b3b565b9050815f03611b5b57600f546001600160a01b03163314611b5657604051632c82781760e21b815260040160405180910390fd5b611a38565b611b658183613c84565b50600a5461271090611b7b9061ffff1684615522565b611b859190615539565b5f8281526014602052604090205595945050505050565b5f818152601360205260409020546001600160a01b031680611bc1576111f78261223d565b919050565b611bcf83613938565b5f838152601c602052604081208291611be78661223d565b6001600160a01b03908116825260208083019390935260409182015f90812096909116815294909152909220805460ff1916921515929092179091555050565b611c308361223d565b6001600160a01b0316611c428561223d565b6001600160a01b031614611c695760405163df870c7560e01b815260040160405180910390fd5b611c7284613deb565b5f8481526016602090815260408083205486845292819020548151630217a4b760e41b815291516001600160a01b039485169490911692839263217a4b7092600480830193928290030181865afa158015611ccf573d5f5f3e3d5ffd5b505050506040513d601f19601f82011682018060405250810190611cf39190615483565b6001600160a01b0316826001600160a01b031663217a4b706040518163ffffffff1660e01b8152600401602060405180830381865afa158015611d38573d5f5f3e3d5ffd5b505050506040513d601f19601f82011682018060405250810190611d5c9190615483565b6001600160a01b0316141580611e425750806001600160a01b031663c55dae636040518163ffffffff1660e01b8152600401602060405180830381865afa158015611da9573d5f5f3e3d5ffd5b505050506040513d601f19601f82011682018060405250810190611dcd9190615483565b6001600160a01b0316826001600160a01b031663c55dae636040518163ffffffff1660e01b8152600401602060405180830381865afa158015611e12573d5f5f3e3d5ffd5b505050506040513d601f19601f82011682018060405250810190611e369190615483565b6001600160a01b031614155b15611e60576040516304e978c160e51b815260040160405180910390fd5b5f5f836001600160a01b031663c0b538f86040518163ffffffff1660e01b815260040160408051808303815f875af1158015611e9e573d5f5f3e3d5ffd5b505050506040513d601f19601f82011682018060405250810190611ec29190615ba4565b91509150611f3d843084876001600160a01b031663c55dae636040518163ffffffff1660e01b8152600401602060405180830381865afa158015611f08573d5f5f3e3d5ffd5b505050506040513d601f19601f82011682018060405250810190611f2c9190615483565b6001600160a01b0316929190613a45565b5f5f846001600160a01b031663c0b538f86040518163ffffffff1660e01b815260040160408051808303815f875af1158015611f7b573d5f5f3e3d5ffd5b505050506040513d601f19601f82011682018060405250810190611f9f9190615ba4565b91509150611fe5853084886001600160a01b031663c55dae636040518163ffffffff1660e01b8152600401602060405180830381865afa158015611f08573d5f5f3e3d5ffd5b5f611ff08386615bc6565b90505f81611ffe8486615522565b6120088789615522565b6120129190615bc6565b61201c9190615539565b90505f6120298a8c615bd9565b60ff16838c60ff1661203b9190615522565b6120459190615539565b90505f6120528285615bf2565b905081156120cf576120cf8a838c6001600160a01b031663c55dae636040518163ffffffff1660e01b8152600401602060405180830381865afa15801561209b573d5f5f3e3d5ffd5b505050506040513d601f19601f820116820180604052508101906120bf9190615483565b6001600160a01b03169190613aac565b60405163d3a2750f60e01b815260048101839052602481018490526001600160a01b038b169063d3a2750f906044015f604051808303815f87803b158015612115575f5ffd5b505af1158015612127573d5f5f3e3d5ffd5b505050505f8111156121745761217489828b6001600160a01b031663c55dae636040518163ffffffff1660e01b8152600401602060405180830381865afa15801561209b573d5f5f3e3d5ffd5b60405163d3a2750f60e01b815260048101829052602481018490526001600160a01b038a169063d3a2750f906044015f604051808303815f87803b1580156121ba575f5ffd5b505af11580156121cc573d5f5f3e3d5ffd5b505050507f7a8df7c1c2ad2176c4af60b9a91ef6b31273a94f8ceb732d363ec080fd8e545b8e8e858585604051612225959493929190948552602085019390935260408401919091526060830152608082015260a00190565b60405180910390a15050505050505050505050505050565b5f6111f7826138c6565b600d5460408051636c0360eb60e01b815290516060926001600160a01b031691636c0360eb916004808301925f9291908290030181865afa15801561228e573d5f5f3e3d5ffd5b505050506040513d5f823e601f3d908101601f191682016040526122b59190810190615c05565b905090565b5f6001600160a01b0382166122e4576040516322718ad960e21b81525f60048201526024016114d3565b506001600160a01b03165f9081526003602052604090205490565b61230761390b565b6001600160a01b039091165f90815260196020526040902055565b5f6111f78233612fb6565b5f5f61233883613938565b5f838152601660205260408082205481516374fd6c7760e11b815282516001600160a01b0390921693849363e9fad8ee936004808501949293919283900301908290875af115801561238c573d5f5f3e3d5ffd5b505050506040513d601f19601f820116820180604052508101906123b09190615ba4565b604080518781526020810184905290810182905291945092507f2517b7e41eaf162b9731c79972aca29f825cb18a4db86c56de7e89edb381d72b9060600160405180910390a150915091565b5f816001600160a01b03166124108461223d565b6001600160a01b0316148061246457505f838152601c60205260408120906124378561223d565b6001600160a01b03908116825260208083019390935260409182015f9081209186168152925290205460ff165b9392505050565b61247361390b565b6001600160a01b039091165f90815260186020526040902055565b600f546001600160a01b03908116908316036124d557335f908152601b602090815260408083206001600160a01b03861684529091529020805460ff191682151790555050565b335f908152601b602090815260408083206001600160a01b03861684529091529020805482151560ff199091161790555050565b61122f338383613e1a565b61251c61390b565b5f816001600160a01b031663492f4e186040518163ffffffff1660e01b8152600401602060405180830381865afa158015612559573d5f5f3e3d5ffd5b505050506040513d601f19601f8201168201806040525081019061257d9190615c36565b61ffff165f90815260116020908152604080832080546001600160a01b0319166001600160a01b0396909616959095179094556012905291909120805460ff1916905550565b60408051600480825260a0820190925260609182919060208201608080368337505060408051600480825260a082019092529294509050602082016080803683370190505090506126138461223d565b825f815181106126255761262561546f565b60200260200101906001600160a01b031690816001600160a01b03168152505061264e84611b9c565b826001815181106126615761266161546f565b6001600160a01b039283166020918202929092010152600e541661269057600c546001600160a01b031661269d565b600e546001600160a01b03165b826002815181106126b0576126b061546f565b6001600160a01b039283166020918202929092010152600c548351911690839060039081106126e1576126e161546f565b6001600160a01b0390921660209283029190910190910152600a5461271090819061271790600160a01b900461ffff1686615522565b6127219190615539565b825f815181106127335761273361546f565b6020908102919091010152600a54819061275890600160b01b900461ffff1686615522565b6127629190615539565b826001815181106127755761277561546f565b6020908102919091010152600a54819061279a90600160c01b900461ffff1686615522565b6127a49190615539565b826002815181106127b7576127b761546f565b602002602001018181525050816002815181106127d6576127d661546f565b6020026020010151826001815181106127f1576127f161546f565b6020026020010151835f8151811061280b5761280b61546f565b602002602001015161281d9190615bc6565b6128279190615bc6565b6128319085615bf2565b826003815181106128445761284461546f565b602002602001018181525050509250929050565b61122f338383613eb8565b61286b61390b565b61271061ffff8216106128915760405163c9732f9760e01b815260040160405180910390fd5b600a805461ffff191661ffff92909216919091179055565b5f5f5a5f858152601660205260409020549091506001600160a01b03166128cf81613f65565b806001600160a01b0316633d1f89026040518163ffffffff1660e01b81526004016020604051808303815f875af192505050801561292a575060408051601f3d908101601f1916820190925261292791810190615c51565b60015b612936575f9250612939565b92505b82156129be575f3a5a61294c9085615bf2565b6129569190615522565b9050612963868287613fe4565b61296c8661406f565b6040805187815260ff60208201526001600160a01b03871681830152851515606082015290517f728e60bec920c5a528246fdd7c4d3ec6f0ec45bca3edf44894b3dd71d5ce7d539181900360800190a1505b505092915050565b5f60606129d161390b565b846001600160a01b031684846040516129ea9190615c6c565b5f6040518083038185875af1925050503d805f8114612a24576040519150601f19603f3d011682016040523d82523d5f602084013e612a29565b606091505b5090969095509350505050565b612a418484846114ae565b61153633858585856140c4565b600d5460405163bde855e560e01b81526060916001600160a01b03169063bde855e590612a7f908590600401614959565b5f60405180830381865afa158015612a99573d5f5f3e3d5ffd5b505050506040513d5f823e601f3d908101601f191682016040526111f79190810190615c82565b5f5f5a5f868152601660205260409020549091506001600160a01b0316612ae681613f65565b60ff8516612b5857806001600160a01b0316636d145ec56040518163ffffffff1660e01b815260040160408051808303815f875af1925050508015612b48575060408051601f3d908101601f19168201909252612b4591810190615ba4565b60015b15612c9957505060019250612c99565b5f1960ff861601612bba57806001600160a01b031663bd2ad6bf6040518163ffffffff1660e01b815260040160408051808303815f875af1925050508015612b48575060408051601f3d908101601f19168201909252612b4591810190615ba4565b60011960ff861601612c1d57806001600160a01b031663cdc6d97c6040518163ffffffff1660e01b815260040160408051808303815f875af1925050508015612b48575060408051601f3d908101601f19168201909252612b4591810190615ba4565b60021960ff861601612c8057806001600160a01b0316632b6010a76040518163ffffffff1660e01b815260040160408051808303815f875af1925050508015612b48575060408051601f3d908101601f19168201909252612b4591810190615ba4565b6040516393c19f6160e01b815260040160405180910390fd5b8215612d20575f3a5a612cac9085615bf2565b612cb69190615522565b9050612cc3878287613fe4565b612ccc8761406f565b6040805188815260ff881660208201526001600160a01b03871681830152851515606082015290517f728e60bec920c5a528246fdd7c4d3ec6f0ec45bca3edf44894b3dd71d5ce7d539181900360800190a1505b50509392505050565b612d3161390b565b61271061ffff851611612d5757604051636edcc52360e01b815260040160405180910390fd5b600a805465ffffffff000019166201000061ffff9687160265ffff00000000191617640100000000948616949094029390931769ffffffff0000000000001916600160301b9285169290920269ffff0000000000000000191691909117600160401b9190931602919091179055565b6060612dd1826138c6565b50600d5460405163c87b56dd60e01b8152600481018490526001600160a01b039091169063c87b56dd906024015f60405180830381865afa158015612e18573d5f5f3e3d5ffd5b505050506040513d5f823e601f3d908101601f191682016040526111f79190810190615c05565b612e4761390b565b6127108183612e5686886154ee565b612e6091906154ee565b612e6a91906154ee565b61ffff1614612e8c57604051636edcc52360e01b815260040160405180910390fd5b600a805463ffffffff60501b1916600160501b61ffff9687160261ffff60601b191617600160601b948616949094029390931763ffffffff60701b1916600160701b9285169290920261ffff60801b191691909117600160801b9190931602919091179055565b5f5f612efe846122ba565b1115612faf57600f546001600160a01b0390811690831603612f6657816001600160a01b0316836001600160a01b03161480612f5f57506001600160a01b038084165f908152601b602090815260408083209386168352929052205460ff16155b90506111f7565b816001600160a01b0316836001600160a01b03161480612f5f5750506001600160a01b038281165f908152601b602090815260408083209385168352929052205460ff166111f7565b505f6111f7565b5f5f5f5f5f5f612fc5886135ef565b5f8e8152601660209081526040808320548151634a64d67d60e01b81529151999e50979c50959a509398509096506001600160a01b03909416948593634a64d67d93600480830194509092918290030181865afa158015613028573d5f5f3e3d5ffd5b505050506040513d601f19601f8201168201806040525081019061304c9190615483565b90506130636001600160a01b038216333086613a45565b5f61306d8b611b9c565b90508960135f8d81526020019081526020015f205f6101000a8154816001600160a01b0302191690836001600160a01b031602179055508360145f8d81526020019081526020015f20819055505f8811156130e3576130d66001600160a01b038316828a6141ea565b6130e0888a615bc6565b98505b8615613113576131066130f58c61223d565b6001600160a01b03841690896141ea565b613110878a615bc6565b98505b851561314057600e54613133906001600160a01b038481169116886141ea565b61313d868a615bc6565b98505b841561316d57600c54613160906001600160a01b038481169116876141ea565b61316a858a615bc6565b98505b604080518c81526001600160a01b038c1660208201529081018a90527f575a2f348e9def4ded8325aa42a4bf27e87e9856952e713a777c8adb7ee9d43c9060600160405180910390a1505050505050505092915050565b60408051600480825260a0820190925260609182919060208201608080368337505060408051600480825260a082019092529294509050602082016080803683370190505090506127106132178661223d565b835f815181106132295761322961546f565b6001600160a01b039283166020918202929092010152600e541661325857600c546001600160a01b0316613265565b600e546001600160a01b03165b836001815181106132785761327861546f565b60200260200101906001600160a01b031690816001600160a01b0316815250506132a186611b9c565b836002815181106132b4576132b461546f565b60200260200101906001600160a01b031690816001600160a01b03168152505083836003815181106132e8576132e861546f565b6001600160a01b0390921660209283029190910190910152600a5461ffff8083169161331d91600160701b9091041687615522565b6133279190615539565b825f815181106133395761333961546f565b6020908102919091010152600a5461ffff8083169161336191600160601b9091041687615522565b61336b9190615539565b8260018151811061337e5761337e61546f565b6020908102919091010152600a5461ffff808316916133a691600160801b9091041687615522565b6133b09190615539565b826002815181106133c3576133c361546f565b602002602001018181525050816002815181106133e2576133e261546f565b6020026020010151826001815181106133fd576133fd61546f565b6020026020010151835f815181106134175761341761546f565b60200260200101516134299190615bc6565b6134339190615bc6565b61343d9086615bf2565b826003815181106134505761345061546f565b60200260200101818152505050935093915050565b5f61347083336123fc565b61348d57604051633cc50b4560e01b815260040160405180910390fd5b6124648383613c84565b5f6134a184613938565b5f848152601660209081526040808320548151630217a4b760e41b815291516001600160a01b039091169392849263217a4b7092600480830193928290030181865afa1580156134f3573d5f5f3e3d5ffd5b505050506040513d601f19601f820116820180604052508101906135179190615483565b60405163f3fef3a360e01b81526001600160a01b038781166004830152602482018790529192509083169063f3fef3a3906044016020604051808303815f875af1158015613567573d5f5f3e3d5ffd5b505050506040513d601f19601f8201168201806040525081019061358b919061549e565b92507ffeb2000dca3e617cd6f3a8bbb63014bb54a124aac6ccbf73ee7229b4cd01f1208686838760405161149d94939291906154b5565b6001600160a01b039182165f90815260056020908152604080832093909416825291909152205460ff1690565b5f818152601460205260408120548190819081908190819061271081156136d757600a5481906136299062010000900461ffff1684615522565b6136339190615539565b600a54909850819061365090600160301b900461ffff1684615522565b61365a9190615539565b600a54909750819061367890640100000000900461ffff1684615522565b6136829190615539565b600a54909650819061369f90600160401b900461ffff1684615522565b6136a99190615539565b94508193508486888a6136bc9190615bc6565b6136c69190615bc6565b6136d09190615bc6565b925061376c565b600a545f8a8152601660209081526040918290205482516367d2479f60e11b81529251859461ffff16936001600160a01b039092169263cfa48f3e92600480820193918290030181865afa158015613731573d5f5f3e3d5ffd5b505050506040513d601f19601f82011682018060405250810190613755919061549e565b61375f9190615522565b6137699190615539565b92505b505091939550919395565b5f612464838333612ac0565b61378b61390b565b600d80546001600160a01b0319166001600160a01b0383169081179091556040805163154982b960e21b815290513092916355260ae49160048083019260209291908290030181865afa1580156137e4573d5f5f3e3d5ffd5b505050506040513d601f19601f820116820180604052508101906138089190615483565b6001600160a01b03161461381a575f5ffd5b50565b600c546001600160a01b0316330361384f57600b80546001600160a01b0383166001600160a01b031990911617905550565b600b546001600160a01b0316330361388957600b8054600c80546001600160a01b03199081166001600160a01b0384161790915516905550565b6040516330cd747160e01b815260040160405180910390fd5b5f6001600160e01b0319821663780e9d6360e01b14806111f757506111f78261421b565b5f818152600260205260408120546001600160a01b0316806111f757604051637e27328960e01b8152600481018490526024016114d3565b611a5b838383600161426a565b600c546001600160a01b03163314613936576040516330cd747160e01b815260040160405180910390fd5b565b6139418161223d565b6001600160a01b0316336001600160a01b03161461381a57604051636a6bc9c560e11b815260040160405180910390fd5b5f5f61397f85858561436e565b90506001600160a01b0381166139db576139d684600880545f838152600960205260408120829055600182018355919091527ff3f7a9fe364faab93b216da50a3214154f22a0a2b415b23a84c8169e8b636ee30155565b6139fe565b846001600160a01b0316816001600160a01b0316146139fe576139fe8185614460565b6001600160a01b038516613a1a57613a15846144dd565b613a3d565b846001600160a01b0316816001600160a01b031614613a3d57613a3d8585614584565b949350505050565b6040516001600160a01b0384811660248301528381166044830152606482018390526115369186918216906323b872dd906084015b604051602081830303815290604052915060e01b6020820180516001600160e01b0383818316178352505050506145d2565b604080516001600160a01b038416602482015260448082018490528251808303909101815260649091019091526020810180516001600160e01b031663095ea7b360e01b179052613afd848261463e565b611536576040516001600160a01b0384811660248301525f6044830152613b3191869182169063095ea7b390606401613a7a565b61153684826145d2565b60105461ffff84165f90815260116020526040808220549051634a217eb160e11b8152600481018490526001600160a01b038681166024830152858116604483015290911690639442fd62906064016020604051808303815f875af1158015613ba6573d5f5f3e3d5ffd5b505050506040513d601f19601f82011682018060405250810190613bca9190615483565b5f83815260156020908152604080832080546001600160a01b031990811633179091556016835281842080546001600160a01b0387169216821790558352601790915290208390559050613c1e8683614687565b60108054905f613c2d83615d13565b9091555050604080518381526001600160a01b03868116602083015285168183015290517f3794f7f7a2011a8e813b6d89dbacb3d42f6810b632e735dc2eab8628afdb77d99181900360600190a150949350505050565b5f828152601660209081526040808320548151630217a4b760e41b815291516001600160a01b03909116928492849263217a4b70926004808401939192918290030181865afa158015613cd9573d5f5f3e3d5ffd5b505050506040513d601f19601f82011682018060405250810190613cfd9190615483565b9050613d0981856146e8565b613d138185614720565b613d286001600160a01b038216333087613a45565b613d3c6001600160a01b0382168386613aac565b60405163b6b55f2560e01b8152600481018590526001600160a01b0383169063b6b55f25906024016020604051808303815f875af1158015613d80573d5f5f3e3d5ffd5b505050506040513d601f19601f82011682018060405250810190613da4919061549e565b92507f2c0f148b435140de488c1b34647f1511c646f7077e87007bacf22ef9977a16d885838386604051613ddb94939291906154b5565b60405180910390a1505092915050565b613dfd613df78261223d565b33612ef3565b61381a57604051630d9ab13f60e01b815260040160405180910390fd5b6001600160a01b038216613e4c57604051630b61174360e31b81526001600160a01b03831660048201526024016114d3565b6001600160a01b038381165f81815260056020908152604080832094871680845294825291829020805460ff191686151590811790915591519182527f17307eab39ab6107e8899845ad3d59bd9653f200f220920489ca2b5937696c31910160405180910390a3505050565b6001600160a01b038216613ee157604051633250574960e11b81525f60048201526024016114d3565b5f613eed83835f613972565b90506001600160a01b038116613f1957604051637e27328960e01b8152600481018390526024016114d3565b836001600160a01b0316816001600160a01b031614611536576040516364283d7b60e01b81526001600160a01b03808616600483015260248201849052821660448201526064016114d3565b806001600160a01b031663cfa48f3e6040518163ffffffff1660e01b8152600401602060405180830381865afa158015613fa1573d5f5f3e3d5ffd5b505050506040513d601f19601f82011682018060405250810190613fc5919061549e565b5f0361381a57604051632a81ca8560e11b815260040160405180910390fd5b5f5f613ff18585856131c4565b600e546040516307233fbf60e51b81529294509092506001600160a01b03169063e467f7e09061402790859085906004016151e5565b6020604051808303815f875af1158015614043573d5f5f3e3d5ffd5b505050506040513d601f19601f82011682018060405250810190614067919061549e565b505050505050565b600f546001600160a01b0316330361381a576001601a5f61408f8461223d565b6001600160a01b03166001600160a01b031681526020019081526020015f205f8282546140bc9190615bc6565b909155505050565b6001600160a01b0383163b156141e357604051630a85bd0160e11b81526001600160a01b0384169063150b7a0290614106908890889087908790600401615d2b565b6020604051808303815f875af1925050508015614140575060408051601f3d908101601f1916820190925261413d91810190615d5d565b60015b6141a7573d80801561416d576040519150601f19603f3d011682016040523d82523d5f602084013e614172565b606091505b5080515f0361419f57604051633250574960e11b81526001600160a01b03851660048201526024016114d3565b805181602001fd5b6001600160e01b03198116630a85bd0160e11b1461406757604051633250574960e11b81526001600160a01b03851660048201526024016114d3565b5050505050565b6040516001600160a01b03838116602483015260448201839052611a5b91859182169063a9059cbb90606401613a7a565b5f6001600160e01b031982166380ac58cd60e01b148061424b57506001600160e01b03198216635b5e139f60e01b145b806111f757506301ffc9a760e01b6001600160e01b03198316146111f7565b808061427e57506001600160a01b03821615155b1561433f575f61428d846138c6565b90506001600160a01b038316158015906142b95750826001600160a01b0316816001600160a01b031614155b80156142cc57506142ca81846135c2565b155b156142f55760405163a9fbf51f60e01b81526001600160a01b03841660048201526024016114d3565b811561433d5783856001600160a01b0316826001600160a01b03167f8c5be1e5ebec7d5bd14f71427d1e84f3dd0314c0f7b2291e5b200ac8c7c3b92560405160405180910390a45b505b50505f90815260046020526040902080546001600160a01b0319166001600160a01b0392909216919091179055565b5f828152600260205260408120546001600160a01b039081169083161561439a5761439a81848661477a565b6001600160a01b038116156143d4576143b55f855f5f61426a565b6001600160a01b0381165f90815260036020526040902080545f190190555b6001600160a01b03851615614402576001600160a01b0385165f908152600360205260409020805460010190555b5f8481526002602052604080822080546001600160a01b0319166001600160a01b0389811691821790925591518793918516917fddf252ad1be2c89b69c2b068fc378daa952ba7f163c4a11628f55a4df523b3ef91a4949350505050565b5f61446a836122ba565b5f838152600760209081526040808320546001600160a01b03881684526006909252909120919250908183146144bf575f83815260208281526040808320548584528184208190558352600790915290208290555b5f938452600760209081526040808620869055938552525081205550565b6008545f906144ee90600190615bf2565b5f83815260096020526040812054600880549394509092849081106145155761451561546f565b905f5260205f200154905080600883815481106145345761453461546f565b5f91825260208083209091019290925582815260099091526040808220849055858252812055600880548061456b5761456b615d78565b600190038181905f5260205f20015f9055905550505050565b5f6001614590846122ba565b61459a9190615bf2565b6001600160a01b039093165f908152600660209081526040808320868452825280832085905593825260079052919091209190915550565b5f5f60205f8451602086015f885af1806145f1576040513d5f823e3d81fd5b50505f513d91508115614608578060011415614615565b6001600160a01b0384163b155b1561153657604051635274afe760e01b81526001600160a01b03851660048201526024016114d3565b5f5f5f5f60205f8651602088015f8a5af192503d91505f51905082801561467d5750811561466f578060011461467d565b5f866001600160a01b03163b115b9695505050505050565b6001600160a01b0382166146b057604051633250574960e11b81525f60048201526024016114d3565b5f6146bc83835f613972565b90506001600160a01b03811615611a5b576040516339e3563760e11b81525f60048201526024016114d3565b6001600160a01b0382165f9081526018602052604090205481101561122f5760405163fafe179b60e01b815260040160405180910390fd5b6001600160a01b0382165f908152601960205260409020541580159061475c57506001600160a01b0382165f9081526019602052604090205481115b1561122f57604051633bc9ae0960e01b815260040160405180910390fd5b6147858383836147de565b611a5b576001600160a01b0383166147b357604051637e27328960e01b8152600481018290526024016114d3565b60405163177e802f60e01b81526001600160a01b0383166004820152602481018290526044016114d3565b5f6001600160a01b03831615801590613a3d5750826001600160a01b0316846001600160a01b03161480614817575061481784846135c2565b80613a3d5750505f908152600460205260409020546001600160a01b03908116911614919050565b6001600160e01b03198116811461381a575f5ffd5b5f60208284031215614864575f5ffd5b81356124648161483f565b5f81518084528060208401602086015e5f602082860101526020601f19601f83011685010191505092915050565b602081525f612464602083018461486f565b5f602082840312156148bf575f5ffd5b5035919050565b6001600160a01b038116811461381a575f5ffd5b5f5f604083850312156148eb575f5ffd5b82356148f6816148c6565b946020939093013593505050565b5f60208284031215614914575f5ffd5b8135612464816148c6565b5f8151808452602084019350602083015f5b8281101561494f578151865260209586019590910190600101614931565b5093949350505050565b602081525f612464602083018461491f565b5f5f5f6060848603121561497d575f5ffd5b8335614988816148c6565b92506020840135614998816148c6565b915060408401356149a8816148c6565b809150509250925092565b5f5f5f606084860312156149c5575f5ffd5b8335925060208401356149d7816148c6565b929592945050506040919091013590565b5f5f5f606084860312156149fa575f5ffd5b8335614a05816148c6565b925060208401356149d7816148c6565b61ffff8116811461381a575f5ffd5b5f5f5f5f60808587031215614a37575f5ffd5b8435614a4281614a15565b93506020850135614a5281614a15565b92506040850135614a6281614a15565b91506060850135614a7281614a15565b939692955090935050565b5f5f5f60608486031215614a8f575f5ffd5b505081359360208301359350604090920135919050565b5f5f60408385031215614ab7575f5ffd5b50508035926020909101359150565b634e487b7160e01b5f52604160045260245ffd5b60405161010081016001600160401b0381118282101715614afd57614afd614ac6565b60405290565b60405160e081016001600160401b0381118282101715614afd57614afd614ac6565b60405161016081016001600160401b0381118282101715614afd57614afd614ac6565b60405161036081016001600160401b0381118282101715614afd57614afd614ac6565b604051601f8201601f191681016001600160401b0381118282101715614b9357614b93614ac6565b604052919050565b5f6001600160401b03821115614bb357614bb3614ac6565b5060051b60200190565b5f60208284031215614bcd575f5ffd5b81356001600160401b03811115614be2575f5ffd5b8201601f81018413614bf2575f5ffd5b8035614c05614c0082614b9b565b614b6b565b8082825260208201915060208360051b850101925086831115614c26575f5ffd5b6020840193505b8284101561467d578335825260209384019390910190614c2d565b60ff815116825260ff602082015116602083015260408101516040830152606081015160608301526080810151608083015260a081015160a083015260c081015160c083015260e081015160e08301525050565b614ca7828251614c48565b6020810151611a5b610100840182614c48565b5f602082016020835280845180835260408501915060408160051b8601019250602086015f5b8281101561500f57603f19878603018452815180518652602081015160208701526040810151614d1b60408801826001600160a01b03169052565b506060810151614d2e6060880182614c9c565b50608081810151805160ff9081166102608a01526020808301519091166102808a01526040808301516102a08b015260608301516102c08b0152928201516102e08a015260a0808301516103008b015260c0928301516103208b015284015180516103408b0152908101516103608a0152909101516103808801528101516001600160a01b039081166103a088015260e082015181166103c088015261010082015181166103e08801526101208201518116610400880152610140820151166104208701526101608101516109206104408801819052614e109088018261486f565b9050610180820151878203610460890152614e2b828261486f565b9150506101a0820151878203610480890152614e47828261486f565b9150506101c0820151614e606104a089018260ff169052565b506101e082015160ff9081166104c089015261020083015181166104e0890152610220830151166105008801526102408201516105208801526102608201516105408801526102808201516105608801526102a08201516105808801526102c082015180516105a08901526020808201516105c08a01526040808301516105e08b01526060928301516106008b01526102e085015180516106208c0152808301516106408c0152808201516106608c01528301516106808b015261030085015180516106a08c0152808301516106c08c01528101516106e08b015261032085015180516107008c0152808301516107208c0152808201516107408c0152808401516107608c01526080808201516107808d015260a0808301516107a08e015260c08301516107c08e015260e08301516107e08e01526101008301516108008e01526101208301516108208e0152610140909201516108408d01526103409096015180516108608d0152808401516108808d0152918201516108a08c0152928101516108c08b0152938401516108e08a015292015161090090970196909652938401939190910190600101614ce0565b50929695505050505050565b5f5f5f5f6080858703121561502e575f5ffd5b843561503981614a15565b93506020850135615049816148c6565b92506040850135615059816148c6565b9396929550929360600135925050565b801515811461381a575f5ffd5b5f5f60408385031215615087575f5ffd5b823561509281614a15565b915060208301356150a281615069565b809150509250929050565b5f5f5f5f5f60a086880312156150c1575f5ffd5b85356150cc816148c6565b945060208601356150dc81614a15565b935060408601356150ec816148c6565b925060608601356150fc816148c6565b949793965091946080013592915050565b5f5f5f6060848603121561511f575f5ffd5b833592506020840135615131816148c6565b915060408401356149a881615069565b60ff8116811461381a575f5ffd5b5f5f5f5f60808587031215615162575f5ffd5b8435935060208501359250604085013561517b81615141565b91506060850135614a7281615141565b5f6020828403121561519b575f5ffd5b813561246481614a15565b5f5f604083850312156151b7575f5ffd5b8235915060208301356150a2816148c6565b5f5f604083850312156151da575f5ffd5b8235615092816148c6565b604080825283519082018190525f9060208501906060840190835b818110156152275783516001600160a01b0316835260209384019390920191600101615200565b5050838103602085015261467d818661491f565b5f6001600160401b0382111561525357615253614ac6565b50601f01601f191660200190565b5f82601f830112615270575f5ffd5b813561527e614c008261523b565b818152846020838601011115615292575f5ffd5b816020850160208301375f918101602001919091529392505050565b5f5f5f606084860312156152c0575f5ffd5b83356152cb816148c6565b92506020840135915060408401356001600160401b038111156152ec575f5ffd5b6152f886828701615261565b9150509250925092565b8215158152604060208201525f613a3d604083018461486f565b5f5f5f5f6080858703121561532f575f5ffd5b843561533a816148c6565b9350602085013561534a816148c6565b92506040850135915060608501356001600160401b0381111561536b575f5ffd5b61537787828801615261565b91505092959194509250565b602080825282518282018190525f918401906040840190835b818110156153c6576153af838551614c9c565b60209390930192610200929092019160010161539c565b509095945050505050565b5f5f5f606084860312156153e3575f5ffd5b83359250602084013561499881615141565b5f5f60408385031215615406575f5ffd5b8235615411816148c6565b915060208301356150a2816148c6565b5f5f5f60608486031215615433575f5ffd5b833592506020840135915060408401356149a8816148c6565b5f5f6040838503121561545d575f5ffd5b8235915060208301356150a281615141565b634e487b7160e01b5f52603260045260245ffd5b5f60208284031215615493575f5ffd5b8151612464816148c6565b5f602082840312156154ae575f5ffd5b5051919050565b9384526001600160a01b03928316602085015291166040830152606082015260800190565b634e487b7160e01b5f52601160045260245ffd5b61ffff81811683821601908111156111f7576111f76154da565b61ffff82811682821603908111156111f7576111f76154da565b80820281158282048414176111f7576111f76154da565b5f8261555357634e487b7160e01b5f52601260045260245ffd5b500490565b8051611bc1816148c6565b8051611bc181615141565b5f610100828403121561557f575f5ffd5b615587614ada565b9050815161559481615141565b81526155a260208301615563565b602082015260408281015190820152606080830151908201526080808301519082015260a0808301519082015260c0808301519082015260e09182015191810191909152919050565b5f61020082840312156155fc575f5ffd5b604080519081016001600160401b038111828210171561561e5761561e614ac6565b60405290508061562e848461556e565b815261563e84610100850161556e565b60208201525092915050565b5f60e0828403121561565a575f5ffd5b615662614b03565b9050815161566f81615141565b8152602082015161567f81615141565b602082015260408281015190820152606080830151908201526080808301519082015260a0808301519082015260c09182015191810191909152919050565b5f606082840312156156ce575f5ffd5b604051606081016001600160401b03811182821017156156f0576156f0614ac6565b60409081528351825260208085015190830152928301519281019290925250919050565b5f82601f830112615723575f5ffd5b8151615731614c008261523b565b818152846020838601011115615745575f5ffd5b8160208501602083015e5f918101602001919091529392505050565b5f60808284031215615771575f5ffd5b604051608081016001600160401b038111828210171561579357615793614ac6565b6040908152835182526020808501519083015283810151908201526060928301519281019290925250919050565b5f61016082840312156157d2575f5ffd5b6157da614b25565b825181526020808401519082015260408084015190820152606080840151908201526080808401519082015260a0808401519082015260c0808401519082015260e0808401519082015261010080840151908201526101208084015190820152610140928301519281019290925250919050565b5f60c0828403121561585e575f5ffd5b60405160c081016001600160401b038111828210171561588057615880614ac6565b604090815283518252602080850151908301528381015190820152606080840151908201526080808401519082015260a0928301519281019290925250919050565b5f602082840312156158d2575f5ffd5b81516001600160401b038111156158e7575f5ffd5b8201601f810184136158f7575f5ffd5b8051615905614c0082614b9b565b8082825260208201915060208360051b850101925086831115615926575f5ffd5b602084015b83811015615b995780516001600160401b03811115615948575f5ffd5b8501610920818a03601f1901121561595e575f5ffd5b615966614b48565b602082810151825260408301519082015261598360608301615558565b60408201526159958a608084016155eb565b60608201526159a88a610280840161564a565b60808201526159bb8a61036084016156be565b60a08201526159cd6103c08301615558565b60c08201526159df6103e08301615558565b60e08201526159f16104008301615558565b610100820152615a046104208301615558565b610120820152615a176104408301615558565b6101408201526104608201516001600160401b03811115615a36575f5ffd5b615a458b602083860101615714565b610160830152506104808201516001600160401b03811115615a65575f5ffd5b615a748b602083860101615714565b610180830152506104a08201516001600160401b03811115615a94575f5ffd5b615aa38b602083860101615714565b6101a083015250615ab76104c08301615563565b6101c0820152615aca6104e08301615563565b6101e0820152615add6105008301615563565b610200820152615af06105208301615563565b6102208201526105408201516102408201526105608201516102608201526105808201516102808201526105a08201516102a0820152615b348a6105c08401615761565b6102c0820152615b488a6106408401615761565b6102e0820152615b5c8a6106c084016156be565b610300820152615b708a61072084016157c1565b610320820152615b848a610880840161584e565b6103408201528452506020928301920161592b565b509695505050505050565b5f5f60408385031215615bb5575f5ffd5b505080516020909101519092909150565b808201808211156111f7576111f76154da565b60ff81811683821601908111156111f7576111f76154da565b818103818111156111f7576111f76154da565b5f60208284031215615c15575f5ffd5b81516001600160401b03811115615c2a575f5ffd5b613a3d84828501615714565b5f60208284031215615c46575f5ffd5b815161246481614a15565b5f60208284031215615c61575f5ffd5b815161246481615069565b5f82518060208501845e5f920191825250919050565b5f60208284031215615c92575f5ffd5b81516001600160401b03811115615ca7575f5ffd5b8201601f81018413615cb7575f5ffd5b8051615cc5614c0082614b9b565b8082825260208201915060208360091b850101925086831115615ce6575f5ffd5b6020840193505b8284101561467d57615cff87856155eb565b825260208201915061020084019350615ced565b5f60018201615d2457615d246154da565b5060010190565b6001600160a01b03858116825284166020820152604081018390526080606082018190525f9061467d9083018461486f565b5f60208284031215615d6d575f5ffd5b81516124648161483f565b634e487b7160e01b5f52603160045260245ffdfea2646970667358221220bef92643d4181c207fd04ad266c872617eba3ad0a5069b1a719c8facc1ee44b164736f6c634300081c0033",
    "linkReferences": {}
  },
  "methodIdentifiers": {
    "DENOMINATOR()": "918f8674",
    "approve(address,uint256)": "095ea7b3",
    "balanceOf(address)": "70a08231",
    "baseURI()": "6c0360eb",
    "buyRoyalty(uint256)": "755b9162",
    "buyRoyaltyTo(uint256,address)": "dc49b190",
    "calcGRETHShares(uint256,uint256,address)": "dec39715",
    "calcRoyaltyPriceShares(uint256)": "ef38e4e3",
    "calcRoyaltyShares(uint256,uint256)": "a8c9d304",
    "deposit(uint256,uint256)": "e2bbb158",
    "deposit2(uint256,uint256,uint256)": "2809e226",
    "deposit3(uint256,uint256)": "37477bce",
    "execute(address,uint256,bytes)": "b61d27f6",
    "exit(uint256)": "7f8661a1",
    "getApproved(uint256)": "081812fc",
    "getPoolIdsOf(address)": "0cccd888",
    "getPoolNFTInfosBy(uint256[])": "36e68f54",
    "getPositionsBy(uint256[])": "bde855e5",
    "getRoyaltyReceiver(uint256)": "5b71ecb5",
    "grETH()": "a93d57a1",
    "grethGrinderShareNumerator()": "04f6430e",
    "grethPoolOwnerShareNumerator()": "1927c4ea",
    "grethReserveShareNumerator()": "ce339395",
    "grethRoyaltyReceiverShareNumerator()": "b3628932",
    "grind(uint256)": "09dbb6ea",
    "grindOp(uint256,uint8)": "f059deb2",
    "grindOpTo(uint256,uint8,address)": "c0b7b578",
    "grindTo(uint256,address)": "b2d5cca7",
    "grinderAI()": "2980b2ff",
    "init(address,address,address)": "184b9559",
    "isAgentOf(address,address)": "cdb0d023",
    "isApprovedForAll(address,address)": "e985e9c5",
    "isDepositorOf(uint256,address)": "849784d4",
    "isStrategyStopped(uint16)": "6db47de9",
    "maxDeposit(address)": "402d267d",
    "minDeposit(address)": "3c29f839",
    "mint(uint16,address,address,uint256)": "37566d54",
    "mintTo(address,uint16,address,address,uint256)": "592ae17f",
    "minter(uint256)": "ac8d856c",
    "name()": "06fdde03",
    "owner()": "8da5cb5b",
    "ownerOf(uint256)": "6352211e",
    "pendingOwner()": "e30c3978",
    "poolIds(address)": "d4175be2",
    "poolOwnerShareNumerator()": "e60ed1f3",
    "pools(uint256)": "ac4afa38",
    "poolsNFTLens()": "8e22e7c3",
    "rebalance(uint256,uint256,uint8,uint8)": "5db44744",
    "royaltyInfo(uint256,uint256)": "2a55205a",
    "royaltyNumerator()": "2bb80474",
    "royaltyOwnerShareNumerator()": "bfe121e5",
    "royaltyPrice(uint256)": "26ca015a",
    "royaltyPriceCompensationShareNumerator()": "352333f2",
    "royaltyPriceInitNumerator()": "2a67fe0b",
    "royaltyPriceOwnerShareNumerator()": "36b02baf",
    "royaltyPricePoolOwnerShareNumerator()": "4f99f04a",
    "royaltyPriceReserveShareNumerator()": "f9298928",
    "royaltyReceiver(uint256)": "5cd2dd5e",
    "royaltyReceiverShareNumerator()": "053604ed",
    "royaltyReserveShareNumerator()": "6d3a87db",
    "safeTransferFrom(address,address,uint256)": "42842e0e",
    "safeTransferFrom(address,address,uint256,bytes)": "b88d4fde",
    "setAgent(address,bool)": "97d8c676",
    "setApprovalForAll(address,bool)": "a22cb465",
    "setDepositor(uint256,address,bool)": "5d2d1920",
    "setGRETHShares(uint16,uint16,uint16,uint16)": "ca05262b",
    "setMaxDeposit(address,uint256)": "73f65f8a",
    "setMinDeposit(address,uint256)": "912d1a86",
    "setPoolsNFTLens(address)": "f2602720",
    "setRoyaltyPriceInitNumerator(uint16)": "ab6e9690",
    "setRoyaltyPriceShares(uint16,uint16,uint16,uint16)": "c0b929e6",
    "setRoyaltyShares(uint16,uint16,uint16,uint16)": "27f8cabb",
    "setStrategyFactory(address)": "a5352bfd",
    "setStrategyStopped(uint16,bool)": "55b2d01e",
    "spentGrinds(address)": "b9f86ad1",
    "strategyFactory(uint16)": "eb9b7986",
    "supportsInterface(bytes4)": "01ffc9a7",
    "symbol()": "95d89b41",
    "tokenByIndex(uint256)": "4f6ccce7",
    "tokenOfOwnerByIndex(address,uint256)": "2f745c59",
    "tokenURI(uint256)": "c87b56dd",
    "totalPools()": "ab3c7e52",
    "totalSupply()": "18160ddd",
    "transfer(address,uint256)": "a9059cbb",
    "transferFrom(address,address,uint256)": "23b872dd",
    "transferOwnership(address)": "f2fde38b",
    "withdraw(uint256,address,uint256)": "e63697c8",
    "withdraw2(uint256,address,uint256)": "19fc5fec"
  },
  "id": 97
}